{
	"contracts/artifacts/AccessModifiers.sol": {
		"AccessModifiers": {
			"abi": [
				{
					"inputs": [
						{
							"internalType": "uint256",
							"name": "a",
							"type": "uint256"
						},
						{
							"internalType": "uint256",
							"name": "b",
							"type": "uint256"
						}
					],
					"name": "add",
					"outputs": [
						{
							"internalType": "uint256",
							"name": "",
							"type": "uint256"
						}
					],
					"stateMutability": "pure",
					"type": "function"
				},
				{
					"inputs": [
						{
							"internalType": "uint256",
							"name": "x",
							"type": "uint256"
						},
						{
							"internalType": "uint256",
							"name": "y",
							"type": "uint256"
						}
					],
					"name": "doubleSum",
					"outputs": [
						{
							"internalType": "uint256",
							"name": "",
							"type": "uint256"
						}
					],
					"stateMutability": "pure",
					"type": "function"
				},
				{
					"inputs": [],
					"name": "getExternalMethod",
					"outputs": [
						{
							"internalType": "uint256",
							"name": "",
							"type": "uint256"
						}
					],
					"stateMutability": "view",
					"type": "function"
				},
				{
					"inputs": [],
					"name": "getPrivateMethod",
					"outputs": [
						{
							"internalType": "uint256",
							"name": "",
							"type": "uint256"
						}
					],
					"stateMutability": "view",
					"type": "function"
				},
				{
					"inputs": [],
					"name": "getPublicMethod",
					"outputs": [
						{
							"internalType": "uint256",
							"name": "",
							"type": "uint256"
						}
					],
					"stateMutability": "view",
					"type": "function"
				},
				{
					"inputs": [],
					"name": "getReturnMultipleValues",
					"outputs": [
						{
							"internalType": "uint256",
							"name": "",
							"type": "uint256"
						},
						{
							"internalType": "uint256",
							"name": "",
							"type": "uint256"
						}
					],
					"stateMutability": "view",
					"type": "function"
				},
				{
					"inputs": [],
					"name": "publicInteger",
					"outputs": [
						{
							"internalType": "uint256",
							"name": "",
							"type": "uint256"
						}
					],
					"stateMutability": "view",
					"type": "function"
				}
			],
			"devdoc": {
				"kind": "dev",
				"methods": {
					"add(uint256,uint256)": {
						"details": "Pure function: This function does not read from or modify the contract's state. It takes two `uint256` numbers as input parameters and returns their sum.",
						"params": {
							"a": "The first number to add.",
							"b": "The second number to add."
						},
						"returns": {
							"_0": "The sum of `a` and `b`."
						}
					},
					"doubleSum(uint256,uint256)": {
						"details": "Pure function: This function calls another pure function `add` to compute the sum of two numbers and then doubles the result. Since it does not interact with state variables, it is marked as `pure`. Only `pure` functions can call other `pure` functions because they do not modify the state.",
						"params": {
							"x": "The first number to add.",
							"y": "The second number to add."
						},
						"returns": {
							"_0": "The doubled sum of `x` and `y`."
						}
					},
					"getExternalMethod()": {
						"details": "External function: Can only be called from outside the contract. It is not accessible from within this contract using `this.getExternalMethod()`. Returns the value of `publicInteger`."
					},
					"getPrivateMethod()": {
						"details": "Public function: Can be accessed from within the contract, derived contracts, and externally. This function returns the value of the private variable `privateInteger`. Although the variable `privateInteger` is private, the function itself is public, so it can be called from outside the contract."
					},
					"getPublicMethod()": {
						"details": "Public function: Can be accessed from within the contract, derived contracts, and externally. It is a `view` function, meaning it doesn't modify the state, it only reads from it. Returns the value of `publicInteger`."
					},
					"getReturnMultipleValues()": {
						"details": "Public function: Can be accessed from within the contract, derived contracts, and externally. This function is marked as `view` because it does not modify the contract's state; it only reads from it. It returns two values: - The value of `publicInteger` (a public state variable). - The value of `privateInteger` (a private state variable). The function demonstrates how multiple values can be returned from a single function in Solidity."
					}
				},
				"version": 1
			},
			"evm": {
				"assembly": "    /* \"contracts/artifacts/AccessModifiers.sol\":33:3250  contract AccessModifiers {... */\n  mstore(0x40, 0x80)\n    /* \"contracts/artifacts/AccessModifiers.sol\":197:198  1 */\n  0x01\n    /* \"contracts/artifacts/AccessModifiers.sol\":166:198  uint256 public publicInteger = 1 */\n  0x00\n  sstore\n    /* \"contracts/artifacts/AccessModifiers.sol\":379:380  1 */\n  0x01\n    /* \"contracts/artifacts/AccessModifiers.sol\":346:380  uint256 private privateInteger = 1 */\n  dup1\n  sstore\n    /* \"contracts/artifacts/AccessModifiers.sol\":33:3250  contract AccessModifiers {... */\n  callvalue\n  dup1\n  iszero\n  tag_1\n  jumpi\n  0x00\n  dup1\n  revert\ntag_1:\n  pop\n  dataSize(sub_0)\n  dup1\n  dataOffset(sub_0)\n  0x00\n  codecopy\n  0x00\n  return\nstop\n\nsub_0: assembly {\n        /* \"contracts/artifacts/AccessModifiers.sol\":33:3250  contract AccessModifiers {... */\n      mstore(0x40, 0x80)\n      callvalue\n      dup1\n      iszero\n      tag_1\n      jumpi\n      0x00\n      dup1\n      revert\n    tag_1:\n      pop\n      jumpi(tag_2, lt(calldatasize, 0x04))\n      shr(0xe0, calldataload(0x00))\n      dup1\n      0x39cb7ab2\n      gt\n      tag_10\n      jumpi\n      dup1\n      0x39cb7ab2\n      eq\n      tag_6\n      jumpi\n      dup1\n      0x6d189f6c\n      eq\n      tag_7\n      jumpi\n      dup1\n      0x771602f7\n      eq\n      tag_8\n      jumpi\n      dup1\n      0x90d354ff\n      eq\n      tag_9\n      jumpi\n      jump(tag_2)\n    tag_10:\n      dup1\n      0x06db5528\n      eq\n      tag_3\n      jumpi\n      dup1\n      0x14d8ea82\n      eq\n      tag_4\n      jumpi\n      dup1\n      0x286c6cbe\n      eq\n      tag_5\n      jumpi\n    tag_2:\n      0x00\n      dup1\n      revert\n        /* \"contracts/artifacts/AccessModifiers.sol\":3042:3248  function doubleSum(uint256 x, uint256 y) public pure returns (uint256) {... */\n    tag_3:\n      tag_11\n      0x04\n      dup1\n      calldatasize\n      sub\n      dup2\n      add\n      swap1\n      tag_12\n      swap2\n      swap1\n      tag_13\n      jump\t// in\n    tag_12:\n      tag_14\n      jump\t// in\n    tag_11:\n      mload(0x40)\n      tag_15\n      swap2\n      swap1\n      tag_16\n      jump\t// in\n    tag_15:\n      mload(0x40)\n      dup1\n      swap2\n      sub\n      swap1\n      return\n        /* \"contracts/artifacts/AccessModifiers.sol\":166:198  uint256 public publicInteger = 1 */\n    tag_4:\n      tag_17\n      tag_18\n      jump\t// in\n    tag_17:\n      mload(0x40)\n      tag_19\n      swap2\n      swap1\n      tag_16\n      jump\t// in\n    tag_19:\n      mload(0x40)\n      dup1\n      swap2\n      sub\n      swap1\n      return\n        /* \"contracts/artifacts/AccessModifiers.sol\":1420:1518  function getExternalMethod() external view returns (uint256) {... */\n    tag_5:\n      tag_20\n      tag_21\n      jump\t// in\n    tag_20:\n      mload(0x40)\n      tag_22\n      swap2\n      swap1\n      tag_16\n      jump\t// in\n    tag_22:\n      mload(0x40)\n      dup1\n      swap2\n      sub\n      swap1\n      return\n        /* \"contracts/artifacts/AccessModifiers.sol\":2026:2155  function getReturnMultipleValues() public view returns (uint256, uint256) {... */\n    tag_6:\n      tag_23\n      tag_24\n      jump\t// in\n    tag_23:\n      mload(0x40)\n      tag_25\n      swap3\n      swap2\n      swap1\n      tag_26\n      jump\t// in\n    tag_25:\n      mload(0x40)\n      dup1\n      swap2\n      sub\n      swap1\n      return\n        /* \"contracts/artifacts/AccessModifiers.sol\":1092:1188  function getPrivateMethod() public view returns (uint256) {... */\n    tag_7:\n      tag_27\n      tag_28\n      jump\t// in\n    tag_27:\n      mload(0x40)\n      tag_29\n      swap2\n      swap1\n      tag_16\n      jump\t// in\n    tag_29:\n      mload(0x40)\n      dup1\n      swap2\n      sub\n      swap1\n      return\n        /* \"contracts/artifacts/AccessModifiers.sol\":2472:2566  function add(uint256 a, uint256 b) public pure returns (uint256) {... */\n    tag_8:\n      tag_30\n      0x04\n      dup1\n      calldatasize\n      sub\n      dup2\n      add\n      swap1\n      tag_31\n      swap2\n      swap1\n      tag_13\n      jump\t// in\n    tag_31:\n      tag_32\n      jump\t// in\n    tag_30:\n      mload(0x40)\n      tag_33\n      swap2\n      swap1\n      tag_16\n      jump\t// in\n    tag_33:\n      mload(0x40)\n      dup1\n      swap2\n      sub\n      swap1\n      return\n        /* \"contracts/artifacts/AccessModifiers.sol\":646:740  function getPublicMethod() public view returns (uint256) {... */\n    tag_9:\n      tag_34\n      tag_35\n      jump\t// in\n    tag_34:\n      mload(0x40)\n      tag_36\n      swap2\n      swap1\n      tag_16\n      jump\t// in\n    tag_36:\n      mload(0x40)\n      dup1\n      swap2\n      sub\n      swap1\n      return\n        /* \"contracts/artifacts/AccessModifiers.sol\":3042:3248  function doubleSum(uint256 x, uint256 y) public pure returns (uint256) {... */\n    tag_14:\n        /* \"contracts/artifacts/AccessModifiers.sol\":3104:3111  uint256 */\n      0x00\n        /* \"contracts/artifacts/AccessModifiers.sol\":3168:3179  uint256 sum */\n      dup1\n        /* \"contracts/artifacts/AccessModifiers.sol\":3182:3191  add(x, y) */\n      tag_38\n        /* \"contracts/artifacts/AccessModifiers.sol\":3186:3187  x */\n      dup5\n        /* \"contracts/artifacts/AccessModifiers.sol\":3189:3190  y */\n      dup5\n        /* \"contracts/artifacts/AccessModifiers.sol\":3182:3185  add */\n      tag_32\n        /* \"contracts/artifacts/AccessModifiers.sol\":3182:3191  add(x, y) */\n      jump\t// in\n    tag_38:\n        /* \"contracts/artifacts/AccessModifiers.sol\":3168:3191  uint256 sum = add(x, y) */\n      swap1\n      pop\n        /* \"contracts/artifacts/AccessModifiers.sol\":3212:3215  sum */\n      dup1\n        /* \"contracts/artifacts/AccessModifiers.sol\":3208:3209  2 */\n      0x02\n        /* \"contracts/artifacts/AccessModifiers.sol\":3208:3215  2 * sum */\n      tag_39\n      swap2\n      swap1\n      tag_40\n      jump\t// in\n    tag_39:\n        /* \"contracts/artifacts/AccessModifiers.sol\":3201:3215  return 2 * sum */\n      swap2\n      pop\n      pop\n        /* \"contracts/artifacts/AccessModifiers.sol\":3042:3248  function doubleSum(uint256 x, uint256 y) public pure returns (uint256) {... */\n      swap3\n      swap2\n      pop\n      pop\n      jump\t// out\n        /* \"contracts/artifacts/AccessModifiers.sol\":166:198  uint256 public publicInteger = 1 */\n    tag_18:\n      sload(0x00)\n      dup2\n      jump\t// out\n        /* \"contracts/artifacts/AccessModifiers.sol\":1420:1518  function getExternalMethod() external view returns (uint256) {... */\n    tag_21:\n        /* \"contracts/artifacts/AccessModifiers.sol\":1472:1479  uint256 */\n      0x00\n        /* \"contracts/artifacts/AccessModifiers.sol\":1498:1511  publicInteger */\n      dup1\n      sload\n        /* \"contracts/artifacts/AccessModifiers.sol\":1491:1511  return publicInteger */\n      swap1\n      pop\n        /* \"contracts/artifacts/AccessModifiers.sol\":1420:1518  function getExternalMethod() external view returns (uint256) {... */\n      swap1\n      jump\t// out\n        /* \"contracts/artifacts/AccessModifiers.sol\":2026:2155  function getReturnMultipleValues() public view returns (uint256, uint256) {... */\n    tag_24:\n        /* \"contracts/artifacts/AccessModifiers.sol\":2082:2089  uint256 */\n      0x00\n        /* \"contracts/artifacts/AccessModifiers.sol\":2091:2098  uint256 */\n      dup1\n        /* \"contracts/artifacts/AccessModifiers.sol\":2118:2131  publicInteger */\n      sload(0x00)\n        /* \"contracts/artifacts/AccessModifiers.sol\":2133:2147  privateInteger */\n      sload(0x01)\n        /* \"contracts/artifacts/AccessModifiers.sol\":2110:2148  return (publicInteger, privateInteger) */\n      swap2\n      pop\n      swap2\n      pop\n        /* \"contracts/artifacts/AccessModifiers.sol\":2026:2155  function getReturnMultipleValues() public view returns (uint256, uint256) {... */\n      swap1\n      swap2\n      jump\t// out\n        /* \"contracts/artifacts/AccessModifiers.sol\":1092:1188  function getPrivateMethod() public view returns (uint256) {... */\n    tag_28:\n        /* \"contracts/artifacts/AccessModifiers.sol\":1141:1148  uint256 */\n      0x00\n        /* \"contracts/artifacts/AccessModifiers.sol\":1167:1181  privateInteger */\n      sload(0x01)\n        /* \"contracts/artifacts/AccessModifiers.sol\":1160:1181  return privateInteger */\n      swap1\n      pop\n        /* \"contracts/artifacts/AccessModifiers.sol\":1092:1188  function getPrivateMethod() public view returns (uint256) {... */\n      swap1\n      jump\t// out\n        /* \"contracts/artifacts/AccessModifiers.sol\":2472:2566  function add(uint256 a, uint256 b) public pure returns (uint256) {... */\n    tag_32:\n        /* \"contracts/artifacts/AccessModifiers.sol\":2528:2535  uint256 */\n      0x00\n        /* \"contracts/artifacts/AccessModifiers.sol\":2558:2559  b */\n      dup2\n        /* \"contracts/artifacts/AccessModifiers.sol\":2554:2555  a */\n      dup4\n        /* \"contracts/artifacts/AccessModifiers.sol\":2554:2559  a + b */\n      tag_45\n      swap2\n      swap1\n      tag_46\n      jump\t// in\n    tag_45:\n        /* \"contracts/artifacts/AccessModifiers.sol\":2547:2559  return a + b */\n      swap1\n      pop\n        /* \"contracts/artifacts/AccessModifiers.sol\":2472:2566  function add(uint256 a, uint256 b) public pure returns (uint256) {... */\n      swap3\n      swap2\n      pop\n      pop\n      jump\t// out\n        /* \"contracts/artifacts/AccessModifiers.sol\":646:740  function getPublicMethod() public view returns (uint256) {... */\n    tag_35:\n        /* \"contracts/artifacts/AccessModifiers.sol\":694:701  uint256 */\n      0x00\n        /* \"contracts/artifacts/AccessModifiers.sol\":720:733  publicInteger */\n      dup1\n      sload\n        /* \"contracts/artifacts/AccessModifiers.sol\":713:733  return publicInteger */\n      swap1\n      pop\n        /* \"contracts/artifacts/AccessModifiers.sol\":646:740  function getPublicMethod() public view returns (uint256) {... */\n      swap1\n      jump\t// out\n        /* \"#utility.yul\":88:205   */\n    tag_49:\n        /* \"#utility.yul\":197:198   */\n      0x00\n        /* \"#utility.yul\":194:195   */\n      dup1\n        /* \"#utility.yul\":187:199   */\n      revert\n        /* \"#utility.yul\":334:411   */\n    tag_51:\n        /* \"#utility.yul\":371:378   */\n      0x00\n        /* \"#utility.yul\":400:405   */\n      dup2\n        /* \"#utility.yul\":389:405   */\n      swap1\n      pop\n        /* \"#utility.yul\":334:411   */\n      swap2\n      swap1\n      pop\n      jump\t// out\n        /* \"#utility.yul\":417:539   */\n    tag_52:\n        /* \"#utility.yul\":490:514   */\n      tag_62\n        /* \"#utility.yul\":508:513   */\n      dup2\n        /* \"#utility.yul\":490:514   */\n      tag_51\n      jump\t// in\n    tag_62:\n        /* \"#utility.yul\":483:488   */\n      dup2\n        /* \"#utility.yul\":480:515   */\n      eq\n        /* \"#utility.yul\":470:533   */\n      tag_63\n      jumpi\n        /* \"#utility.yul\":529:530   */\n      0x00\n        /* \"#utility.yul\":526:527   */\n      dup1\n        /* \"#utility.yul\":519:531   */\n      revert\n        /* \"#utility.yul\":470:533   */\n    tag_63:\n        /* \"#utility.yul\":417:539   */\n      pop\n      jump\t// out\n        /* \"#utility.yul\":545:684   */\n    tag_53:\n        /* \"#utility.yul\":591:596   */\n      0x00\n        /* \"#utility.yul\":629:635   */\n      dup2\n        /* \"#utility.yul\":616:636   */\n      calldataload\n        /* \"#utility.yul\":607:636   */\n      swap1\n      pop\n        /* \"#utility.yul\":645:678   */\n      tag_65\n        /* \"#utility.yul\":672:677   */\n      dup2\n        /* \"#utility.yul\":645:678   */\n      tag_52\n      jump\t// in\n    tag_65:\n        /* \"#utility.yul\":545:684   */\n      swap3\n      swap2\n      pop\n      pop\n      jump\t// out\n        /* \"#utility.yul\":690:1164   */\n    tag_13:\n        /* \"#utility.yul\":758:764   */\n      0x00\n        /* \"#utility.yul\":766:772   */\n      dup1\n        /* \"#utility.yul\":815:817   */\n      0x40\n        /* \"#utility.yul\":803:812   */\n      dup4\n        /* \"#utility.yul\":794:801   */\n      dup6\n        /* \"#utility.yul\":790:813   */\n      sub\n        /* \"#utility.yul\":786:818   */\n      slt\n        /* \"#utility.yul\":783:902   */\n      iszero\n      tag_67\n      jumpi\n        /* \"#utility.yul\":821:900   */\n      tag_68\n      tag_49\n      jump\t// in\n    tag_68:\n        /* \"#utility.yul\":783:902   */\n    tag_67:\n        /* \"#utility.yul\":941:942   */\n      0x00\n        /* \"#utility.yul\":966:1019   */\n      tag_69\n        /* \"#utility.yul\":1011:1018   */\n      dup6\n        /* \"#utility.yul\":1002:1008   */\n      dup3\n        /* \"#utility.yul\":991:1000   */\n      dup7\n        /* \"#utility.yul\":987:1009   */\n      add\n        /* \"#utility.yul\":966:1019   */\n      tag_53\n      jump\t// in\n    tag_69:\n        /* \"#utility.yul\":956:1019   */\n      swap3\n      pop\n        /* \"#utility.yul\":912:1029   */\n      pop\n        /* \"#utility.yul\":1068:1070   */\n      0x20\n        /* \"#utility.yul\":1094:1147   */\n      tag_70\n        /* \"#utility.yul\":1139:1146   */\n      dup6\n        /* \"#utility.yul\":1130:1136   */\n      dup3\n        /* \"#utility.yul\":1119:1128   */\n      dup7\n        /* \"#utility.yul\":1115:1137   */\n      add\n        /* \"#utility.yul\":1094:1147   */\n      tag_53\n      jump\t// in\n    tag_70:\n        /* \"#utility.yul\":1084:1147   */\n      swap2\n      pop\n        /* \"#utility.yul\":1039:1157   */\n      pop\n        /* \"#utility.yul\":690:1164   */\n      swap3\n      pop\n      swap3\n      swap1\n      pop\n      jump\t// out\n        /* \"#utility.yul\":1170:1288   */\n    tag_54:\n        /* \"#utility.yul\":1257:1281   */\n      tag_72\n        /* \"#utility.yul\":1275:1280   */\n      dup2\n        /* \"#utility.yul\":1257:1281   */\n      tag_51\n      jump\t// in\n    tag_72:\n        /* \"#utility.yul\":1252:1255   */\n      dup3\n        /* \"#utility.yul\":1245:1282   */\n      mstore\n        /* \"#utility.yul\":1170:1288   */\n      pop\n      pop\n      jump\t// out\n        /* \"#utility.yul\":1294:1516   */\n    tag_16:\n        /* \"#utility.yul\":1387:1391   */\n      0x00\n        /* \"#utility.yul\":1425:1427   */\n      0x20\n        /* \"#utility.yul\":1414:1423   */\n      dup3\n        /* \"#utility.yul\":1410:1428   */\n      add\n        /* \"#utility.yul\":1402:1428   */\n      swap1\n      pop\n        /* \"#utility.yul\":1438:1509   */\n      tag_74\n        /* \"#utility.yul\":1506:1507   */\n      0x00\n        /* \"#utility.yul\":1495:1504   */\n      dup4\n        /* \"#utility.yul\":1491:1508   */\n      add\n        /* \"#utility.yul\":1482:1488   */\n      dup5\n        /* \"#utility.yul\":1438:1509   */\n      tag_54\n      jump\t// in\n    tag_74:\n        /* \"#utility.yul\":1294:1516   */\n      swap3\n      swap2\n      pop\n      pop\n      jump\t// out\n        /* \"#utility.yul\":1522:1854   */\n    tag_26:\n        /* \"#utility.yul\":1643:1647   */\n      0x00\n        /* \"#utility.yul\":1681:1683   */\n      0x40\n        /* \"#utility.yul\":1670:1679   */\n      dup3\n        /* \"#utility.yul\":1666:1684   */\n      add\n        /* \"#utility.yul\":1658:1684   */\n      swap1\n      pop\n        /* \"#utility.yul\":1694:1765   */\n      tag_76\n        /* \"#utility.yul\":1762:1763   */\n      0x00\n        /* \"#utility.yul\":1751:1760   */\n      dup4\n        /* \"#utility.yul\":1747:1764   */\n      add\n        /* \"#utility.yul\":1738:1744   */\n      dup6\n        /* \"#utility.yul\":1694:1765   */\n      tag_54\n      jump\t// in\n    tag_76:\n        /* \"#utility.yul\":1775:1847   */\n      tag_77\n        /* \"#utility.yul\":1843:1845   */\n      0x20\n        /* \"#utility.yul\":1832:1841   */\n      dup4\n        /* \"#utility.yul\":1828:1846   */\n      add\n        /* \"#utility.yul\":1819:1825   */\n      dup5\n        /* \"#utility.yul\":1775:1847   */\n      tag_54\n      jump\t// in\n    tag_77:\n        /* \"#utility.yul\":1522:1854   */\n      swap4\n      swap3\n      pop\n      pop\n      pop\n      jump\t// out\n        /* \"#utility.yul\":1860:2040   */\n    tag_55:\n        /* \"#utility.yul\":1908:1985   */\n      0x4e487b7100000000000000000000000000000000000000000000000000000000\n        /* \"#utility.yul\":1905:1906   */\n      0x00\n        /* \"#utility.yul\":1898:1986   */\n      mstore\n        /* \"#utility.yul\":2005:2009   */\n      0x11\n        /* \"#utility.yul\":2002:2003   */\n      0x04\n        /* \"#utility.yul\":1995:2010   */\n      mstore\n        /* \"#utility.yul\":2029:2033   */\n      0x24\n        /* \"#utility.yul\":2026:2027   */\n      0x00\n        /* \"#utility.yul\":2019:2034   */\n      revert\n        /* \"#utility.yul\":2046:2456   */\n    tag_40:\n        /* \"#utility.yul\":2086:2093   */\n      0x00\n        /* \"#utility.yul\":2109:2129   */\n      tag_80\n        /* \"#utility.yul\":2127:2128   */\n      dup3\n        /* \"#utility.yul\":2109:2129   */\n      tag_51\n      jump\t// in\n    tag_80:\n        /* \"#utility.yul\":2104:2129   */\n      swap2\n      pop\n        /* \"#utility.yul\":2143:2163   */\n      tag_81\n        /* \"#utility.yul\":2161:2162   */\n      dup4\n        /* \"#utility.yul\":2143:2163   */\n      tag_51\n      jump\t// in\n    tag_81:\n        /* \"#utility.yul\":2138:2163   */\n      swap3\n      pop\n        /* \"#utility.yul\":2198:2199   */\n      dup3\n        /* \"#utility.yul\":2195:2196   */\n      dup3\n        /* \"#utility.yul\":2191:2200   */\n      mul\n        /* \"#utility.yul\":2220:2250   */\n      tag_82\n        /* \"#utility.yul\":2238:2249   */\n      dup2\n        /* \"#utility.yul\":2220:2250   */\n      tag_51\n      jump\t// in\n    tag_82:\n        /* \"#utility.yul\":2209:2250   */\n      swap2\n      pop\n        /* \"#utility.yul\":2399:2400   */\n      dup3\n        /* \"#utility.yul\":2390:2397   */\n      dup3\n        /* \"#utility.yul\":2386:2401   */\n      div\n        /* \"#utility.yul\":2383:2384   */\n      dup5\n        /* \"#utility.yul\":2380:2402   */\n      eq\n        /* \"#utility.yul\":2360:2361   */\n      dup4\n        /* \"#utility.yul\":2353:2362   */\n      iszero\n        /* \"#utility.yul\":2333:2416   */\n      or\n        /* \"#utility.yul\":2310:2449   */\n      tag_83\n      jumpi\n        /* \"#utility.yul\":2429:2447   */\n      tag_84\n      tag_55\n      jump\t// in\n    tag_84:\n        /* \"#utility.yul\":2310:2449   */\n    tag_83:\n        /* \"#utility.yul\":2094:2456   */\n      pop\n        /* \"#utility.yul\":2046:2456   */\n      swap3\n      swap2\n      pop\n      pop\n      jump\t// out\n        /* \"#utility.yul\":2462:2653   */\n    tag_46:\n        /* \"#utility.yul\":2502:2505   */\n      0x00\n        /* \"#utility.yul\":2521:2541   */\n      tag_86\n        /* \"#utility.yul\":2539:2540   */\n      dup3\n        /* \"#utility.yul\":2521:2541   */\n      tag_51\n      jump\t// in\n    tag_86:\n        /* \"#utility.yul\":2516:2541   */\n      swap2\n      pop\n        /* \"#utility.yul\":2555:2575   */\n      tag_87\n        /* \"#utility.yul\":2573:2574   */\n      dup4\n        /* \"#utility.yul\":2555:2575   */\n      tag_51\n      jump\t// in\n    tag_87:\n        /* \"#utility.yul\":2550:2575   */\n      swap3\n      pop\n        /* \"#utility.yul\":2598:2599   */\n      dup3\n        /* \"#utility.yul\":2595:2596   */\n      dup3\n        /* \"#utility.yul\":2591:2600   */\n      add\n        /* \"#utility.yul\":2584:2600   */\n      swap1\n      pop\n        /* \"#utility.yul\":2619:2622   */\n      dup1\n        /* \"#utility.yul\":2616:2617   */\n      dup3\n        /* \"#utility.yul\":2613:2623   */\n      gt\n        /* \"#utility.yul\":2610:2646   */\n      iszero\n      tag_88\n      jumpi\n        /* \"#utility.yul\":2626:2644   */\n      tag_89\n      tag_55\n      jump\t// in\n    tag_89:\n        /* \"#utility.yul\":2610:2646   */\n    tag_88:\n        /* \"#utility.yul\":2462:2653   */\n      swap3\n      swap2\n      pop\n      pop\n      jump\t// out\n\n    auxdata: 0xa2646970667358221220f3826401c773f33f648883ee2567b3a9d24b2a6b18602c118c2647f1f8d72cca64736f6c634300081a0033\n}\n",
				"bytecode": {
					"linkReferences": {},
					"object": "608060405260015f55600180553480156016575f80fd5b50610377806100245f395ff3fe608060405234801561000f575f80fd5b506004361061007b575f3560e01c806339cb7ab21161005957806339cb7ab2146100eb5780636d189f6c1461010a578063771602f71461012857806390d354ff146101585761007b565b806306db55281461007f57806314d8ea82146100af578063286c6cbe146100cd575b5f80fd5b61009960048036038101906100949190610213565b610176565b6040516100a69190610260565b60405180910390f35b6100b761019a565b6040516100c49190610260565b60405180910390f35b6100d561019f565b6040516100e29190610260565b60405180910390f35b6100f36101a7565b604051610101929190610279565b60405180910390f35b6101126101b6565b60405161011f9190610260565b60405180910390f35b610142600480360381019061013d9190610213565b6101bf565b60405161014f9190610260565b60405180910390f35b6101606101d4565b60405161016d9190610260565b60405180910390f35b5f8061018284846101bf565b905080600261019191906102cd565b91505092915050565b5f5481565b5f8054905090565b5f805f54600154915091509091565b5f600154905090565b5f81836101cc919061030e565b905092915050565b5f8054905090565b5f80fd5b5f819050919050565b6101f2816101e0565b81146101fc575f80fd5b50565b5f8135905061020d816101e9565b92915050565b5f8060408385031215610229576102286101dc565b5b5f610236858286016101ff565b9250506020610247858286016101ff565b9150509250929050565b61025a816101e0565b82525050565b5f6020820190506102735f830184610251565b92915050565b5f60408201905061028c5f830185610251565b6102996020830184610251565b9392505050565b7f4e487b71000000000000000000000000000000000000000000000000000000005f52601160045260245ffd5b5f6102d7826101e0565b91506102e2836101e0565b92508282026102f0816101e0565b91508282048414831517610307576103066102a0565b5b5092915050565b5f610318826101e0565b9150610323836101e0565b925082820190508082111561033b5761033a6102a0565b5b9291505056fea2646970667358221220f3826401c773f33f648883ee2567b3a9d24b2a6b18602c118c2647f1f8d72cca64736f6c634300081a0033",
					"opcodes": "PUSH1 0x80 PUSH1 0x40 MSTORE PUSH1 0x1 PUSH0 SSTORE PUSH1 0x1 DUP1 SSTORE CALLVALUE DUP1 ISZERO PUSH1 0x16 JUMPI PUSH0 DUP1 REVERT JUMPDEST POP PUSH2 0x377 DUP1 PUSH2 0x24 PUSH0 CODECOPY PUSH0 RETURN INVALID PUSH1 0x80 PUSH1 0x40 MSTORE CALLVALUE DUP1 ISZERO PUSH2 0xF JUMPI PUSH0 DUP1 REVERT JUMPDEST POP PUSH1 0x4 CALLDATASIZE LT PUSH2 0x7B JUMPI PUSH0 CALLDATALOAD PUSH1 0xE0 SHR DUP1 PUSH4 0x39CB7AB2 GT PUSH2 0x59 JUMPI DUP1 PUSH4 0x39CB7AB2 EQ PUSH2 0xEB JUMPI DUP1 PUSH4 0x6D189F6C EQ PUSH2 0x10A JUMPI DUP1 PUSH4 0x771602F7 EQ PUSH2 0x128 JUMPI DUP1 PUSH4 0x90D354FF EQ PUSH2 0x158 JUMPI PUSH2 0x7B JUMP JUMPDEST DUP1 PUSH4 0x6DB5528 EQ PUSH2 0x7F JUMPI DUP1 PUSH4 0x14D8EA82 EQ PUSH2 0xAF JUMPI DUP1 PUSH4 0x286C6CBE EQ PUSH2 0xCD JUMPI JUMPDEST PUSH0 DUP1 REVERT JUMPDEST PUSH2 0x99 PUSH1 0x4 DUP1 CALLDATASIZE SUB DUP2 ADD SWAP1 PUSH2 0x94 SWAP2 SWAP1 PUSH2 0x213 JUMP JUMPDEST PUSH2 0x176 JUMP JUMPDEST PUSH1 0x40 MLOAD PUSH2 0xA6 SWAP2 SWAP1 PUSH2 0x260 JUMP JUMPDEST PUSH1 0x40 MLOAD DUP1 SWAP2 SUB SWAP1 RETURN JUMPDEST PUSH2 0xB7 PUSH2 0x19A JUMP JUMPDEST PUSH1 0x40 MLOAD PUSH2 0xC4 SWAP2 SWAP1 PUSH2 0x260 JUMP JUMPDEST PUSH1 0x40 MLOAD DUP1 SWAP2 SUB SWAP1 RETURN JUMPDEST PUSH2 0xD5 PUSH2 0x19F JUMP JUMPDEST PUSH1 0x40 MLOAD PUSH2 0xE2 SWAP2 SWAP1 PUSH2 0x260 JUMP JUMPDEST PUSH1 0x40 MLOAD DUP1 SWAP2 SUB SWAP1 RETURN JUMPDEST PUSH2 0xF3 PUSH2 0x1A7 JUMP JUMPDEST PUSH1 0x40 MLOAD PUSH2 0x101 SWAP3 SWAP2 SWAP1 PUSH2 0x279 JUMP JUMPDEST PUSH1 0x40 MLOAD DUP1 SWAP2 SUB SWAP1 RETURN JUMPDEST PUSH2 0x112 PUSH2 0x1B6 JUMP JUMPDEST PUSH1 0x40 MLOAD PUSH2 0x11F SWAP2 SWAP1 PUSH2 0x260 JUMP JUMPDEST PUSH1 0x40 MLOAD DUP1 SWAP2 SUB SWAP1 RETURN JUMPDEST PUSH2 0x142 PUSH1 0x4 DUP1 CALLDATASIZE SUB DUP2 ADD SWAP1 PUSH2 0x13D SWAP2 SWAP1 PUSH2 0x213 JUMP JUMPDEST PUSH2 0x1BF JUMP JUMPDEST PUSH1 0x40 MLOAD PUSH2 0x14F SWAP2 SWAP1 PUSH2 0x260 JUMP JUMPDEST PUSH1 0x40 MLOAD DUP1 SWAP2 SUB SWAP1 RETURN JUMPDEST PUSH2 0x160 PUSH2 0x1D4 JUMP JUMPDEST PUSH1 0x40 MLOAD PUSH2 0x16D SWAP2 SWAP1 PUSH2 0x260 JUMP JUMPDEST PUSH1 0x40 MLOAD DUP1 SWAP2 SUB SWAP1 RETURN JUMPDEST PUSH0 DUP1 PUSH2 0x182 DUP5 DUP5 PUSH2 0x1BF JUMP JUMPDEST SWAP1 POP DUP1 PUSH1 0x2 PUSH2 0x191 SWAP2 SWAP1 PUSH2 0x2CD JUMP JUMPDEST SWAP2 POP POP SWAP3 SWAP2 POP POP JUMP JUMPDEST PUSH0 SLOAD DUP2 JUMP JUMPDEST PUSH0 DUP1 SLOAD SWAP1 POP SWAP1 JUMP JUMPDEST PUSH0 DUP1 PUSH0 SLOAD PUSH1 0x1 SLOAD SWAP2 POP SWAP2 POP SWAP1 SWAP2 JUMP JUMPDEST PUSH0 PUSH1 0x1 SLOAD SWAP1 POP SWAP1 JUMP JUMPDEST PUSH0 DUP2 DUP4 PUSH2 0x1CC SWAP2 SWAP1 PUSH2 0x30E JUMP JUMPDEST SWAP1 POP SWAP3 SWAP2 POP POP JUMP JUMPDEST PUSH0 DUP1 SLOAD SWAP1 POP SWAP1 JUMP JUMPDEST PUSH0 DUP1 REVERT JUMPDEST PUSH0 DUP2 SWAP1 POP SWAP2 SWAP1 POP JUMP JUMPDEST PUSH2 0x1F2 DUP2 PUSH2 0x1E0 JUMP JUMPDEST DUP2 EQ PUSH2 0x1FC JUMPI PUSH0 DUP1 REVERT JUMPDEST POP JUMP JUMPDEST PUSH0 DUP2 CALLDATALOAD SWAP1 POP PUSH2 0x20D DUP2 PUSH2 0x1E9 JUMP JUMPDEST SWAP3 SWAP2 POP POP JUMP JUMPDEST PUSH0 DUP1 PUSH1 0x40 DUP4 DUP6 SUB SLT ISZERO PUSH2 0x229 JUMPI PUSH2 0x228 PUSH2 0x1DC JUMP JUMPDEST JUMPDEST PUSH0 PUSH2 0x236 DUP6 DUP3 DUP7 ADD PUSH2 0x1FF JUMP JUMPDEST SWAP3 POP POP PUSH1 0x20 PUSH2 0x247 DUP6 DUP3 DUP7 ADD PUSH2 0x1FF JUMP JUMPDEST SWAP2 POP POP SWAP3 POP SWAP3 SWAP1 POP JUMP JUMPDEST PUSH2 0x25A DUP2 PUSH2 0x1E0 JUMP JUMPDEST DUP3 MSTORE POP POP JUMP JUMPDEST PUSH0 PUSH1 0x20 DUP3 ADD SWAP1 POP PUSH2 0x273 PUSH0 DUP4 ADD DUP5 PUSH2 0x251 JUMP JUMPDEST SWAP3 SWAP2 POP POP JUMP JUMPDEST PUSH0 PUSH1 0x40 DUP3 ADD SWAP1 POP PUSH2 0x28C PUSH0 DUP4 ADD DUP6 PUSH2 0x251 JUMP JUMPDEST PUSH2 0x299 PUSH1 0x20 DUP4 ADD DUP5 PUSH2 0x251 JUMP JUMPDEST SWAP4 SWAP3 POP POP POP JUMP JUMPDEST PUSH32 0x4E487B7100000000000000000000000000000000000000000000000000000000 PUSH0 MSTORE PUSH1 0x11 PUSH1 0x4 MSTORE PUSH1 0x24 PUSH0 REVERT JUMPDEST PUSH0 PUSH2 0x2D7 DUP3 PUSH2 0x1E0 JUMP JUMPDEST SWAP2 POP PUSH2 0x2E2 DUP4 PUSH2 0x1E0 JUMP JUMPDEST SWAP3 POP DUP3 DUP3 MUL PUSH2 0x2F0 DUP2 PUSH2 0x1E0 JUMP JUMPDEST SWAP2 POP DUP3 DUP3 DIV DUP5 EQ DUP4 ISZERO OR PUSH2 0x307 JUMPI PUSH2 0x306 PUSH2 0x2A0 JUMP JUMPDEST JUMPDEST POP SWAP3 SWAP2 POP POP JUMP JUMPDEST PUSH0 PUSH2 0x318 DUP3 PUSH2 0x1E0 JUMP JUMPDEST SWAP2 POP PUSH2 0x323 DUP4 PUSH2 0x1E0 JUMP JUMPDEST SWAP3 POP DUP3 DUP3 ADD SWAP1 POP DUP1 DUP3 GT ISZERO PUSH2 0x33B JUMPI PUSH2 0x33A PUSH2 0x2A0 JUMP JUMPDEST JUMPDEST SWAP3 SWAP2 POP POP JUMP INVALID LOG2 PUSH5 0x6970667358 0x22 SLT KECCAK256 RETURN DUP3 PUSH5 0x1C773F33F PUSH5 0x8883EE2567 0xB3 0xA9 0xD2 0x4B 0x2A PUSH12 0x18602C118C2647F1F8D72CCA PUSH5 0x736F6C6343 STOP ADDMOD BYTE STOP CALLER "
				},
				"gasEstimates": {
					"creation": {
						"codeDepositCost": "177400",
						"executionCost": "44429",
						"totalCost": "221829"
					},
					"external": {
						"add(uint256,uint256)": "infinite",
						"doubleSum(uint256,uint256)": "infinite",
						"getExternalMethod()": "2477",
						"getPrivateMethod()": "2454",
						"getPublicMethod()": "2498",
						"getReturnMultipleValues()": "infinite",
						"publicInteger()": "2447"
					}
				},
				"methodIdentifiers": {
					"add(uint256,uint256)": "771602f7",
					"doubleSum(uint256,uint256)": "06db5528",
					"getExternalMethod()": "286c6cbe",
					"getPrivateMethod()": "6d189f6c",
					"getPublicMethod()": "90d354ff",
					"getReturnMultipleValues()": "39cb7ab2",
					"publicInteger()": "14d8ea82"
				}
			},
			"storageLayout": {
				"storage": [
					{
						"astId": 4,
						"contract": "contracts/artifacts/AccessModifiers.sol:AccessModifiers",
						"label": "publicInteger",
						"offset": 0,
						"slot": "0",
						"type": "t_uint256"
					},
					{
						"astId": 7,
						"contract": "contracts/artifacts/AccessModifiers.sol:AccessModifiers",
						"label": "privateInteger",
						"offset": 0,
						"slot": "1",
						"type": "t_uint256"
					}
				],
				"types": {
					"t_uint256": {
						"encoding": "inplace",
						"label": "uint256",
						"numberOfBytes": "32"
					}
				}
			},
			"userdoc": {
				"kind": "user",
				"methods": {},
				"version": 1
			}
		}
	}
}