{
	"data": {
		"bytecode": {
			"linkReferences": {},
			"object": "6080604052348015600e575f80fd5b5060405161050b38038061050b8339818101604052810190602e91906074565b8160028190555080600381905550505060ab565b5f80fd5b5f819050919050565b6056816046565b8114605f575f80fd5b50565b5f81519050606e81604f565b92915050565b5f806040838503121560875760866042565b5b5f6092858286016062565b925050602060a1858286016062565b9150509250929050565b610453806100b85f395ff3fe608060405234801561000f575f80fd5b506004361061007b575f3560e01c806381fb49631161005957806381fb4963146100d757806384d4e4eb146100e1578063aba1db5b146100eb578063f1094586146101095761007b565b80631ba7cc2a1461007f5780633e9658041461009d5780637c45bdd9146100b9575b5f80fd5b610087610125565b604051610094919061027a565b60405180910390f35b6100b760048036038101906100b291906102c1565b61012e565b005b6100c1610181565b6040516100ce919061027a565b60405180910390f35b6100df61018a565b005b6100e96101bd565b005b6100f36101ef565b604051610100919061027a565b60405180910390f35b610123600480360381019061011e91906102c1565b610209565b005b5f600354905090565b80610137610181565b815f546101449190610319565b111561014e575f80fd5b60015f9054906101000a900460ff1615610166575f80fd5b815f808282546101769190610319565b925050819055505050565b5f600254905090565b60015f9054906101000a900460ff16156101a2575f80fd5b6001805f6101000a81548160ff021916908315150217905550565b60015f9054906101000a900460ff166101d4575f80fd5b5f60015f6101000a81548160ff021916908315150217905550565b5f6101f8610125565b5f54610204919061034c565b905090565b60015f9054906101000a900460ff16610220575f80fd5b805f5461022b6101ef565b1015610235575f80fd5b61023d610125565b8261024891906103ba565b5f8082825461025791906103ea565b925050819055505050565b5f819050919050565b61027481610262565b82525050565b5f60208201905061028d5f83018461026b565b92915050565b5f80fd5b6102a081610262565b81146102aa575f80fd5b50565b5f813590506102bb81610297565b92915050565b5f602082840312156102d6576102d5610293565b5b5f6102e3848285016102ad565b91505092915050565b7f4e487b71000000000000000000000000000000000000000000000000000000005f52601160045260245ffd5b5f61032382610262565b915061032e83610262565b9250828201905080821115610346576103456102ec565b5b92915050565b5f61035682610262565b915061036183610262565b925082820261036f81610262565b91508282048414831517610386576103856102ec565b5b5092915050565b7f4e487b71000000000000000000000000000000000000000000000000000000005f52601260045260245ffd5b5f6103c482610262565b91506103cf83610262565b9250826103df576103de61038d565b5b828204905092915050565b5f6103f482610262565b91506103ff83610262565b9250828203905081811115610417576104166102ec565b5b9291505056fea2646970667358221220d24456ec0f5f4ecd487d5f20e9fbff77819341216be8a4bae80fd4a96b05dd4464736f6c634300081a0033",
			"opcodes": "PUSH1 0x80 PUSH1 0x40 MSTORE CALLVALUE DUP1 ISZERO PUSH1 0xE JUMPI PUSH0 DUP1 REVERT JUMPDEST POP PUSH1 0x40 MLOAD PUSH2 0x50B CODESIZE SUB DUP1 PUSH2 0x50B DUP4 CODECOPY DUP2 DUP2 ADD PUSH1 0x40 MSTORE DUP2 ADD SWAP1 PUSH1 0x2E SWAP2 SWAP1 PUSH1 0x74 JUMP JUMPDEST DUP2 PUSH1 0x2 DUP2 SWAP1 SSTORE POP DUP1 PUSH1 0x3 DUP2 SWAP1 SSTORE POP POP POP PUSH1 0xAB JUMP JUMPDEST PUSH0 DUP1 REVERT JUMPDEST PUSH0 DUP2 SWAP1 POP SWAP2 SWAP1 POP JUMP JUMPDEST PUSH1 0x56 DUP2 PUSH1 0x46 JUMP JUMPDEST DUP2 EQ PUSH1 0x5F JUMPI PUSH0 DUP1 REVERT JUMPDEST POP JUMP JUMPDEST PUSH0 DUP2 MLOAD SWAP1 POP PUSH1 0x6E DUP2 PUSH1 0x4F JUMP JUMPDEST SWAP3 SWAP2 POP POP JUMP JUMPDEST PUSH0 DUP1 PUSH1 0x40 DUP4 DUP6 SUB SLT ISZERO PUSH1 0x87 JUMPI PUSH1 0x86 PUSH1 0x42 JUMP JUMPDEST JUMPDEST PUSH0 PUSH1 0x92 DUP6 DUP3 DUP7 ADD PUSH1 0x62 JUMP JUMPDEST SWAP3 POP POP PUSH1 0x20 PUSH1 0xA1 DUP6 DUP3 DUP7 ADD PUSH1 0x62 JUMP JUMPDEST SWAP2 POP POP SWAP3 POP SWAP3 SWAP1 POP JUMP JUMPDEST PUSH2 0x453 DUP1 PUSH2 0xB8 PUSH0 CODECOPY PUSH0 RETURN INVALID PUSH1 0x80 PUSH1 0x40 MSTORE CALLVALUE DUP1 ISZERO PUSH2 0xF JUMPI PUSH0 DUP1 REVERT JUMPDEST POP PUSH1 0x4 CALLDATASIZE LT PUSH2 0x7B JUMPI PUSH0 CALLDATALOAD PUSH1 0xE0 SHR DUP1 PUSH4 0x81FB4963 GT PUSH2 0x59 JUMPI DUP1 PUSH4 0x81FB4963 EQ PUSH2 0xD7 JUMPI DUP1 PUSH4 0x84D4E4EB EQ PUSH2 0xE1 JUMPI DUP1 PUSH4 0xABA1DB5B EQ PUSH2 0xEB JUMPI DUP1 PUSH4 0xF1094586 EQ PUSH2 0x109 JUMPI PUSH2 0x7B JUMP JUMPDEST DUP1 PUSH4 0x1BA7CC2A EQ PUSH2 0x7F JUMPI DUP1 PUSH4 0x3E965804 EQ PUSH2 0x9D JUMPI DUP1 PUSH4 0x7C45BDD9 EQ PUSH2 0xB9 JUMPI JUMPDEST PUSH0 DUP1 REVERT JUMPDEST PUSH2 0x87 PUSH2 0x125 JUMP JUMPDEST PUSH1 0x40 MLOAD PUSH2 0x94 SWAP2 SWAP1 PUSH2 0x27A JUMP JUMPDEST PUSH1 0x40 MLOAD DUP1 SWAP2 SUB SWAP1 RETURN JUMPDEST PUSH2 0xB7 PUSH1 0x4 DUP1 CALLDATASIZE SUB DUP2 ADD SWAP1 PUSH2 0xB2 SWAP2 SWAP1 PUSH2 0x2C1 JUMP JUMPDEST PUSH2 0x12E JUMP JUMPDEST STOP JUMPDEST PUSH2 0xC1 PUSH2 0x181 JUMP JUMPDEST PUSH1 0x40 MLOAD PUSH2 0xCE SWAP2 SWAP1 PUSH2 0x27A JUMP JUMPDEST PUSH1 0x40 MLOAD DUP1 SWAP2 SUB SWAP1 RETURN JUMPDEST PUSH2 0xDF PUSH2 0x18A JUMP JUMPDEST STOP JUMPDEST PUSH2 0xE9 PUSH2 0x1BD JUMP JUMPDEST STOP JUMPDEST PUSH2 0xF3 PUSH2 0x1EF JUMP JUMPDEST PUSH1 0x40 MLOAD PUSH2 0x100 SWAP2 SWAP1 PUSH2 0x27A JUMP JUMPDEST PUSH1 0x40 MLOAD DUP1 SWAP2 SUB SWAP1 RETURN JUMPDEST PUSH2 0x123 PUSH1 0x4 DUP1 CALLDATASIZE SUB DUP2 ADD SWAP1 PUSH2 0x11E SWAP2 SWAP1 PUSH2 0x2C1 JUMP JUMPDEST PUSH2 0x209 JUMP JUMPDEST STOP JUMPDEST PUSH0 PUSH1 0x3 SLOAD SWAP1 POP SWAP1 JUMP JUMPDEST DUP1 PUSH2 0x137 PUSH2 0x181 JUMP JUMPDEST DUP2 PUSH0 SLOAD PUSH2 0x144 SWAP2 SWAP1 PUSH2 0x319 JUMP JUMPDEST GT ISZERO PUSH2 0x14E JUMPI PUSH0 DUP1 REVERT JUMPDEST PUSH1 0x1 PUSH0 SWAP1 SLOAD SWAP1 PUSH2 0x100 EXP SWAP1 DIV PUSH1 0xFF AND ISZERO PUSH2 0x166 JUMPI PUSH0 DUP1 REVERT JUMPDEST DUP2 PUSH0 DUP1 DUP3 DUP3 SLOAD PUSH2 0x176 SWAP2 SWAP1 PUSH2 0x319 JUMP JUMPDEST SWAP3 POP POP DUP2 SWAP1 SSTORE POP POP POP JUMP JUMPDEST PUSH0 PUSH1 0x2 SLOAD SWAP1 POP SWAP1 JUMP JUMPDEST PUSH1 0x1 PUSH0 SWAP1 SLOAD SWAP1 PUSH2 0x100 EXP SWAP1 DIV PUSH1 0xFF AND ISZERO PUSH2 0x1A2 JUMPI PUSH0 DUP1 REVERT JUMPDEST PUSH1 0x1 DUP1 PUSH0 PUSH2 0x100 EXP DUP2 SLOAD DUP2 PUSH1 0xFF MUL NOT AND SWAP1 DUP4 ISZERO ISZERO MUL OR SWAP1 SSTORE POP JUMP JUMPDEST PUSH1 0x1 PUSH0 SWAP1 SLOAD SWAP1 PUSH2 0x100 EXP SWAP1 DIV PUSH1 0xFF AND PUSH2 0x1D4 JUMPI PUSH0 DUP1 REVERT JUMPDEST PUSH0 PUSH1 0x1 PUSH0 PUSH2 0x100 EXP DUP2 SLOAD DUP2 PUSH1 0xFF MUL NOT AND SWAP1 DUP4 ISZERO ISZERO MUL OR SWAP1 SSTORE POP JUMP JUMPDEST PUSH0 PUSH2 0x1F8 PUSH2 0x125 JUMP JUMPDEST PUSH0 SLOAD PUSH2 0x204 SWAP2 SWAP1 PUSH2 0x34C JUMP JUMPDEST SWAP1 POP SWAP1 JUMP JUMPDEST PUSH1 0x1 PUSH0 SWAP1 SLOAD SWAP1 PUSH2 0x100 EXP SWAP1 DIV PUSH1 0xFF AND PUSH2 0x220 JUMPI PUSH0 DUP1 REVERT JUMPDEST DUP1 PUSH0 SLOAD PUSH2 0x22B PUSH2 0x1EF JUMP JUMPDEST LT ISZERO PUSH2 0x235 JUMPI PUSH0 DUP1 REVERT JUMPDEST PUSH2 0x23D PUSH2 0x125 JUMP JUMPDEST DUP3 PUSH2 0x248 SWAP2 SWAP1 PUSH2 0x3BA JUMP JUMPDEST PUSH0 DUP1 DUP3 DUP3 SLOAD PUSH2 0x257 SWAP2 SWAP1 PUSH2 0x3EA JUMP JUMPDEST SWAP3 POP POP DUP2 SWAP1 SSTORE POP POP POP JUMP JUMPDEST PUSH0 DUP2 SWAP1 POP SWAP2 SWAP1 POP JUMP JUMPDEST PUSH2 0x274 DUP2 PUSH2 0x262 JUMP JUMPDEST DUP3 MSTORE POP POP JUMP JUMPDEST PUSH0 PUSH1 0x20 DUP3 ADD SWAP1 POP PUSH2 0x28D PUSH0 DUP4 ADD DUP5 PUSH2 0x26B JUMP JUMPDEST SWAP3 SWAP2 POP POP JUMP JUMPDEST PUSH0 DUP1 REVERT JUMPDEST PUSH2 0x2A0 DUP2 PUSH2 0x262 JUMP JUMPDEST DUP2 EQ PUSH2 0x2AA JUMPI PUSH0 DUP1 REVERT JUMPDEST POP JUMP JUMPDEST PUSH0 DUP2 CALLDATALOAD SWAP1 POP PUSH2 0x2BB DUP2 PUSH2 0x297 JUMP JUMPDEST SWAP3 SWAP2 POP POP JUMP JUMPDEST PUSH0 PUSH1 0x20 DUP3 DUP5 SUB SLT ISZERO PUSH2 0x2D6 JUMPI PUSH2 0x2D5 PUSH2 0x293 JUMP JUMPDEST JUMPDEST PUSH0 PUSH2 0x2E3 DUP5 DUP3 DUP6 ADD PUSH2 0x2AD JUMP JUMPDEST SWAP2 POP POP SWAP3 SWAP2 POP POP JUMP JUMPDEST PUSH32 0x4E487B7100000000000000000000000000000000000000000000000000000000 PUSH0 MSTORE PUSH1 0x11 PUSH1 0x4 MSTORE PUSH1 0x24 PUSH0 REVERT JUMPDEST PUSH0 PUSH2 0x323 DUP3 PUSH2 0x262 JUMP JUMPDEST SWAP2 POP PUSH2 0x32E DUP4 PUSH2 0x262 JUMP JUMPDEST SWAP3 POP DUP3 DUP3 ADD SWAP1 POP DUP1 DUP3 GT ISZERO PUSH2 0x346 JUMPI PUSH2 0x345 PUSH2 0x2EC JUMP JUMPDEST JUMPDEST SWAP3 SWAP2 POP POP JUMP JUMPDEST PUSH0 PUSH2 0x356 DUP3 PUSH2 0x262 JUMP JUMPDEST SWAP2 POP PUSH2 0x361 DUP4 PUSH2 0x262 JUMP JUMPDEST SWAP3 POP DUP3 DUP3 MUL PUSH2 0x36F DUP2 PUSH2 0x262 JUMP JUMPDEST SWAP2 POP DUP3 DUP3 DIV DUP5 EQ DUP4 ISZERO OR PUSH2 0x386 JUMPI PUSH2 0x385 PUSH2 0x2EC JUMP JUMPDEST JUMPDEST POP SWAP3 SWAP2 POP POP JUMP JUMPDEST PUSH32 0x4E487B7100000000000000000000000000000000000000000000000000000000 PUSH0 MSTORE PUSH1 0x12 PUSH1 0x4 MSTORE PUSH1 0x24 PUSH0 REVERT JUMPDEST PUSH0 PUSH2 0x3C4 DUP3 PUSH2 0x262 JUMP JUMPDEST SWAP2 POP PUSH2 0x3CF DUP4 PUSH2 0x262 JUMP JUMPDEST SWAP3 POP DUP3 PUSH2 0x3DF JUMPI PUSH2 0x3DE PUSH2 0x38D JUMP JUMPDEST JUMPDEST DUP3 DUP3 DIV SWAP1 POP SWAP3 SWAP2 POP POP JUMP JUMPDEST PUSH0 PUSH2 0x3F4 DUP3 PUSH2 0x262 JUMP JUMPDEST SWAP2 POP PUSH2 0x3FF DUP4 PUSH2 0x262 JUMP JUMPDEST SWAP3 POP DUP3 DUP3 SUB SWAP1 POP DUP2 DUP2 GT ISZERO PUSH2 0x417 JUMPI PUSH2 0x416 PUSH2 0x2EC JUMP JUMPDEST JUMPDEST SWAP3 SWAP2 POP POP JUMP INVALID LOG2 PUSH5 0x6970667358 0x22 SLT KECCAK256 0xD2 PREVRANDAO JUMP 0xEC 0xF PUSH0 0x4E 0xCD BASEFEE PUSH30 0x5F20E9FBFF77819341216BE8A4BAE80FD4A96B05DD4464736F6C63430008 BYTE STOP CALLER "
		},
		"gasEstimates": {
			"creation": {
				"codeDepositCost": "221400",
				"executionCost": "infinite",
				"totalCost": "infinite"
			},
			"external": {
				"drive(uint256)": "infinite",
				"fuelUp(uint256)": "infinite",
				"getFuelCapacity()": "2477",
				"getKilometersPerLitre()": "2433",
				"kilometersRemaining()": "infinite",
				"startEngine()": "26564",
				"stopEngine()": "26582"
			}
		},
		"methodIdentifiers": {
			"drive(uint256)": "f1094586",
			"fuelUp(uint256)": "3e965804",
			"getFuelCapacity()": "7c45bdd9",
			"getKilometersPerLitre()": "1ba7cc2a",
			"kilometersRemaining()": "aba1db5b",
			"startEngine()": "81fb4963",
			"stopEngine()": "84d4e4eb"
		}
	},
	"abi": [
		{
			"inputs": [
				{
					"internalType": "uint256",
					"name": "_fuelTankSize",
					"type": "uint256"
				},
				{
					"internalType": "uint256",
					"name": "_kilometersPerLitre",
					"type": "uint256"
				}
			],
			"stateMutability": "nonpayable",
			"type": "constructor"
		},
		{
			"inputs": [
				{
					"internalType": "uint256",
					"name": "kilometers",
					"type": "uint256"
				}
			],
			"name": "drive",
			"outputs": [],
			"stateMutability": "nonpayable",
			"type": "function"
		},
		{
			"inputs": [
				{
					"internalType": "uint256",
					"name": "litres",
					"type": "uint256"
				}
			],
			"name": "fuelUp",
			"outputs": [],
			"stateMutability": "nonpayable",
			"type": "function"
		},
		{
			"inputs": [],
			"name": "getFuelCapacity",
			"outputs": [
				{
					"internalType": "uint256",
					"name": "",
					"type": "uint256"
				}
			],
			"stateMutability": "view",
			"type": "function"
		},
		{
			"inputs": [],
			"name": "getKilometersPerLitre",
			"outputs": [
				{
					"internalType": "uint256",
					"name": "",
					"type": "uint256"
				}
			],
			"stateMutability": "view",
			"type": "function"
		},
		{
			"inputs": [],
			"name": "kilometersRemaining",
			"outputs": [
				{
					"internalType": "uint256",
					"name": "",
					"type": "uint256"
				}
			],
			"stateMutability": "view",
			"type": "function"
		},
		{
			"inputs": [],
			"name": "startEngine",
			"outputs": [],
			"stateMutability": "nonpayable",
			"type": "function"
		},
		{
			"inputs": [],
			"name": "stopEngine",
			"outputs": [],
			"stateMutability": "nonpayable",
			"type": "function"
		}
	]
}