{
	"data": {
		"bytecode": {
			"linkReferences": {},
			"object": "608060405234801561000f575f80fd5b506040516109d53803806109d58339818101604052810190610031919061022c565b835f908161003f91906104cc565b50826001908161004f91906104cc565b50816002819055508060035f6101000a81548160ff0219169083600281111561007b5761007a61059b565b5b0217905550505050506105c8565b5f604051905090565b5f80fd5b5f80fd5b5f80fd5b5f80fd5b5f601f19601f8301169050919050565b7f4e487b71000000000000000000000000000000000000000000000000000000005f52604160045260245ffd5b6100e8826100a2565b810181811067ffffffffffffffff82111715610107576101066100b2565b5b80604052505050565b5f610119610089565b905061012582826100df565b919050565b5f67ffffffffffffffff821115610144576101436100b2565b5b61014d826100a2565b9050602081019050919050565b8281835e5f83830152505050565b5f61017a6101758461012a565b610110565b9050828152602081018484840111156101965761019561009e565b5b6101a184828561015a565b509392505050565b5f82601f8301126101bd576101bc61009a565b5b81516101cd848260208601610168565b91505092915050565b5f819050919050565b6101e8816101d6565b81146101f2575f80fd5b50565b5f81519050610203816101df565b92915050565b60038110610215575f80fd5b50565b5f8151905061022681610209565b92915050565b5f805f806080858703121561024457610243610092565b5b5f85015167ffffffffffffffff81111561026157610260610096565b5b61026d878288016101a9565b945050602085015167ffffffffffffffff81111561028e5761028d610096565b5b61029a878288016101a9565b93505060406102ab878288016101f5565b92505060606102bc87828801610218565b91505092959194509250565b5f81519050919050565b7f4e487b71000000000000000000000000000000000000000000000000000000005f52602260045260245ffd5b5f600282049050600182168061031657607f821691505b602082108103610329576103286102d2565b5b50919050565b5f819050815f5260205f209050919050565b5f6020601f8301049050919050565b5f82821b905092915050565b5f6008830261038b7fffffffffffffffffffffffffffffffffffffffffffffffffffffffffffffffff82610350565b6103958683610350565b95508019841693508086168417925050509392505050565b5f819050919050565b5f6103d06103cb6103c6846101d6565b6103ad565b6101d6565b9050919050565b5f819050919050565b6103e9836103b6565b6103fd6103f5826103d7565b84845461035c565b825550505050565b5f90565b610411610405565b61041c8184846103e0565b505050565b5b8181101561043f576104345f82610409565b600181019050610422565b5050565b601f821115610484576104558161032f565b61045e84610341565b8101602085101561046d578190505b61048161047985610341565b830182610421565b50505b505050565b5f82821c905092915050565b5f6104a45f1984600802610489565b1980831691505092915050565b5f6104bc8383610495565b9150826002028217905092915050565b6104d5826102c8565b67ffffffffffffffff8111156104ee576104ed6100b2565b5b6104f882546102ff565b610503828285610443565b5f60209050601f831160018114610534575f8415610522578287015190505b61052c85826104b1565b865550610593565b601f1984166105428661032f565b5f5b8281101561056957848901518255600182019150602085019450602081019050610544565b868310156105865784890151610582601f891682610495565b8355505b6001600288020188555050505b505050505050565b7f4e487b71000000000000000000000000000000000000000000000000000000005f52602160045260245ffd5b610400806105d55f395ff3fe608060405234801561000f575f80fd5b5060043610610034575f3560e01c8063932997f114610038578063a79488a414610056575b5f80fd5b610040610086565b60405161004d91906101ef565b60405180910390f35b610070600480360381019061006b9190610246565b610115565b60405161007d9190610280565b60405180910390f35b60605f8054610094906102c6565b80601f01602080910402602001604051908101604052809291908181526020018280546100c0906102c6565b801561010b5780601f106100e25761010080835404028352916020019161010b565b820191905f5260205f20905b8154815290600101906020018083116100ee57829003601f168201915b5050505050905090565b5f60288211610133578160025461012c9190610323565b905061017a565b5f6028836101419190610364565b90506002546002826101539190610323565b61015d9190610323565b600254602861016c9190610323565b6101769190610397565b9150505b919050565b5f81519050919050565b5f82825260208201905092915050565b8281835e5f83830152505050565b5f601f19601f8301169050919050565b5f6101c18261017f565b6101cb8185610189565b93506101db818560208601610199565b6101e4816101a7565b840191505092915050565b5f6020820190508181035f83015261020781846101b7565b905092915050565b5f80fd5b5f819050919050565b61022581610213565b811461022f575f80fd5b50565b5f813590506102408161021c565b92915050565b5f6020828403121561025b5761025a61020f565b5b5f61026884828501610232565b91505092915050565b61027a81610213565b82525050565b5f6020820190506102935f830184610271565b92915050565b7f4e487b71000000000000000000000000000000000000000000000000000000005f52602260045260245ffd5b5f60028204905060018216806102dd57607f821691505b6020821081036102f0576102ef610299565b5b50919050565b7f4e487b71000000000000000000000000000000000000000000000000000000005f52601160045260245ffd5b5f61032d82610213565b915061033883610213565b925082820261034681610213565b9150828204841483151761035d5761035c6102f6565b5b5092915050565b5f61036e82610213565b915061037983610213565b9250828203905081811115610391576103906102f6565b5b92915050565b5f6103a182610213565b91506103ac83610213565b92508282019050808211156103c4576103c36102f6565b5b9291505056fea2646970667358221220282998bdc215f901f4e22b7d9a7d35197b424b4f7c5c9b6b8248bb32a5e4d3ae64736f6c634300081a0033",
			"opcodes": "PUSH1 0x80 PUSH1 0x40 MSTORE CALLVALUE DUP1 ISZERO PUSH2 0xF JUMPI PUSH0 DUP1 REVERT JUMPDEST POP PUSH1 0x40 MLOAD PUSH2 0x9D5 CODESIZE SUB DUP1 PUSH2 0x9D5 DUP4 CODECOPY DUP2 DUP2 ADD PUSH1 0x40 MSTORE DUP2 ADD SWAP1 PUSH2 0x31 SWAP2 SWAP1 PUSH2 0x22C JUMP JUMPDEST DUP4 PUSH0 SWAP1 DUP2 PUSH2 0x3F SWAP2 SWAP1 PUSH2 0x4CC JUMP JUMPDEST POP DUP3 PUSH1 0x1 SWAP1 DUP2 PUSH2 0x4F SWAP2 SWAP1 PUSH2 0x4CC JUMP JUMPDEST POP DUP2 PUSH1 0x2 DUP2 SWAP1 SSTORE POP DUP1 PUSH1 0x3 PUSH0 PUSH2 0x100 EXP DUP2 SLOAD DUP2 PUSH1 0xFF MUL NOT AND SWAP1 DUP4 PUSH1 0x2 DUP2 GT ISZERO PUSH2 0x7B JUMPI PUSH2 0x7A PUSH2 0x59B JUMP JUMPDEST JUMPDEST MUL OR SWAP1 SSTORE POP POP POP POP POP PUSH2 0x5C8 JUMP JUMPDEST PUSH0 PUSH1 0x40 MLOAD SWAP1 POP SWAP1 JUMP JUMPDEST PUSH0 DUP1 REVERT JUMPDEST PUSH0 DUP1 REVERT JUMPDEST PUSH0 DUP1 REVERT JUMPDEST PUSH0 DUP1 REVERT JUMPDEST PUSH0 PUSH1 0x1F NOT PUSH1 0x1F DUP4 ADD AND SWAP1 POP SWAP2 SWAP1 POP JUMP JUMPDEST PUSH32 0x4E487B7100000000000000000000000000000000000000000000000000000000 PUSH0 MSTORE PUSH1 0x41 PUSH1 0x4 MSTORE PUSH1 0x24 PUSH0 REVERT JUMPDEST PUSH2 0xE8 DUP3 PUSH2 0xA2 JUMP JUMPDEST DUP2 ADD DUP2 DUP2 LT PUSH8 0xFFFFFFFFFFFFFFFF DUP3 GT OR ISZERO PUSH2 0x107 JUMPI PUSH2 0x106 PUSH2 0xB2 JUMP JUMPDEST JUMPDEST DUP1 PUSH1 0x40 MSTORE POP POP POP JUMP JUMPDEST PUSH0 PUSH2 0x119 PUSH2 0x89 JUMP JUMPDEST SWAP1 POP PUSH2 0x125 DUP3 DUP3 PUSH2 0xDF JUMP JUMPDEST SWAP2 SWAP1 POP JUMP JUMPDEST PUSH0 PUSH8 0xFFFFFFFFFFFFFFFF DUP3 GT ISZERO PUSH2 0x144 JUMPI PUSH2 0x143 PUSH2 0xB2 JUMP JUMPDEST JUMPDEST PUSH2 0x14D DUP3 PUSH2 0xA2 JUMP JUMPDEST SWAP1 POP PUSH1 0x20 DUP2 ADD SWAP1 POP SWAP2 SWAP1 POP JUMP JUMPDEST DUP3 DUP2 DUP4 MCOPY PUSH0 DUP4 DUP4 ADD MSTORE POP POP POP JUMP JUMPDEST PUSH0 PUSH2 0x17A PUSH2 0x175 DUP5 PUSH2 0x12A JUMP JUMPDEST PUSH2 0x110 JUMP JUMPDEST SWAP1 POP DUP3 DUP2 MSTORE PUSH1 0x20 DUP2 ADD DUP5 DUP5 DUP5 ADD GT ISZERO PUSH2 0x196 JUMPI PUSH2 0x195 PUSH2 0x9E JUMP JUMPDEST JUMPDEST PUSH2 0x1A1 DUP5 DUP3 DUP6 PUSH2 0x15A JUMP JUMPDEST POP SWAP4 SWAP3 POP POP POP JUMP JUMPDEST PUSH0 DUP3 PUSH1 0x1F DUP4 ADD SLT PUSH2 0x1BD JUMPI PUSH2 0x1BC PUSH2 0x9A JUMP JUMPDEST JUMPDEST DUP2 MLOAD PUSH2 0x1CD DUP5 DUP3 PUSH1 0x20 DUP7 ADD PUSH2 0x168 JUMP JUMPDEST SWAP2 POP POP SWAP3 SWAP2 POP POP JUMP JUMPDEST PUSH0 DUP2 SWAP1 POP SWAP2 SWAP1 POP JUMP JUMPDEST PUSH2 0x1E8 DUP2 PUSH2 0x1D6 JUMP JUMPDEST DUP2 EQ PUSH2 0x1F2 JUMPI PUSH0 DUP1 REVERT JUMPDEST POP JUMP JUMPDEST PUSH0 DUP2 MLOAD SWAP1 POP PUSH2 0x203 DUP2 PUSH2 0x1DF JUMP JUMPDEST SWAP3 SWAP2 POP POP JUMP JUMPDEST PUSH1 0x3 DUP2 LT PUSH2 0x215 JUMPI PUSH0 DUP1 REVERT JUMPDEST POP JUMP JUMPDEST PUSH0 DUP2 MLOAD SWAP1 POP PUSH2 0x226 DUP2 PUSH2 0x209 JUMP JUMPDEST SWAP3 SWAP2 POP POP JUMP JUMPDEST PUSH0 DUP1 PUSH0 DUP1 PUSH1 0x80 DUP6 DUP8 SUB SLT ISZERO PUSH2 0x244 JUMPI PUSH2 0x243 PUSH2 0x92 JUMP JUMPDEST JUMPDEST PUSH0 DUP6 ADD MLOAD PUSH8 0xFFFFFFFFFFFFFFFF DUP2 GT ISZERO PUSH2 0x261 JUMPI PUSH2 0x260 PUSH2 0x96 JUMP JUMPDEST JUMPDEST PUSH2 0x26D DUP8 DUP3 DUP9 ADD PUSH2 0x1A9 JUMP JUMPDEST SWAP5 POP POP PUSH1 0x20 DUP6 ADD MLOAD PUSH8 0xFFFFFFFFFFFFFFFF DUP2 GT ISZERO PUSH2 0x28E JUMPI PUSH2 0x28D PUSH2 0x96 JUMP JUMPDEST JUMPDEST PUSH2 0x29A DUP8 DUP3 DUP9 ADD PUSH2 0x1A9 JUMP JUMPDEST SWAP4 POP POP PUSH1 0x40 PUSH2 0x2AB DUP8 DUP3 DUP9 ADD PUSH2 0x1F5 JUMP JUMPDEST SWAP3 POP POP PUSH1 0x60 PUSH2 0x2BC DUP8 DUP3 DUP9 ADD PUSH2 0x218 JUMP JUMPDEST SWAP2 POP POP SWAP3 SWAP6 SWAP2 SWAP5 POP SWAP3 POP JUMP JUMPDEST PUSH0 DUP2 MLOAD SWAP1 POP SWAP2 SWAP1 POP JUMP JUMPDEST PUSH32 0x4E487B7100000000000000000000000000000000000000000000000000000000 PUSH0 MSTORE PUSH1 0x22 PUSH1 0x4 MSTORE PUSH1 0x24 PUSH0 REVERT JUMPDEST PUSH0 PUSH1 0x2 DUP3 DIV SWAP1 POP PUSH1 0x1 DUP3 AND DUP1 PUSH2 0x316 JUMPI PUSH1 0x7F DUP3 AND SWAP2 POP JUMPDEST PUSH1 0x20 DUP3 LT DUP2 SUB PUSH2 0x329 JUMPI PUSH2 0x328 PUSH2 0x2D2 JUMP JUMPDEST JUMPDEST POP SWAP2 SWAP1 POP JUMP JUMPDEST PUSH0 DUP2 SWAP1 POP DUP2 PUSH0 MSTORE PUSH1 0x20 PUSH0 KECCAK256 SWAP1 POP SWAP2 SWAP1 POP JUMP JUMPDEST PUSH0 PUSH1 0x20 PUSH1 0x1F DUP4 ADD DIV SWAP1 POP SWAP2 SWAP1 POP JUMP JUMPDEST PUSH0 DUP3 DUP3 SHL SWAP1 POP SWAP3 SWAP2 POP POP JUMP JUMPDEST PUSH0 PUSH1 0x8 DUP4 MUL PUSH2 0x38B PUSH32 0xFFFFFFFFFFFFFFFFFFFFFFFFFFFFFFFFFFFFFFFFFFFFFFFFFFFFFFFFFFFFFFFF DUP3 PUSH2 0x350 JUMP JUMPDEST PUSH2 0x395 DUP7 DUP4 PUSH2 0x350 JUMP JUMPDEST SWAP6 POP DUP1 NOT DUP5 AND SWAP4 POP DUP1 DUP7 AND DUP5 OR SWAP3 POP POP POP SWAP4 SWAP3 POP POP POP JUMP JUMPDEST PUSH0 DUP2 SWAP1 POP SWAP2 SWAP1 POP JUMP JUMPDEST PUSH0 PUSH2 0x3D0 PUSH2 0x3CB PUSH2 0x3C6 DUP5 PUSH2 0x1D6 JUMP JUMPDEST PUSH2 0x3AD JUMP JUMPDEST PUSH2 0x1D6 JUMP JUMPDEST SWAP1 POP SWAP2 SWAP1 POP JUMP JUMPDEST PUSH0 DUP2 SWAP1 POP SWAP2 SWAP1 POP JUMP JUMPDEST PUSH2 0x3E9 DUP4 PUSH2 0x3B6 JUMP JUMPDEST PUSH2 0x3FD PUSH2 0x3F5 DUP3 PUSH2 0x3D7 JUMP JUMPDEST DUP5 DUP5 SLOAD PUSH2 0x35C JUMP JUMPDEST DUP3 SSTORE POP POP POP POP JUMP JUMPDEST PUSH0 SWAP1 JUMP JUMPDEST PUSH2 0x411 PUSH2 0x405 JUMP JUMPDEST PUSH2 0x41C DUP2 DUP5 DUP5 PUSH2 0x3E0 JUMP JUMPDEST POP POP POP JUMP JUMPDEST JUMPDEST DUP2 DUP2 LT ISZERO PUSH2 0x43F JUMPI PUSH2 0x434 PUSH0 DUP3 PUSH2 0x409 JUMP JUMPDEST PUSH1 0x1 DUP2 ADD SWAP1 POP PUSH2 0x422 JUMP JUMPDEST POP POP JUMP JUMPDEST PUSH1 0x1F DUP3 GT ISZERO PUSH2 0x484 JUMPI PUSH2 0x455 DUP2 PUSH2 0x32F JUMP JUMPDEST PUSH2 0x45E DUP5 PUSH2 0x341 JUMP JUMPDEST DUP2 ADD PUSH1 0x20 DUP6 LT ISZERO PUSH2 0x46D JUMPI DUP2 SWAP1 POP JUMPDEST PUSH2 0x481 PUSH2 0x479 DUP6 PUSH2 0x341 JUMP JUMPDEST DUP4 ADD DUP3 PUSH2 0x421 JUMP JUMPDEST POP POP JUMPDEST POP POP POP JUMP JUMPDEST PUSH0 DUP3 DUP3 SHR SWAP1 POP SWAP3 SWAP2 POP POP JUMP JUMPDEST PUSH0 PUSH2 0x4A4 PUSH0 NOT DUP5 PUSH1 0x8 MUL PUSH2 0x489 JUMP JUMPDEST NOT DUP1 DUP4 AND SWAP2 POP POP SWAP3 SWAP2 POP POP JUMP JUMPDEST PUSH0 PUSH2 0x4BC DUP4 DUP4 PUSH2 0x495 JUMP JUMPDEST SWAP2 POP DUP3 PUSH1 0x2 MUL DUP3 OR SWAP1 POP SWAP3 SWAP2 POP POP JUMP JUMPDEST PUSH2 0x4D5 DUP3 PUSH2 0x2C8 JUMP JUMPDEST PUSH8 0xFFFFFFFFFFFFFFFF DUP2 GT ISZERO PUSH2 0x4EE JUMPI PUSH2 0x4ED PUSH2 0xB2 JUMP JUMPDEST JUMPDEST PUSH2 0x4F8 DUP3 SLOAD PUSH2 0x2FF JUMP JUMPDEST PUSH2 0x503 DUP3 DUP3 DUP6 PUSH2 0x443 JUMP JUMPDEST PUSH0 PUSH1 0x20 SWAP1 POP PUSH1 0x1F DUP4 GT PUSH1 0x1 DUP2 EQ PUSH2 0x534 JUMPI PUSH0 DUP5 ISZERO PUSH2 0x522 JUMPI DUP3 DUP8 ADD MLOAD SWAP1 POP JUMPDEST PUSH2 0x52C DUP6 DUP3 PUSH2 0x4B1 JUMP JUMPDEST DUP7 SSTORE POP PUSH2 0x593 JUMP JUMPDEST PUSH1 0x1F NOT DUP5 AND PUSH2 0x542 DUP7 PUSH2 0x32F JUMP JUMPDEST PUSH0 JUMPDEST DUP3 DUP2 LT ISZERO PUSH2 0x569 JUMPI DUP5 DUP10 ADD MLOAD DUP3 SSTORE PUSH1 0x1 DUP3 ADD SWAP2 POP PUSH1 0x20 DUP6 ADD SWAP5 POP PUSH1 0x20 DUP2 ADD SWAP1 POP PUSH2 0x544 JUMP JUMPDEST DUP7 DUP4 LT ISZERO PUSH2 0x586 JUMPI DUP5 DUP10 ADD MLOAD PUSH2 0x582 PUSH1 0x1F DUP10 AND DUP3 PUSH2 0x495 JUMP JUMPDEST DUP4 SSTORE POP JUMPDEST PUSH1 0x1 PUSH1 0x2 DUP9 MUL ADD DUP9 SSTORE POP POP POP JUMPDEST POP POP POP POP POP POP JUMP JUMPDEST PUSH32 0x4E487B7100000000000000000000000000000000000000000000000000000000 PUSH0 MSTORE PUSH1 0x21 PUSH1 0x4 MSTORE PUSH1 0x24 PUSH0 REVERT JUMPDEST PUSH2 0x400 DUP1 PUSH2 0x5D5 PUSH0 CODECOPY PUSH0 RETURN INVALID PUSH1 0x80 PUSH1 0x40 MSTORE CALLVALUE DUP1 ISZERO PUSH2 0xF JUMPI PUSH0 DUP1 REVERT JUMPDEST POP PUSH1 0x4 CALLDATASIZE LT PUSH2 0x34 JUMPI PUSH0 CALLDATALOAD PUSH1 0xE0 SHR DUP1 PUSH4 0x932997F1 EQ PUSH2 0x38 JUMPI DUP1 PUSH4 0xA79488A4 EQ PUSH2 0x56 JUMPI JUMPDEST PUSH0 DUP1 REVERT JUMPDEST PUSH2 0x40 PUSH2 0x86 JUMP JUMPDEST PUSH1 0x40 MLOAD PUSH2 0x4D SWAP2 SWAP1 PUSH2 0x1EF JUMP JUMPDEST PUSH1 0x40 MLOAD DUP1 SWAP2 SUB SWAP1 RETURN JUMPDEST PUSH2 0x70 PUSH1 0x4 DUP1 CALLDATASIZE SUB DUP2 ADD SWAP1 PUSH2 0x6B SWAP2 SWAP1 PUSH2 0x246 JUMP JUMPDEST PUSH2 0x115 JUMP JUMPDEST PUSH1 0x40 MLOAD PUSH2 0x7D SWAP2 SWAP1 PUSH2 0x280 JUMP JUMPDEST PUSH1 0x40 MLOAD DUP1 SWAP2 SUB SWAP1 RETURN JUMPDEST PUSH1 0x60 PUSH0 DUP1 SLOAD PUSH2 0x94 SWAP1 PUSH2 0x2C6 JUMP JUMPDEST DUP1 PUSH1 0x1F ADD PUSH1 0x20 DUP1 SWAP2 DIV MUL PUSH1 0x20 ADD PUSH1 0x40 MLOAD SWAP1 DUP2 ADD PUSH1 0x40 MSTORE DUP1 SWAP3 SWAP2 SWAP1 DUP2 DUP2 MSTORE PUSH1 0x20 ADD DUP3 DUP1 SLOAD PUSH2 0xC0 SWAP1 PUSH2 0x2C6 JUMP JUMPDEST DUP1 ISZERO PUSH2 0x10B JUMPI DUP1 PUSH1 0x1F LT PUSH2 0xE2 JUMPI PUSH2 0x100 DUP1 DUP4 SLOAD DIV MUL DUP4 MSTORE SWAP2 PUSH1 0x20 ADD SWAP2 PUSH2 0x10B JUMP JUMPDEST DUP3 ADD SWAP2 SWAP1 PUSH0 MSTORE PUSH1 0x20 PUSH0 KECCAK256 SWAP1 JUMPDEST DUP2 SLOAD DUP2 MSTORE SWAP1 PUSH1 0x1 ADD SWAP1 PUSH1 0x20 ADD DUP1 DUP4 GT PUSH2 0xEE JUMPI DUP3 SWAP1 SUB PUSH1 0x1F AND DUP3 ADD SWAP2 JUMPDEST POP POP POP POP POP SWAP1 POP SWAP1 JUMP JUMPDEST PUSH0 PUSH1 0x28 DUP3 GT PUSH2 0x133 JUMPI DUP2 PUSH1 0x2 SLOAD PUSH2 0x12C SWAP2 SWAP1 PUSH2 0x323 JUMP JUMPDEST SWAP1 POP PUSH2 0x17A JUMP JUMPDEST PUSH0 PUSH1 0x28 DUP4 PUSH2 0x141 SWAP2 SWAP1 PUSH2 0x364 JUMP JUMPDEST SWAP1 POP PUSH1 0x2 SLOAD PUSH1 0x2 DUP3 PUSH2 0x153 SWAP2 SWAP1 PUSH2 0x323 JUMP JUMPDEST PUSH2 0x15D SWAP2 SWAP1 PUSH2 0x323 JUMP JUMPDEST PUSH1 0x2 SLOAD PUSH1 0x28 PUSH2 0x16C SWAP2 SWAP1 PUSH2 0x323 JUMP JUMPDEST PUSH2 0x176 SWAP2 SWAP1 PUSH2 0x397 JUMP JUMPDEST SWAP2 POP POP JUMPDEST SWAP2 SWAP1 POP JUMP JUMPDEST PUSH0 DUP2 MLOAD SWAP1 POP SWAP2 SWAP1 POP JUMP JUMPDEST PUSH0 DUP3 DUP3 MSTORE PUSH1 0x20 DUP3 ADD SWAP1 POP SWAP3 SWAP2 POP POP JUMP JUMPDEST DUP3 DUP2 DUP4 MCOPY PUSH0 DUP4 DUP4 ADD MSTORE POP POP POP JUMP JUMPDEST PUSH0 PUSH1 0x1F NOT PUSH1 0x1F DUP4 ADD AND SWAP1 POP SWAP2 SWAP1 POP JUMP JUMPDEST PUSH0 PUSH2 0x1C1 DUP3 PUSH2 0x17F JUMP JUMPDEST PUSH2 0x1CB DUP2 DUP6 PUSH2 0x189 JUMP JUMPDEST SWAP4 POP PUSH2 0x1DB DUP2 DUP6 PUSH1 0x20 DUP7 ADD PUSH2 0x199 JUMP JUMPDEST PUSH2 0x1E4 DUP2 PUSH2 0x1A7 JUMP JUMPDEST DUP5 ADD SWAP2 POP POP SWAP3 SWAP2 POP POP JUMP JUMPDEST PUSH0 PUSH1 0x20 DUP3 ADD SWAP1 POP DUP2 DUP2 SUB PUSH0 DUP4 ADD MSTORE PUSH2 0x207 DUP2 DUP5 PUSH2 0x1B7 JUMP JUMPDEST SWAP1 POP SWAP3 SWAP2 POP POP JUMP JUMPDEST PUSH0 DUP1 REVERT JUMPDEST PUSH0 DUP2 SWAP1 POP SWAP2 SWAP1 POP JUMP JUMPDEST PUSH2 0x225 DUP2 PUSH2 0x213 JUMP JUMPDEST DUP2 EQ PUSH2 0x22F JUMPI PUSH0 DUP1 REVERT JUMPDEST POP JUMP JUMPDEST PUSH0 DUP2 CALLDATALOAD SWAP1 POP PUSH2 0x240 DUP2 PUSH2 0x21C JUMP JUMPDEST SWAP3 SWAP2 POP POP JUMP JUMPDEST PUSH0 PUSH1 0x20 DUP3 DUP5 SUB SLT ISZERO PUSH2 0x25B JUMPI PUSH2 0x25A PUSH2 0x20F JUMP JUMPDEST JUMPDEST PUSH0 PUSH2 0x268 DUP5 DUP3 DUP6 ADD PUSH2 0x232 JUMP JUMPDEST SWAP2 POP POP SWAP3 SWAP2 POP POP JUMP JUMPDEST PUSH2 0x27A DUP2 PUSH2 0x213 JUMP JUMPDEST DUP3 MSTORE POP POP JUMP JUMPDEST PUSH0 PUSH1 0x20 DUP3 ADD SWAP1 POP PUSH2 0x293 PUSH0 DUP4 ADD DUP5 PUSH2 0x271 JUMP JUMPDEST SWAP3 SWAP2 POP POP JUMP JUMPDEST PUSH32 0x4E487B7100000000000000000000000000000000000000000000000000000000 PUSH0 MSTORE PUSH1 0x22 PUSH1 0x4 MSTORE PUSH1 0x24 PUSH0 REVERT JUMPDEST PUSH0 PUSH1 0x2 DUP3 DIV SWAP1 POP PUSH1 0x1 DUP3 AND DUP1 PUSH2 0x2DD JUMPI PUSH1 0x7F DUP3 AND SWAP2 POP JUMPDEST PUSH1 0x20 DUP3 LT DUP2 SUB PUSH2 0x2F0 JUMPI PUSH2 0x2EF PUSH2 0x299 JUMP JUMPDEST JUMPDEST POP SWAP2 SWAP1 POP JUMP JUMPDEST PUSH32 0x4E487B7100000000000000000000000000000000000000000000000000000000 PUSH0 MSTORE PUSH1 0x11 PUSH1 0x4 MSTORE PUSH1 0x24 PUSH0 REVERT JUMPDEST PUSH0 PUSH2 0x32D DUP3 PUSH2 0x213 JUMP JUMPDEST SWAP2 POP PUSH2 0x338 DUP4 PUSH2 0x213 JUMP JUMPDEST SWAP3 POP DUP3 DUP3 MUL PUSH2 0x346 DUP2 PUSH2 0x213 JUMP JUMPDEST SWAP2 POP DUP3 DUP3 DIV DUP5 EQ DUP4 ISZERO OR PUSH2 0x35D JUMPI PUSH2 0x35C PUSH2 0x2F6 JUMP JUMPDEST JUMPDEST POP SWAP3 SWAP2 POP POP JUMP JUMPDEST PUSH0 PUSH2 0x36E DUP3 PUSH2 0x213 JUMP JUMPDEST SWAP2 POP PUSH2 0x379 DUP4 PUSH2 0x213 JUMP JUMPDEST SWAP3 POP DUP3 DUP3 SUB SWAP1 POP DUP2 DUP2 GT ISZERO PUSH2 0x391 JUMPI PUSH2 0x390 PUSH2 0x2F6 JUMP JUMPDEST JUMPDEST SWAP3 SWAP2 POP POP JUMP JUMPDEST PUSH0 PUSH2 0x3A1 DUP3 PUSH2 0x213 JUMP JUMPDEST SWAP2 POP PUSH2 0x3AC DUP4 PUSH2 0x213 JUMP JUMPDEST SWAP3 POP DUP3 DUP3 ADD SWAP1 POP DUP1 DUP3 GT ISZERO PUSH2 0x3C4 JUMPI PUSH2 0x3C3 PUSH2 0x2F6 JUMP JUMPDEST JUMPDEST SWAP3 SWAP2 POP POP JUMP INVALID LOG2 PUSH5 0x6970667358 0x22 SLT KECCAK256 0x28 0x29 SWAP9 0xBD 0xC2 ISZERO 0xF9 ADD DELEGATECALL 0xE2 0x2B PUSH30 0x9A7D35197B424B4F7C5C9B6B8248BB32A5E4D3AE64736F6C634300081A00 CALLER "
		},
		"gasEstimates": {
			"creation": {
				"codeDepositCost": "204800",
				"executionCost": "infinite",
				"totalCost": "infinite"
			},
			"external": {
				"getFirstName()": "infinite",
				"getWeeklyPay(uint256)": "infinite"
			}
		},
		"methodIdentifiers": {
			"getFirstName()": "932997f1",
			"getWeeklyPay(uint256)": "a79488a4"
		}
	},
	"abi": [
		{
			"inputs": [
				{
					"internalType": "string",
					"name": "_firstName",
					"type": "string"
				},
				{
					"internalType": "string",
					"name": "_lastName",
					"type": "string"
				},
				{
					"internalType": "uint256",
					"name": "_hourlyPay",
					"type": "uint256"
				},
				{
					"internalType": "enum Employee.Department",
					"name": "_department",
					"type": "uint8"
				}
			],
			"stateMutability": "nonpayable",
			"type": "constructor"
		},
		{
			"inputs": [],
			"name": "getFirstName",
			"outputs": [
				{
					"internalType": "string",
					"name": "",
					"type": "string"
				}
			],
			"stateMutability": "view",
			"type": "function"
		},
		{
			"inputs": [
				{
					"internalType": "uint256",
					"name": "hoursWorked",
					"type": "uint256"
				}
			],
			"name": "getWeeklyPay",
			"outputs": [
				{
					"internalType": "uint256",
					"name": "",
					"type": "uint256"
				}
			],
			"stateMutability": "view",
			"type": "function"
		}
	]
}