{
	"data": {
		"bytecode": {
			"linkReferences": {},
			"object": "608060405234801561000f575f80fd5b50604051611ab6380380611ab683398181016040528101906100319190610234565b83838383835f908161004391906104d4565b50826001908161005391906104d4565b50816002819055508060035f6101000a81548160ff0219169083600281111561007f5761007e6105a3565b5b021790555050505050505050506105d0565b5f604051905090565b5f80fd5b5f80fd5b5f80fd5b5f80fd5b5f601f19601f8301169050919050565b7f4e487b71000000000000000000000000000000000000000000000000000000005f52604160045260245ffd5b6100f0826100aa565b810181811067ffffffffffffffff8211171561010f5761010e6100ba565b5b80604052505050565b5f610121610091565b905061012d82826100e7565b919050565b5f67ffffffffffffffff82111561014c5761014b6100ba565b5b610155826100aa565b9050602081019050919050565b8281835e5f83830152505050565b5f61018261017d84610132565b610118565b90508281526020810184848401111561019e5761019d6100a6565b5b6101a9848285610162565b509392505050565b5f82601f8301126101c5576101c46100a2565b5b81516101d5848260208601610170565b91505092915050565b5f819050919050565b6101f0816101de565b81146101fa575f80fd5b50565b5f8151905061020b816101e7565b92915050565b6003811061021d575f80fd5b50565b5f8151905061022e81610211565b92915050565b5f805f806080858703121561024c5761024b61009a565b5b5f85015167ffffffffffffffff8111156102695761026861009e565b5b610275878288016101b1565b945050602085015167ffffffffffffffff8111156102965761029561009e565b5b6102a2878288016101b1565b93505060406102b3878288016101fd565b92505060606102c487828801610220565b91505092959194509250565b5f81519050919050565b7f4e487b71000000000000000000000000000000000000000000000000000000005f52602260045260245ffd5b5f600282049050600182168061031e57607f821691505b602082108103610331576103306102da565b5b50919050565b5f819050815f5260205f209050919050565b5f6020601f8301049050919050565b5f82821b905092915050565b5f600883026103937fffffffffffffffffffffffffffffffffffffffffffffffffffffffffffffffff82610358565b61039d8683610358565b95508019841693508086168417925050509392505050565b5f819050919050565b5f6103d86103d36103ce846101de565b6103b5565b6101de565b9050919050565b5f819050919050565b6103f1836103be565b6104056103fd826103df565b848454610364565b825550505050565b5f90565b61041961040d565b6104248184846103e8565b505050565b5b818110156104475761043c5f82610411565b60018101905061042a565b5050565b601f82111561048c5761045d81610337565b61046684610349565b81016020851015610475578190505b61048961048185610349565b830182610429565b50505b505050565b5f82821c905092915050565b5f6104ac5f1984600802610491565b1980831691505092915050565b5f6104c4838361049d565b9150826002028217905092915050565b6104dd826102d0565b67ffffffffffffffff8111156104f6576104f56100ba565b5b6105008254610307565b61050b82828561044b565b5f60209050601f83116001811461053c575f841561052a578287015190505b61053485826104b9565b86555061059b565b601f19841661054a86610337565b5f5b828110156105715784890151825560018201915060208501945060208101905061054c565b8683101561058e578489015161058a601f89168261049d565b8355505b6001600288020188555050505b505050505050565b7f4e487b71000000000000000000000000000000000000000000000000000000005f52602160045260245ffd5b6114d9806105dd5f395ff3fe608060405234801561000f575f80fd5b506004361061004a575f3560e01c8063932997f11461004e578063a79488a41461006c578063acdd0b4b1461009c578063e9086e5a146100b8575b5f80fd5b6100566100d6565b6040516100639190610432565b60405180910390f35b61008660048036038101906100819190610496565b610165565b60405161009391906104d0565b60405180910390f35b6100b660048036038101906100b19190610638565b6101cf565b005b6100c0610270565b6040516100cd91906107d7565b60405180910390f35b60605f80546100e490610824565b80601f016020809104026020016040519081016040528092919081815260200182805461011090610824565b801561015b5780601f106101325761010080835404028352916020019161015b565b820191905f5260205f20905b81548152906001019060200180831161013e57829003601f168201915b5050505050905090565b5f60288211610183578160025461017c9190610881565b90506101ca565b5f60288361019191906108c2565b90506002546002826101a39190610881565b6101ad9190610881565b60025460286101bc9190610881565b6101c691906108f5565b9150505b919050565b5f848484846040516101e0906103b5565b6101ed949392919061099b565b604051809103905ff080158015610206573d5f803e3d5ffd5b509050600481908060018154018082558091505060019003905f5260205f20015f9091909190916101000a81548173ffffffffffffffffffffffffffffffffffffffff021916908373ffffffffffffffffffffffffffffffffffffffff1602179055505050505050565b60605f60048054905067ffffffffffffffff811115610292576102916104f1565b5b6040519080825280602002602001820160405280156102c557816020015b60608152602001906001900390816102b05790505b5090505f5b6004805490508110156103ad57600481815481106102eb576102ea6109ec565b5b905f5260205f20015f9054906101000a900473ffffffffffffffffffffffffffffffffffffffff1673ffffffffffffffffffffffffffffffffffffffff1663932997f16040518163ffffffff1660e01b81526004015f60405180830381865afa15801561035a573d5f803e3d5ffd5b505050506040513d5f823e3d601f19601f820116820180604052508101906103829190610a87565b828281518110610395576103946109ec565b5b602002602001018190525080806001019150506102ca565b508091505090565b6109d580610acf83390190565b5f81519050919050565b5f82825260208201905092915050565b8281835e5f83830152505050565b5f601f19601f8301169050919050565b5f610404826103c2565b61040e81856103cc565b935061041e8185602086016103dc565b610427816103ea565b840191505092915050565b5f6020820190508181035f83015261044a81846103fa565b905092915050565b5f604051905090565b5f80fd5b5f80fd5b5f819050919050565b61047581610463565b811461047f575f80fd5b50565b5f813590506104908161046c565b92915050565b5f602082840312156104ab576104aa61045b565b5b5f6104b884828501610482565b91505092915050565b6104ca81610463565b82525050565b5f6020820190506104e35f8301846104c1565b92915050565b5f80fd5b5f80fd5b7f4e487b71000000000000000000000000000000000000000000000000000000005f52604160045260245ffd5b610527826103ea565b810181811067ffffffffffffffff82111715610546576105456104f1565b5b80604052505050565b5f610558610452565b9050610564828261051e565b919050565b5f67ffffffffffffffff821115610583576105826104f1565b5b61058c826103ea565b9050602081019050919050565b828183375f83830152505050565b5f6105b96105b484610569565b61054f565b9050828152602081018484840111156105d5576105d46104ed565b5b6105e0848285610599565b509392505050565b5f82601f8301126105fc576105fb6104e9565b5b813561060c8482602086016105a7565b91505092915050565b60038110610621575f80fd5b50565b5f8135905061063281610615565b92915050565b5f805f80608085870312156106505761064f61045b565b5b5f85013567ffffffffffffffff81111561066d5761066c61045f565b5b610679878288016105e8565b945050602085013567ffffffffffffffff81111561069a5761069961045f565b5b6106a6878288016105e8565b93505060406106b787828801610482565b92505060606106c887828801610624565b91505092959194509250565b5f81519050919050565b5f82825260208201905092915050565b5f819050602082019050919050565b5f82825260208201905092915050565b5f610717826103c2565b61072181856106fd565b93506107318185602086016103dc565b61073a816103ea565b840191505092915050565b5f610750838361070d565b905092915050565b5f602082019050919050565b5f61076e826106d4565b61077881856106de565b93508360208202850161078a856106ee565b805f5b858110156107c557848403895281516107a68582610745565b94506107b183610758565b925060208a0199505060018101905061078d565b50829750879550505050505092915050565b5f6020820190508181035f8301526107ef8184610764565b905092915050565b7f4e487b71000000000000000000000000000000000000000000000000000000005f52602260045260245ffd5b5f600282049050600182168061083b57607f821691505b60208210810361084e5761084d6107f7565b5b50919050565b7f4e487b71000000000000000000000000000000000000000000000000000000005f52601160045260245ffd5b5f61088b82610463565b915061089683610463565b92508282026108a481610463565b915082820484148315176108bb576108ba610854565b5b5092915050565b5f6108cc82610463565b91506108d783610463565b92508282039050818111156108ef576108ee610854565b5b92915050565b5f6108ff82610463565b915061090a83610463565b925082820190508082111561092257610921610854565b5b92915050565b7f4e487b71000000000000000000000000000000000000000000000000000000005f52602160045260245ffd5b6003811061096657610965610928565b5b50565b5f81905061097682610955565b919050565b5f61098582610969565b9050919050565b6109958161097b565b82525050565b5f6080820190508181035f8301526109b381876103fa565b905081810360208301526109c781866103fa565b90506109d660408301856104c1565b6109e3606083018461098c565b95945050505050565b7f4e487b71000000000000000000000000000000000000000000000000000000005f52603260045260245ffd5b5f610a2b610a2684610569565b61054f565b905082815260208101848484011115610a4757610a466104ed565b5b610a528482856103dc565b509392505050565b5f82601f830112610a6e57610a6d6104e9565b5b8151610a7e848260208601610a19565b91505092915050565b5f60208284031215610a9c57610a9b61045b565b5b5f82015167ffffffffffffffff811115610ab957610ab861045f565b5b610ac584828501610a5a565b9150509291505056fe608060405234801561000f575f80fd5b506040516109d53803806109d58339818101604052810190610031919061022c565b835f908161003f91906104cc565b50826001908161004f91906104cc565b50816002819055508060035f6101000a81548160ff0219169083600281111561007b5761007a61059b565b5b0217905550505050506105c8565b5f604051905090565b5f80fd5b5f80fd5b5f80fd5b5f80fd5b5f601f19601f8301169050919050565b7f4e487b71000000000000000000000000000000000000000000000000000000005f52604160045260245ffd5b6100e8826100a2565b810181811067ffffffffffffffff82111715610107576101066100b2565b5b80604052505050565b5f610119610089565b905061012582826100df565b919050565b5f67ffffffffffffffff821115610144576101436100b2565b5b61014d826100a2565b9050602081019050919050565b8281835e5f83830152505050565b5f61017a6101758461012a565b610110565b9050828152602081018484840111156101965761019561009e565b5b6101a184828561015a565b509392505050565b5f82601f8301126101bd576101bc61009a565b5b81516101cd848260208601610168565b91505092915050565b5f819050919050565b6101e8816101d6565b81146101f2575f80fd5b50565b5f81519050610203816101df565b92915050565b60038110610215575f80fd5b50565b5f8151905061022681610209565b92915050565b5f805f806080858703121561024457610243610092565b5b5f85015167ffffffffffffffff81111561026157610260610096565b5b61026d878288016101a9565b945050602085015167ffffffffffffffff81111561028e5761028d610096565b5b61029a878288016101a9565b93505060406102ab878288016101f5565b92505060606102bc87828801610218565b91505092959194509250565b5f81519050919050565b7f4e487b71000000000000000000000000000000000000000000000000000000005f52602260045260245ffd5b5f600282049050600182168061031657607f821691505b602082108103610329576103286102d2565b5b50919050565b5f819050815f5260205f209050919050565b5f6020601f8301049050919050565b5f82821b905092915050565b5f6008830261038b7fffffffffffffffffffffffffffffffffffffffffffffffffffffffffffffffff82610350565b6103958683610350565b95508019841693508086168417925050509392505050565b5f819050919050565b5f6103d06103cb6103c6846101d6565b6103ad565b6101d6565b9050919050565b5f819050919050565b6103e9836103b6565b6103fd6103f5826103d7565b84845461035c565b825550505050565b5f90565b610411610405565b61041c8184846103e0565b505050565b5b8181101561043f576104345f82610409565b600181019050610422565b5050565b601f821115610484576104558161032f565b61045e84610341565b8101602085101561046d578190505b61048161047985610341565b830182610421565b50505b505050565b5f82821c905092915050565b5f6104a45f1984600802610489565b1980831691505092915050565b5f6104bc8383610495565b9150826002028217905092915050565b6104d5826102c8565b67ffffffffffffffff8111156104ee576104ed6100b2565b5b6104f882546102ff565b610503828285610443565b5f60209050601f831160018114610534575f8415610522578287015190505b61052c85826104b1565b865550610593565b601f1984166105428661032f565b5f5b8281101561056957848901518255600182019150602085019450602081019050610544565b868310156105865784890151610582601f891682610495565b8355505b6001600288020188555050505b505050505050565b7f4e487b71000000000000000000000000000000000000000000000000000000005f52602160045260245ffd5b610400806105d55f395ff3fe608060405234801561000f575f80fd5b5060043610610034575f3560e01c8063932997f114610038578063a79488a414610056575b5f80fd5b610040610086565b60405161004d91906101ef565b60405180910390f35b610070600480360381019061006b9190610246565b610115565b60405161007d9190610280565b60405180910390f35b60605f8054610094906102c6565b80601f01602080910402602001604051908101604052809291908181526020018280546100c0906102c6565b801561010b5780601f106100e25761010080835404028352916020019161010b565b820191905f5260205f20905b8154815290600101906020018083116100ee57829003601f168201915b5050505050905090565b5f60288211610133578160025461012c9190610323565b905061017a565b5f6028836101419190610364565b90506002546002826101539190610323565b61015d9190610323565b600254602861016c9190610323565b6101769190610397565b9150505b919050565b5f81519050919050565b5f82825260208201905092915050565b8281835e5f83830152505050565b5f601f19601f8301169050919050565b5f6101c18261017f565b6101cb8185610189565b93506101db818560208601610199565b6101e4816101a7565b840191505092915050565b5f6020820190508181035f83015261020781846101b7565b905092915050565b5f80fd5b5f819050919050565b61022581610213565b811461022f575f80fd5b50565b5f813590506102408161021c565b92915050565b5f6020828403121561025b5761025a61020f565b5b5f61026884828501610232565b91505092915050565b61027a81610213565b82525050565b5f6020820190506102935f830184610271565b92915050565b7f4e487b71000000000000000000000000000000000000000000000000000000005f52602260045260245ffd5b5f60028204905060018216806102dd57607f821691505b6020821081036102f0576102ef610299565b5b50919050565b7f4e487b71000000000000000000000000000000000000000000000000000000005f52601160045260245ffd5b5f61032d82610213565b915061033883610213565b925082820261034681610213565b9150828204841483151761035d5761035c6102f6565b5b5092915050565b5f61036e82610213565b915061037983610213565b9250828203905081811115610391576103906102f6565b5b92915050565b5f6103a182610213565b91506103ac83610213565b92508282019050808211156103c4576103c36102f6565b5b9291505056fea2646970667358221220282998bdc215f901f4e22b7d9a7d35197b424b4f7c5c9b6b8248bb32a5e4d3ae64736f6c634300081a0033a26469706673582212208a9258ae7d91908d516a558c9830df4420786ba95552f94193687d9342a5e10964736f6c634300081a0033",
			"opcodes": "PUSH1 0x80 PUSH1 0x40 MSTORE CALLVALUE DUP1 ISZERO PUSH2 0xF JUMPI PUSH0 DUP1 REVERT JUMPDEST POP PUSH1 0x40 MLOAD PUSH2 0x1AB6 CODESIZE SUB DUP1 PUSH2 0x1AB6 DUP4 CODECOPY DUP2 DUP2 ADD PUSH1 0x40 MSTORE DUP2 ADD SWAP1 PUSH2 0x31 SWAP2 SWAP1 PUSH2 0x234 JUMP JUMPDEST DUP4 DUP4 DUP4 DUP4 DUP4 PUSH0 SWAP1 DUP2 PUSH2 0x43 SWAP2 SWAP1 PUSH2 0x4D4 JUMP JUMPDEST POP DUP3 PUSH1 0x1 SWAP1 DUP2 PUSH2 0x53 SWAP2 SWAP1 PUSH2 0x4D4 JUMP JUMPDEST POP DUP2 PUSH1 0x2 DUP2 SWAP1 SSTORE POP DUP1 PUSH1 0x3 PUSH0 PUSH2 0x100 EXP DUP2 SLOAD DUP2 PUSH1 0xFF MUL NOT AND SWAP1 DUP4 PUSH1 0x2 DUP2 GT ISZERO PUSH2 0x7F JUMPI PUSH2 0x7E PUSH2 0x5A3 JUMP JUMPDEST JUMPDEST MUL OR SWAP1 SSTORE POP POP POP POP POP POP POP POP POP PUSH2 0x5D0 JUMP JUMPDEST PUSH0 PUSH1 0x40 MLOAD SWAP1 POP SWAP1 JUMP JUMPDEST PUSH0 DUP1 REVERT JUMPDEST PUSH0 DUP1 REVERT JUMPDEST PUSH0 DUP1 REVERT JUMPDEST PUSH0 DUP1 REVERT JUMPDEST PUSH0 PUSH1 0x1F NOT PUSH1 0x1F DUP4 ADD AND SWAP1 POP SWAP2 SWAP1 POP JUMP JUMPDEST PUSH32 0x4E487B7100000000000000000000000000000000000000000000000000000000 PUSH0 MSTORE PUSH1 0x41 PUSH1 0x4 MSTORE PUSH1 0x24 PUSH0 REVERT JUMPDEST PUSH2 0xF0 DUP3 PUSH2 0xAA JUMP JUMPDEST DUP2 ADD DUP2 DUP2 LT PUSH8 0xFFFFFFFFFFFFFFFF DUP3 GT OR ISZERO PUSH2 0x10F JUMPI PUSH2 0x10E PUSH2 0xBA JUMP JUMPDEST JUMPDEST DUP1 PUSH1 0x40 MSTORE POP POP POP JUMP JUMPDEST PUSH0 PUSH2 0x121 PUSH2 0x91 JUMP JUMPDEST SWAP1 POP PUSH2 0x12D DUP3 DUP3 PUSH2 0xE7 JUMP JUMPDEST SWAP2 SWAP1 POP JUMP JUMPDEST PUSH0 PUSH8 0xFFFFFFFFFFFFFFFF DUP3 GT ISZERO PUSH2 0x14C JUMPI PUSH2 0x14B PUSH2 0xBA JUMP JUMPDEST JUMPDEST PUSH2 0x155 DUP3 PUSH2 0xAA JUMP JUMPDEST SWAP1 POP PUSH1 0x20 DUP2 ADD SWAP1 POP SWAP2 SWAP1 POP JUMP JUMPDEST DUP3 DUP2 DUP4 MCOPY PUSH0 DUP4 DUP4 ADD MSTORE POP POP POP JUMP JUMPDEST PUSH0 PUSH2 0x182 PUSH2 0x17D DUP5 PUSH2 0x132 JUMP JUMPDEST PUSH2 0x118 JUMP JUMPDEST SWAP1 POP DUP3 DUP2 MSTORE PUSH1 0x20 DUP2 ADD DUP5 DUP5 DUP5 ADD GT ISZERO PUSH2 0x19E JUMPI PUSH2 0x19D PUSH2 0xA6 JUMP JUMPDEST JUMPDEST PUSH2 0x1A9 DUP5 DUP3 DUP6 PUSH2 0x162 JUMP JUMPDEST POP SWAP4 SWAP3 POP POP POP JUMP JUMPDEST PUSH0 DUP3 PUSH1 0x1F DUP4 ADD SLT PUSH2 0x1C5 JUMPI PUSH2 0x1C4 PUSH2 0xA2 JUMP JUMPDEST JUMPDEST DUP2 MLOAD PUSH2 0x1D5 DUP5 DUP3 PUSH1 0x20 DUP7 ADD PUSH2 0x170 JUMP JUMPDEST SWAP2 POP POP SWAP3 SWAP2 POP POP JUMP JUMPDEST PUSH0 DUP2 SWAP1 POP SWAP2 SWAP1 POP JUMP JUMPDEST PUSH2 0x1F0 DUP2 PUSH2 0x1DE JUMP JUMPDEST DUP2 EQ PUSH2 0x1FA JUMPI PUSH0 DUP1 REVERT JUMPDEST POP JUMP JUMPDEST PUSH0 DUP2 MLOAD SWAP1 POP PUSH2 0x20B DUP2 PUSH2 0x1E7 JUMP JUMPDEST SWAP3 SWAP2 POP POP JUMP JUMPDEST PUSH1 0x3 DUP2 LT PUSH2 0x21D JUMPI PUSH0 DUP1 REVERT JUMPDEST POP JUMP JUMPDEST PUSH0 DUP2 MLOAD SWAP1 POP PUSH2 0x22E DUP2 PUSH2 0x211 JUMP JUMPDEST SWAP3 SWAP2 POP POP JUMP JUMPDEST PUSH0 DUP1 PUSH0 DUP1 PUSH1 0x80 DUP6 DUP8 SUB SLT ISZERO PUSH2 0x24C JUMPI PUSH2 0x24B PUSH2 0x9A JUMP JUMPDEST JUMPDEST PUSH0 DUP6 ADD MLOAD PUSH8 0xFFFFFFFFFFFFFFFF DUP2 GT ISZERO PUSH2 0x269 JUMPI PUSH2 0x268 PUSH2 0x9E JUMP JUMPDEST JUMPDEST PUSH2 0x275 DUP8 DUP3 DUP9 ADD PUSH2 0x1B1 JUMP JUMPDEST SWAP5 POP POP PUSH1 0x20 DUP6 ADD MLOAD PUSH8 0xFFFFFFFFFFFFFFFF DUP2 GT ISZERO PUSH2 0x296 JUMPI PUSH2 0x295 PUSH2 0x9E JUMP JUMPDEST JUMPDEST PUSH2 0x2A2 DUP8 DUP3 DUP9 ADD PUSH2 0x1B1 JUMP JUMPDEST SWAP4 POP POP PUSH1 0x40 PUSH2 0x2B3 DUP8 DUP3 DUP9 ADD PUSH2 0x1FD JUMP JUMPDEST SWAP3 POP POP PUSH1 0x60 PUSH2 0x2C4 DUP8 DUP3 DUP9 ADD PUSH2 0x220 JUMP JUMPDEST SWAP2 POP POP SWAP3 SWAP6 SWAP2 SWAP5 POP SWAP3 POP JUMP JUMPDEST PUSH0 DUP2 MLOAD SWAP1 POP SWAP2 SWAP1 POP JUMP JUMPDEST PUSH32 0x4E487B7100000000000000000000000000000000000000000000000000000000 PUSH0 MSTORE PUSH1 0x22 PUSH1 0x4 MSTORE PUSH1 0x24 PUSH0 REVERT JUMPDEST PUSH0 PUSH1 0x2 DUP3 DIV SWAP1 POP PUSH1 0x1 DUP3 AND DUP1 PUSH2 0x31E JUMPI PUSH1 0x7F DUP3 AND SWAP2 POP JUMPDEST PUSH1 0x20 DUP3 LT DUP2 SUB PUSH2 0x331 JUMPI PUSH2 0x330 PUSH2 0x2DA JUMP JUMPDEST JUMPDEST POP SWAP2 SWAP1 POP JUMP JUMPDEST PUSH0 DUP2 SWAP1 POP DUP2 PUSH0 MSTORE PUSH1 0x20 PUSH0 KECCAK256 SWAP1 POP SWAP2 SWAP1 POP JUMP JUMPDEST PUSH0 PUSH1 0x20 PUSH1 0x1F DUP4 ADD DIV SWAP1 POP SWAP2 SWAP1 POP JUMP JUMPDEST PUSH0 DUP3 DUP3 SHL SWAP1 POP SWAP3 SWAP2 POP POP JUMP JUMPDEST PUSH0 PUSH1 0x8 DUP4 MUL PUSH2 0x393 PUSH32 0xFFFFFFFFFFFFFFFFFFFFFFFFFFFFFFFFFFFFFFFFFFFFFFFFFFFFFFFFFFFFFFFF DUP3 PUSH2 0x358 JUMP JUMPDEST PUSH2 0x39D DUP7 DUP4 PUSH2 0x358 JUMP JUMPDEST SWAP6 POP DUP1 NOT DUP5 AND SWAP4 POP DUP1 DUP7 AND DUP5 OR SWAP3 POP POP POP SWAP4 SWAP3 POP POP POP JUMP JUMPDEST PUSH0 DUP2 SWAP1 POP SWAP2 SWAP1 POP JUMP JUMPDEST PUSH0 PUSH2 0x3D8 PUSH2 0x3D3 PUSH2 0x3CE DUP5 PUSH2 0x1DE JUMP JUMPDEST PUSH2 0x3B5 JUMP JUMPDEST PUSH2 0x1DE JUMP JUMPDEST SWAP1 POP SWAP2 SWAP1 POP JUMP JUMPDEST PUSH0 DUP2 SWAP1 POP SWAP2 SWAP1 POP JUMP JUMPDEST PUSH2 0x3F1 DUP4 PUSH2 0x3BE JUMP JUMPDEST PUSH2 0x405 PUSH2 0x3FD DUP3 PUSH2 0x3DF JUMP JUMPDEST DUP5 DUP5 SLOAD PUSH2 0x364 JUMP JUMPDEST DUP3 SSTORE POP POP POP POP JUMP JUMPDEST PUSH0 SWAP1 JUMP JUMPDEST PUSH2 0x419 PUSH2 0x40D JUMP JUMPDEST PUSH2 0x424 DUP2 DUP5 DUP5 PUSH2 0x3E8 JUMP JUMPDEST POP POP POP JUMP JUMPDEST JUMPDEST DUP2 DUP2 LT ISZERO PUSH2 0x447 JUMPI PUSH2 0x43C PUSH0 DUP3 PUSH2 0x411 JUMP JUMPDEST PUSH1 0x1 DUP2 ADD SWAP1 POP PUSH2 0x42A JUMP JUMPDEST POP POP JUMP JUMPDEST PUSH1 0x1F DUP3 GT ISZERO PUSH2 0x48C JUMPI PUSH2 0x45D DUP2 PUSH2 0x337 JUMP JUMPDEST PUSH2 0x466 DUP5 PUSH2 0x349 JUMP JUMPDEST DUP2 ADD PUSH1 0x20 DUP6 LT ISZERO PUSH2 0x475 JUMPI DUP2 SWAP1 POP JUMPDEST PUSH2 0x489 PUSH2 0x481 DUP6 PUSH2 0x349 JUMP JUMPDEST DUP4 ADD DUP3 PUSH2 0x429 JUMP JUMPDEST POP POP JUMPDEST POP POP POP JUMP JUMPDEST PUSH0 DUP3 DUP3 SHR SWAP1 POP SWAP3 SWAP2 POP POP JUMP JUMPDEST PUSH0 PUSH2 0x4AC PUSH0 NOT DUP5 PUSH1 0x8 MUL PUSH2 0x491 JUMP JUMPDEST NOT DUP1 DUP4 AND SWAP2 POP POP SWAP3 SWAP2 POP POP JUMP JUMPDEST PUSH0 PUSH2 0x4C4 DUP4 DUP4 PUSH2 0x49D JUMP JUMPDEST SWAP2 POP DUP3 PUSH1 0x2 MUL DUP3 OR SWAP1 POP SWAP3 SWAP2 POP POP JUMP JUMPDEST PUSH2 0x4DD DUP3 PUSH2 0x2D0 JUMP JUMPDEST PUSH8 0xFFFFFFFFFFFFFFFF DUP2 GT ISZERO PUSH2 0x4F6 JUMPI PUSH2 0x4F5 PUSH2 0xBA JUMP JUMPDEST JUMPDEST PUSH2 0x500 DUP3 SLOAD PUSH2 0x307 JUMP JUMPDEST PUSH2 0x50B DUP3 DUP3 DUP6 PUSH2 0x44B JUMP JUMPDEST PUSH0 PUSH1 0x20 SWAP1 POP PUSH1 0x1F DUP4 GT PUSH1 0x1 DUP2 EQ PUSH2 0x53C JUMPI PUSH0 DUP5 ISZERO PUSH2 0x52A JUMPI DUP3 DUP8 ADD MLOAD SWAP1 POP JUMPDEST PUSH2 0x534 DUP6 DUP3 PUSH2 0x4B9 JUMP JUMPDEST DUP7 SSTORE POP PUSH2 0x59B JUMP JUMPDEST PUSH1 0x1F NOT DUP5 AND PUSH2 0x54A DUP7 PUSH2 0x337 JUMP JUMPDEST PUSH0 JUMPDEST DUP3 DUP2 LT ISZERO PUSH2 0x571 JUMPI DUP5 DUP10 ADD MLOAD DUP3 SSTORE PUSH1 0x1 DUP3 ADD SWAP2 POP PUSH1 0x20 DUP6 ADD SWAP5 POP PUSH1 0x20 DUP2 ADD SWAP1 POP PUSH2 0x54C JUMP JUMPDEST DUP7 DUP4 LT ISZERO PUSH2 0x58E JUMPI DUP5 DUP10 ADD MLOAD PUSH2 0x58A PUSH1 0x1F DUP10 AND DUP3 PUSH2 0x49D JUMP JUMPDEST DUP4 SSTORE POP JUMPDEST PUSH1 0x1 PUSH1 0x2 DUP9 MUL ADD DUP9 SSTORE POP POP POP JUMPDEST POP POP POP POP POP POP JUMP JUMPDEST PUSH32 0x4E487B7100000000000000000000000000000000000000000000000000000000 PUSH0 MSTORE PUSH1 0x21 PUSH1 0x4 MSTORE PUSH1 0x24 PUSH0 REVERT JUMPDEST PUSH2 0x14D9 DUP1 PUSH2 0x5DD PUSH0 CODECOPY PUSH0 RETURN INVALID PUSH1 0x80 PUSH1 0x40 MSTORE CALLVALUE DUP1 ISZERO PUSH2 0xF JUMPI PUSH0 DUP1 REVERT JUMPDEST POP PUSH1 0x4 CALLDATASIZE LT PUSH2 0x4A JUMPI PUSH0 CALLDATALOAD PUSH1 0xE0 SHR DUP1 PUSH4 0x932997F1 EQ PUSH2 0x4E JUMPI DUP1 PUSH4 0xA79488A4 EQ PUSH2 0x6C JUMPI DUP1 PUSH4 0xACDD0B4B EQ PUSH2 0x9C JUMPI DUP1 PUSH4 0xE9086E5A EQ PUSH2 0xB8 JUMPI JUMPDEST PUSH0 DUP1 REVERT JUMPDEST PUSH2 0x56 PUSH2 0xD6 JUMP JUMPDEST PUSH1 0x40 MLOAD PUSH2 0x63 SWAP2 SWAP1 PUSH2 0x432 JUMP JUMPDEST PUSH1 0x40 MLOAD DUP1 SWAP2 SUB SWAP1 RETURN JUMPDEST PUSH2 0x86 PUSH1 0x4 DUP1 CALLDATASIZE SUB DUP2 ADD SWAP1 PUSH2 0x81 SWAP2 SWAP1 PUSH2 0x496 JUMP JUMPDEST PUSH2 0x165 JUMP JUMPDEST PUSH1 0x40 MLOAD PUSH2 0x93 SWAP2 SWAP1 PUSH2 0x4D0 JUMP JUMPDEST PUSH1 0x40 MLOAD DUP1 SWAP2 SUB SWAP1 RETURN JUMPDEST PUSH2 0xB6 PUSH1 0x4 DUP1 CALLDATASIZE SUB DUP2 ADD SWAP1 PUSH2 0xB1 SWAP2 SWAP1 PUSH2 0x638 JUMP JUMPDEST PUSH2 0x1CF JUMP JUMPDEST STOP JUMPDEST PUSH2 0xC0 PUSH2 0x270 JUMP JUMPDEST PUSH1 0x40 MLOAD PUSH2 0xCD SWAP2 SWAP1 PUSH2 0x7D7 JUMP JUMPDEST PUSH1 0x40 MLOAD DUP1 SWAP2 SUB SWAP1 RETURN JUMPDEST PUSH1 0x60 PUSH0 DUP1 SLOAD PUSH2 0xE4 SWAP1 PUSH2 0x824 JUMP JUMPDEST DUP1 PUSH1 0x1F ADD PUSH1 0x20 DUP1 SWAP2 DIV MUL PUSH1 0x20 ADD PUSH1 0x40 MLOAD SWAP1 DUP2 ADD PUSH1 0x40 MSTORE DUP1 SWAP3 SWAP2 SWAP1 DUP2 DUP2 MSTORE PUSH1 0x20 ADD DUP3 DUP1 SLOAD PUSH2 0x110 SWAP1 PUSH2 0x824 JUMP JUMPDEST DUP1 ISZERO PUSH2 0x15B JUMPI DUP1 PUSH1 0x1F LT PUSH2 0x132 JUMPI PUSH2 0x100 DUP1 DUP4 SLOAD DIV MUL DUP4 MSTORE SWAP2 PUSH1 0x20 ADD SWAP2 PUSH2 0x15B JUMP JUMPDEST DUP3 ADD SWAP2 SWAP1 PUSH0 MSTORE PUSH1 0x20 PUSH0 KECCAK256 SWAP1 JUMPDEST DUP2 SLOAD DUP2 MSTORE SWAP1 PUSH1 0x1 ADD SWAP1 PUSH1 0x20 ADD DUP1 DUP4 GT PUSH2 0x13E JUMPI DUP3 SWAP1 SUB PUSH1 0x1F AND DUP3 ADD SWAP2 JUMPDEST POP POP POP POP POP SWAP1 POP SWAP1 JUMP JUMPDEST PUSH0 PUSH1 0x28 DUP3 GT PUSH2 0x183 JUMPI DUP2 PUSH1 0x2 SLOAD PUSH2 0x17C SWAP2 SWAP1 PUSH2 0x881 JUMP JUMPDEST SWAP1 POP PUSH2 0x1CA JUMP JUMPDEST PUSH0 PUSH1 0x28 DUP4 PUSH2 0x191 SWAP2 SWAP1 PUSH2 0x8C2 JUMP JUMPDEST SWAP1 POP PUSH1 0x2 SLOAD PUSH1 0x2 DUP3 PUSH2 0x1A3 SWAP2 SWAP1 PUSH2 0x881 JUMP JUMPDEST PUSH2 0x1AD SWAP2 SWAP1 PUSH2 0x881 JUMP JUMPDEST PUSH1 0x2 SLOAD PUSH1 0x28 PUSH2 0x1BC SWAP2 SWAP1 PUSH2 0x881 JUMP JUMPDEST PUSH2 0x1C6 SWAP2 SWAP1 PUSH2 0x8F5 JUMP JUMPDEST SWAP2 POP POP JUMPDEST SWAP2 SWAP1 POP JUMP JUMPDEST PUSH0 DUP5 DUP5 DUP5 DUP5 PUSH1 0x40 MLOAD PUSH2 0x1E0 SWAP1 PUSH2 0x3B5 JUMP JUMPDEST PUSH2 0x1ED SWAP5 SWAP4 SWAP3 SWAP2 SWAP1 PUSH2 0x99B JUMP JUMPDEST PUSH1 0x40 MLOAD DUP1 SWAP2 SUB SWAP1 PUSH0 CREATE DUP1 ISZERO DUP1 ISZERO PUSH2 0x206 JUMPI RETURNDATASIZE PUSH0 DUP1 RETURNDATACOPY RETURNDATASIZE PUSH0 REVERT JUMPDEST POP SWAP1 POP PUSH1 0x4 DUP2 SWAP1 DUP1 PUSH1 0x1 DUP2 SLOAD ADD DUP1 DUP3 SSTORE DUP1 SWAP2 POP POP PUSH1 0x1 SWAP1 SUB SWAP1 PUSH0 MSTORE PUSH1 0x20 PUSH0 KECCAK256 ADD PUSH0 SWAP1 SWAP2 SWAP1 SWAP2 SWAP1 SWAP2 PUSH2 0x100 EXP DUP2 SLOAD DUP2 PUSH20 0xFFFFFFFFFFFFFFFFFFFFFFFFFFFFFFFFFFFFFFFF MUL NOT AND SWAP1 DUP4 PUSH20 0xFFFFFFFFFFFFFFFFFFFFFFFFFFFFFFFFFFFFFFFF AND MUL OR SWAP1 SSTORE POP POP POP POP POP POP JUMP JUMPDEST PUSH1 0x60 PUSH0 PUSH1 0x4 DUP1 SLOAD SWAP1 POP PUSH8 0xFFFFFFFFFFFFFFFF DUP2 GT ISZERO PUSH2 0x292 JUMPI PUSH2 0x291 PUSH2 0x4F1 JUMP JUMPDEST JUMPDEST PUSH1 0x40 MLOAD SWAP1 DUP1 DUP3 MSTORE DUP1 PUSH1 0x20 MUL PUSH1 0x20 ADD DUP3 ADD PUSH1 0x40 MSTORE DUP1 ISZERO PUSH2 0x2C5 JUMPI DUP2 PUSH1 0x20 ADD JUMPDEST PUSH1 0x60 DUP2 MSTORE PUSH1 0x20 ADD SWAP1 PUSH1 0x1 SWAP1 SUB SWAP1 DUP2 PUSH2 0x2B0 JUMPI SWAP1 POP JUMPDEST POP SWAP1 POP PUSH0 JUMPDEST PUSH1 0x4 DUP1 SLOAD SWAP1 POP DUP2 LT ISZERO PUSH2 0x3AD JUMPI PUSH1 0x4 DUP2 DUP2 SLOAD DUP2 LT PUSH2 0x2EB JUMPI PUSH2 0x2EA PUSH2 0x9EC JUMP JUMPDEST JUMPDEST SWAP1 PUSH0 MSTORE PUSH1 0x20 PUSH0 KECCAK256 ADD PUSH0 SWAP1 SLOAD SWAP1 PUSH2 0x100 EXP SWAP1 DIV PUSH20 0xFFFFFFFFFFFFFFFFFFFFFFFFFFFFFFFFFFFFFFFF AND PUSH20 0xFFFFFFFFFFFFFFFFFFFFFFFFFFFFFFFFFFFFFFFF AND PUSH4 0x932997F1 PUSH1 0x40 MLOAD DUP2 PUSH4 0xFFFFFFFF AND PUSH1 0xE0 SHL DUP2 MSTORE PUSH1 0x4 ADD PUSH0 PUSH1 0x40 MLOAD DUP1 DUP4 SUB DUP2 DUP7 GAS STATICCALL ISZERO DUP1 ISZERO PUSH2 0x35A JUMPI RETURNDATASIZE PUSH0 DUP1 RETURNDATACOPY RETURNDATASIZE PUSH0 REVERT JUMPDEST POP POP POP POP PUSH1 0x40 MLOAD RETURNDATASIZE PUSH0 DUP3 RETURNDATACOPY RETURNDATASIZE PUSH1 0x1F NOT PUSH1 0x1F DUP3 ADD AND DUP3 ADD DUP1 PUSH1 0x40 MSTORE POP DUP2 ADD SWAP1 PUSH2 0x382 SWAP2 SWAP1 PUSH2 0xA87 JUMP JUMPDEST DUP3 DUP3 DUP2 MLOAD DUP2 LT PUSH2 0x395 JUMPI PUSH2 0x394 PUSH2 0x9EC JUMP JUMPDEST JUMPDEST PUSH1 0x20 MUL PUSH1 0x20 ADD ADD DUP2 SWAP1 MSTORE POP DUP1 DUP1 PUSH1 0x1 ADD SWAP2 POP POP PUSH2 0x2CA JUMP JUMPDEST POP DUP1 SWAP2 POP POP SWAP1 JUMP JUMPDEST PUSH2 0x9D5 DUP1 PUSH2 0xACF DUP4 CODECOPY ADD SWAP1 JUMP JUMPDEST PUSH0 DUP2 MLOAD SWAP1 POP SWAP2 SWAP1 POP JUMP JUMPDEST PUSH0 DUP3 DUP3 MSTORE PUSH1 0x20 DUP3 ADD SWAP1 POP SWAP3 SWAP2 POP POP JUMP JUMPDEST DUP3 DUP2 DUP4 MCOPY PUSH0 DUP4 DUP4 ADD MSTORE POP POP POP JUMP JUMPDEST PUSH0 PUSH1 0x1F NOT PUSH1 0x1F DUP4 ADD AND SWAP1 POP SWAP2 SWAP1 POP JUMP JUMPDEST PUSH0 PUSH2 0x404 DUP3 PUSH2 0x3C2 JUMP JUMPDEST PUSH2 0x40E DUP2 DUP6 PUSH2 0x3CC JUMP JUMPDEST SWAP4 POP PUSH2 0x41E DUP2 DUP6 PUSH1 0x20 DUP7 ADD PUSH2 0x3DC JUMP JUMPDEST PUSH2 0x427 DUP2 PUSH2 0x3EA JUMP JUMPDEST DUP5 ADD SWAP2 POP POP SWAP3 SWAP2 POP POP JUMP JUMPDEST PUSH0 PUSH1 0x20 DUP3 ADD SWAP1 POP DUP2 DUP2 SUB PUSH0 DUP4 ADD MSTORE PUSH2 0x44A DUP2 DUP5 PUSH2 0x3FA JUMP JUMPDEST SWAP1 POP SWAP3 SWAP2 POP POP JUMP JUMPDEST PUSH0 PUSH1 0x40 MLOAD SWAP1 POP SWAP1 JUMP JUMPDEST PUSH0 DUP1 REVERT JUMPDEST PUSH0 DUP1 REVERT JUMPDEST PUSH0 DUP2 SWAP1 POP SWAP2 SWAP1 POP JUMP JUMPDEST PUSH2 0x475 DUP2 PUSH2 0x463 JUMP JUMPDEST DUP2 EQ PUSH2 0x47F JUMPI PUSH0 DUP1 REVERT JUMPDEST POP JUMP JUMPDEST PUSH0 DUP2 CALLDATALOAD SWAP1 POP PUSH2 0x490 DUP2 PUSH2 0x46C JUMP JUMPDEST SWAP3 SWAP2 POP POP JUMP JUMPDEST PUSH0 PUSH1 0x20 DUP3 DUP5 SUB SLT ISZERO PUSH2 0x4AB JUMPI PUSH2 0x4AA PUSH2 0x45B JUMP JUMPDEST JUMPDEST PUSH0 PUSH2 0x4B8 DUP5 DUP3 DUP6 ADD PUSH2 0x482 JUMP JUMPDEST SWAP2 POP POP SWAP3 SWAP2 POP POP JUMP JUMPDEST PUSH2 0x4CA DUP2 PUSH2 0x463 JUMP JUMPDEST DUP3 MSTORE POP POP JUMP JUMPDEST PUSH0 PUSH1 0x20 DUP3 ADD SWAP1 POP PUSH2 0x4E3 PUSH0 DUP4 ADD DUP5 PUSH2 0x4C1 JUMP JUMPDEST SWAP3 SWAP2 POP POP JUMP JUMPDEST PUSH0 DUP1 REVERT JUMPDEST PUSH0 DUP1 REVERT JUMPDEST PUSH32 0x4E487B7100000000000000000000000000000000000000000000000000000000 PUSH0 MSTORE PUSH1 0x41 PUSH1 0x4 MSTORE PUSH1 0x24 PUSH0 REVERT JUMPDEST PUSH2 0x527 DUP3 PUSH2 0x3EA JUMP JUMPDEST DUP2 ADD DUP2 DUP2 LT PUSH8 0xFFFFFFFFFFFFFFFF DUP3 GT OR ISZERO PUSH2 0x546 JUMPI PUSH2 0x545 PUSH2 0x4F1 JUMP JUMPDEST JUMPDEST DUP1 PUSH1 0x40 MSTORE POP POP POP JUMP JUMPDEST PUSH0 PUSH2 0x558 PUSH2 0x452 JUMP JUMPDEST SWAP1 POP PUSH2 0x564 DUP3 DUP3 PUSH2 0x51E JUMP JUMPDEST SWAP2 SWAP1 POP JUMP JUMPDEST PUSH0 PUSH8 0xFFFFFFFFFFFFFFFF DUP3 GT ISZERO PUSH2 0x583 JUMPI PUSH2 0x582 PUSH2 0x4F1 JUMP JUMPDEST JUMPDEST PUSH2 0x58C DUP3 PUSH2 0x3EA JUMP JUMPDEST SWAP1 POP PUSH1 0x20 DUP2 ADD SWAP1 POP SWAP2 SWAP1 POP JUMP JUMPDEST DUP3 DUP2 DUP4 CALLDATACOPY PUSH0 DUP4 DUP4 ADD MSTORE POP POP POP JUMP JUMPDEST PUSH0 PUSH2 0x5B9 PUSH2 0x5B4 DUP5 PUSH2 0x569 JUMP JUMPDEST PUSH2 0x54F JUMP JUMPDEST SWAP1 POP DUP3 DUP2 MSTORE PUSH1 0x20 DUP2 ADD DUP5 DUP5 DUP5 ADD GT ISZERO PUSH2 0x5D5 JUMPI PUSH2 0x5D4 PUSH2 0x4ED JUMP JUMPDEST JUMPDEST PUSH2 0x5E0 DUP5 DUP3 DUP6 PUSH2 0x599 JUMP JUMPDEST POP SWAP4 SWAP3 POP POP POP JUMP JUMPDEST PUSH0 DUP3 PUSH1 0x1F DUP4 ADD SLT PUSH2 0x5FC JUMPI PUSH2 0x5FB PUSH2 0x4E9 JUMP JUMPDEST JUMPDEST DUP2 CALLDATALOAD PUSH2 0x60C DUP5 DUP3 PUSH1 0x20 DUP7 ADD PUSH2 0x5A7 JUMP JUMPDEST SWAP2 POP POP SWAP3 SWAP2 POP POP JUMP JUMPDEST PUSH1 0x3 DUP2 LT PUSH2 0x621 JUMPI PUSH0 DUP1 REVERT JUMPDEST POP JUMP JUMPDEST PUSH0 DUP2 CALLDATALOAD SWAP1 POP PUSH2 0x632 DUP2 PUSH2 0x615 JUMP JUMPDEST SWAP3 SWAP2 POP POP JUMP JUMPDEST PUSH0 DUP1 PUSH0 DUP1 PUSH1 0x80 DUP6 DUP8 SUB SLT ISZERO PUSH2 0x650 JUMPI PUSH2 0x64F PUSH2 0x45B JUMP JUMPDEST JUMPDEST PUSH0 DUP6 ADD CALLDATALOAD PUSH8 0xFFFFFFFFFFFFFFFF DUP2 GT ISZERO PUSH2 0x66D JUMPI PUSH2 0x66C PUSH2 0x45F JUMP JUMPDEST JUMPDEST PUSH2 0x679 DUP8 DUP3 DUP9 ADD PUSH2 0x5E8 JUMP JUMPDEST SWAP5 POP POP PUSH1 0x20 DUP6 ADD CALLDATALOAD PUSH8 0xFFFFFFFFFFFFFFFF DUP2 GT ISZERO PUSH2 0x69A JUMPI PUSH2 0x699 PUSH2 0x45F JUMP JUMPDEST JUMPDEST PUSH2 0x6A6 DUP8 DUP3 DUP9 ADD PUSH2 0x5E8 JUMP JUMPDEST SWAP4 POP POP PUSH1 0x40 PUSH2 0x6B7 DUP8 DUP3 DUP9 ADD PUSH2 0x482 JUMP JUMPDEST SWAP3 POP POP PUSH1 0x60 PUSH2 0x6C8 DUP8 DUP3 DUP9 ADD PUSH2 0x624 JUMP JUMPDEST SWAP2 POP POP SWAP3 SWAP6 SWAP2 SWAP5 POP SWAP3 POP JUMP JUMPDEST PUSH0 DUP2 MLOAD SWAP1 POP SWAP2 SWAP1 POP JUMP JUMPDEST PUSH0 DUP3 DUP3 MSTORE PUSH1 0x20 DUP3 ADD SWAP1 POP SWAP3 SWAP2 POP POP JUMP JUMPDEST PUSH0 DUP2 SWAP1 POP PUSH1 0x20 DUP3 ADD SWAP1 POP SWAP2 SWAP1 POP JUMP JUMPDEST PUSH0 DUP3 DUP3 MSTORE PUSH1 0x20 DUP3 ADD SWAP1 POP SWAP3 SWAP2 POP POP JUMP JUMPDEST PUSH0 PUSH2 0x717 DUP3 PUSH2 0x3C2 JUMP JUMPDEST PUSH2 0x721 DUP2 DUP6 PUSH2 0x6FD JUMP JUMPDEST SWAP4 POP PUSH2 0x731 DUP2 DUP6 PUSH1 0x20 DUP7 ADD PUSH2 0x3DC JUMP JUMPDEST PUSH2 0x73A DUP2 PUSH2 0x3EA JUMP JUMPDEST DUP5 ADD SWAP2 POP POP SWAP3 SWAP2 POP POP JUMP JUMPDEST PUSH0 PUSH2 0x750 DUP4 DUP4 PUSH2 0x70D JUMP JUMPDEST SWAP1 POP SWAP3 SWAP2 POP POP JUMP JUMPDEST PUSH0 PUSH1 0x20 DUP3 ADD SWAP1 POP SWAP2 SWAP1 POP JUMP JUMPDEST PUSH0 PUSH2 0x76E DUP3 PUSH2 0x6D4 JUMP JUMPDEST PUSH2 0x778 DUP2 DUP6 PUSH2 0x6DE JUMP JUMPDEST SWAP4 POP DUP4 PUSH1 0x20 DUP3 MUL DUP6 ADD PUSH2 0x78A DUP6 PUSH2 0x6EE JUMP JUMPDEST DUP1 PUSH0 JUMPDEST DUP6 DUP2 LT ISZERO PUSH2 0x7C5 JUMPI DUP5 DUP5 SUB DUP10 MSTORE DUP2 MLOAD PUSH2 0x7A6 DUP6 DUP3 PUSH2 0x745 JUMP JUMPDEST SWAP5 POP PUSH2 0x7B1 DUP4 PUSH2 0x758 JUMP JUMPDEST SWAP3 POP PUSH1 0x20 DUP11 ADD SWAP10 POP POP PUSH1 0x1 DUP2 ADD SWAP1 POP PUSH2 0x78D JUMP JUMPDEST POP DUP3 SWAP8 POP DUP8 SWAP6 POP POP POP POP POP POP SWAP3 SWAP2 POP POP JUMP JUMPDEST PUSH0 PUSH1 0x20 DUP3 ADD SWAP1 POP DUP2 DUP2 SUB PUSH0 DUP4 ADD MSTORE PUSH2 0x7EF DUP2 DUP5 PUSH2 0x764 JUMP JUMPDEST SWAP1 POP SWAP3 SWAP2 POP POP JUMP JUMPDEST PUSH32 0x4E487B7100000000000000000000000000000000000000000000000000000000 PUSH0 MSTORE PUSH1 0x22 PUSH1 0x4 MSTORE PUSH1 0x24 PUSH0 REVERT JUMPDEST PUSH0 PUSH1 0x2 DUP3 DIV SWAP1 POP PUSH1 0x1 DUP3 AND DUP1 PUSH2 0x83B JUMPI PUSH1 0x7F DUP3 AND SWAP2 POP JUMPDEST PUSH1 0x20 DUP3 LT DUP2 SUB PUSH2 0x84E JUMPI PUSH2 0x84D PUSH2 0x7F7 JUMP JUMPDEST JUMPDEST POP SWAP2 SWAP1 POP JUMP JUMPDEST PUSH32 0x4E487B7100000000000000000000000000000000000000000000000000000000 PUSH0 MSTORE PUSH1 0x11 PUSH1 0x4 MSTORE PUSH1 0x24 PUSH0 REVERT JUMPDEST PUSH0 PUSH2 0x88B DUP3 PUSH2 0x463 JUMP JUMPDEST SWAP2 POP PUSH2 0x896 DUP4 PUSH2 0x463 JUMP JUMPDEST SWAP3 POP DUP3 DUP3 MUL PUSH2 0x8A4 DUP2 PUSH2 0x463 JUMP JUMPDEST SWAP2 POP DUP3 DUP3 DIV DUP5 EQ DUP4 ISZERO OR PUSH2 0x8BB JUMPI PUSH2 0x8BA PUSH2 0x854 JUMP JUMPDEST JUMPDEST POP SWAP3 SWAP2 POP POP JUMP JUMPDEST PUSH0 PUSH2 0x8CC DUP3 PUSH2 0x463 JUMP JUMPDEST SWAP2 POP PUSH2 0x8D7 DUP4 PUSH2 0x463 JUMP JUMPDEST SWAP3 POP DUP3 DUP3 SUB SWAP1 POP DUP2 DUP2 GT ISZERO PUSH2 0x8EF JUMPI PUSH2 0x8EE PUSH2 0x854 JUMP JUMPDEST JUMPDEST SWAP3 SWAP2 POP POP JUMP JUMPDEST PUSH0 PUSH2 0x8FF DUP3 PUSH2 0x463 JUMP JUMPDEST SWAP2 POP PUSH2 0x90A DUP4 PUSH2 0x463 JUMP JUMPDEST SWAP3 POP DUP3 DUP3 ADD SWAP1 POP DUP1 DUP3 GT ISZERO PUSH2 0x922 JUMPI PUSH2 0x921 PUSH2 0x854 JUMP JUMPDEST JUMPDEST SWAP3 SWAP2 POP POP JUMP JUMPDEST PUSH32 0x4E487B7100000000000000000000000000000000000000000000000000000000 PUSH0 MSTORE PUSH1 0x21 PUSH1 0x4 MSTORE PUSH1 0x24 PUSH0 REVERT JUMPDEST PUSH1 0x3 DUP2 LT PUSH2 0x966 JUMPI PUSH2 0x965 PUSH2 0x928 JUMP JUMPDEST JUMPDEST POP JUMP JUMPDEST PUSH0 DUP2 SWAP1 POP PUSH2 0x976 DUP3 PUSH2 0x955 JUMP JUMPDEST SWAP2 SWAP1 POP JUMP JUMPDEST PUSH0 PUSH2 0x985 DUP3 PUSH2 0x969 JUMP JUMPDEST SWAP1 POP SWAP2 SWAP1 POP JUMP JUMPDEST PUSH2 0x995 DUP2 PUSH2 0x97B JUMP JUMPDEST DUP3 MSTORE POP POP JUMP JUMPDEST PUSH0 PUSH1 0x80 DUP3 ADD SWAP1 POP DUP2 DUP2 SUB PUSH0 DUP4 ADD MSTORE PUSH2 0x9B3 DUP2 DUP8 PUSH2 0x3FA JUMP JUMPDEST SWAP1 POP DUP2 DUP2 SUB PUSH1 0x20 DUP4 ADD MSTORE PUSH2 0x9C7 DUP2 DUP7 PUSH2 0x3FA JUMP JUMPDEST SWAP1 POP PUSH2 0x9D6 PUSH1 0x40 DUP4 ADD DUP6 PUSH2 0x4C1 JUMP JUMPDEST PUSH2 0x9E3 PUSH1 0x60 DUP4 ADD DUP5 PUSH2 0x98C JUMP JUMPDEST SWAP6 SWAP5 POP POP POP POP POP JUMP JUMPDEST PUSH32 0x4E487B7100000000000000000000000000000000000000000000000000000000 PUSH0 MSTORE PUSH1 0x32 PUSH1 0x4 MSTORE PUSH1 0x24 PUSH0 REVERT JUMPDEST PUSH0 PUSH2 0xA2B PUSH2 0xA26 DUP5 PUSH2 0x569 JUMP JUMPDEST PUSH2 0x54F JUMP JUMPDEST SWAP1 POP DUP3 DUP2 MSTORE PUSH1 0x20 DUP2 ADD DUP5 DUP5 DUP5 ADD GT ISZERO PUSH2 0xA47 JUMPI PUSH2 0xA46 PUSH2 0x4ED JUMP JUMPDEST JUMPDEST PUSH2 0xA52 DUP5 DUP3 DUP6 PUSH2 0x3DC JUMP JUMPDEST POP SWAP4 SWAP3 POP POP POP JUMP JUMPDEST PUSH0 DUP3 PUSH1 0x1F DUP4 ADD SLT PUSH2 0xA6E JUMPI PUSH2 0xA6D PUSH2 0x4E9 JUMP JUMPDEST JUMPDEST DUP2 MLOAD PUSH2 0xA7E DUP5 DUP3 PUSH1 0x20 DUP7 ADD PUSH2 0xA19 JUMP JUMPDEST SWAP2 POP POP SWAP3 SWAP2 POP POP JUMP JUMPDEST PUSH0 PUSH1 0x20 DUP3 DUP5 SUB SLT ISZERO PUSH2 0xA9C JUMPI PUSH2 0xA9B PUSH2 0x45B JUMP JUMPDEST JUMPDEST PUSH0 DUP3 ADD MLOAD PUSH8 0xFFFFFFFFFFFFFFFF DUP2 GT ISZERO PUSH2 0xAB9 JUMPI PUSH2 0xAB8 PUSH2 0x45F JUMP JUMPDEST JUMPDEST PUSH2 0xAC5 DUP5 DUP3 DUP6 ADD PUSH2 0xA5A JUMP JUMPDEST SWAP2 POP POP SWAP3 SWAP2 POP POP JUMP INVALID PUSH1 0x80 PUSH1 0x40 MSTORE CALLVALUE DUP1 ISZERO PUSH2 0xF JUMPI PUSH0 DUP1 REVERT JUMPDEST POP PUSH1 0x40 MLOAD PUSH2 0x9D5 CODESIZE SUB DUP1 PUSH2 0x9D5 DUP4 CODECOPY DUP2 DUP2 ADD PUSH1 0x40 MSTORE DUP2 ADD SWAP1 PUSH2 0x31 SWAP2 SWAP1 PUSH2 0x22C JUMP JUMPDEST DUP4 PUSH0 SWAP1 DUP2 PUSH2 0x3F SWAP2 SWAP1 PUSH2 0x4CC JUMP JUMPDEST POP DUP3 PUSH1 0x1 SWAP1 DUP2 PUSH2 0x4F SWAP2 SWAP1 PUSH2 0x4CC JUMP JUMPDEST POP DUP2 PUSH1 0x2 DUP2 SWAP1 SSTORE POP DUP1 PUSH1 0x3 PUSH0 PUSH2 0x100 EXP DUP2 SLOAD DUP2 PUSH1 0xFF MUL NOT AND SWAP1 DUP4 PUSH1 0x2 DUP2 GT ISZERO PUSH2 0x7B JUMPI PUSH2 0x7A PUSH2 0x59B JUMP JUMPDEST JUMPDEST MUL OR SWAP1 SSTORE POP POP POP POP POP PUSH2 0x5C8 JUMP JUMPDEST PUSH0 PUSH1 0x40 MLOAD SWAP1 POP SWAP1 JUMP JUMPDEST PUSH0 DUP1 REVERT JUMPDEST PUSH0 DUP1 REVERT JUMPDEST PUSH0 DUP1 REVERT JUMPDEST PUSH0 DUP1 REVERT JUMPDEST PUSH0 PUSH1 0x1F NOT PUSH1 0x1F DUP4 ADD AND SWAP1 POP SWAP2 SWAP1 POP JUMP JUMPDEST PUSH32 0x4E487B7100000000000000000000000000000000000000000000000000000000 PUSH0 MSTORE PUSH1 0x41 PUSH1 0x4 MSTORE PUSH1 0x24 PUSH0 REVERT JUMPDEST PUSH2 0xE8 DUP3 PUSH2 0xA2 JUMP JUMPDEST DUP2 ADD DUP2 DUP2 LT PUSH8 0xFFFFFFFFFFFFFFFF DUP3 GT OR ISZERO PUSH2 0x107 JUMPI PUSH2 0x106 PUSH2 0xB2 JUMP JUMPDEST JUMPDEST DUP1 PUSH1 0x40 MSTORE POP POP POP JUMP JUMPDEST PUSH0 PUSH2 0x119 PUSH2 0x89 JUMP JUMPDEST SWAP1 POP PUSH2 0x125 DUP3 DUP3 PUSH2 0xDF JUMP JUMPDEST SWAP2 SWAP1 POP JUMP JUMPDEST PUSH0 PUSH8 0xFFFFFFFFFFFFFFFF DUP3 GT ISZERO PUSH2 0x144 JUMPI PUSH2 0x143 PUSH2 0xB2 JUMP JUMPDEST JUMPDEST PUSH2 0x14D DUP3 PUSH2 0xA2 JUMP JUMPDEST SWAP1 POP PUSH1 0x20 DUP2 ADD SWAP1 POP SWAP2 SWAP1 POP JUMP JUMPDEST DUP3 DUP2 DUP4 MCOPY PUSH0 DUP4 DUP4 ADD MSTORE POP POP POP JUMP JUMPDEST PUSH0 PUSH2 0x17A PUSH2 0x175 DUP5 PUSH2 0x12A JUMP JUMPDEST PUSH2 0x110 JUMP JUMPDEST SWAP1 POP DUP3 DUP2 MSTORE PUSH1 0x20 DUP2 ADD DUP5 DUP5 DUP5 ADD GT ISZERO PUSH2 0x196 JUMPI PUSH2 0x195 PUSH2 0x9E JUMP JUMPDEST JUMPDEST PUSH2 0x1A1 DUP5 DUP3 DUP6 PUSH2 0x15A JUMP JUMPDEST POP SWAP4 SWAP3 POP POP POP JUMP JUMPDEST PUSH0 DUP3 PUSH1 0x1F DUP4 ADD SLT PUSH2 0x1BD JUMPI PUSH2 0x1BC PUSH2 0x9A JUMP JUMPDEST JUMPDEST DUP2 MLOAD PUSH2 0x1CD DUP5 DUP3 PUSH1 0x20 DUP7 ADD PUSH2 0x168 JUMP JUMPDEST SWAP2 POP POP SWAP3 SWAP2 POP POP JUMP JUMPDEST PUSH0 DUP2 SWAP1 POP SWAP2 SWAP1 POP JUMP JUMPDEST PUSH2 0x1E8 DUP2 PUSH2 0x1D6 JUMP JUMPDEST DUP2 EQ PUSH2 0x1F2 JUMPI PUSH0 DUP1 REVERT JUMPDEST POP JUMP JUMPDEST PUSH0 DUP2 MLOAD SWAP1 POP PUSH2 0x203 DUP2 PUSH2 0x1DF JUMP JUMPDEST SWAP3 SWAP2 POP POP JUMP JUMPDEST PUSH1 0x3 DUP2 LT PUSH2 0x215 JUMPI PUSH0 DUP1 REVERT JUMPDEST POP JUMP JUMPDEST PUSH0 DUP2 MLOAD SWAP1 POP PUSH2 0x226 DUP2 PUSH2 0x209 JUMP JUMPDEST SWAP3 SWAP2 POP POP JUMP JUMPDEST PUSH0 DUP1 PUSH0 DUP1 PUSH1 0x80 DUP6 DUP8 SUB SLT ISZERO PUSH2 0x244 JUMPI PUSH2 0x243 PUSH2 0x92 JUMP JUMPDEST JUMPDEST PUSH0 DUP6 ADD MLOAD PUSH8 0xFFFFFFFFFFFFFFFF DUP2 GT ISZERO PUSH2 0x261 JUMPI PUSH2 0x260 PUSH2 0x96 JUMP JUMPDEST JUMPDEST PUSH2 0x26D DUP8 DUP3 DUP9 ADD PUSH2 0x1A9 JUMP JUMPDEST SWAP5 POP POP PUSH1 0x20 DUP6 ADD MLOAD PUSH8 0xFFFFFFFFFFFFFFFF DUP2 GT ISZERO PUSH2 0x28E JUMPI PUSH2 0x28D PUSH2 0x96 JUMP JUMPDEST JUMPDEST PUSH2 0x29A DUP8 DUP3 DUP9 ADD PUSH2 0x1A9 JUMP JUMPDEST SWAP4 POP POP PUSH1 0x40 PUSH2 0x2AB DUP8 DUP3 DUP9 ADD PUSH2 0x1F5 JUMP JUMPDEST SWAP3 POP POP PUSH1 0x60 PUSH2 0x2BC DUP8 DUP3 DUP9 ADD PUSH2 0x218 JUMP JUMPDEST SWAP2 POP POP SWAP3 SWAP6 SWAP2 SWAP5 POP SWAP3 POP JUMP JUMPDEST PUSH0 DUP2 MLOAD SWAP1 POP SWAP2 SWAP1 POP JUMP JUMPDEST PUSH32 0x4E487B7100000000000000000000000000000000000000000000000000000000 PUSH0 MSTORE PUSH1 0x22 PUSH1 0x4 MSTORE PUSH1 0x24 PUSH0 REVERT JUMPDEST PUSH0 PUSH1 0x2 DUP3 DIV SWAP1 POP PUSH1 0x1 DUP3 AND DUP1 PUSH2 0x316 JUMPI PUSH1 0x7F DUP3 AND SWAP2 POP JUMPDEST PUSH1 0x20 DUP3 LT DUP2 SUB PUSH2 0x329 JUMPI PUSH2 0x328 PUSH2 0x2D2 JUMP JUMPDEST JUMPDEST POP SWAP2 SWAP1 POP JUMP JUMPDEST PUSH0 DUP2 SWAP1 POP DUP2 PUSH0 MSTORE PUSH1 0x20 PUSH0 KECCAK256 SWAP1 POP SWAP2 SWAP1 POP JUMP JUMPDEST PUSH0 PUSH1 0x20 PUSH1 0x1F DUP4 ADD DIV SWAP1 POP SWAP2 SWAP1 POP JUMP JUMPDEST PUSH0 DUP3 DUP3 SHL SWAP1 POP SWAP3 SWAP2 POP POP JUMP JUMPDEST PUSH0 PUSH1 0x8 DUP4 MUL PUSH2 0x38B PUSH32 0xFFFFFFFFFFFFFFFFFFFFFFFFFFFFFFFFFFFFFFFFFFFFFFFFFFFFFFFFFFFFFFFF DUP3 PUSH2 0x350 JUMP JUMPDEST PUSH2 0x395 DUP7 DUP4 PUSH2 0x350 JUMP JUMPDEST SWAP6 POP DUP1 NOT DUP5 AND SWAP4 POP DUP1 DUP7 AND DUP5 OR SWAP3 POP POP POP SWAP4 SWAP3 POP POP POP JUMP JUMPDEST PUSH0 DUP2 SWAP1 POP SWAP2 SWAP1 POP JUMP JUMPDEST PUSH0 PUSH2 0x3D0 PUSH2 0x3CB PUSH2 0x3C6 DUP5 PUSH2 0x1D6 JUMP JUMPDEST PUSH2 0x3AD JUMP JUMPDEST PUSH2 0x1D6 JUMP JUMPDEST SWAP1 POP SWAP2 SWAP1 POP JUMP JUMPDEST PUSH0 DUP2 SWAP1 POP SWAP2 SWAP1 POP JUMP JUMPDEST PUSH2 0x3E9 DUP4 PUSH2 0x3B6 JUMP JUMPDEST PUSH2 0x3FD PUSH2 0x3F5 DUP3 PUSH2 0x3D7 JUMP JUMPDEST DUP5 DUP5 SLOAD PUSH2 0x35C JUMP JUMPDEST DUP3 SSTORE POP POP POP POP JUMP JUMPDEST PUSH0 SWAP1 JUMP JUMPDEST PUSH2 0x411 PUSH2 0x405 JUMP JUMPDEST PUSH2 0x41C DUP2 DUP5 DUP5 PUSH2 0x3E0 JUMP JUMPDEST POP POP POP JUMP JUMPDEST JUMPDEST DUP2 DUP2 LT ISZERO PUSH2 0x43F JUMPI PUSH2 0x434 PUSH0 DUP3 PUSH2 0x409 JUMP JUMPDEST PUSH1 0x1 DUP2 ADD SWAP1 POP PUSH2 0x422 JUMP JUMPDEST POP POP JUMP JUMPDEST PUSH1 0x1F DUP3 GT ISZERO PUSH2 0x484 JUMPI PUSH2 0x455 DUP2 PUSH2 0x32F JUMP JUMPDEST PUSH2 0x45E DUP5 PUSH2 0x341 JUMP JUMPDEST DUP2 ADD PUSH1 0x20 DUP6 LT ISZERO PUSH2 0x46D JUMPI DUP2 SWAP1 POP JUMPDEST PUSH2 0x481 PUSH2 0x479 DUP6 PUSH2 0x341 JUMP JUMPDEST DUP4 ADD DUP3 PUSH2 0x421 JUMP JUMPDEST POP POP JUMPDEST POP POP POP JUMP JUMPDEST PUSH0 DUP3 DUP3 SHR SWAP1 POP SWAP3 SWAP2 POP POP JUMP JUMPDEST PUSH0 PUSH2 0x4A4 PUSH0 NOT DUP5 PUSH1 0x8 MUL PUSH2 0x489 JUMP JUMPDEST NOT DUP1 DUP4 AND SWAP2 POP POP SWAP3 SWAP2 POP POP JUMP JUMPDEST PUSH0 PUSH2 0x4BC DUP4 DUP4 PUSH2 0x495 JUMP JUMPDEST SWAP2 POP DUP3 PUSH1 0x2 MUL DUP3 OR SWAP1 POP SWAP3 SWAP2 POP POP JUMP JUMPDEST PUSH2 0x4D5 DUP3 PUSH2 0x2C8 JUMP JUMPDEST PUSH8 0xFFFFFFFFFFFFFFFF DUP2 GT ISZERO PUSH2 0x4EE JUMPI PUSH2 0x4ED PUSH2 0xB2 JUMP JUMPDEST JUMPDEST PUSH2 0x4F8 DUP3 SLOAD PUSH2 0x2FF JUMP JUMPDEST PUSH2 0x503 DUP3 DUP3 DUP6 PUSH2 0x443 JUMP JUMPDEST PUSH0 PUSH1 0x20 SWAP1 POP PUSH1 0x1F DUP4 GT PUSH1 0x1 DUP2 EQ PUSH2 0x534 JUMPI PUSH0 DUP5 ISZERO PUSH2 0x522 JUMPI DUP3 DUP8 ADD MLOAD SWAP1 POP JUMPDEST PUSH2 0x52C DUP6 DUP3 PUSH2 0x4B1 JUMP JUMPDEST DUP7 SSTORE POP PUSH2 0x593 JUMP JUMPDEST PUSH1 0x1F NOT DUP5 AND PUSH2 0x542 DUP7 PUSH2 0x32F JUMP JUMPDEST PUSH0 JUMPDEST DUP3 DUP2 LT ISZERO PUSH2 0x569 JUMPI DUP5 DUP10 ADD MLOAD DUP3 SSTORE PUSH1 0x1 DUP3 ADD SWAP2 POP PUSH1 0x20 DUP6 ADD SWAP5 POP PUSH1 0x20 DUP2 ADD SWAP1 POP PUSH2 0x544 JUMP JUMPDEST DUP7 DUP4 LT ISZERO PUSH2 0x586 JUMPI DUP5 DUP10 ADD MLOAD PUSH2 0x582 PUSH1 0x1F DUP10 AND DUP3 PUSH2 0x495 JUMP JUMPDEST DUP4 SSTORE POP JUMPDEST PUSH1 0x1 PUSH1 0x2 DUP9 MUL ADD DUP9 SSTORE POP POP POP JUMPDEST POP POP POP POP POP POP JUMP JUMPDEST PUSH32 0x4E487B7100000000000000000000000000000000000000000000000000000000 PUSH0 MSTORE PUSH1 0x21 PUSH1 0x4 MSTORE PUSH1 0x24 PUSH0 REVERT JUMPDEST PUSH2 0x400 DUP1 PUSH2 0x5D5 PUSH0 CODECOPY PUSH0 RETURN INVALID PUSH1 0x80 PUSH1 0x40 MSTORE CALLVALUE DUP1 ISZERO PUSH2 0xF JUMPI PUSH0 DUP1 REVERT JUMPDEST POP PUSH1 0x4 CALLDATASIZE LT PUSH2 0x34 JUMPI PUSH0 CALLDATALOAD PUSH1 0xE0 SHR DUP1 PUSH4 0x932997F1 EQ PUSH2 0x38 JUMPI DUP1 PUSH4 0xA79488A4 EQ PUSH2 0x56 JUMPI JUMPDEST PUSH0 DUP1 REVERT JUMPDEST PUSH2 0x40 PUSH2 0x86 JUMP JUMPDEST PUSH1 0x40 MLOAD PUSH2 0x4D SWAP2 SWAP1 PUSH2 0x1EF JUMP JUMPDEST PUSH1 0x40 MLOAD DUP1 SWAP2 SUB SWAP1 RETURN JUMPDEST PUSH2 0x70 PUSH1 0x4 DUP1 CALLDATASIZE SUB DUP2 ADD SWAP1 PUSH2 0x6B SWAP2 SWAP1 PUSH2 0x246 JUMP JUMPDEST PUSH2 0x115 JUMP JUMPDEST PUSH1 0x40 MLOAD PUSH2 0x7D SWAP2 SWAP1 PUSH2 0x280 JUMP JUMPDEST PUSH1 0x40 MLOAD DUP1 SWAP2 SUB SWAP1 RETURN JUMPDEST PUSH1 0x60 PUSH0 DUP1 SLOAD PUSH2 0x94 SWAP1 PUSH2 0x2C6 JUMP JUMPDEST DUP1 PUSH1 0x1F ADD PUSH1 0x20 DUP1 SWAP2 DIV MUL PUSH1 0x20 ADD PUSH1 0x40 MLOAD SWAP1 DUP2 ADD PUSH1 0x40 MSTORE DUP1 SWAP3 SWAP2 SWAP1 DUP2 DUP2 MSTORE PUSH1 0x20 ADD DUP3 DUP1 SLOAD PUSH2 0xC0 SWAP1 PUSH2 0x2C6 JUMP JUMPDEST DUP1 ISZERO PUSH2 0x10B JUMPI DUP1 PUSH1 0x1F LT PUSH2 0xE2 JUMPI PUSH2 0x100 DUP1 DUP4 SLOAD DIV MUL DUP4 MSTORE SWAP2 PUSH1 0x20 ADD SWAP2 PUSH2 0x10B JUMP JUMPDEST DUP3 ADD SWAP2 SWAP1 PUSH0 MSTORE PUSH1 0x20 PUSH0 KECCAK256 SWAP1 JUMPDEST DUP2 SLOAD DUP2 MSTORE SWAP1 PUSH1 0x1 ADD SWAP1 PUSH1 0x20 ADD DUP1 DUP4 GT PUSH2 0xEE JUMPI DUP3 SWAP1 SUB PUSH1 0x1F AND DUP3 ADD SWAP2 JUMPDEST POP POP POP POP POP SWAP1 POP SWAP1 JUMP JUMPDEST PUSH0 PUSH1 0x28 DUP3 GT PUSH2 0x133 JUMPI DUP2 PUSH1 0x2 SLOAD PUSH2 0x12C SWAP2 SWAP1 PUSH2 0x323 JUMP JUMPDEST SWAP1 POP PUSH2 0x17A JUMP JUMPDEST PUSH0 PUSH1 0x28 DUP4 PUSH2 0x141 SWAP2 SWAP1 PUSH2 0x364 JUMP JUMPDEST SWAP1 POP PUSH1 0x2 SLOAD PUSH1 0x2 DUP3 PUSH2 0x153 SWAP2 SWAP1 PUSH2 0x323 JUMP JUMPDEST PUSH2 0x15D SWAP2 SWAP1 PUSH2 0x323 JUMP JUMPDEST PUSH1 0x2 SLOAD PUSH1 0x28 PUSH2 0x16C SWAP2 SWAP1 PUSH2 0x323 JUMP JUMPDEST PUSH2 0x176 SWAP2 SWAP1 PUSH2 0x397 JUMP JUMPDEST SWAP2 POP POP JUMPDEST SWAP2 SWAP1 POP JUMP JUMPDEST PUSH0 DUP2 MLOAD SWAP1 POP SWAP2 SWAP1 POP JUMP JUMPDEST PUSH0 DUP3 DUP3 MSTORE PUSH1 0x20 DUP3 ADD SWAP1 POP SWAP3 SWAP2 POP POP JUMP JUMPDEST DUP3 DUP2 DUP4 MCOPY PUSH0 DUP4 DUP4 ADD MSTORE POP POP POP JUMP JUMPDEST PUSH0 PUSH1 0x1F NOT PUSH1 0x1F DUP4 ADD AND SWAP1 POP SWAP2 SWAP1 POP JUMP JUMPDEST PUSH0 PUSH2 0x1C1 DUP3 PUSH2 0x17F JUMP JUMPDEST PUSH2 0x1CB DUP2 DUP6 PUSH2 0x189 JUMP JUMPDEST SWAP4 POP PUSH2 0x1DB DUP2 DUP6 PUSH1 0x20 DUP7 ADD PUSH2 0x199 JUMP JUMPDEST PUSH2 0x1E4 DUP2 PUSH2 0x1A7 JUMP JUMPDEST DUP5 ADD SWAP2 POP POP SWAP3 SWAP2 POP POP JUMP JUMPDEST PUSH0 PUSH1 0x20 DUP3 ADD SWAP1 POP DUP2 DUP2 SUB PUSH0 DUP4 ADD MSTORE PUSH2 0x207 DUP2 DUP5 PUSH2 0x1B7 JUMP JUMPDEST SWAP1 POP SWAP3 SWAP2 POP POP JUMP JUMPDEST PUSH0 DUP1 REVERT JUMPDEST PUSH0 DUP2 SWAP1 POP SWAP2 SWAP1 POP JUMP JUMPDEST PUSH2 0x225 DUP2 PUSH2 0x213 JUMP JUMPDEST DUP2 EQ PUSH2 0x22F JUMPI PUSH0 DUP1 REVERT JUMPDEST POP JUMP JUMPDEST PUSH0 DUP2 CALLDATALOAD SWAP1 POP PUSH2 0x240 DUP2 PUSH2 0x21C JUMP JUMPDEST SWAP3 SWAP2 POP POP JUMP JUMPDEST PUSH0 PUSH1 0x20 DUP3 DUP5 SUB SLT ISZERO PUSH2 0x25B JUMPI PUSH2 0x25A PUSH2 0x20F JUMP JUMPDEST JUMPDEST PUSH0 PUSH2 0x268 DUP5 DUP3 DUP6 ADD PUSH2 0x232 JUMP JUMPDEST SWAP2 POP POP SWAP3 SWAP2 POP POP JUMP JUMPDEST PUSH2 0x27A DUP2 PUSH2 0x213 JUMP JUMPDEST DUP3 MSTORE POP POP JUMP JUMPDEST PUSH0 PUSH1 0x20 DUP3 ADD SWAP1 POP PUSH2 0x293 PUSH0 DUP4 ADD DUP5 PUSH2 0x271 JUMP JUMPDEST SWAP3 SWAP2 POP POP JUMP JUMPDEST PUSH32 0x4E487B7100000000000000000000000000000000000000000000000000000000 PUSH0 MSTORE PUSH1 0x22 PUSH1 0x4 MSTORE PUSH1 0x24 PUSH0 REVERT JUMPDEST PUSH0 PUSH1 0x2 DUP3 DIV SWAP1 POP PUSH1 0x1 DUP3 AND DUP1 PUSH2 0x2DD JUMPI PUSH1 0x7F DUP3 AND SWAP2 POP JUMPDEST PUSH1 0x20 DUP3 LT DUP2 SUB PUSH2 0x2F0 JUMPI PUSH2 0x2EF PUSH2 0x299 JUMP JUMPDEST JUMPDEST POP SWAP2 SWAP1 POP JUMP JUMPDEST PUSH32 0x4E487B7100000000000000000000000000000000000000000000000000000000 PUSH0 MSTORE PUSH1 0x11 PUSH1 0x4 MSTORE PUSH1 0x24 PUSH0 REVERT JUMPDEST PUSH0 PUSH2 0x32D DUP3 PUSH2 0x213 JUMP JUMPDEST SWAP2 POP PUSH2 0x338 DUP4 PUSH2 0x213 JUMP JUMPDEST SWAP3 POP DUP3 DUP3 MUL PUSH2 0x346 DUP2 PUSH2 0x213 JUMP JUMPDEST SWAP2 POP DUP3 DUP3 DIV DUP5 EQ DUP4 ISZERO OR PUSH2 0x35D JUMPI PUSH2 0x35C PUSH2 0x2F6 JUMP JUMPDEST JUMPDEST POP SWAP3 SWAP2 POP POP JUMP JUMPDEST PUSH0 PUSH2 0x36E DUP3 PUSH2 0x213 JUMP JUMPDEST SWAP2 POP PUSH2 0x379 DUP4 PUSH2 0x213 JUMP JUMPDEST SWAP3 POP DUP3 DUP3 SUB SWAP1 POP DUP2 DUP2 GT ISZERO PUSH2 0x391 JUMPI PUSH2 0x390 PUSH2 0x2F6 JUMP JUMPDEST JUMPDEST SWAP3 SWAP2 POP POP JUMP JUMPDEST PUSH0 PUSH2 0x3A1 DUP3 PUSH2 0x213 JUMP JUMPDEST SWAP2 POP PUSH2 0x3AC DUP4 PUSH2 0x213 JUMP JUMPDEST SWAP3 POP DUP3 DUP3 ADD SWAP1 POP DUP1 DUP3 GT ISZERO PUSH2 0x3C4 JUMPI PUSH2 0x3C3 PUSH2 0x2F6 JUMP JUMPDEST JUMPDEST SWAP3 SWAP2 POP POP JUMP INVALID LOG2 PUSH5 0x6970667358 0x22 SLT KECCAK256 0x28 0x29 SWAP9 0xBD 0xC2 ISZERO 0xF9 ADD DELEGATECALL 0xE2 0x2B PUSH30 0x9A7D35197B424B4F7C5C9B6B8248BB32A5E4D3AE64736F6C634300081A00 CALLER LOG2 PUSH5 0x6970667358 0x22 SLT KECCAK256 DUP11 SWAP3 PC 0xAE PUSH30 0x91908D516A558C9830DF4420786BA95552F94193687D9342A5E10964736F PUSH13 0x634300081A0033000000000000 "
		},
		"gasEstimates": {
			"creation": {
				"codeDepositCost": "1067400",
				"executionCost": "infinite",
				"totalCost": "infinite"
			},
			"external": {
				"addSubordinate(string,string,uint256,uint8)": "infinite",
				"getFirstName()": "infinite",
				"getSubordinates()": "infinite",
				"getWeeklyPay(uint256)": "infinite"
			}
		},
		"methodIdentifiers": {
			"addSubordinate(string,string,uint256,uint8)": "acdd0b4b",
			"getFirstName()": "932997f1",
			"getSubordinates()": "e9086e5a",
			"getWeeklyPay(uint256)": "a79488a4"
		}
	},
	"abi": [
		{
			"inputs": [
				{
					"internalType": "string",
					"name": "_firstName",
					"type": "string"
				},
				{
					"internalType": "string",
					"name": "_lastName",
					"type": "string"
				},
				{
					"internalType": "uint256",
					"name": "_hourlyPay",
					"type": "uint256"
				},
				{
					"internalType": "enum Employee.Department",
					"name": "_department",
					"type": "uint8"
				}
			],
			"stateMutability": "nonpayable",
			"type": "constructor"
		},
		{
			"inputs": [
				{
					"internalType": "string",
					"name": "_firstName",
					"type": "string"
				},
				{
					"internalType": "string",
					"name": "_lastName",
					"type": "string"
				},
				{
					"internalType": "uint256",
					"name": "_hourlyPay",
					"type": "uint256"
				},
				{
					"internalType": "enum Employee.Department",
					"name": "_department",
					"type": "uint8"
				}
			],
			"name": "addSubordinate",
			"outputs": [],
			"stateMutability": "nonpayable",
			"type": "function"
		},
		{
			"inputs": [],
			"name": "getFirstName",
			"outputs": [
				{
					"internalType": "string",
					"name": "",
					"type": "string"
				}
			],
			"stateMutability": "view",
			"type": "function"
		},
		{
			"inputs": [],
			"name": "getSubordinates",
			"outputs": [
				{
					"internalType": "string[]",
					"name": "",
					"type": "string[]"
				}
			],
			"stateMutability": "view",
			"type": "function"
		},
		{
			"inputs": [
				{
					"internalType": "uint256",
					"name": "hoursWorked",
					"type": "uint256"
				}
			],
			"name": "getWeeklyPay",
			"outputs": [
				{
					"internalType": "uint256",
					"name": "",
					"type": "uint256"
				}
			],
			"stateMutability": "view",
			"type": "function"
		}
	]
}