{
	"data": {
		"bytecode": {
			"linkReferences": {},
			"object": "608060405234801561000f575f80fd5b50604051610905380380610905833981810160405281019061003191906101da565b8282815f9081610041919061044a565b5080600181905550505080600281905550505050610519565b5f604051905090565b5f80fd5b5f80fd5b5f80fd5b5f80fd5b5f601f19601f8301169050919050565b7f4e487b71000000000000000000000000000000000000000000000000000000005f52604160045260245ffd5b6100b982610073565b810181811067ffffffffffffffff821117156100d8576100d7610083565b5b80604052505050565b5f6100ea61005a565b90506100f682826100b0565b919050565b5f67ffffffffffffffff82111561011557610114610083565b5b61011e82610073565b9050602081019050919050565b8281835e5f83830152505050565b5f61014b610146846100fb565b6100e1565b9050828152602081018484840111156101675761016661006f565b5b61017284828561012b565b509392505050565b5f82601f83011261018e5761018d61006b565b5b815161019e848260208601610139565b91505092915050565b5f819050919050565b6101b9816101a7565b81146101c3575f80fd5b50565b5f815190506101d4816101b0565b92915050565b5f805f606084860312156101f1576101f0610063565b5b5f84015167ffffffffffffffff81111561020e5761020d610067565b5b61021a8682870161017a565b935050602061022b868287016101c6565b925050604061023c868287016101c6565b9150509250925092565b5f81519050919050565b7f4e487b71000000000000000000000000000000000000000000000000000000005f52602260045260245ffd5b5f600282049050600182168061029457607f821691505b6020821081036102a7576102a6610250565b5b50919050565b5f819050815f5260205f209050919050565b5f6020601f8301049050919050565b5f82821b905092915050565b5f600883026103097fffffffffffffffffffffffffffffffffffffffffffffffffffffffffffffffff826102ce565b61031386836102ce565b95508019841693508086168417925050509392505050565b5f819050919050565b5f61034e610349610344846101a7565b61032b565b6101a7565b9050919050565b5f819050919050565b61036783610334565b61037b61037382610355565b8484546102da565b825550505050565b5f90565b61038f610383565b61039a81848461035e565b505050565b5b818110156103bd576103b25f82610387565b6001810190506103a0565b5050565b601f821115610402576103d3816102ad565b6103dc846102bf565b810160208510156103eb578190505b6103ff6103f7856102bf565b83018261039f565b50505b505050565b5f82821c905092915050565b5f6104225f1984600802610407565b1980831691505092915050565b5f61043a8383610413565b9150826002028217905092915050565b61045382610246565b67ffffffffffffffff81111561046c5761046b610083565b5b610476825461027d565b6104818282856103c1565b5f60209050601f8311600181146104b2575f84156104a0578287015190505b6104aa858261042f565b865550610511565b601f1984166104c0866102ad565b5f5b828110156104e7578489015182556001820191506020850194506020810190506104c2565b868310156105045784890151610500601f891682610413565b8355505b6001600288020188555050505b505050505050565b6103df806105265f395ff3fe608060405234801561000f575f80fd5b5060043610610055575f3560e01c806306fdde031461005957806317d7de7c1461007757806398d5fdca1461009557806399c8d556146100b3578063a035b1fe146100d1575b5f80fd5b6100616100ef565b60405161006e919061029b565b60405180910390f35b61007f61017a565b60405161008c919061029b565b60405180910390f35b61009d610209565b6040516100aa91906102d3565b60405180910390f35b6100bb61021f565b6040516100c891906102d3565b60405180910390f35b6100d9610225565b6040516100e691906102d3565b60405180910390f35b5f80546100fb90610319565b80601f016020809104026020016040519081016040528092919081815260200182805461012790610319565b80156101725780601f1061014957610100808354040283529160200191610172565b820191905f5260205f20905b81548152906001019060200180831161015557829003601f168201915b505050505081565b60605f805461018890610319565b80601f01602080910402602001604051908101604052809291908181526020018280546101b490610319565b80156101ff5780601f106101d6576101008083540402835291602001916101ff565b820191905f5260205f20905b8154815290600101906020018083116101e257829003601f168201915b5050505050905090565b5f60025460015461021a9190610376565b905090565b60025481565b60015481565b5f81519050919050565b5f82825260208201905092915050565b8281835e5f83830152505050565b5f601f19601f8301169050919050565b5f61026d8261022b565b6102778185610235565b9350610287818560208601610245565b61029081610253565b840191505092915050565b5f6020820190508181035f8301526102b38184610263565b905092915050565b5f819050919050565b6102cd816102bb565b82525050565b5f6020820190506102e65f8301846102c4565b92915050565b7f4e487b71000000000000000000000000000000000000000000000000000000005f52602260045260245ffd5b5f600282049050600182168061033057607f821691505b602082108103610343576103426102ec565b5b50919050565b7f4e487b71000000000000000000000000000000000000000000000000000000005f52601160045260245ffd5b5f610380826102bb565b915061038b836102bb565b92508282019050808211156103a3576103a2610349565b5b9291505056fea26469706673582212200b1496d7c076cfb9bc60f77e589ec08db721560bf39d54c34da16347ca2c184064736f6c634300081a0033",
			"opcodes": "PUSH1 0x80 PUSH1 0x40 MSTORE CALLVALUE DUP1 ISZERO PUSH2 0xF JUMPI PUSH0 DUP1 REVERT JUMPDEST POP PUSH1 0x40 MLOAD PUSH2 0x905 CODESIZE SUB DUP1 PUSH2 0x905 DUP4 CODECOPY DUP2 DUP2 ADD PUSH1 0x40 MSTORE DUP2 ADD SWAP1 PUSH2 0x31 SWAP2 SWAP1 PUSH2 0x1DA JUMP JUMPDEST DUP3 DUP3 DUP2 PUSH0 SWAP1 DUP2 PUSH2 0x41 SWAP2 SWAP1 PUSH2 0x44A JUMP JUMPDEST POP DUP1 PUSH1 0x1 DUP2 SWAP1 SSTORE POP POP POP DUP1 PUSH1 0x2 DUP2 SWAP1 SSTORE POP POP POP POP PUSH2 0x519 JUMP JUMPDEST PUSH0 PUSH1 0x40 MLOAD SWAP1 POP SWAP1 JUMP JUMPDEST PUSH0 DUP1 REVERT JUMPDEST PUSH0 DUP1 REVERT JUMPDEST PUSH0 DUP1 REVERT JUMPDEST PUSH0 DUP1 REVERT JUMPDEST PUSH0 PUSH1 0x1F NOT PUSH1 0x1F DUP4 ADD AND SWAP1 POP SWAP2 SWAP1 POP JUMP JUMPDEST PUSH32 0x4E487B7100000000000000000000000000000000000000000000000000000000 PUSH0 MSTORE PUSH1 0x41 PUSH1 0x4 MSTORE PUSH1 0x24 PUSH0 REVERT JUMPDEST PUSH2 0xB9 DUP3 PUSH2 0x73 JUMP JUMPDEST DUP2 ADD DUP2 DUP2 LT PUSH8 0xFFFFFFFFFFFFFFFF DUP3 GT OR ISZERO PUSH2 0xD8 JUMPI PUSH2 0xD7 PUSH2 0x83 JUMP JUMPDEST JUMPDEST DUP1 PUSH1 0x40 MSTORE POP POP POP JUMP JUMPDEST PUSH0 PUSH2 0xEA PUSH2 0x5A JUMP JUMPDEST SWAP1 POP PUSH2 0xF6 DUP3 DUP3 PUSH2 0xB0 JUMP JUMPDEST SWAP2 SWAP1 POP JUMP JUMPDEST PUSH0 PUSH8 0xFFFFFFFFFFFFFFFF DUP3 GT ISZERO PUSH2 0x115 JUMPI PUSH2 0x114 PUSH2 0x83 JUMP JUMPDEST JUMPDEST PUSH2 0x11E DUP3 PUSH2 0x73 JUMP JUMPDEST SWAP1 POP PUSH1 0x20 DUP2 ADD SWAP1 POP SWAP2 SWAP1 POP JUMP JUMPDEST DUP3 DUP2 DUP4 MCOPY PUSH0 DUP4 DUP4 ADD MSTORE POP POP POP JUMP JUMPDEST PUSH0 PUSH2 0x14B PUSH2 0x146 DUP5 PUSH2 0xFB JUMP JUMPDEST PUSH2 0xE1 JUMP JUMPDEST SWAP1 POP DUP3 DUP2 MSTORE PUSH1 0x20 DUP2 ADD DUP5 DUP5 DUP5 ADD GT ISZERO PUSH2 0x167 JUMPI PUSH2 0x166 PUSH2 0x6F JUMP JUMPDEST JUMPDEST PUSH2 0x172 DUP5 DUP3 DUP6 PUSH2 0x12B JUMP JUMPDEST POP SWAP4 SWAP3 POP POP POP JUMP JUMPDEST PUSH0 DUP3 PUSH1 0x1F DUP4 ADD SLT PUSH2 0x18E JUMPI PUSH2 0x18D PUSH2 0x6B JUMP JUMPDEST JUMPDEST DUP2 MLOAD PUSH2 0x19E DUP5 DUP3 PUSH1 0x20 DUP7 ADD PUSH2 0x139 JUMP JUMPDEST SWAP2 POP POP SWAP3 SWAP2 POP POP JUMP JUMPDEST PUSH0 DUP2 SWAP1 POP SWAP2 SWAP1 POP JUMP JUMPDEST PUSH2 0x1B9 DUP2 PUSH2 0x1A7 JUMP JUMPDEST DUP2 EQ PUSH2 0x1C3 JUMPI PUSH0 DUP1 REVERT JUMPDEST POP JUMP JUMPDEST PUSH0 DUP2 MLOAD SWAP1 POP PUSH2 0x1D4 DUP2 PUSH2 0x1B0 JUMP JUMPDEST SWAP3 SWAP2 POP POP JUMP JUMPDEST PUSH0 DUP1 PUSH0 PUSH1 0x60 DUP5 DUP7 SUB SLT ISZERO PUSH2 0x1F1 JUMPI PUSH2 0x1F0 PUSH2 0x63 JUMP JUMPDEST JUMPDEST PUSH0 DUP5 ADD MLOAD PUSH8 0xFFFFFFFFFFFFFFFF DUP2 GT ISZERO PUSH2 0x20E JUMPI PUSH2 0x20D PUSH2 0x67 JUMP JUMPDEST JUMPDEST PUSH2 0x21A DUP7 DUP3 DUP8 ADD PUSH2 0x17A JUMP JUMPDEST SWAP4 POP POP PUSH1 0x20 PUSH2 0x22B DUP7 DUP3 DUP8 ADD PUSH2 0x1C6 JUMP JUMPDEST SWAP3 POP POP PUSH1 0x40 PUSH2 0x23C DUP7 DUP3 DUP8 ADD PUSH2 0x1C6 JUMP JUMPDEST SWAP2 POP POP SWAP3 POP SWAP3 POP SWAP3 JUMP JUMPDEST PUSH0 DUP2 MLOAD SWAP1 POP SWAP2 SWAP1 POP JUMP JUMPDEST PUSH32 0x4E487B7100000000000000000000000000000000000000000000000000000000 PUSH0 MSTORE PUSH1 0x22 PUSH1 0x4 MSTORE PUSH1 0x24 PUSH0 REVERT JUMPDEST PUSH0 PUSH1 0x2 DUP3 DIV SWAP1 POP PUSH1 0x1 DUP3 AND DUP1 PUSH2 0x294 JUMPI PUSH1 0x7F DUP3 AND SWAP2 POP JUMPDEST PUSH1 0x20 DUP3 LT DUP2 SUB PUSH2 0x2A7 JUMPI PUSH2 0x2A6 PUSH2 0x250 JUMP JUMPDEST JUMPDEST POP SWAP2 SWAP1 POP JUMP JUMPDEST PUSH0 DUP2 SWAP1 POP DUP2 PUSH0 MSTORE PUSH1 0x20 PUSH0 KECCAK256 SWAP1 POP SWAP2 SWAP1 POP JUMP JUMPDEST PUSH0 PUSH1 0x20 PUSH1 0x1F DUP4 ADD DIV SWAP1 POP SWAP2 SWAP1 POP JUMP JUMPDEST PUSH0 DUP3 DUP3 SHL SWAP1 POP SWAP3 SWAP2 POP POP JUMP JUMPDEST PUSH0 PUSH1 0x8 DUP4 MUL PUSH2 0x309 PUSH32 0xFFFFFFFFFFFFFFFFFFFFFFFFFFFFFFFFFFFFFFFFFFFFFFFFFFFFFFFFFFFFFFFF DUP3 PUSH2 0x2CE JUMP JUMPDEST PUSH2 0x313 DUP7 DUP4 PUSH2 0x2CE JUMP JUMPDEST SWAP6 POP DUP1 NOT DUP5 AND SWAP4 POP DUP1 DUP7 AND DUP5 OR SWAP3 POP POP POP SWAP4 SWAP3 POP POP POP JUMP JUMPDEST PUSH0 DUP2 SWAP1 POP SWAP2 SWAP1 POP JUMP JUMPDEST PUSH0 PUSH2 0x34E PUSH2 0x349 PUSH2 0x344 DUP5 PUSH2 0x1A7 JUMP JUMPDEST PUSH2 0x32B JUMP JUMPDEST PUSH2 0x1A7 JUMP JUMPDEST SWAP1 POP SWAP2 SWAP1 POP JUMP JUMPDEST PUSH0 DUP2 SWAP1 POP SWAP2 SWAP1 POP JUMP JUMPDEST PUSH2 0x367 DUP4 PUSH2 0x334 JUMP JUMPDEST PUSH2 0x37B PUSH2 0x373 DUP3 PUSH2 0x355 JUMP JUMPDEST DUP5 DUP5 SLOAD PUSH2 0x2DA JUMP JUMPDEST DUP3 SSTORE POP POP POP POP JUMP JUMPDEST PUSH0 SWAP1 JUMP JUMPDEST PUSH2 0x38F PUSH2 0x383 JUMP JUMPDEST PUSH2 0x39A DUP2 DUP5 DUP5 PUSH2 0x35E JUMP JUMPDEST POP POP POP JUMP JUMPDEST JUMPDEST DUP2 DUP2 LT ISZERO PUSH2 0x3BD JUMPI PUSH2 0x3B2 PUSH0 DUP3 PUSH2 0x387 JUMP JUMPDEST PUSH1 0x1 DUP2 ADD SWAP1 POP PUSH2 0x3A0 JUMP JUMPDEST POP POP JUMP JUMPDEST PUSH1 0x1F DUP3 GT ISZERO PUSH2 0x402 JUMPI PUSH2 0x3D3 DUP2 PUSH2 0x2AD JUMP JUMPDEST PUSH2 0x3DC DUP5 PUSH2 0x2BF JUMP JUMPDEST DUP2 ADD PUSH1 0x20 DUP6 LT ISZERO PUSH2 0x3EB JUMPI DUP2 SWAP1 POP JUMPDEST PUSH2 0x3FF PUSH2 0x3F7 DUP6 PUSH2 0x2BF JUMP JUMPDEST DUP4 ADD DUP3 PUSH2 0x39F JUMP JUMPDEST POP POP JUMPDEST POP POP POP JUMP JUMPDEST PUSH0 DUP3 DUP3 SHR SWAP1 POP SWAP3 SWAP2 POP POP JUMP JUMPDEST PUSH0 PUSH2 0x422 PUSH0 NOT DUP5 PUSH1 0x8 MUL PUSH2 0x407 JUMP JUMPDEST NOT DUP1 DUP4 AND SWAP2 POP POP SWAP3 SWAP2 POP POP JUMP JUMPDEST PUSH0 PUSH2 0x43A DUP4 DUP4 PUSH2 0x413 JUMP JUMPDEST SWAP2 POP DUP3 PUSH1 0x2 MUL DUP3 OR SWAP1 POP SWAP3 SWAP2 POP POP JUMP JUMPDEST PUSH2 0x453 DUP3 PUSH2 0x246 JUMP JUMPDEST PUSH8 0xFFFFFFFFFFFFFFFF DUP2 GT ISZERO PUSH2 0x46C JUMPI PUSH2 0x46B PUSH2 0x83 JUMP JUMPDEST JUMPDEST PUSH2 0x476 DUP3 SLOAD PUSH2 0x27D JUMP JUMPDEST PUSH2 0x481 DUP3 DUP3 DUP6 PUSH2 0x3C1 JUMP JUMPDEST PUSH0 PUSH1 0x20 SWAP1 POP PUSH1 0x1F DUP4 GT PUSH1 0x1 DUP2 EQ PUSH2 0x4B2 JUMPI PUSH0 DUP5 ISZERO PUSH2 0x4A0 JUMPI DUP3 DUP8 ADD MLOAD SWAP1 POP JUMPDEST PUSH2 0x4AA DUP6 DUP3 PUSH2 0x42F JUMP JUMPDEST DUP7 SSTORE POP PUSH2 0x511 JUMP JUMPDEST PUSH1 0x1F NOT DUP5 AND PUSH2 0x4C0 DUP7 PUSH2 0x2AD JUMP JUMPDEST PUSH0 JUMPDEST DUP3 DUP2 LT ISZERO PUSH2 0x4E7 JUMPI DUP5 DUP10 ADD MLOAD DUP3 SSTORE PUSH1 0x1 DUP3 ADD SWAP2 POP PUSH1 0x20 DUP6 ADD SWAP5 POP PUSH1 0x20 DUP2 ADD SWAP1 POP PUSH2 0x4C2 JUMP JUMPDEST DUP7 DUP4 LT ISZERO PUSH2 0x504 JUMPI DUP5 DUP10 ADD MLOAD PUSH2 0x500 PUSH1 0x1F DUP10 AND DUP3 PUSH2 0x413 JUMP JUMPDEST DUP4 SSTORE POP JUMPDEST PUSH1 0x1 PUSH1 0x2 DUP9 MUL ADD DUP9 SSTORE POP POP POP JUMPDEST POP POP POP POP POP POP JUMP JUMPDEST PUSH2 0x3DF DUP1 PUSH2 0x526 PUSH0 CODECOPY PUSH0 RETURN INVALID PUSH1 0x80 PUSH1 0x40 MSTORE CALLVALUE DUP1 ISZERO PUSH2 0xF JUMPI PUSH0 DUP1 REVERT JUMPDEST POP PUSH1 0x4 CALLDATASIZE LT PUSH2 0x55 JUMPI PUSH0 CALLDATALOAD PUSH1 0xE0 SHR DUP1 PUSH4 0x6FDDE03 EQ PUSH2 0x59 JUMPI DUP1 PUSH4 0x17D7DE7C EQ PUSH2 0x77 JUMPI DUP1 PUSH4 0x98D5FDCA EQ PUSH2 0x95 JUMPI DUP1 PUSH4 0x99C8D556 EQ PUSH2 0xB3 JUMPI DUP1 PUSH4 0xA035B1FE EQ PUSH2 0xD1 JUMPI JUMPDEST PUSH0 DUP1 REVERT JUMPDEST PUSH2 0x61 PUSH2 0xEF JUMP JUMPDEST PUSH1 0x40 MLOAD PUSH2 0x6E SWAP2 SWAP1 PUSH2 0x29B JUMP JUMPDEST PUSH1 0x40 MLOAD DUP1 SWAP2 SUB SWAP1 RETURN JUMPDEST PUSH2 0x7F PUSH2 0x17A JUMP JUMPDEST PUSH1 0x40 MLOAD PUSH2 0x8C SWAP2 SWAP1 PUSH2 0x29B JUMP JUMPDEST PUSH1 0x40 MLOAD DUP1 SWAP2 SUB SWAP1 RETURN JUMPDEST PUSH2 0x9D PUSH2 0x209 JUMP JUMPDEST PUSH1 0x40 MLOAD PUSH2 0xAA SWAP2 SWAP1 PUSH2 0x2D3 JUMP JUMPDEST PUSH1 0x40 MLOAD DUP1 SWAP2 SUB SWAP1 RETURN JUMPDEST PUSH2 0xBB PUSH2 0x21F JUMP JUMPDEST PUSH1 0x40 MLOAD PUSH2 0xC8 SWAP2 SWAP1 PUSH2 0x2D3 JUMP JUMPDEST PUSH1 0x40 MLOAD DUP1 SWAP2 SUB SWAP1 RETURN JUMPDEST PUSH2 0xD9 PUSH2 0x225 JUMP JUMPDEST PUSH1 0x40 MLOAD PUSH2 0xE6 SWAP2 SWAP1 PUSH2 0x2D3 JUMP JUMPDEST PUSH1 0x40 MLOAD DUP1 SWAP2 SUB SWAP1 RETURN JUMPDEST PUSH0 DUP1 SLOAD PUSH2 0xFB SWAP1 PUSH2 0x319 JUMP JUMPDEST DUP1 PUSH1 0x1F ADD PUSH1 0x20 DUP1 SWAP2 DIV MUL PUSH1 0x20 ADD PUSH1 0x40 MLOAD SWAP1 DUP2 ADD PUSH1 0x40 MSTORE DUP1 SWAP3 SWAP2 SWAP1 DUP2 DUP2 MSTORE PUSH1 0x20 ADD DUP3 DUP1 SLOAD PUSH2 0x127 SWAP1 PUSH2 0x319 JUMP JUMPDEST DUP1 ISZERO PUSH2 0x172 JUMPI DUP1 PUSH1 0x1F LT PUSH2 0x149 JUMPI PUSH2 0x100 DUP1 DUP4 SLOAD DIV MUL DUP4 MSTORE SWAP2 PUSH1 0x20 ADD SWAP2 PUSH2 0x172 JUMP JUMPDEST DUP3 ADD SWAP2 SWAP1 PUSH0 MSTORE PUSH1 0x20 PUSH0 KECCAK256 SWAP1 JUMPDEST DUP2 SLOAD DUP2 MSTORE SWAP1 PUSH1 0x1 ADD SWAP1 PUSH1 0x20 ADD DUP1 DUP4 GT PUSH2 0x155 JUMPI DUP3 SWAP1 SUB PUSH1 0x1F AND DUP3 ADD SWAP2 JUMPDEST POP POP POP POP POP DUP2 JUMP JUMPDEST PUSH1 0x60 PUSH0 DUP1 SLOAD PUSH2 0x188 SWAP1 PUSH2 0x319 JUMP JUMPDEST DUP1 PUSH1 0x1F ADD PUSH1 0x20 DUP1 SWAP2 DIV MUL PUSH1 0x20 ADD PUSH1 0x40 MLOAD SWAP1 DUP2 ADD PUSH1 0x40 MSTORE DUP1 SWAP3 SWAP2 SWAP1 DUP2 DUP2 MSTORE PUSH1 0x20 ADD DUP3 DUP1 SLOAD PUSH2 0x1B4 SWAP1 PUSH2 0x319 JUMP JUMPDEST DUP1 ISZERO PUSH2 0x1FF JUMPI DUP1 PUSH1 0x1F LT PUSH2 0x1D6 JUMPI PUSH2 0x100 DUP1 DUP4 SLOAD DIV MUL DUP4 MSTORE SWAP2 PUSH1 0x20 ADD SWAP2 PUSH2 0x1FF JUMP JUMPDEST DUP3 ADD SWAP2 SWAP1 PUSH0 MSTORE PUSH1 0x20 PUSH0 KECCAK256 SWAP1 JUMPDEST DUP2 SLOAD DUP2 MSTORE SWAP1 PUSH1 0x1 ADD SWAP1 PUSH1 0x20 ADD DUP1 DUP4 GT PUSH2 0x1E2 JUMPI DUP3 SWAP1 SUB PUSH1 0x1F AND DUP3 ADD SWAP2 JUMPDEST POP POP POP POP POP SWAP1 POP SWAP1 JUMP JUMPDEST PUSH0 PUSH1 0x2 SLOAD PUSH1 0x1 SLOAD PUSH2 0x21A SWAP2 SWAP1 PUSH2 0x376 JUMP JUMPDEST SWAP1 POP SWAP1 JUMP JUMPDEST PUSH1 0x2 SLOAD DUP2 JUMP JUMPDEST PUSH1 0x1 SLOAD DUP2 JUMP JUMPDEST PUSH0 DUP2 MLOAD SWAP1 POP SWAP2 SWAP1 POP JUMP JUMPDEST PUSH0 DUP3 DUP3 MSTORE PUSH1 0x20 DUP3 ADD SWAP1 POP SWAP3 SWAP2 POP POP JUMP JUMPDEST DUP3 DUP2 DUP4 MCOPY PUSH0 DUP4 DUP4 ADD MSTORE POP POP POP JUMP JUMPDEST PUSH0 PUSH1 0x1F NOT PUSH1 0x1F DUP4 ADD AND SWAP1 POP SWAP2 SWAP1 POP JUMP JUMPDEST PUSH0 PUSH2 0x26D DUP3 PUSH2 0x22B JUMP JUMPDEST PUSH2 0x277 DUP2 DUP6 PUSH2 0x235 JUMP JUMPDEST SWAP4 POP PUSH2 0x287 DUP2 DUP6 PUSH1 0x20 DUP7 ADD PUSH2 0x245 JUMP JUMPDEST PUSH2 0x290 DUP2 PUSH2 0x253 JUMP JUMPDEST DUP5 ADD SWAP2 POP POP SWAP3 SWAP2 POP POP JUMP JUMPDEST PUSH0 PUSH1 0x20 DUP3 ADD SWAP1 POP DUP2 DUP2 SUB PUSH0 DUP4 ADD MSTORE PUSH2 0x2B3 DUP2 DUP5 PUSH2 0x263 JUMP JUMPDEST SWAP1 POP SWAP3 SWAP2 POP POP JUMP JUMPDEST PUSH0 DUP2 SWAP1 POP SWAP2 SWAP1 POP JUMP JUMPDEST PUSH2 0x2CD DUP2 PUSH2 0x2BB JUMP JUMPDEST DUP3 MSTORE POP POP JUMP JUMPDEST PUSH0 PUSH1 0x20 DUP3 ADD SWAP1 POP PUSH2 0x2E6 PUSH0 DUP4 ADD DUP5 PUSH2 0x2C4 JUMP JUMPDEST SWAP3 SWAP2 POP POP JUMP JUMPDEST PUSH32 0x4E487B7100000000000000000000000000000000000000000000000000000000 PUSH0 MSTORE PUSH1 0x22 PUSH1 0x4 MSTORE PUSH1 0x24 PUSH0 REVERT JUMPDEST PUSH0 PUSH1 0x2 DUP3 DIV SWAP1 POP PUSH1 0x1 DUP3 AND DUP1 PUSH2 0x330 JUMPI PUSH1 0x7F DUP3 AND SWAP2 POP JUMPDEST PUSH1 0x20 DUP3 LT DUP2 SUB PUSH2 0x343 JUMPI PUSH2 0x342 PUSH2 0x2EC JUMP JUMPDEST JUMPDEST POP SWAP2 SWAP1 POP JUMP JUMPDEST PUSH32 0x4E487B7100000000000000000000000000000000000000000000000000000000 PUSH0 MSTORE PUSH1 0x11 PUSH1 0x4 MSTORE PUSH1 0x24 PUSH0 REVERT JUMPDEST PUSH0 PUSH2 0x380 DUP3 PUSH2 0x2BB JUMP JUMPDEST SWAP2 POP PUSH2 0x38B DUP4 PUSH2 0x2BB JUMP JUMPDEST SWAP3 POP DUP3 DUP3 ADD SWAP1 POP DUP1 DUP3 GT ISZERO PUSH2 0x3A3 JUMPI PUSH2 0x3A2 PUSH2 0x349 JUMP JUMPDEST JUMPDEST SWAP3 SWAP2 POP POP JUMP INVALID LOG2 PUSH5 0x6970667358 0x22 SLT KECCAK256 SIGNEXTEND EQ SWAP7 0xD7 0xC0 PUSH23 0xCFB9BC60F77E589EC08DB721560BF39D54C34DA16347CA 0x2C XOR BLOCKHASH PUSH5 0x736F6C6343 STOP ADDMOD BYTE STOP CALLER "
		},
		"gasEstimates": {
			"creation": {
				"codeDepositCost": "198200",
				"executionCost": "infinite",
				"totalCost": "infinite"
			},
			"external": {
				"getName()": "infinite",
				"getPrice()": "infinite",
				"name()": "infinite",
				"price()": "2491",
				"tax()": "2469"
			}
		},
		"methodIdentifiers": {
			"getName()": "17d7de7c",
			"getPrice()": "98d5fdca",
			"name()": "06fdde03",
			"price()": "a035b1fe",
			"tax()": "99c8d556"
		}
	},
	"abi": [
		{
			"inputs": [
				{
					"internalType": "string",
					"name": "name",
					"type": "string"
				},
				{
					"internalType": "uint256",
					"name": "price",
					"type": "uint256"
				},
				{
					"internalType": "uint256",
					"name": "_tax",
					"type": "uint256"
				}
			],
			"stateMutability": "nonpayable",
			"type": "constructor"
		},
		{
			"inputs": [],
			"name": "getName",
			"outputs": [
				{
					"internalType": "string",
					"name": "",
					"type": "string"
				}
			],
			"stateMutability": "view",
			"type": "function"
		},
		{
			"inputs": [],
			"name": "getPrice",
			"outputs": [
				{
					"internalType": "uint256",
					"name": "",
					"type": "uint256"
				}
			],
			"stateMutability": "view",
			"type": "function"
		},
		{
			"inputs": [],
			"name": "name",
			"outputs": [
				{
					"internalType": "string",
					"name": "",
					"type": "string"
				}
			],
			"stateMutability": "view",
			"type": "function"
		},
		{
			"inputs": [],
			"name": "price",
			"outputs": [
				{
					"internalType": "uint256",
					"name": "",
					"type": "uint256"
				}
			],
			"stateMutability": "view",
			"type": "function"
		},
		{
			"inputs": [],
			"name": "tax",
			"outputs": [
				{
					"internalType": "uint256",
					"name": "",
					"type": "uint256"
				}
			],
			"stateMutability": "view",
			"type": "function"
		}
	]
}