{
	"contracts/Voting.sol": {
		"Voting": {
			"abi": [
				{
					"inputs": [],
					"name": "currentWinner",
					"outputs": [
						{
							"internalType": "uint8",
							"name": "",
							"type": "uint8"
						}
					],
					"stateMutability": "view",
					"type": "function"
				},
				{
					"inputs": [],
					"name": "getCurrentWinner",
					"outputs": [
						{
							"internalType": "uint256",
							"name": "",
							"type": "uint256"
						}
					],
					"stateMutability": "view",
					"type": "function"
				},
				{
					"inputs": [
						{
							"internalType": "uint8",
							"name": "number",
							"type": "uint8"
						}
					],
					"name": "getVotes",
					"outputs": [
						{
							"internalType": "uint256",
							"name": "",
							"type": "uint256"
						}
					],
					"stateMutability": "view",
					"type": "function"
				},
				{
					"inputs": [],
					"name": "mostVotes",
					"outputs": [
						{
							"internalType": "uint8",
							"name": "",
							"type": "uint8"
						}
					],
					"stateMutability": "view",
					"type": "function"
				},
				{
					"inputs": [
						{
							"internalType": "uint8",
							"name": "number",
							"type": "uint8"
						}
					],
					"name": "vote",
					"outputs": [],
					"stateMutability": "nonpayable",
					"type": "function"
				},
				{
					"inputs": [
						{
							"internalType": "uint8",
							"name": "",
							"type": "uint8"
						}
					],
					"name": "voteMap",
					"outputs": [
						{
							"internalType": "uint8",
							"name": "",
							"type": "uint8"
						}
					],
					"stateMutability": "view",
					"type": "function"
				},
				{
					"inputs": [
						{
							"internalType": "address",
							"name": "",
							"type": "address"
						}
					],
					"name": "voted",
					"outputs": [
						{
							"internalType": "bool",
							"name": "",
							"type": "bool"
						}
					],
					"stateMutability": "view",
					"type": "function"
				}
			],
			"devdoc": {
				"details": "This contract allows people to vote for their favorite number within the range of 1 to 5 (inclusive).  Each person is allowed to vote only once. The contract keeps track of the number of votes for each number  and can determine which number has the most votes. The contract implements the following methods: 1. getVotes(uint8 number): Returns the number of votes for the passed number.    If the number is not in the range of 1-5, the function call should fail. 2. vote(uint8 number): Allows a user to vote for the passed number.     The function call should fail if the user has already voted or if they pass an invalid number. 3. getCurrentWinner(): Returns the number that currently has the most votes.    If two numbers have the same number of votes, it returns the number that received the most recent vote.     If no numbers have received any votes, it returns 1.",
				"kind": "dev",
				"methods": {
					"getCurrentWinner()": {
						"details": "Returns the number that currently has the most votes. If two numbers have the same number of votes, it returns the number that received the most recent vote. If no votes have been cast, it returns 1.",
						"returns": {
							"_0": "The number with the most votes or 1 if no votes have been cast."
						}
					},
					"getVotes(uint8)": {
						"details": "Returns the number of votes for a specific number. Reverts if the number is out of range.",
						"params": {
							"number": "The number to get the vote count for."
						},
						"returns": {
							"_0": "The vote count for the specified number."
						}
					},
					"vote(uint8)": {
						"details": "Allows a user to vote for a number in the range of 1 to 5. Reverts if the user has already voted or if the number is out of range.",
						"params": {
							"number": "The number to vote for."
						}
					}
				},
				"title": "Voting",
				"version": 1
			},
			"evm": {
				"assembly": "    /* \"contracts/Voting.sol\":1010:3167  contract Voting {... */\n  mstore(0x40, 0x80)\n  callvalue\n  dup1\n  iszero\n  tag_1\n  jumpi\n  0x00\n  dup1\n  revert\ntag_1:\n  pop\n  dataSize(sub_0)\n  dup1\n  dataOffset(sub_0)\n  0x00\n  codecopy\n  0x00\n  return\nstop\n\nsub_0: assembly {\n        /* \"contracts/Voting.sol\":1010:3167  contract Voting {... */\n      mstore(0x40, 0x80)\n      callvalue\n      dup1\n      iszero\n      tag_1\n      jumpi\n      0x00\n      dup1\n      revert\n    tag_1:\n      pop\n      jumpi(tag_2, lt(calldatasize, 0x04))\n      shr(0xe0, calldataload(0x00))\n      dup1\n      0xaabe2fe3\n      gt\n      tag_10\n      jumpi\n      dup1\n      0xaabe2fe3\n      eq\n      tag_6\n      jumpi\n      dup1\n      0xaec2ccae\n      eq\n      tag_7\n      jumpi\n      dup1\n      0xb3f98adc\n      eq\n      tag_8\n      jumpi\n      dup1\n      0xcea7b8db\n      eq\n      tag_9\n      jumpi\n      jump(tag_2)\n    tag_10:\n      dup1\n      0x329bfc33\n      eq\n      tag_3\n      jumpi\n      dup1\n      0x6d3c12f5\n      eq\n      tag_4\n      jumpi\n      dup1\n      0x8953bb72\n      eq\n      tag_5\n      jumpi\n    tag_2:\n      0x00\n      dup1\n      revert\n        /* \"contracts/Voting.sol\":2957:3165  function getCurrentWinner() public view returns (uint256) {... */\n    tag_3:\n      tag_11\n      tag_12\n      jump\t// in\n    tag_11:\n      mload(0x40)\n      tag_13\n      swap2\n      swap1\n      tag_14\n      jump\t// in\n    tag_13:\n      mload(0x40)\n      dup1\n      swap2\n      sub\n      swap1\n      return\n        /* \"contracts/Voting.sol\":1396:1418  uint8 public mostVotes */\n    tag_4:\n      tag_15\n      tag_16\n      jump\t// in\n    tag_15:\n      mload(0x40)\n      tag_17\n      swap2\n      swap1\n      tag_18\n      jump\t// in\n    tag_17:\n      mload(0x40)\n      dup1\n      swap2\n      sub\n      swap1\n      return\n        /* \"contracts/Voting.sol\":2454:2630  function getVotes(uint8 number) public view returns (uint256) {... */\n    tag_5:\n      tag_19\n      0x04\n      dup1\n      calldatasize\n      sub\n      dup2\n      add\n      swap1\n      tag_20\n      swap2\n      swap1\n      tag_21\n      jump\t// in\n    tag_20:\n      tag_22\n      jump\t// in\n    tag_19:\n      mload(0x40)\n      tag_23\n      swap2\n      swap1\n      tag_14\n      jump\t// in\n    tag_23:\n      mload(0x40)\n      dup1\n      swap2\n      sub\n      swap1\n      return\n        /* \"contracts/Voting.sol\":1297:1323  uint8 public currentWinner */\n    tag_6:\n      tag_24\n      tag_25\n      jump\t// in\n    tag_24:\n      mload(0x40)\n      tag_26\n      swap2\n      swap1\n      tag_18\n      jump\t// in\n    tag_26:\n      mload(0x40)\n      dup1\n      swap2\n      sub\n      swap1\n      return\n        /* \"contracts/Voting.sol\":1085:1122  mapping(address => bool) public voted */\n    tag_7:\n      tag_27\n      0x04\n      dup1\n      calldatasize\n      sub\n      dup2\n      add\n      swap1\n      tag_28\n      swap2\n      swap1\n      tag_29\n      jump\t// in\n    tag_28:\n      tag_30\n      jump\t// in\n    tag_27:\n      mload(0x40)\n      tag_31\n      swap2\n      swap1\n      tag_32\n      jump\t// in\n    tag_31:\n      mload(0x40)\n      dup1\n      swap2\n      sub\n      swap1\n      return\n        /* \"contracts/Voting.sol\":1636:2208  function vote(uint8 number) public {... */\n    tag_8:\n      tag_33\n      0x04\n      dup1\n      calldatasize\n      sub\n      dup2\n      add\n      swap1\n      tag_34\n      swap2\n      swap1\n      tag_21\n      jump\t// in\n    tag_34:\n      tag_35\n      jump\t// in\n    tag_33:\n      stop\n        /* \"contracts/Voting.sol\":1196:1234  mapping(uint8 => uint8) public voteMap */\n    tag_9:\n      tag_36\n      0x04\n      dup1\n      calldatasize\n      sub\n      dup2\n      add\n      swap1\n      tag_37\n      swap2\n      swap1\n      tag_21\n      jump\t// in\n    tag_37:\n      tag_38\n      jump\t// in\n    tag_36:\n      mload(0x40)\n      tag_39\n      swap2\n      swap1\n      tag_18\n      jump\t// in\n    tag_39:\n      mload(0x40)\n      dup1\n      swap2\n      sub\n      swap1\n      return\n        /* \"contracts/Voting.sol\":2957:3165  function getCurrentWinner() public view returns (uint256) {... */\n    tag_12:\n        /* \"contracts/Voting.sol\":3006:3013  uint256 */\n      0x00\n        /* \"contracts/Voting.sol\":3093:3094  0 */\n      dup1\n        /* \"contracts/Voting.sol\":3076:3089  currentWinner */\n      0x02\n      0x00\n      swap1\n      sload\n      swap1\n      0x0100\n      exp\n      swap1\n      div\n      0xff\n      and\n        /* \"contracts/Voting.sol\":3076:3094  currentWinner == 0 */\n      0xff\n      and\n      sub\n        /* \"contracts/Voting.sol\":3072:3129  if (currentWinner == 0) {... */\n      tag_41\n      jumpi\n        /* \"contracts/Voting.sol\":3117:3118  1 */\n      0x01\n        /* \"contracts/Voting.sol\":3110:3118  return 1 */\n      swap1\n      pop\n      jump(tag_40)\n        /* \"contracts/Voting.sol\":3072:3129  if (currentWinner == 0) {... */\n    tag_41:\n        /* \"contracts/Voting.sol\":3145:3158  currentWinner */\n      0x02\n      0x00\n      swap1\n      sload\n      swap1\n      0x0100\n      exp\n      swap1\n      div\n      0xff\n      and\n        /* \"contracts/Voting.sol\":3138:3158  return currentWinner */\n      0xff\n      and\n      swap1\n      pop\n        /* \"contracts/Voting.sol\":2957:3165  function getCurrentWinner() public view returns (uint256) {... */\n    tag_40:\n      swap1\n      jump\t// out\n        /* \"contracts/Voting.sol\":1396:1418  uint8 public mostVotes */\n    tag_16:\n      0x02\n      0x01\n      swap1\n      sload\n      swap1\n      0x0100\n      exp\n      swap1\n      div\n      0xff\n      and\n      dup2\n      jump\t// out\n        /* \"contracts/Voting.sol\":2454:2630  function getVotes(uint8 number) public view returns (uint256) {... */\n    tag_22:\n        /* \"contracts/Voting.sol\":2507:2514  uint256 */\n      0x00\n        /* \"contracts/Voting.sol\":2544:2545  1 */\n      0x01\n        /* \"contracts/Voting.sol\":2534:2540  number */\n      dup3\n        /* \"contracts/Voting.sol\":2534:2545  number >= 1 */\n      0xff\n      and\n      lt\n      iszero\n        /* \"contracts/Voting.sol\":2534:2560  number >= 1 && number <= 5 */\n      dup1\n      iszero\n      tag_43\n      jumpi\n      pop\n        /* \"contracts/Voting.sol\":2559:2560  5 */\n      0x05\n        /* \"contracts/Voting.sol\":2549:2555  number */\n      dup3\n        /* \"contracts/Voting.sol\":2549:2560  number <= 5 */\n      0xff\n      and\n      gt\n      iszero\n        /* \"contracts/Voting.sol\":2534:2560  number >= 1 && number <= 5 */\n    tag_43:\n        /* \"contracts/Voting.sol\":2526:2591  require(number >= 1 && number <= 5, \"Number is not in the range\") */\n      tag_44\n      jumpi\n      mload(0x40)\n      0x08c379a000000000000000000000000000000000000000000000000000000000\n      dup2\n      mstore\n      0x04\n      add\n      tag_45\n      swap1\n      tag_46\n      jump\t// in\n    tag_45:\n      mload(0x40)\n      dup1\n      swap2\n      sub\n      swap1\n      revert\n    tag_44:\n        /* \"contracts/Voting.sol\":2608:2615  voteMap */\n      0x01\n        /* \"contracts/Voting.sol\":2608:2623  voteMap[number] */\n      0x00\n        /* \"contracts/Voting.sol\":2616:2622  number */\n      dup4\n        /* \"contracts/Voting.sol\":2608:2623  voteMap[number] */\n      0xff\n      and\n      0xff\n      and\n      dup2\n      mstore\n      0x20\n      add\n      swap1\n      dup2\n      mstore\n      0x20\n      add\n      0x00\n      keccak256\n      0x00\n      swap1\n      sload\n      swap1\n      0x0100\n      exp\n      swap1\n      div\n      0xff\n      and\n        /* \"contracts/Voting.sol\":2601:2623  return voteMap[number] */\n      0xff\n      and\n      swap1\n      pop\n        /* \"contracts/Voting.sol\":2454:2630  function getVotes(uint8 number) public view returns (uint256) {... */\n      swap2\n      swap1\n      pop\n      jump\t// out\n        /* \"contracts/Voting.sol\":1297:1323  uint8 public currentWinner */\n    tag_25:\n      0x02\n      0x00\n      swap1\n      sload\n      swap1\n      0x0100\n      exp\n      swap1\n      div\n      0xff\n      and\n      dup2\n      jump\t// out\n        /* \"contracts/Voting.sol\":1085:1122  mapping(address => bool) public voted */\n    tag_30:\n      mstore(0x20, 0x00)\n      dup1\n      0x00\n      mstore\n      keccak256(0x00, 0x40)\n      0x00\n      swap2\n      pop\n      sload\n      swap1\n      0x0100\n      exp\n      swap1\n      div\n      0xff\n      and\n      dup2\n      jump\t// out\n        /* \"contracts/Voting.sol\":1636:2208  function vote(uint8 number) public {... */\n    tag_35:\n        /* \"contracts/Voting.sol\":1690:1695  voted */\n      0x00\n        /* \"contracts/Voting.sol\":1690:1707  voted[msg.sender] */\n      dup1\n        /* \"contracts/Voting.sol\":1696:1706  msg.sender */\n      caller\n        /* \"contracts/Voting.sol\":1690:1707  voted[msg.sender] */\n      0xffffffffffffffffffffffffffffffffffffffff\n      and\n      0xffffffffffffffffffffffffffffffffffffffff\n      and\n      dup2\n      mstore\n      0x20\n      add\n      swap1\n      dup2\n      mstore\n      0x20\n      add\n      0x00\n      keccak256\n      0x00\n      swap1\n      sload\n      swap1\n      0x0100\n      exp\n      swap1\n      div\n      0xff\n      and\n        /* \"contracts/Voting.sol\":1689:1707  !voted[msg.sender] */\n      iszero\n        /* \"contracts/Voting.sol\":1681:1737  require(!voted[msg.sender], \"Address has already voted\") */\n      tag_48\n      jumpi\n      mload(0x40)\n      0x08c379a000000000000000000000000000000000000000000000000000000000\n      dup2\n      mstore\n      0x04\n      add\n      tag_49\n      swap1\n      tag_50\n      jump\t// in\n    tag_49:\n      mload(0x40)\n      dup1\n      swap2\n      sub\n      swap1\n      revert\n    tag_48:\n        /* \"contracts/Voting.sol\":1765:1766  1 */\n      0x01\n        /* \"contracts/Voting.sol\":1755:1761  number */\n      dup2\n        /* \"contracts/Voting.sol\":1755:1766  number >= 1 */\n      0xff\n      and\n      lt\n      iszero\n        /* \"contracts/Voting.sol\":1755:1781  number >= 1 && number <= 5 */\n      dup1\n      iszero\n      tag_51\n      jumpi\n      pop\n        /* \"contracts/Voting.sol\":1780:1781  5 */\n      0x05\n        /* \"contracts/Voting.sol\":1770:1776  number */\n      dup2\n        /* \"contracts/Voting.sol\":1770:1781  number <= 5 */\n      0xff\n      and\n      gt\n      iszero\n        /* \"contracts/Voting.sol\":1755:1781  number >= 1 && number <= 5 */\n    tag_51:\n        /* \"contracts/Voting.sol\":1747:1812  require(number >= 1 && number <= 5, \"Number is not in the range\") */\n      tag_52\n      jumpi\n      mload(0x40)\n      0x08c379a000000000000000000000000000000000000000000000000000000000\n      dup2\n      mstore\n      0x04\n      add\n      tag_53\n      swap1\n      tag_46\n      jump\t// in\n    tag_53:\n      mload(0x40)\n      dup1\n      swap2\n      sub\n      swap1\n      revert\n    tag_52:\n        /* \"contracts/Voting.sol\":1887:1891  true */\n      0x01\n        /* \"contracts/Voting.sol\":1867:1872  voted */\n      0x00\n        /* \"contracts/Voting.sol\":1867:1884  voted[msg.sender] */\n      dup1\n        /* \"contracts/Voting.sol\":1873:1883  msg.sender */\n      caller\n        /* \"contracts/Voting.sol\":1867:1884  voted[msg.sender] */\n      0xffffffffffffffffffffffffffffffffffffffff\n      and\n      0xffffffffffffffffffffffffffffffffffffffff\n      and\n      dup2\n      mstore\n      0x20\n      add\n      swap1\n      dup2\n      mstore\n      0x20\n      add\n      0x00\n      keccak256\n      0x00\n        /* \"contracts/Voting.sol\":1867:1891  voted[msg.sender] = true */\n      0x0100\n      exp\n      dup2\n      sload\n      dup2\n      0xff\n      mul\n      not\n      and\n      swap1\n      dup4\n      iszero\n      iszero\n      mul\n      or\n      swap1\n      sstore\n      pop\n        /* \"contracts/Voting.sol\":1968:1975  voteMap */\n      0x01\n        /* \"contracts/Voting.sol\":1968:1983  voteMap[number] */\n      0x00\n        /* \"contracts/Voting.sol\":1976:1982  number */\n      dup3\n        /* \"contracts/Voting.sol\":1968:1983  voteMap[number] */\n      0xff\n      and\n      0xff\n      and\n      dup2\n      mstore\n      0x20\n      add\n      swap1\n      dup2\n      mstore\n      0x20\n      add\n      0x00\n      keccak256\n      0x00\n        /* \"contracts/Voting.sol\":1968:1985  voteMap[number]++ */\n      dup2\n      dup2\n      swap1\n      sload\n      swap1\n      0x0100\n      exp\n      swap1\n      div\n      0xff\n      and\n      dup1\n      swap3\n      swap2\n      swap1\n      tag_54\n      swap1\n      tag_55\n      jump\t// in\n    tag_54:\n      swap2\n      swap1\n      0x0100\n      exp\n      dup2\n      sload\n      dup2\n      0xff\n      mul\n      not\n      and\n      swap1\n      dup4\n      0xff\n      and\n      mul\n      or\n      swap1\n      sstore\n      pop\n      pop\n        /* \"contracts/Voting.sol\":2103:2112  mostVotes */\n      0x02\n      0x01\n      swap1\n      sload\n      swap1\n      0x0100\n      exp\n      swap1\n      div\n      0xff\n      and\n        /* \"contracts/Voting.sol\":2084:2112  voteMap[number] >= mostVotes */\n      0xff\n      and\n        /* \"contracts/Voting.sol\":2084:2091  voteMap */\n      0x01\n        /* \"contracts/Voting.sol\":2084:2099  voteMap[number] */\n      0x00\n        /* \"contracts/Voting.sol\":2092:2098  number */\n      dup4\n        /* \"contracts/Voting.sol\":2084:2099  voteMap[number] */\n      0xff\n      and\n      0xff\n      and\n      dup2\n      mstore\n      0x20\n      add\n      swap1\n      dup2\n      mstore\n      0x20\n      add\n      0x00\n      keccak256\n      0x00\n      swap1\n      sload\n      swap1\n      0x0100\n      exp\n      swap1\n      div\n      0xff\n      and\n        /* \"contracts/Voting.sol\":2084:2112  voteMap[number] >= mostVotes */\n      0xff\n      and\n      lt\n        /* \"contracts/Voting.sol\":2080:2202  if (voteMap[number] >= mostVotes) {... */\n      tag_56\n      jumpi\n        /* \"contracts/Voting.sol\":2144:2150  number */\n      dup1\n        /* \"contracts/Voting.sol\":2128:2141  currentWinner */\n      0x02\n      0x00\n        /* \"contracts/Voting.sol\":2128:2150  currentWinner = number */\n      0x0100\n      exp\n      dup2\n      sload\n      dup2\n      0xff\n      mul\n      not\n      and\n      swap1\n      dup4\n      0xff\n      and\n      mul\n      or\n      swap1\n      sstore\n      pop\n        /* \"contracts/Voting.sol\":2176:2183  voteMap */\n      0x01\n        /* \"contracts/Voting.sol\":2176:2191  voteMap[number] */\n      0x00\n        /* \"contracts/Voting.sol\":2184:2190  number */\n      dup3\n        /* \"contracts/Voting.sol\":2176:2191  voteMap[number] */\n      0xff\n      and\n      0xff\n      and\n      dup2\n      mstore\n      0x20\n      add\n      swap1\n      dup2\n      mstore\n      0x20\n      add\n      0x00\n      keccak256\n      0x00\n      swap1\n      sload\n      swap1\n      0x0100\n      exp\n      swap1\n      div\n      0xff\n      and\n        /* \"contracts/Voting.sol\":2164:2173  mostVotes */\n      0x02\n      0x01\n        /* \"contracts/Voting.sol\":2164:2191  mostVotes = voteMap[number] */\n      0x0100\n      exp\n      dup2\n      sload\n      dup2\n      0xff\n      mul\n      not\n      and\n      swap1\n      dup4\n      0xff\n      and\n      mul\n      or\n      swap1\n      sstore\n      pop\n        /* \"contracts/Voting.sol\":2080:2202  if (voteMap[number] >= mostVotes) {... */\n    tag_56:\n        /* \"contracts/Voting.sol\":1636:2208  function vote(uint8 number) public {... */\n      pop\n      jump\t// out\n        /* \"contracts/Voting.sol\":1196:1234  mapping(uint8 => uint8) public voteMap */\n    tag_38:\n      mstore(0x20, 0x01)\n      dup1\n      0x00\n      mstore\n      keccak256(0x00, 0x40)\n      0x00\n      swap2\n      pop\n      sload\n      swap1\n      0x0100\n      exp\n      swap1\n      div\n      0xff\n      and\n      dup2\n      jump\t// out\n        /* \"#utility.yul\":7:84   */\n    tag_57:\n        /* \"#utility.yul\":44:51   */\n      0x00\n        /* \"#utility.yul\":73:78   */\n      dup2\n        /* \"#utility.yul\":62:78   */\n      swap1\n      pop\n        /* \"#utility.yul\":7:84   */\n      swap2\n      swap1\n      pop\n      jump\t// out\n        /* \"#utility.yul\":90:208   */\n    tag_58:\n        /* \"#utility.yul\":177:201   */\n      tag_81\n        /* \"#utility.yul\":195:200   */\n      dup2\n        /* \"#utility.yul\":177:201   */\n      tag_57\n      jump\t// in\n    tag_81:\n        /* \"#utility.yul\":172:175   */\n      dup3\n        /* \"#utility.yul\":165:202   */\n      mstore\n        /* \"#utility.yul\":90:208   */\n      pop\n      pop\n      jump\t// out\n        /* \"#utility.yul\":214:436   */\n    tag_14:\n        /* \"#utility.yul\":307:311   */\n      0x00\n        /* \"#utility.yul\":345:347   */\n      0x20\n        /* \"#utility.yul\":334:343   */\n      dup3\n        /* \"#utility.yul\":330:348   */\n      add\n        /* \"#utility.yul\":322:348   */\n      swap1\n      pop\n        /* \"#utility.yul\":358:429   */\n      tag_83\n        /* \"#utility.yul\":426:427   */\n      0x00\n        /* \"#utility.yul\":415:424   */\n      dup4\n        /* \"#utility.yul\":411:428   */\n      add\n        /* \"#utility.yul\":402:408   */\n      dup5\n        /* \"#utility.yul\":358:429   */\n      tag_58\n      jump\t// in\n    tag_83:\n        /* \"#utility.yul\":214:436   */\n      swap3\n      swap2\n      pop\n      pop\n      jump\t// out\n        /* \"#utility.yul\":442:528   */\n    tag_59:\n        /* \"#utility.yul\":477:484   */\n      0x00\n        /* \"#utility.yul\":517:521   */\n      0xff\n        /* \"#utility.yul\":510:515   */\n      dup3\n        /* \"#utility.yul\":506:522   */\n      and\n        /* \"#utility.yul\":495:522   */\n      swap1\n      pop\n        /* \"#utility.yul\":442:528   */\n      swap2\n      swap1\n      pop\n      jump\t// out\n        /* \"#utility.yul\":534:646   */\n    tag_60:\n        /* \"#utility.yul\":617:639   */\n      tag_86\n        /* \"#utility.yul\":633:638   */\n      dup2\n        /* \"#utility.yul\":617:639   */\n      tag_59\n      jump\t// in\n    tag_86:\n        /* \"#utility.yul\":612:615   */\n      dup3\n        /* \"#utility.yul\":605:640   */\n      mstore\n        /* \"#utility.yul\":534:646   */\n      pop\n      pop\n      jump\t// out\n        /* \"#utility.yul\":652:866   */\n    tag_18:\n        /* \"#utility.yul\":741:745   */\n      0x00\n        /* \"#utility.yul\":779:781   */\n      0x20\n        /* \"#utility.yul\":768:777   */\n      dup3\n        /* \"#utility.yul\":764:782   */\n      add\n        /* \"#utility.yul\":756:782   */\n      swap1\n      pop\n        /* \"#utility.yul\":792:859   */\n      tag_88\n        /* \"#utility.yul\":856:857   */\n      0x00\n        /* \"#utility.yul\":845:854   */\n      dup4\n        /* \"#utility.yul\":841:858   */\n      add\n        /* \"#utility.yul\":832:838   */\n      dup5\n        /* \"#utility.yul\":792:859   */\n      tag_60\n      jump\t// in\n    tag_88:\n        /* \"#utility.yul\":652:866   */\n      swap3\n      swap2\n      pop\n      pop\n      jump\t// out\n        /* \"#utility.yul\":953:1070   */\n    tag_62:\n        /* \"#utility.yul\":1062:1063   */\n      0x00\n        /* \"#utility.yul\":1059:1060   */\n      dup1\n        /* \"#utility.yul\":1052:1064   */\n      revert\n        /* \"#utility.yul\":1199:1317   */\n    tag_64:\n        /* \"#utility.yul\":1270:1292   */\n      tag_93\n        /* \"#utility.yul\":1286:1291   */\n      dup2\n        /* \"#utility.yul\":1270:1292   */\n      tag_59\n      jump\t// in\n    tag_93:\n        /* \"#utility.yul\":1263:1268   */\n      dup2\n        /* \"#utility.yul\":1260:1293   */\n      eq\n        /* \"#utility.yul\":1250:1311   */\n      tag_94\n      jumpi\n        /* \"#utility.yul\":1307:1308   */\n      0x00\n        /* \"#utility.yul\":1304:1305   */\n      dup1\n        /* \"#utility.yul\":1297:1309   */\n      revert\n        /* \"#utility.yul\":1250:1311   */\n    tag_94:\n        /* \"#utility.yul\":1199:1317   */\n      pop\n      jump\t// out\n        /* \"#utility.yul\":1323:1458   */\n    tag_65:\n        /* \"#utility.yul\":1367:1372   */\n      0x00\n        /* \"#utility.yul\":1405:1411   */\n      dup2\n        /* \"#utility.yul\":1392:1412   */\n      calldataload\n        /* \"#utility.yul\":1383:1412   */\n      swap1\n      pop\n        /* \"#utility.yul\":1421:1452   */\n      tag_96\n        /* \"#utility.yul\":1446:1451   */\n      dup2\n        /* \"#utility.yul\":1421:1452   */\n      tag_64\n      jump\t// in\n    tag_96:\n        /* \"#utility.yul\":1323:1458   */\n      swap3\n      swap2\n      pop\n      pop\n      jump\t// out\n        /* \"#utility.yul\":1464:1789   */\n    tag_21:\n        /* \"#utility.yul\":1521:1527   */\n      0x00\n        /* \"#utility.yul\":1570:1572   */\n      0x20\n        /* \"#utility.yul\":1558:1567   */\n      dup3\n        /* \"#utility.yul\":1549:1556   */\n      dup5\n        /* \"#utility.yul\":1545:1568   */\n      sub\n        /* \"#utility.yul\":1541:1573   */\n      slt\n        /* \"#utility.yul\":1538:1657   */\n      iszero\n      tag_98\n      jumpi\n        /* \"#utility.yul\":1576:1655   */\n      tag_99\n      tag_62\n      jump\t// in\n    tag_99:\n        /* \"#utility.yul\":1538:1657   */\n    tag_98:\n        /* \"#utility.yul\":1696:1697   */\n      0x00\n        /* \"#utility.yul\":1721:1772   */\n      tag_100\n        /* \"#utility.yul\":1764:1771   */\n      dup5\n        /* \"#utility.yul\":1755:1761   */\n      dup3\n        /* \"#utility.yul\":1744:1753   */\n      dup6\n        /* \"#utility.yul\":1740:1762   */\n      add\n        /* \"#utility.yul\":1721:1772   */\n      tag_65\n      jump\t// in\n    tag_100:\n        /* \"#utility.yul\":1711:1772   */\n      swap2\n      pop\n        /* \"#utility.yul\":1667:1782   */\n      pop\n        /* \"#utility.yul\":1464:1789   */\n      swap3\n      swap2\n      pop\n      pop\n      jump\t// out\n        /* \"#utility.yul\":1795:1921   */\n    tag_66:\n        /* \"#utility.yul\":1832:1839   */\n      0x00\n        /* \"#utility.yul\":1872:1914   */\n      0xffffffffffffffffffffffffffffffffffffffff\n        /* \"#utility.yul\":1865:1870   */\n      dup3\n        /* \"#utility.yul\":1861:1915   */\n      and\n        /* \"#utility.yul\":1850:1915   */\n      swap1\n      pop\n        /* \"#utility.yul\":1795:1921   */\n      swap2\n      swap1\n      pop\n      jump\t// out\n        /* \"#utility.yul\":1927:2023   */\n    tag_67:\n        /* \"#utility.yul\":1964:1971   */\n      0x00\n        /* \"#utility.yul\":1993:2017   */\n      tag_103\n        /* \"#utility.yul\":2011:2016   */\n      dup3\n        /* \"#utility.yul\":1993:2017   */\n      tag_66\n      jump\t// in\n    tag_103:\n        /* \"#utility.yul\":1982:2017   */\n      swap1\n      pop\n        /* \"#utility.yul\":1927:2023   */\n      swap2\n      swap1\n      pop\n      jump\t// out\n        /* \"#utility.yul\":2029:2151   */\n    tag_68:\n        /* \"#utility.yul\":2102:2126   */\n      tag_105\n        /* \"#utility.yul\":2120:2125   */\n      dup2\n        /* \"#utility.yul\":2102:2126   */\n      tag_67\n      jump\t// in\n    tag_105:\n        /* \"#utility.yul\":2095:2100   */\n      dup2\n        /* \"#utility.yul\":2092:2127   */\n      eq\n        /* \"#utility.yul\":2082:2145   */\n      tag_106\n      jumpi\n        /* \"#utility.yul\":2141:2142   */\n      0x00\n        /* \"#utility.yul\":2138:2139   */\n      dup1\n        /* \"#utility.yul\":2131:2143   */\n      revert\n        /* \"#utility.yul\":2082:2145   */\n    tag_106:\n        /* \"#utility.yul\":2029:2151   */\n      pop\n      jump\t// out\n        /* \"#utility.yul\":2157:2296   */\n    tag_69:\n        /* \"#utility.yul\":2203:2208   */\n      0x00\n        /* \"#utility.yul\":2241:2247   */\n      dup2\n        /* \"#utility.yul\":2228:2248   */\n      calldataload\n        /* \"#utility.yul\":2219:2248   */\n      swap1\n      pop\n        /* \"#utility.yul\":2257:2290   */\n      tag_108\n        /* \"#utility.yul\":2284:2289   */\n      dup2\n        /* \"#utility.yul\":2257:2290   */\n      tag_68\n      jump\t// in\n    tag_108:\n        /* \"#utility.yul\":2157:2296   */\n      swap3\n      swap2\n      pop\n      pop\n      jump\t// out\n        /* \"#utility.yul\":2302:2631   */\n    tag_29:\n        /* \"#utility.yul\":2361:2367   */\n      0x00\n        /* \"#utility.yul\":2410:2412   */\n      0x20\n        /* \"#utility.yul\":2398:2407   */\n      dup3\n        /* \"#utility.yul\":2389:2396   */\n      dup5\n        /* \"#utility.yul\":2385:2408   */\n      sub\n        /* \"#utility.yul\":2381:2413   */\n      slt\n        /* \"#utility.yul\":2378:2497   */\n      iszero\n      tag_110\n      jumpi\n        /* \"#utility.yul\":2416:2495   */\n      tag_111\n      tag_62\n      jump\t// in\n    tag_111:\n        /* \"#utility.yul\":2378:2497   */\n    tag_110:\n        /* \"#utility.yul\":2536:2537   */\n      0x00\n        /* \"#utility.yul\":2561:2614   */\n      tag_112\n        /* \"#utility.yul\":2606:2613   */\n      dup5\n        /* \"#utility.yul\":2597:2603   */\n      dup3\n        /* \"#utility.yul\":2586:2595   */\n      dup6\n        /* \"#utility.yul\":2582:2604   */\n      add\n        /* \"#utility.yul\":2561:2614   */\n      tag_69\n      jump\t// in\n    tag_112:\n        /* \"#utility.yul\":2551:2614   */\n      swap2\n      pop\n        /* \"#utility.yul\":2507:2624   */\n      pop\n        /* \"#utility.yul\":2302:2631   */\n      swap3\n      swap2\n      pop\n      pop\n      jump\t// out\n        /* \"#utility.yul\":2637:2727   */\n    tag_70:\n        /* \"#utility.yul\":2671:2678   */\n      0x00\n        /* \"#utility.yul\":2714:2719   */\n      dup2\n        /* \"#utility.yul\":2707:2720   */\n      iszero\n        /* \"#utility.yul\":2700:2721   */\n      iszero\n        /* \"#utility.yul\":2689:2721   */\n      swap1\n      pop\n        /* \"#utility.yul\":2637:2727   */\n      swap2\n      swap1\n      pop\n      jump\t// out\n        /* \"#utility.yul\":2733:2842   */\n    tag_71:\n        /* \"#utility.yul\":2814:2835   */\n      tag_115\n        /* \"#utility.yul\":2829:2834   */\n      dup2\n        /* \"#utility.yul\":2814:2835   */\n      tag_70\n      jump\t// in\n    tag_115:\n        /* \"#utility.yul\":2809:2812   */\n      dup3\n        /* \"#utility.yul\":2802:2836   */\n      mstore\n        /* \"#utility.yul\":2733:2842   */\n      pop\n      pop\n      jump\t// out\n        /* \"#utility.yul\":2848:3058   */\n    tag_32:\n        /* \"#utility.yul\":2935:2939   */\n      0x00\n        /* \"#utility.yul\":2973:2975   */\n      0x20\n        /* \"#utility.yul\":2962:2971   */\n      dup3\n        /* \"#utility.yul\":2958:2976   */\n      add\n        /* \"#utility.yul\":2950:2976   */\n      swap1\n      pop\n        /* \"#utility.yul\":2986:3051   */\n      tag_117\n        /* \"#utility.yul\":3048:3049   */\n      0x00\n        /* \"#utility.yul\":3037:3046   */\n      dup4\n        /* \"#utility.yul\":3033:3050   */\n      add\n        /* \"#utility.yul\":3024:3030   */\n      dup5\n        /* \"#utility.yul\":2986:3051   */\n      tag_71\n      jump\t// in\n    tag_117:\n        /* \"#utility.yul\":2848:3058   */\n      swap3\n      swap2\n      pop\n      pop\n      jump\t// out\n        /* \"#utility.yul\":3064:3233   */\n    tag_72:\n        /* \"#utility.yul\":3148:3159   */\n      0x00\n        /* \"#utility.yul\":3182:3188   */\n      dup3\n        /* \"#utility.yul\":3177:3180   */\n      dup3\n        /* \"#utility.yul\":3170:3189   */\n      mstore\n        /* \"#utility.yul\":3222:3226   */\n      0x20\n        /* \"#utility.yul\":3217:3220   */\n      dup3\n        /* \"#utility.yul\":3213:3227   */\n      add\n        /* \"#utility.yul\":3198:3227   */\n      swap1\n      pop\n        /* \"#utility.yul\":3064:3233   */\n      swap3\n      swap2\n      pop\n      pop\n      jump\t// out\n        /* \"#utility.yul\":3239:3415   */\n    tag_73:\n        /* \"#utility.yul\":3379:3407   */\n      0x4e756d626572206973206e6f7420696e207468652072616e6765000000000000\n        /* \"#utility.yul\":3375:3376   */\n      0x00\n        /* \"#utility.yul\":3367:3373   */\n      dup3\n        /* \"#utility.yul\":3363:3377   */\n      add\n        /* \"#utility.yul\":3356:3408   */\n      mstore\n        /* \"#utility.yul\":3239:3415   */\n      pop\n      jump\t// out\n        /* \"#utility.yul\":3421:3787   */\n    tag_74:\n        /* \"#utility.yul\":3563:3566   */\n      0x00\n        /* \"#utility.yul\":3584:3651   */\n      tag_121\n        /* \"#utility.yul\":3648:3650   */\n      0x1a\n        /* \"#utility.yul\":3643:3646   */\n      dup4\n        /* \"#utility.yul\":3584:3651   */\n      tag_72\n      jump\t// in\n    tag_121:\n        /* \"#utility.yul\":3577:3651   */\n      swap2\n      pop\n        /* \"#utility.yul\":3660:3753   */\n      tag_122\n        /* \"#utility.yul\":3749:3752   */\n      dup3\n        /* \"#utility.yul\":3660:3753   */\n      tag_73\n      jump\t// in\n    tag_122:\n        /* \"#utility.yul\":3778:3780   */\n      0x20\n        /* \"#utility.yul\":3773:3776   */\n      dup3\n        /* \"#utility.yul\":3769:3781   */\n      add\n        /* \"#utility.yul\":3762:3781   */\n      swap1\n      pop\n        /* \"#utility.yul\":3421:3787   */\n      swap2\n      swap1\n      pop\n      jump\t// out\n        /* \"#utility.yul\":3793:4212   */\n    tag_46:\n        /* \"#utility.yul\":3959:3963   */\n      0x00\n        /* \"#utility.yul\":3997:3999   */\n      0x20\n        /* \"#utility.yul\":3986:3995   */\n      dup3\n        /* \"#utility.yul\":3982:4000   */\n      add\n        /* \"#utility.yul\":3974:4000   */\n      swap1\n      pop\n        /* \"#utility.yul\":4046:4055   */\n      dup2\n        /* \"#utility.yul\":4040:4044   */\n      dup2\n        /* \"#utility.yul\":4036:4056   */\n      sub\n        /* \"#utility.yul\":4032:4033   */\n      0x00\n        /* \"#utility.yul\":4021:4030   */\n      dup4\n        /* \"#utility.yul\":4017:4034   */\n      add\n        /* \"#utility.yul\":4010:4057   */\n      mstore\n        /* \"#utility.yul\":4074:4205   */\n      tag_124\n        /* \"#utility.yul\":4200:4204   */\n      dup2\n        /* \"#utility.yul\":4074:4205   */\n      tag_74\n      jump\t// in\n    tag_124:\n        /* \"#utility.yul\":4066:4205   */\n      swap1\n      pop\n        /* \"#utility.yul\":3793:4212   */\n      swap2\n      swap1\n      pop\n      jump\t// out\n        /* \"#utility.yul\":4218:4393   */\n    tag_75:\n        /* \"#utility.yul\":4358:4385   */\n      0x416464726573732068617320616c726561647920766f74656400000000000000\n        /* \"#utility.yul\":4354:4355   */\n      0x00\n        /* \"#utility.yul\":4346:4352   */\n      dup3\n        /* \"#utility.yul\":4342:4356   */\n      add\n        /* \"#utility.yul\":4335:4386   */\n      mstore\n        /* \"#utility.yul\":4218:4393   */\n      pop\n      jump\t// out\n        /* \"#utility.yul\":4399:4765   */\n    tag_76:\n        /* \"#utility.yul\":4541:4544   */\n      0x00\n        /* \"#utility.yul\":4562:4629   */\n      tag_127\n        /* \"#utility.yul\":4626:4628   */\n      0x19\n        /* \"#utility.yul\":4621:4624   */\n      dup4\n        /* \"#utility.yul\":4562:4629   */\n      tag_72\n      jump\t// in\n    tag_127:\n        /* \"#utility.yul\":4555:4629   */\n      swap2\n      pop\n        /* \"#utility.yul\":4638:4731   */\n      tag_128\n        /* \"#utility.yul\":4727:4730   */\n      dup3\n        /* \"#utility.yul\":4638:4731   */\n      tag_75\n      jump\t// in\n    tag_128:\n        /* \"#utility.yul\":4756:4758   */\n      0x20\n        /* \"#utility.yul\":4751:4754   */\n      dup3\n        /* \"#utility.yul\":4747:4759   */\n      add\n        /* \"#utility.yul\":4740:4759   */\n      swap1\n      pop\n        /* \"#utility.yul\":4399:4765   */\n      swap2\n      swap1\n      pop\n      jump\t// out\n        /* \"#utility.yul\":4771:5190   */\n    tag_50:\n        /* \"#utility.yul\":4937:4941   */\n      0x00\n        /* \"#utility.yul\":4975:4977   */\n      0x20\n        /* \"#utility.yul\":4964:4973   */\n      dup3\n        /* \"#utility.yul\":4960:4978   */\n      add\n        /* \"#utility.yul\":4952:4978   */\n      swap1\n      pop\n        /* \"#utility.yul\":5024:5033   */\n      dup2\n        /* \"#utility.yul\":5018:5022   */\n      dup2\n        /* \"#utility.yul\":5014:5034   */\n      sub\n        /* \"#utility.yul\":5010:5011   */\n      0x00\n        /* \"#utility.yul\":4999:5008   */\n      dup4\n        /* \"#utility.yul\":4995:5012   */\n      add\n        /* \"#utility.yul\":4988:5035   */\n      mstore\n        /* \"#utility.yul\":5052:5183   */\n      tag_130\n        /* \"#utility.yul\":5178:5182   */\n      dup2\n        /* \"#utility.yul\":5052:5183   */\n      tag_76\n      jump\t// in\n    tag_130:\n        /* \"#utility.yul\":5044:5183   */\n      swap1\n      pop\n        /* \"#utility.yul\":4771:5190   */\n      swap2\n      swap1\n      pop\n      jump\t// out\n        /* \"#utility.yul\":5196:5376   */\n    tag_77:\n        /* \"#utility.yul\":5244:5321   */\n      0x4e487b7100000000000000000000000000000000000000000000000000000000\n        /* \"#utility.yul\":5241:5242   */\n      0x00\n        /* \"#utility.yul\":5234:5322   */\n      mstore\n        /* \"#utility.yul\":5341:5345   */\n      0x11\n        /* \"#utility.yul\":5338:5339   */\n      0x04\n        /* \"#utility.yul\":5331:5346   */\n      mstore\n        /* \"#utility.yul\":5365:5369   */\n      0x24\n        /* \"#utility.yul\":5362:5363   */\n      0x00\n        /* \"#utility.yul\":5355:5370   */\n      revert\n        /* \"#utility.yul\":5382:5549   */\n    tag_55:\n        /* \"#utility.yul\":5419:5422   */\n      0x00\n        /* \"#utility.yul\":5442:5464   */\n      tag_133\n        /* \"#utility.yul\":5458:5463   */\n      dup3\n        /* \"#utility.yul\":5442:5464   */\n      tag_59\n      jump\t// in\n    tag_133:\n        /* \"#utility.yul\":5433:5464   */\n      swap2\n      pop\n        /* \"#utility.yul\":5486:5490   */\n      0xff\n        /* \"#utility.yul\":5479:5484   */\n      dup3\n        /* \"#utility.yul\":5476:5491   */\n      sub\n        /* \"#utility.yul\":5473:5514   */\n      tag_134\n      jumpi\n        /* \"#utility.yul\":5494:5512   */\n      tag_135\n      tag_77\n      jump\t// in\n    tag_135:\n        /* \"#utility.yul\":5473:5514   */\n    tag_134:\n        /* \"#utility.yul\":5541:5542   */\n      0x01\n        /* \"#utility.yul\":5534:5539   */\n      dup3\n        /* \"#utility.yul\":5530:5543   */\n      add\n        /* \"#utility.yul\":5523:5543   */\n      swap1\n      pop\n        /* \"#utility.yul\":5382:5549   */\n      swap2\n      swap1\n      pop\n      jump\t// out\n\n    auxdata: 0xa2646970667358221220a766b1bc9c8a5c4fa017de8dc05f9a62b72dd8c567fb48059e1a35c95e5dbc9864736f6c634300081a0033\n}\n",
				"bytecode": {
					"linkReferences": {},
					"object": "6080604052348015600e575f80fd5b5061079f8061001c5f395ff3fe608060405234801561000f575f80fd5b506004361061007b575f3560e01c8063aabe2fe311610059578063aabe2fe3146100eb578063aec2ccae14610109578063b3f98adc14610139578063cea7b8db146101555761007b565b8063329bfc331461007f5780636d3c12f51461009d5780638953bb72146100bb575b5f80fd5b610087610185565b60405161009491906104d6565b60405180910390f35b6100a56101bf565b6040516100b2919061050a565b60405180910390f35b6100d560048036038101906100d09190610551565b6101d2565b6040516100e291906104d6565b60405180910390f35b6100f3610258565b604051610100919061050a565b60405180910390f35b610123600480360381019061011e91906105d6565b61026a565b604051610130919061061b565b60405180910390f35b610153600480360381019061014e9190610551565b610286565b005b61016f600480360381019061016a9190610551565b6104a1565b60405161017c919061050a565b60405180910390f35b5f8060025f9054906101000a900460ff1660ff16036101a757600190506101bc565b60025f9054906101000a900460ff1660ff1690505b90565b600260019054906101000a900460ff1681565b5f60018260ff16101580156101eb575060058260ff1611155b61022a576040517f08c379a00000000000000000000000000000000000000000000000000000000081526004016102219061068e565b60405180910390fd5b60015f8360ff1660ff1681526020019081526020015f205f9054906101000a900460ff1660ff169050919050565b60025f9054906101000a900460ff1681565b5f602052805f5260405f205f915054906101000a900460ff1681565b5f803373ffffffffffffffffffffffffffffffffffffffff1673ffffffffffffffffffffffffffffffffffffffff1681526020019081526020015f205f9054906101000a900460ff161561030f576040517f08c379a0000000000000000000000000000000000000000000000000000000008152600401610306906106f6565b60405180910390fd5b60018160ff1610158015610327575060058160ff1611155b610366576040517f08c379a000000000000000000000000000000000000000000000000000000000815260040161035d9061068e565b60405180910390fd5b60015f803373ffffffffffffffffffffffffffffffffffffffff1673ffffffffffffffffffffffffffffffffffffffff1681526020019081526020015f205f6101000a81548160ff02191690831515021790555060015f8260ff1660ff1681526020019081526020015f205f81819054906101000a900460ff16809291906103ed90610741565b91906101000a81548160ff021916908360ff16021790555050600260019054906101000a900460ff1660ff1660015f8360ff1660ff1681526020019081526020015f205f9054906101000a900460ff1660ff161061049e578060025f6101000a81548160ff021916908360ff16021790555060015f8260ff1660ff1681526020019081526020015f205f9054906101000a900460ff16600260016101000a81548160ff021916908360ff1602179055505b50565b6001602052805f5260405f205f915054906101000a900460ff1681565b5f819050919050565b6104d0816104be565b82525050565b5f6020820190506104e95f8301846104c7565b92915050565b5f60ff82169050919050565b610504816104ef565b82525050565b5f60208201905061051d5f8301846104fb565b92915050565b5f80fd5b610530816104ef565b811461053a575f80fd5b50565b5f8135905061054b81610527565b92915050565b5f6020828403121561056657610565610523565b5b5f6105738482850161053d565b91505092915050565b5f73ffffffffffffffffffffffffffffffffffffffff82169050919050565b5f6105a58261057c565b9050919050565b6105b58161059b565b81146105bf575f80fd5b50565b5f813590506105d0816105ac565b92915050565b5f602082840312156105eb576105ea610523565b5b5f6105f8848285016105c2565b91505092915050565b5f8115159050919050565b61061581610601565b82525050565b5f60208201905061062e5f83018461060c565b92915050565b5f82825260208201905092915050565b7f4e756d626572206973206e6f7420696e207468652072616e67650000000000005f82015250565b5f610678601a83610634565b915061068382610644565b602082019050919050565b5f6020820190508181035f8301526106a58161066c565b9050919050565b7f416464726573732068617320616c726561647920766f746564000000000000005f82015250565b5f6106e0601983610634565b91506106eb826106ac565b602082019050919050565b5f6020820190508181035f83015261070d816106d4565b9050919050565b7f4e487b71000000000000000000000000000000000000000000000000000000005f52601160045260245ffd5b5f61074b826104ef565b915060ff820361075e5761075d610714565b5b60018201905091905056fea2646970667358221220a766b1bc9c8a5c4fa017de8dc05f9a62b72dd8c567fb48059e1a35c95e5dbc9864736f6c634300081a0033",
					"opcodes": "PUSH1 0x80 PUSH1 0x40 MSTORE CALLVALUE DUP1 ISZERO PUSH1 0xE JUMPI PUSH0 DUP1 REVERT JUMPDEST POP PUSH2 0x79F DUP1 PUSH2 0x1C PUSH0 CODECOPY PUSH0 RETURN INVALID PUSH1 0x80 PUSH1 0x40 MSTORE CALLVALUE DUP1 ISZERO PUSH2 0xF JUMPI PUSH0 DUP1 REVERT JUMPDEST POP PUSH1 0x4 CALLDATASIZE LT PUSH2 0x7B JUMPI PUSH0 CALLDATALOAD PUSH1 0xE0 SHR DUP1 PUSH4 0xAABE2FE3 GT PUSH2 0x59 JUMPI DUP1 PUSH4 0xAABE2FE3 EQ PUSH2 0xEB JUMPI DUP1 PUSH4 0xAEC2CCAE EQ PUSH2 0x109 JUMPI DUP1 PUSH4 0xB3F98ADC EQ PUSH2 0x139 JUMPI DUP1 PUSH4 0xCEA7B8DB EQ PUSH2 0x155 JUMPI PUSH2 0x7B JUMP JUMPDEST DUP1 PUSH4 0x329BFC33 EQ PUSH2 0x7F JUMPI DUP1 PUSH4 0x6D3C12F5 EQ PUSH2 0x9D JUMPI DUP1 PUSH4 0x8953BB72 EQ PUSH2 0xBB JUMPI JUMPDEST PUSH0 DUP1 REVERT JUMPDEST PUSH2 0x87 PUSH2 0x185 JUMP JUMPDEST PUSH1 0x40 MLOAD PUSH2 0x94 SWAP2 SWAP1 PUSH2 0x4D6 JUMP JUMPDEST PUSH1 0x40 MLOAD DUP1 SWAP2 SUB SWAP1 RETURN JUMPDEST PUSH2 0xA5 PUSH2 0x1BF JUMP JUMPDEST PUSH1 0x40 MLOAD PUSH2 0xB2 SWAP2 SWAP1 PUSH2 0x50A JUMP JUMPDEST PUSH1 0x40 MLOAD DUP1 SWAP2 SUB SWAP1 RETURN JUMPDEST PUSH2 0xD5 PUSH1 0x4 DUP1 CALLDATASIZE SUB DUP2 ADD SWAP1 PUSH2 0xD0 SWAP2 SWAP1 PUSH2 0x551 JUMP JUMPDEST PUSH2 0x1D2 JUMP JUMPDEST PUSH1 0x40 MLOAD PUSH2 0xE2 SWAP2 SWAP1 PUSH2 0x4D6 JUMP JUMPDEST PUSH1 0x40 MLOAD DUP1 SWAP2 SUB SWAP1 RETURN JUMPDEST PUSH2 0xF3 PUSH2 0x258 JUMP JUMPDEST PUSH1 0x40 MLOAD PUSH2 0x100 SWAP2 SWAP1 PUSH2 0x50A JUMP JUMPDEST PUSH1 0x40 MLOAD DUP1 SWAP2 SUB SWAP1 RETURN JUMPDEST PUSH2 0x123 PUSH1 0x4 DUP1 CALLDATASIZE SUB DUP2 ADD SWAP1 PUSH2 0x11E SWAP2 SWAP1 PUSH2 0x5D6 JUMP JUMPDEST PUSH2 0x26A JUMP JUMPDEST PUSH1 0x40 MLOAD PUSH2 0x130 SWAP2 SWAP1 PUSH2 0x61B JUMP JUMPDEST PUSH1 0x40 MLOAD DUP1 SWAP2 SUB SWAP1 RETURN JUMPDEST PUSH2 0x153 PUSH1 0x4 DUP1 CALLDATASIZE SUB DUP2 ADD SWAP1 PUSH2 0x14E SWAP2 SWAP1 PUSH2 0x551 JUMP JUMPDEST PUSH2 0x286 JUMP JUMPDEST STOP JUMPDEST PUSH2 0x16F PUSH1 0x4 DUP1 CALLDATASIZE SUB DUP2 ADD SWAP1 PUSH2 0x16A SWAP2 SWAP1 PUSH2 0x551 JUMP JUMPDEST PUSH2 0x4A1 JUMP JUMPDEST PUSH1 0x40 MLOAD PUSH2 0x17C SWAP2 SWAP1 PUSH2 0x50A JUMP JUMPDEST PUSH1 0x40 MLOAD DUP1 SWAP2 SUB SWAP1 RETURN JUMPDEST PUSH0 DUP1 PUSH1 0x2 PUSH0 SWAP1 SLOAD SWAP1 PUSH2 0x100 EXP SWAP1 DIV PUSH1 0xFF AND PUSH1 0xFF AND SUB PUSH2 0x1A7 JUMPI PUSH1 0x1 SWAP1 POP PUSH2 0x1BC JUMP JUMPDEST PUSH1 0x2 PUSH0 SWAP1 SLOAD SWAP1 PUSH2 0x100 EXP SWAP1 DIV PUSH1 0xFF AND PUSH1 0xFF AND SWAP1 POP JUMPDEST SWAP1 JUMP JUMPDEST PUSH1 0x2 PUSH1 0x1 SWAP1 SLOAD SWAP1 PUSH2 0x100 EXP SWAP1 DIV PUSH1 0xFF AND DUP2 JUMP JUMPDEST PUSH0 PUSH1 0x1 DUP3 PUSH1 0xFF AND LT ISZERO DUP1 ISZERO PUSH2 0x1EB JUMPI POP PUSH1 0x5 DUP3 PUSH1 0xFF AND GT ISZERO JUMPDEST PUSH2 0x22A JUMPI PUSH1 0x40 MLOAD PUSH32 0x8C379A000000000000000000000000000000000000000000000000000000000 DUP2 MSTORE PUSH1 0x4 ADD PUSH2 0x221 SWAP1 PUSH2 0x68E JUMP JUMPDEST PUSH1 0x40 MLOAD DUP1 SWAP2 SUB SWAP1 REVERT JUMPDEST PUSH1 0x1 PUSH0 DUP4 PUSH1 0xFF AND PUSH1 0xFF AND DUP2 MSTORE PUSH1 0x20 ADD SWAP1 DUP2 MSTORE PUSH1 0x20 ADD PUSH0 KECCAK256 PUSH0 SWAP1 SLOAD SWAP1 PUSH2 0x100 EXP SWAP1 DIV PUSH1 0xFF AND PUSH1 0xFF AND SWAP1 POP SWAP2 SWAP1 POP JUMP JUMPDEST PUSH1 0x2 PUSH0 SWAP1 SLOAD SWAP1 PUSH2 0x100 EXP SWAP1 DIV PUSH1 0xFF AND DUP2 JUMP JUMPDEST PUSH0 PUSH1 0x20 MSTORE DUP1 PUSH0 MSTORE PUSH1 0x40 PUSH0 KECCAK256 PUSH0 SWAP2 POP SLOAD SWAP1 PUSH2 0x100 EXP SWAP1 DIV PUSH1 0xFF AND DUP2 JUMP JUMPDEST PUSH0 DUP1 CALLER PUSH20 0xFFFFFFFFFFFFFFFFFFFFFFFFFFFFFFFFFFFFFFFF AND PUSH20 0xFFFFFFFFFFFFFFFFFFFFFFFFFFFFFFFFFFFFFFFF AND DUP2 MSTORE PUSH1 0x20 ADD SWAP1 DUP2 MSTORE PUSH1 0x20 ADD PUSH0 KECCAK256 PUSH0 SWAP1 SLOAD SWAP1 PUSH2 0x100 EXP SWAP1 DIV PUSH1 0xFF AND ISZERO PUSH2 0x30F JUMPI PUSH1 0x40 MLOAD PUSH32 0x8C379A000000000000000000000000000000000000000000000000000000000 DUP2 MSTORE PUSH1 0x4 ADD PUSH2 0x306 SWAP1 PUSH2 0x6F6 JUMP JUMPDEST PUSH1 0x40 MLOAD DUP1 SWAP2 SUB SWAP1 REVERT JUMPDEST PUSH1 0x1 DUP2 PUSH1 0xFF AND LT ISZERO DUP1 ISZERO PUSH2 0x327 JUMPI POP PUSH1 0x5 DUP2 PUSH1 0xFF AND GT ISZERO JUMPDEST PUSH2 0x366 JUMPI PUSH1 0x40 MLOAD PUSH32 0x8C379A000000000000000000000000000000000000000000000000000000000 DUP2 MSTORE PUSH1 0x4 ADD PUSH2 0x35D SWAP1 PUSH2 0x68E JUMP JUMPDEST PUSH1 0x40 MLOAD DUP1 SWAP2 SUB SWAP1 REVERT JUMPDEST PUSH1 0x1 PUSH0 DUP1 CALLER PUSH20 0xFFFFFFFFFFFFFFFFFFFFFFFFFFFFFFFFFFFFFFFF AND PUSH20 0xFFFFFFFFFFFFFFFFFFFFFFFFFFFFFFFFFFFFFFFF AND DUP2 MSTORE PUSH1 0x20 ADD SWAP1 DUP2 MSTORE PUSH1 0x20 ADD PUSH0 KECCAK256 PUSH0 PUSH2 0x100 EXP DUP2 SLOAD DUP2 PUSH1 0xFF MUL NOT AND SWAP1 DUP4 ISZERO ISZERO MUL OR SWAP1 SSTORE POP PUSH1 0x1 PUSH0 DUP3 PUSH1 0xFF AND PUSH1 0xFF AND DUP2 MSTORE PUSH1 0x20 ADD SWAP1 DUP2 MSTORE PUSH1 0x20 ADD PUSH0 KECCAK256 PUSH0 DUP2 DUP2 SWAP1 SLOAD SWAP1 PUSH2 0x100 EXP SWAP1 DIV PUSH1 0xFF AND DUP1 SWAP3 SWAP2 SWAP1 PUSH2 0x3ED SWAP1 PUSH2 0x741 JUMP JUMPDEST SWAP2 SWAP1 PUSH2 0x100 EXP DUP2 SLOAD DUP2 PUSH1 0xFF MUL NOT AND SWAP1 DUP4 PUSH1 0xFF AND MUL OR SWAP1 SSTORE POP POP PUSH1 0x2 PUSH1 0x1 SWAP1 SLOAD SWAP1 PUSH2 0x100 EXP SWAP1 DIV PUSH1 0xFF AND PUSH1 0xFF AND PUSH1 0x1 PUSH0 DUP4 PUSH1 0xFF AND PUSH1 0xFF AND DUP2 MSTORE PUSH1 0x20 ADD SWAP1 DUP2 MSTORE PUSH1 0x20 ADD PUSH0 KECCAK256 PUSH0 SWAP1 SLOAD SWAP1 PUSH2 0x100 EXP SWAP1 DIV PUSH1 0xFF AND PUSH1 0xFF AND LT PUSH2 0x49E JUMPI DUP1 PUSH1 0x2 PUSH0 PUSH2 0x100 EXP DUP2 SLOAD DUP2 PUSH1 0xFF MUL NOT AND SWAP1 DUP4 PUSH1 0xFF AND MUL OR SWAP1 SSTORE POP PUSH1 0x1 PUSH0 DUP3 PUSH1 0xFF AND PUSH1 0xFF AND DUP2 MSTORE PUSH1 0x20 ADD SWAP1 DUP2 MSTORE PUSH1 0x20 ADD PUSH0 KECCAK256 PUSH0 SWAP1 SLOAD SWAP1 PUSH2 0x100 EXP SWAP1 DIV PUSH1 0xFF AND PUSH1 0x2 PUSH1 0x1 PUSH2 0x100 EXP DUP2 SLOAD DUP2 PUSH1 0xFF MUL NOT AND SWAP1 DUP4 PUSH1 0xFF AND MUL OR SWAP1 SSTORE POP JUMPDEST POP JUMP JUMPDEST PUSH1 0x1 PUSH1 0x20 MSTORE DUP1 PUSH0 MSTORE PUSH1 0x40 PUSH0 KECCAK256 PUSH0 SWAP2 POP SLOAD SWAP1 PUSH2 0x100 EXP SWAP1 DIV PUSH1 0xFF AND DUP2 JUMP JUMPDEST PUSH0 DUP2 SWAP1 POP SWAP2 SWAP1 POP JUMP JUMPDEST PUSH2 0x4D0 DUP2 PUSH2 0x4BE JUMP JUMPDEST DUP3 MSTORE POP POP JUMP JUMPDEST PUSH0 PUSH1 0x20 DUP3 ADD SWAP1 POP PUSH2 0x4E9 PUSH0 DUP4 ADD DUP5 PUSH2 0x4C7 JUMP JUMPDEST SWAP3 SWAP2 POP POP JUMP JUMPDEST PUSH0 PUSH1 0xFF DUP3 AND SWAP1 POP SWAP2 SWAP1 POP JUMP JUMPDEST PUSH2 0x504 DUP2 PUSH2 0x4EF JUMP JUMPDEST DUP3 MSTORE POP POP JUMP JUMPDEST PUSH0 PUSH1 0x20 DUP3 ADD SWAP1 POP PUSH2 0x51D PUSH0 DUP4 ADD DUP5 PUSH2 0x4FB JUMP JUMPDEST SWAP3 SWAP2 POP POP JUMP JUMPDEST PUSH0 DUP1 REVERT JUMPDEST PUSH2 0x530 DUP2 PUSH2 0x4EF JUMP JUMPDEST DUP2 EQ PUSH2 0x53A JUMPI PUSH0 DUP1 REVERT JUMPDEST POP JUMP JUMPDEST PUSH0 DUP2 CALLDATALOAD SWAP1 POP PUSH2 0x54B DUP2 PUSH2 0x527 JUMP JUMPDEST SWAP3 SWAP2 POP POP JUMP JUMPDEST PUSH0 PUSH1 0x20 DUP3 DUP5 SUB SLT ISZERO PUSH2 0x566 JUMPI PUSH2 0x565 PUSH2 0x523 JUMP JUMPDEST JUMPDEST PUSH0 PUSH2 0x573 DUP5 DUP3 DUP6 ADD PUSH2 0x53D JUMP JUMPDEST SWAP2 POP POP SWAP3 SWAP2 POP POP JUMP JUMPDEST PUSH0 PUSH20 0xFFFFFFFFFFFFFFFFFFFFFFFFFFFFFFFFFFFFFFFF DUP3 AND SWAP1 POP SWAP2 SWAP1 POP JUMP JUMPDEST PUSH0 PUSH2 0x5A5 DUP3 PUSH2 0x57C JUMP JUMPDEST SWAP1 POP SWAP2 SWAP1 POP JUMP JUMPDEST PUSH2 0x5B5 DUP2 PUSH2 0x59B JUMP JUMPDEST DUP2 EQ PUSH2 0x5BF JUMPI PUSH0 DUP1 REVERT JUMPDEST POP JUMP JUMPDEST PUSH0 DUP2 CALLDATALOAD SWAP1 POP PUSH2 0x5D0 DUP2 PUSH2 0x5AC JUMP JUMPDEST SWAP3 SWAP2 POP POP JUMP JUMPDEST PUSH0 PUSH1 0x20 DUP3 DUP5 SUB SLT ISZERO PUSH2 0x5EB JUMPI PUSH2 0x5EA PUSH2 0x523 JUMP JUMPDEST JUMPDEST PUSH0 PUSH2 0x5F8 DUP5 DUP3 DUP6 ADD PUSH2 0x5C2 JUMP JUMPDEST SWAP2 POP POP SWAP3 SWAP2 POP POP JUMP JUMPDEST PUSH0 DUP2 ISZERO ISZERO SWAP1 POP SWAP2 SWAP1 POP JUMP JUMPDEST PUSH2 0x615 DUP2 PUSH2 0x601 JUMP JUMPDEST DUP3 MSTORE POP POP JUMP JUMPDEST PUSH0 PUSH1 0x20 DUP3 ADD SWAP1 POP PUSH2 0x62E PUSH0 DUP4 ADD DUP5 PUSH2 0x60C JUMP JUMPDEST SWAP3 SWAP2 POP POP JUMP JUMPDEST PUSH0 DUP3 DUP3 MSTORE PUSH1 0x20 DUP3 ADD SWAP1 POP SWAP3 SWAP2 POP POP JUMP JUMPDEST PUSH32 0x4E756D626572206973206E6F7420696E207468652072616E6765000000000000 PUSH0 DUP3 ADD MSTORE POP JUMP JUMPDEST PUSH0 PUSH2 0x678 PUSH1 0x1A DUP4 PUSH2 0x634 JUMP JUMPDEST SWAP2 POP PUSH2 0x683 DUP3 PUSH2 0x644 JUMP JUMPDEST PUSH1 0x20 DUP3 ADD SWAP1 POP SWAP2 SWAP1 POP JUMP JUMPDEST PUSH0 PUSH1 0x20 DUP3 ADD SWAP1 POP DUP2 DUP2 SUB PUSH0 DUP4 ADD MSTORE PUSH2 0x6A5 DUP2 PUSH2 0x66C JUMP JUMPDEST SWAP1 POP SWAP2 SWAP1 POP JUMP JUMPDEST PUSH32 0x416464726573732068617320616C726561647920766F74656400000000000000 PUSH0 DUP3 ADD MSTORE POP JUMP JUMPDEST PUSH0 PUSH2 0x6E0 PUSH1 0x19 DUP4 PUSH2 0x634 JUMP JUMPDEST SWAP2 POP PUSH2 0x6EB DUP3 PUSH2 0x6AC JUMP JUMPDEST PUSH1 0x20 DUP3 ADD SWAP1 POP SWAP2 SWAP1 POP JUMP JUMPDEST PUSH0 PUSH1 0x20 DUP3 ADD SWAP1 POP DUP2 DUP2 SUB PUSH0 DUP4 ADD MSTORE PUSH2 0x70D DUP2 PUSH2 0x6D4 JUMP JUMPDEST SWAP1 POP SWAP2 SWAP1 POP JUMP JUMPDEST PUSH32 0x4E487B7100000000000000000000000000000000000000000000000000000000 PUSH0 MSTORE PUSH1 0x11 PUSH1 0x4 MSTORE PUSH1 0x24 PUSH0 REVERT JUMPDEST PUSH0 PUSH2 0x74B DUP3 PUSH2 0x4EF JUMP JUMPDEST SWAP2 POP PUSH1 0xFF DUP3 SUB PUSH2 0x75E JUMPI PUSH2 0x75D PUSH2 0x714 JUMP JUMPDEST JUMPDEST PUSH1 0x1 DUP3 ADD SWAP1 POP SWAP2 SWAP1 POP JUMP INVALID LOG2 PUSH5 0x6970667358 0x22 SLT KECCAK256 0xA7 PUSH7 0xB1BC9C8A5C4FA0 OR 0xDE DUP14 0xC0 PUSH0 SWAP11 PUSH3 0xB72DD8 0xC5 PUSH8 0xFB48059E1A35C95E TSTORE 0xBC SWAP9 PUSH5 0x736F6C6343 STOP ADDMOD BYTE STOP CALLER "
				},
				"gasEstimates": {
					"creation": {
						"codeDepositCost": "390200",
						"executionCost": "422",
						"totalCost": "390622"
					},
					"external": {
						"currentWinner()": "2466",
						"getCurrentWinner()": "4639",
						"getVotes(uint8)": "2945",
						"mostVotes()": "2540",
						"vote(uint8)": "infinite",
						"voteMap(uint8)": "infinite",
						"voted(address)": "2854"
					}
				},
				"methodIdentifiers": {
					"currentWinner()": "aabe2fe3",
					"getCurrentWinner()": "329bfc33",
					"getVotes(uint8)": "8953bb72",
					"mostVotes()": "6d3c12f5",
					"vote(uint8)": "b3f98adc",
					"voteMap(uint8)": "cea7b8db",
					"voted(address)": "aec2ccae"
				}
			},
			"storageLayout": {
				"storage": [
					{
						"astId": 6,
						"contract": "contracts/Voting.sol:Voting",
						"label": "voted",
						"offset": 0,
						"slot": "0",
						"type": "t_mapping(t_address,t_bool)"
					},
					{
						"astId": 10,
						"contract": "contracts/Voting.sol:Voting",
						"label": "voteMap",
						"offset": 0,
						"slot": "1",
						"type": "t_mapping(t_uint8,t_uint8)"
					},
					{
						"astId": 12,
						"contract": "contracts/Voting.sol:Voting",
						"label": "currentWinner",
						"offset": 0,
						"slot": "2",
						"type": "t_uint8"
					},
					{
						"astId": 14,
						"contract": "contracts/Voting.sol:Voting",
						"label": "mostVotes",
						"offset": 1,
						"slot": "2",
						"type": "t_uint8"
					}
				],
				"types": {
					"t_address": {
						"encoding": "inplace",
						"label": "address",
						"numberOfBytes": "20"
					},
					"t_bool": {
						"encoding": "inplace",
						"label": "bool",
						"numberOfBytes": "1"
					},
					"t_mapping(t_address,t_bool)": {
						"encoding": "mapping",
						"key": "t_address",
						"label": "mapping(address => bool)",
						"numberOfBytes": "32",
						"value": "t_bool"
					},
					"t_mapping(t_uint8,t_uint8)": {
						"encoding": "mapping",
						"key": "t_uint8",
						"label": "mapping(uint8 => uint8)",
						"numberOfBytes": "32",
						"value": "t_uint8"
					},
					"t_uint8": {
						"encoding": "inplace",
						"label": "uint8",
						"numberOfBytes": "1"
					}
				}
			},
			"userdoc": {
				"kind": "user",
				"methods": {},
				"version": 1
			}
		}
	}
}