{
	"contracts/ExceptionAndErrorHandling.sol": {
		"ExceptionAndErrorHandling": {
			"abi": [
				{
					"inputs": [
						{
							"internalType": "uint256",
							"name": "balance",
							"type": "uint256"
						},
						{
							"internalType": "uint256",
							"name": "amount",
							"type": "uint256"
						}
					],
					"name": "BalanceNotLargeEnoughInsideContract",
					"type": "error"
				},
				{
					"inputs": [
						{
							"internalType": "uint256",
							"name": "balance",
							"type": "uint256"
						},
						{
							"internalType": "uint256",
							"name": "amount",
							"type": "uint256"
						}
					],
					"name": "BalanceNotLargeEnoughOnGlobalSpace",
					"type": "error"
				},
				{
					"inputs": [],
					"name": "deposit",
					"outputs": [],
					"stateMutability": "payable",
					"type": "function"
				},
				{
					"inputs": [
						{
							"internalType": "uint256",
							"name": "amount",
							"type": "uint256"
						}
					],
					"name": "withdraw",
					"outputs": [],
					"stateMutability": "nonpayable",
					"type": "function"
				}
			],
			"devdoc": {
				"details": "Demonstrates various error handling mechanisms in Solidity: - `require`: Checks for valid conditions and inputs. - `revert`: Handles custom error messages and state reverting. - `assert`: Checks for code invariants. - Custom Errors: Allows efficient error handling with custom error types. This contract includes examples of errors defined both globally and inside the contract.",
				"errors": {
					"BalanceNotLargeEnoughInsideContract(uint256,uint256)": [
						{
							"details": "Custom error defined inside the contract for handling insufficient balance errors."
						}
					],
					"BalanceNotLargeEnoughOnGlobalSpace(uint256,uint256)": [
						{
							"details": "Global error definition for handling insufficient balance errors outside of any specific contract scope."
						}
					]
				},
				"kind": "dev",
				"methods": {
					"deposit()": {
						"details": "Deposit function to add Ether to the sender's balance. The payable modifier allows the function to receive Ether."
					},
					"withdraw(uint256)": {
						"details": "Withdraw function to withdraw a specified amount of Ether from the sender's balance. Includes error handling using require, assert, and revert, as well as custom errors.",
						"params": {
							"amount": "The amount of Ether (in wei) to withdraw."
						}
					}
				},
				"title": "Exception and Error Handling Contract",
				"version": 1
			},
			"evm": {
				"assembly": "    /* \"contracts/ExceptionAndErrorHandling.sol\":726:2771  contract ExceptionAndErrorHandling {... */\n  mstore(0x40, 0x80)\n  callvalue\n  dup1\n  iszero\n  tag_1\n  jumpi\n  0x00\n  dup1\n  revert\ntag_1:\n  pop\n  dataSize(sub_0)\n  dup1\n  dataOffset(sub_0)\n  0x00\n  codecopy\n  0x00\n  return\nstop\n\nsub_0: assembly {\n        /* \"contracts/ExceptionAndErrorHandling.sol\":726:2771  contract ExceptionAndErrorHandling {... */\n      mstore(0x40, 0x80)\n      jumpi(tag_1, lt(calldatasize, 0x04))\n      shr(0xe0, calldataload(0x00))\n      dup1\n      0x2e1a7d4d\n      eq\n      tag_2\n      jumpi\n      dup1\n      0xd0e30db0\n      eq\n      tag_3\n      jumpi\n    tag_1:\n      0x00\n      dup1\n      revert\n        /* \"contracts/ExceptionAndErrorHandling.sol\":1636:2769  function withdraw(uint256 amount) public {... */\n    tag_2:\n      callvalue\n      dup1\n      iszero\n      tag_4\n      jumpi\n      0x00\n      dup1\n      revert\n    tag_4:\n      pop\n      tag_5\n      0x04\n      dup1\n      calldatasize\n      sub\n      dup2\n      add\n      swap1\n      tag_6\n      swap2\n      swap1\n      tag_7\n      jump\t// in\n    tag_6:\n      tag_8\n      jump\t// in\n    tag_5:\n      stop\n        /* \"contracts/ExceptionAndErrorHandling.sol\":1198:1362  function deposit() external payable {... */\n    tag_3:\n      tag_9\n      tag_10\n      jump\t// in\n    tag_9:\n      stop\n        /* \"contracts/ExceptionAndErrorHandling.sol\":1636:2769  function withdraw(uint256 amount) public {... */\n    tag_8:\n        /* \"contracts/ExceptionAndErrorHandling.sol\":1687:1702  uint256 balance */\n      0x00\n        /* \"contracts/ExceptionAndErrorHandling.sol\":1705:1713  balances */\n      dup1\n        /* \"contracts/ExceptionAndErrorHandling.sol\":1705:1725  balances[msg.sender] */\n      0x00\n        /* \"contracts/ExceptionAndErrorHandling.sol\":1714:1724  msg.sender */\n      caller\n        /* \"contracts/ExceptionAndErrorHandling.sol\":1705:1725  balances[msg.sender] */\n      0xffffffffffffffffffffffffffffffffffffffff\n      and\n      0xffffffffffffffffffffffffffffffffffffffff\n      and\n      dup2\n      mstore\n      0x20\n      add\n      swap1\n      dup2\n      mstore\n      0x20\n      add\n      0x00\n      keccak256\n      sload\n        /* \"contracts/ExceptionAndErrorHandling.sol\":1687:1725  uint256 balance = balances[msg.sender] */\n      swap1\n      pop\n        /* \"contracts/ExceptionAndErrorHandling.sol\":1879:1885  amount */\n      dup2\n        /* \"contracts/ExceptionAndErrorHandling.sol\":1868:1875  balance */\n      dup2\n        /* \"contracts/ExceptionAndErrorHandling.sol\":1868:1885  balance >= amount */\n      lt\n      iszero\n        /* \"contracts/ExceptionAndErrorHandling.sol\":1860:1915  require(balance >= amount, \"Balance is not sufficient\") */\n      tag_12\n      jumpi\n      mload(0x40)\n      0x08c379a000000000000000000000000000000000000000000000000000000000\n      dup2\n      mstore\n      0x04\n      add\n      tag_13\n      swap1\n      tag_14\n      jump\t// in\n    tag_13:\n      mload(0x40)\n      dup1\n      swap2\n      sub\n      swap1\n      revert\n    tag_12:\n        /* \"contracts/ExceptionAndErrorHandling.sol\":2006:2012  amount */\n      dup2\n        /* \"contracts/ExceptionAndErrorHandling.sol\":1996:2003  balance */\n      dup2\n        /* \"contracts/ExceptionAndErrorHandling.sol\":1996:2012  balance < amount */\n      lt\n        /* \"contracts/ExceptionAndErrorHandling.sol\":1992:2097  if (balance < amount) {... */\n      iszero\n      tag_15\n      jumpi\n        /* \"contracts/ExceptionAndErrorHandling.sol\":2070:2077  balance */\n      dup1\n        /* \"contracts/ExceptionAndErrorHandling.sol\":2079:2085  amount */\n      dup3\n        /* \"contracts/ExceptionAndErrorHandling.sol\":2035:2086  BalanceNotLargeEnoughOnGlobalSpace(balance, amount) */\n      mload(0x40)\n      0x4236af1100000000000000000000000000000000000000000000000000000000\n      dup2\n      mstore\n      0x04\n      add\n      tag_16\n      swap3\n      swap2\n      swap1\n      tag_17\n      jump\t// in\n    tag_16:\n      mload(0x40)\n      dup1\n      swap2\n      sub\n      swap1\n      revert\n        /* \"contracts/ExceptionAndErrorHandling.sol\":1992:2097  if (balance < amount) {... */\n    tag_15:\n        /* \"contracts/ExceptionAndErrorHandling.sol\":2187:2193  amount */\n      dup2\n        /* \"contracts/ExceptionAndErrorHandling.sol\":2177:2184  balance */\n      dup2\n        /* \"contracts/ExceptionAndErrorHandling.sol\":2177:2193  balance < amount */\n      lt\n        /* \"contracts/ExceptionAndErrorHandling.sol\":2173:2279  if (balance < amount) {... */\n      iszero\n      tag_18\n      jumpi\n        /* \"contracts/ExceptionAndErrorHandling.sol\":2252:2259  balance */\n      dup1\n        /* \"contracts/ExceptionAndErrorHandling.sol\":2261:2267  amount */\n      dup3\n        /* \"contracts/ExceptionAndErrorHandling.sol\":2216:2268  BalanceNotLargeEnoughInsideContract(balance, amount) */\n      mload(0x40)\n      0xa185640400000000000000000000000000000000000000000000000000000000\n      dup2\n      mstore\n      0x04\n      add\n      tag_19\n      swap3\n      swap2\n      swap1\n      tag_17\n      jump\t// in\n    tag_19:\n      mload(0x40)\n      dup1\n      swap2\n      sub\n      swap1\n      revert\n        /* \"contracts/ExceptionAndErrorHandling.sol\":2173:2279  if (balance < amount) {... */\n    tag_18:\n        /* \"contracts/ExceptionAndErrorHandling.sol\":2368:2374  amount */\n      dup2\n        /* \"contracts/ExceptionAndErrorHandling.sol\":2344:2352  balances */\n      0x00\n        /* \"contracts/ExceptionAndErrorHandling.sol\":2344:2364  balances[msg.sender] */\n      dup1\n        /* \"contracts/ExceptionAndErrorHandling.sol\":2353:2363  msg.sender */\n      caller\n        /* \"contracts/ExceptionAndErrorHandling.sol\":2344:2364  balances[msg.sender] */\n      0xffffffffffffffffffffffffffffffffffffffff\n      and\n      0xffffffffffffffffffffffffffffffffffffffff\n      and\n      dup2\n      mstore\n      0x20\n      add\n      swap1\n      dup2\n      mstore\n      0x20\n      add\n      0x00\n      keccak256\n      0x00\n        /* \"contracts/ExceptionAndErrorHandling.sol\":2344:2374  balances[msg.sender] -= amount */\n      dup3\n      dup3\n      sload\n      tag_20\n      swap2\n      swap1\n      tag_21\n      jump\t// in\n    tag_20:\n      swap3\n      pop\n      pop\n      dup2\n      swap1\n      sstore\n      pop\n        /* \"contracts/ExceptionAndErrorHandling.sol\":2426:2435  bool sent */\n      0x00\n        /* \"contracts/ExceptionAndErrorHandling.sol\":2449:2459  msg.sender */\n      caller\n        /* \"contracts/ExceptionAndErrorHandling.sol\":2441:2465  payable(msg.sender).call */\n      0xffffffffffffffffffffffffffffffffffffffff\n      and\n        /* \"contracts/ExceptionAndErrorHandling.sol\":2473:2479  amount */\n      dup4\n        /* \"contracts/ExceptionAndErrorHandling.sol\":2441:2484  payable(msg.sender).call{value: amount}(\"\") */\n      mload(0x40)\n      tag_22\n      swap1\n      tag_23\n      jump\t// in\n    tag_22:\n      0x00\n      mload(0x40)\n      dup1\n      dup4\n      sub\n      dup2\n      dup6\n      dup8\n      gas\n      call\n      swap3\n      pop\n      pop\n      pop\n      returndatasize\n      dup1\n      0x00\n      dup2\n      eq\n      tag_26\n      jumpi\n      mload(0x40)\n      swap2\n      pop\n      and(add(returndatasize, 0x3f), not(0x1f))\n      dup3\n      add\n      0x40\n      mstore\n      returndatasize\n      dup3\n      mstore\n      returndatasize\n      0x00\n      0x20\n      dup5\n      add\n      returndatacopy\n      jump(tag_25)\n    tag_26:\n      0x60\n      swap2\n      pop\n    tag_25:\n      pop\n        /* \"contracts/ExceptionAndErrorHandling.sol\":2425:2484  (bool sent, ) = payable(msg.sender).call{value: amount}(\"\") */\n      pop\n      swap1\n      pop\n        /* \"contracts/ExceptionAndErrorHandling.sol\":2623:2629  amount */\n      dup3\n        /* \"contracts/ExceptionAndErrorHandling.sol\":2613:2620  balance */\n      dup3\n        /* \"contracts/ExceptionAndErrorHandling.sol\":2613:2629  balance - amount */\n      tag_27\n      swap2\n      swap1\n      tag_21\n      jump\t// in\n    tag_27:\n        /* \"contracts/ExceptionAndErrorHandling.sol\":2589:2597  balances */\n      0x00\n        /* \"contracts/ExceptionAndErrorHandling.sol\":2589:2609  balances[msg.sender] */\n      dup1\n        /* \"contracts/ExceptionAndErrorHandling.sol\":2598:2608  msg.sender */\n      caller\n        /* \"contracts/ExceptionAndErrorHandling.sol\":2589:2609  balances[msg.sender] */\n      0xffffffffffffffffffffffffffffffffffffffff\n      and\n      0xffffffffffffffffffffffffffffffffffffffff\n      and\n      dup2\n      mstore\n      0x20\n      add\n      swap1\n      dup2\n      mstore\n      0x20\n      add\n      0x00\n      keccak256\n      sload\n        /* \"contracts/ExceptionAndErrorHandling.sol\":2589:2629  balances[msg.sender] == balance - amount */\n      eq\n        /* \"contracts/ExceptionAndErrorHandling.sol\":2582:2630  assert(balances[msg.sender] == balance - amount) */\n      tag_28\n      jumpi\n      tag_29\n      tag_30\n      jump\t// in\n    tag_29:\n    tag_28:\n        /* \"contracts/ExceptionAndErrorHandling.sol\":2708:2712  sent */\n      dup1\n        /* \"contracts/ExceptionAndErrorHandling.sol\":2703:2763  if (!sent) {... */\n      tag_31\n      jumpi\n        /* \"contracts/ExceptionAndErrorHandling.sol\":2728:2752  revert(\"Payment failed\") */\n      mload(0x40)\n      0x08c379a000000000000000000000000000000000000000000000000000000000\n      dup2\n      mstore\n      0x04\n      add\n      tag_32\n      swap1\n      tag_33\n      jump\t// in\n    tag_32:\n      mload(0x40)\n      dup1\n      swap2\n      sub\n      swap1\n      revert\n        /* \"contracts/ExceptionAndErrorHandling.sol\":2703:2763  if (!sent) {... */\n    tag_31:\n        /* \"contracts/ExceptionAndErrorHandling.sol\":1677:2769  {... */\n      pop\n      pop\n        /* \"contracts/ExceptionAndErrorHandling.sol\":1636:2769  function withdraw(uint256 amount) public {... */\n      pop\n      jump\t// out\n        /* \"contracts/ExceptionAndErrorHandling.sol\":1198:1362  function deposit() external payable {... */\n    tag_10:\n        /* \"contracts/ExceptionAndErrorHandling.sol\":1346:1355  msg.value */\n      callvalue\n        /* \"contracts/ExceptionAndErrorHandling.sol\":1322:1330  balances */\n      0x00\n        /* \"contracts/ExceptionAndErrorHandling.sol\":1322:1342  balances[msg.sender] */\n      dup1\n        /* \"contracts/ExceptionAndErrorHandling.sol\":1331:1341  msg.sender */\n      caller\n        /* \"contracts/ExceptionAndErrorHandling.sol\":1322:1342  balances[msg.sender] */\n      0xffffffffffffffffffffffffffffffffffffffff\n      and\n      0xffffffffffffffffffffffffffffffffffffffff\n      and\n      dup2\n      mstore\n      0x20\n      add\n      swap1\n      dup2\n      mstore\n      0x20\n      add\n      0x00\n      keccak256\n      0x00\n        /* \"contracts/ExceptionAndErrorHandling.sol\":1322:1355  balances[msg.sender] += msg.value */\n      dup3\n      dup3\n      sload\n      tag_35\n      swap2\n      swap1\n      tag_36\n      jump\t// in\n    tag_35:\n      swap3\n      pop\n      pop\n      dup2\n      swap1\n      sstore\n      pop\n        /* \"contracts/ExceptionAndErrorHandling.sol\":1198:1362  function deposit() external payable {... */\n      jump\t// out\n        /* \"#utility.yul\":88:205   */\n    tag_38:\n        /* \"#utility.yul\":197:198   */\n      0x00\n        /* \"#utility.yul\":194:195   */\n      dup1\n        /* \"#utility.yul\":187:199   */\n      revert\n        /* \"#utility.yul\":334:411   */\n    tag_40:\n        /* \"#utility.yul\":371:378   */\n      0x00\n        /* \"#utility.yul\":400:405   */\n      dup2\n        /* \"#utility.yul\":389:405   */\n      swap1\n      pop\n        /* \"#utility.yul\":334:411   */\n      swap2\n      swap1\n      pop\n      jump\t// out\n        /* \"#utility.yul\":417:539   */\n    tag_41:\n        /* \"#utility.yul\":490:514   */\n      tag_59\n        /* \"#utility.yul\":508:513   */\n      dup2\n        /* \"#utility.yul\":490:514   */\n      tag_40\n      jump\t// in\n    tag_59:\n        /* \"#utility.yul\":483:488   */\n      dup2\n        /* \"#utility.yul\":480:515   */\n      eq\n        /* \"#utility.yul\":470:533   */\n      tag_60\n      jumpi\n        /* \"#utility.yul\":529:530   */\n      0x00\n        /* \"#utility.yul\":526:527   */\n      dup1\n        /* \"#utility.yul\":519:531   */\n      revert\n        /* \"#utility.yul\":470:533   */\n    tag_60:\n        /* \"#utility.yul\":417:539   */\n      pop\n      jump\t// out\n        /* \"#utility.yul\":545:684   */\n    tag_42:\n        /* \"#utility.yul\":591:596   */\n      0x00\n        /* \"#utility.yul\":629:635   */\n      dup2\n        /* \"#utility.yul\":616:636   */\n      calldataload\n        /* \"#utility.yul\":607:636   */\n      swap1\n      pop\n        /* \"#utility.yul\":645:678   */\n      tag_62\n        /* \"#utility.yul\":672:677   */\n      dup2\n        /* \"#utility.yul\":645:678   */\n      tag_41\n      jump\t// in\n    tag_62:\n        /* \"#utility.yul\":545:684   */\n      swap3\n      swap2\n      pop\n      pop\n      jump\t// out\n        /* \"#utility.yul\":690:1019   */\n    tag_7:\n        /* \"#utility.yul\":749:755   */\n      0x00\n        /* \"#utility.yul\":798:800   */\n      0x20\n        /* \"#utility.yul\":786:795   */\n      dup3\n        /* \"#utility.yul\":777:784   */\n      dup5\n        /* \"#utility.yul\":773:796   */\n      sub\n        /* \"#utility.yul\":769:801   */\n      slt\n        /* \"#utility.yul\":766:885   */\n      iszero\n      tag_64\n      jumpi\n        /* \"#utility.yul\":804:883   */\n      tag_65\n      tag_38\n      jump\t// in\n    tag_65:\n        /* \"#utility.yul\":766:885   */\n    tag_64:\n        /* \"#utility.yul\":924:925   */\n      0x00\n        /* \"#utility.yul\":949:1002   */\n      tag_66\n        /* \"#utility.yul\":994:1001   */\n      dup5\n        /* \"#utility.yul\":985:991   */\n      dup3\n        /* \"#utility.yul\":974:983   */\n      dup6\n        /* \"#utility.yul\":970:992   */\n      add\n        /* \"#utility.yul\":949:1002   */\n      tag_42\n      jump\t// in\n    tag_66:\n        /* \"#utility.yul\":939:1002   */\n      swap2\n      pop\n        /* \"#utility.yul\":895:1012   */\n      pop\n        /* \"#utility.yul\":690:1019   */\n      swap3\n      swap2\n      pop\n      pop\n      jump\t// out\n        /* \"#utility.yul\":1025:1194   */\n    tag_43:\n        /* \"#utility.yul\":1109:1120   */\n      0x00\n        /* \"#utility.yul\":1143:1149   */\n      dup3\n        /* \"#utility.yul\":1138:1141   */\n      dup3\n        /* \"#utility.yul\":1131:1150   */\n      mstore\n        /* \"#utility.yul\":1183:1187   */\n      0x20\n        /* \"#utility.yul\":1178:1181   */\n      dup3\n        /* \"#utility.yul\":1174:1188   */\n      add\n        /* \"#utility.yul\":1159:1188   */\n      swap1\n      pop\n        /* \"#utility.yul\":1025:1194   */\n      swap3\n      swap2\n      pop\n      pop\n      jump\t// out\n        /* \"#utility.yul\":1200:1375   */\n    tag_44:\n        /* \"#utility.yul\":1340:1367   */\n      0x42616c616e6365206973206e6f742073756666696369656e7400000000000000\n        /* \"#utility.yul\":1336:1337   */\n      0x00\n        /* \"#utility.yul\":1328:1334   */\n      dup3\n        /* \"#utility.yul\":1324:1338   */\n      add\n        /* \"#utility.yul\":1317:1368   */\n      mstore\n        /* \"#utility.yul\":1200:1375   */\n      pop\n      jump\t// out\n        /* \"#utility.yul\":1381:1747   */\n    tag_45:\n        /* \"#utility.yul\":1523:1526   */\n      0x00\n        /* \"#utility.yul\":1544:1611   */\n      tag_70\n        /* \"#utility.yul\":1608:1610   */\n      0x19\n        /* \"#utility.yul\":1603:1606   */\n      dup4\n        /* \"#utility.yul\":1544:1611   */\n      tag_43\n      jump\t// in\n    tag_70:\n        /* \"#utility.yul\":1537:1611   */\n      swap2\n      pop\n        /* \"#utility.yul\":1620:1713   */\n      tag_71\n        /* \"#utility.yul\":1709:1712   */\n      dup3\n        /* \"#utility.yul\":1620:1713   */\n      tag_44\n      jump\t// in\n    tag_71:\n        /* \"#utility.yul\":1738:1740   */\n      0x20\n        /* \"#utility.yul\":1733:1736   */\n      dup3\n        /* \"#utility.yul\":1729:1741   */\n      add\n        /* \"#utility.yul\":1722:1741   */\n      swap1\n      pop\n        /* \"#utility.yul\":1381:1747   */\n      swap2\n      swap1\n      pop\n      jump\t// out\n        /* \"#utility.yul\":1753:2172   */\n    tag_14:\n        /* \"#utility.yul\":1919:1923   */\n      0x00\n        /* \"#utility.yul\":1957:1959   */\n      0x20\n        /* \"#utility.yul\":1946:1955   */\n      dup3\n        /* \"#utility.yul\":1942:1960   */\n      add\n        /* \"#utility.yul\":1934:1960   */\n      swap1\n      pop\n        /* \"#utility.yul\":2006:2015   */\n      dup2\n        /* \"#utility.yul\":2000:2004   */\n      dup2\n        /* \"#utility.yul\":1996:2016   */\n      sub\n        /* \"#utility.yul\":1992:1993   */\n      0x00\n        /* \"#utility.yul\":1981:1990   */\n      dup4\n        /* \"#utility.yul\":1977:1994   */\n      add\n        /* \"#utility.yul\":1970:2017   */\n      mstore\n        /* \"#utility.yul\":2034:2165   */\n      tag_73\n        /* \"#utility.yul\":2160:2164   */\n      dup2\n        /* \"#utility.yul\":2034:2165   */\n      tag_45\n      jump\t// in\n    tag_73:\n        /* \"#utility.yul\":2026:2165   */\n      swap1\n      pop\n        /* \"#utility.yul\":1753:2172   */\n      swap2\n      swap1\n      pop\n      jump\t// out\n        /* \"#utility.yul\":2178:2296   */\n    tag_46:\n        /* \"#utility.yul\":2265:2289   */\n      tag_75\n        /* \"#utility.yul\":2283:2288   */\n      dup2\n        /* \"#utility.yul\":2265:2289   */\n      tag_40\n      jump\t// in\n    tag_75:\n        /* \"#utility.yul\":2260:2263   */\n      dup3\n        /* \"#utility.yul\":2253:2290   */\n      mstore\n        /* \"#utility.yul\":2178:2296   */\n      pop\n      pop\n      jump\t// out\n        /* \"#utility.yul\":2302:2634   */\n    tag_17:\n        /* \"#utility.yul\":2423:2427   */\n      0x00\n        /* \"#utility.yul\":2461:2463   */\n      0x40\n        /* \"#utility.yul\":2450:2459   */\n      dup3\n        /* \"#utility.yul\":2446:2464   */\n      add\n        /* \"#utility.yul\":2438:2464   */\n      swap1\n      pop\n        /* \"#utility.yul\":2474:2545   */\n      tag_77\n        /* \"#utility.yul\":2542:2543   */\n      0x00\n        /* \"#utility.yul\":2531:2540   */\n      dup4\n        /* \"#utility.yul\":2527:2544   */\n      add\n        /* \"#utility.yul\":2518:2524   */\n      dup6\n        /* \"#utility.yul\":2474:2545   */\n      tag_46\n      jump\t// in\n    tag_77:\n        /* \"#utility.yul\":2555:2627   */\n      tag_78\n        /* \"#utility.yul\":2623:2625   */\n      0x20\n        /* \"#utility.yul\":2612:2621   */\n      dup4\n        /* \"#utility.yul\":2608:2626   */\n      add\n        /* \"#utility.yul\":2599:2605   */\n      dup5\n        /* \"#utility.yul\":2555:2627   */\n      tag_46\n      jump\t// in\n    tag_78:\n        /* \"#utility.yul\":2302:2634   */\n      swap4\n      swap3\n      pop\n      pop\n      pop\n      jump\t// out\n        /* \"#utility.yul\":2640:2820   */\n    tag_47:\n        /* \"#utility.yul\":2688:2765   */\n      0x4e487b7100000000000000000000000000000000000000000000000000000000\n        /* \"#utility.yul\":2685:2686   */\n      0x00\n        /* \"#utility.yul\":2678:2766   */\n      mstore\n        /* \"#utility.yul\":2785:2789   */\n      0x11\n        /* \"#utility.yul\":2782:2783   */\n      0x04\n        /* \"#utility.yul\":2775:2790   */\n      mstore\n        /* \"#utility.yul\":2809:2813   */\n      0x24\n        /* \"#utility.yul\":2806:2807   */\n      0x00\n        /* \"#utility.yul\":2799:2814   */\n      revert\n        /* \"#utility.yul\":2826:3020   */\n    tag_21:\n        /* \"#utility.yul\":2866:2870   */\n      0x00\n        /* \"#utility.yul\":2886:2906   */\n      tag_81\n        /* \"#utility.yul\":2904:2905   */\n      dup3\n        /* \"#utility.yul\":2886:2906   */\n      tag_40\n      jump\t// in\n    tag_81:\n        /* \"#utility.yul\":2881:2906   */\n      swap2\n      pop\n        /* \"#utility.yul\":2920:2940   */\n      tag_82\n        /* \"#utility.yul\":2938:2939   */\n      dup4\n        /* \"#utility.yul\":2920:2940   */\n      tag_40\n      jump\t// in\n    tag_82:\n        /* \"#utility.yul\":2915:2940   */\n      swap3\n      pop\n        /* \"#utility.yul\":2964:2965   */\n      dup3\n        /* \"#utility.yul\":2961:2962   */\n      dup3\n        /* \"#utility.yul\":2957:2966   */\n      sub\n        /* \"#utility.yul\":2949:2966   */\n      swap1\n      pop\n        /* \"#utility.yul\":2988:2989   */\n      dup2\n        /* \"#utility.yul\":2982:2986   */\n      dup2\n        /* \"#utility.yul\":2979:2990   */\n      gt\n        /* \"#utility.yul\":2976:3013   */\n      iszero\n      tag_83\n      jumpi\n        /* \"#utility.yul\":2993:3011   */\n      tag_84\n      tag_47\n      jump\t// in\n    tag_84:\n        /* \"#utility.yul\":2976:3013   */\n    tag_83:\n        /* \"#utility.yul\":2826:3020   */\n      swap3\n      swap2\n      pop\n      pop\n      jump\t// out\n        /* \"#utility.yul\":3026:3173   */\n    tag_48:\n        /* \"#utility.yul\":3127:3138   */\n      0x00\n        /* \"#utility.yul\":3164:3167   */\n      dup2\n        /* \"#utility.yul\":3149:3167   */\n      swap1\n      pop\n        /* \"#utility.yul\":3026:3173   */\n      swap3\n      swap2\n      pop\n      pop\n      jump\t// out\n        /* \"#utility.yul\":3179:3293   */\n    tag_49:\n      pop\n      jump\t// out\n        /* \"#utility.yul\":3299:3697   */\n    tag_50:\n        /* \"#utility.yul\":3458:3461   */\n      0x00\n        /* \"#utility.yul\":3479:3562   */\n      tag_88\n        /* \"#utility.yul\":3560:3561   */\n      0x00\n        /* \"#utility.yul\":3555:3558   */\n      dup4\n        /* \"#utility.yul\":3479:3562   */\n      tag_48\n      jump\t// in\n    tag_88:\n        /* \"#utility.yul\":3472:3562   */\n      swap2\n      pop\n        /* \"#utility.yul\":3571:3664   */\n      tag_89\n        /* \"#utility.yul\":3660:3663   */\n      dup3\n        /* \"#utility.yul\":3571:3664   */\n      tag_49\n      jump\t// in\n    tag_89:\n        /* \"#utility.yul\":3689:3690   */\n      0x00\n        /* \"#utility.yul\":3684:3687   */\n      dup3\n        /* \"#utility.yul\":3680:3691   */\n      add\n        /* \"#utility.yul\":3673:3691   */\n      swap1\n      pop\n        /* \"#utility.yul\":3299:3697   */\n      swap2\n      swap1\n      pop\n      jump\t// out\n        /* \"#utility.yul\":3703:4082   */\n    tag_23:\n        /* \"#utility.yul\":3887:3890   */\n      0x00\n        /* \"#utility.yul\":3909:4056   */\n      tag_91\n        /* \"#utility.yul\":4052:4055   */\n      dup3\n        /* \"#utility.yul\":3909:4056   */\n      tag_50\n      jump\t// in\n    tag_91:\n        /* \"#utility.yul\":3902:4056   */\n      swap2\n      pop\n        /* \"#utility.yul\":4073:4076   */\n      dup2\n        /* \"#utility.yul\":4066:4076   */\n      swap1\n      pop\n        /* \"#utility.yul\":3703:4082   */\n      swap2\n      swap1\n      pop\n      jump\t// out\n        /* \"#utility.yul\":4088:4268   */\n    tag_30:\n        /* \"#utility.yul\":4136:4213   */\n      0x4e487b7100000000000000000000000000000000000000000000000000000000\n        /* \"#utility.yul\":4133:4134   */\n      0x00\n        /* \"#utility.yul\":4126:4214   */\n      mstore\n        /* \"#utility.yul\":4233:4237   */\n      0x01\n        /* \"#utility.yul\":4230:4231   */\n      0x04\n        /* \"#utility.yul\":4223:4238   */\n      mstore\n        /* \"#utility.yul\":4257:4261   */\n      0x24\n        /* \"#utility.yul\":4254:4255   */\n      0x00\n        /* \"#utility.yul\":4247:4262   */\n      revert\n        /* \"#utility.yul\":4274:4438   */\n    tag_51:\n        /* \"#utility.yul\":4414:4430   */\n      0x5061796d656e74206661696c6564000000000000000000000000000000000000\n        /* \"#utility.yul\":4410:4411   */\n      0x00\n        /* \"#utility.yul\":4402:4408   */\n      dup3\n        /* \"#utility.yul\":4398:4412   */\n      add\n        /* \"#utility.yul\":4391:4431   */\n      mstore\n        /* \"#utility.yul\":4274:4438   */\n      pop\n      jump\t// out\n        /* \"#utility.yul\":4444:4810   */\n    tag_52:\n        /* \"#utility.yul\":4586:4589   */\n      0x00\n        /* \"#utility.yul\":4607:4674   */\n      tag_95\n        /* \"#utility.yul\":4671:4673   */\n      0x0e\n        /* \"#utility.yul\":4666:4669   */\n      dup4\n        /* \"#utility.yul\":4607:4674   */\n      tag_43\n      jump\t// in\n    tag_95:\n        /* \"#utility.yul\":4600:4674   */\n      swap2\n      pop\n        /* \"#utility.yul\":4683:4776   */\n      tag_96\n        /* \"#utility.yul\":4772:4775   */\n      dup3\n        /* \"#utility.yul\":4683:4776   */\n      tag_51\n      jump\t// in\n    tag_96:\n        /* \"#utility.yul\":4801:4803   */\n      0x20\n        /* \"#utility.yul\":4796:4799   */\n      dup3\n        /* \"#utility.yul\":4792:4804   */\n      add\n        /* \"#utility.yul\":4785:4804   */\n      swap1\n      pop\n        /* \"#utility.yul\":4444:4810   */\n      swap2\n      swap1\n      pop\n      jump\t// out\n        /* \"#utility.yul\":4816:5235   */\n    tag_33:\n        /* \"#utility.yul\":4982:4986   */\n      0x00\n        /* \"#utility.yul\":5020:5022   */\n      0x20\n        /* \"#utility.yul\":5009:5018   */\n      dup3\n        /* \"#utility.yul\":5005:5023   */\n      add\n        /* \"#utility.yul\":4997:5023   */\n      swap1\n      pop\n        /* \"#utility.yul\":5069:5078   */\n      dup2\n        /* \"#utility.yul\":5063:5067   */\n      dup2\n        /* \"#utility.yul\":5059:5079   */\n      sub\n        /* \"#utility.yul\":5055:5056   */\n      0x00\n        /* \"#utility.yul\":5044:5053   */\n      dup4\n        /* \"#utility.yul\":5040:5057   */\n      add\n        /* \"#utility.yul\":5033:5080   */\n      mstore\n        /* \"#utility.yul\":5097:5228   */\n      tag_98\n        /* \"#utility.yul\":5223:5227   */\n      dup2\n        /* \"#utility.yul\":5097:5228   */\n      tag_52\n      jump\t// in\n    tag_98:\n        /* \"#utility.yul\":5089:5228   */\n      swap1\n      pop\n        /* \"#utility.yul\":4816:5235   */\n      swap2\n      swap1\n      pop\n      jump\t// out\n        /* \"#utility.yul\":5241:5432   */\n    tag_36:\n        /* \"#utility.yul\":5281:5284   */\n      0x00\n        /* \"#utility.yul\":5300:5320   */\n      tag_100\n        /* \"#utility.yul\":5318:5319   */\n      dup3\n        /* \"#utility.yul\":5300:5320   */\n      tag_40\n      jump\t// in\n    tag_100:\n        /* \"#utility.yul\":5295:5320   */\n      swap2\n      pop\n        /* \"#utility.yul\":5334:5354   */\n      tag_101\n        /* \"#utility.yul\":5352:5353   */\n      dup4\n        /* \"#utility.yul\":5334:5354   */\n      tag_40\n      jump\t// in\n    tag_101:\n        /* \"#utility.yul\":5329:5354   */\n      swap3\n      pop\n        /* \"#utility.yul\":5377:5378   */\n      dup3\n        /* \"#utility.yul\":5374:5375   */\n      dup3\n        /* \"#utility.yul\":5370:5379   */\n      add\n        /* \"#utility.yul\":5363:5379   */\n      swap1\n      pop\n        /* \"#utility.yul\":5398:5401   */\n      dup1\n        /* \"#utility.yul\":5395:5396   */\n      dup3\n        /* \"#utility.yul\":5392:5402   */\n      gt\n        /* \"#utility.yul\":5389:5425   */\n      iszero\n      tag_102\n      jumpi\n        /* \"#utility.yul\":5405:5423   */\n      tag_103\n      tag_47\n      jump\t// in\n    tag_103:\n        /* \"#utility.yul\":5389:5425   */\n    tag_102:\n        /* \"#utility.yul\":5241:5432   */\n      swap3\n      swap2\n      pop\n      pop\n      jump\t// out\n\n    auxdata: 0xa26469706673582212200f5299c8b57482618e0b7eea0edce83bd6743986820fabc46c8a4d434491096964736f6c634300081a0033\n}\n",
				"bytecode": {
					"linkReferences": {},
					"object": "6080604052348015600e575f80fd5b506105c88061001c5f395ff3fe608060405260043610610028575f3560e01c80632e1a7d4d1461002c578063d0e30db014610054575b5f80fd5b348015610037575f80fd5b50610052600480360381019061004d9190610350565b61005e565b005b61005c6102c5565b005b5f805f3373ffffffffffffffffffffffffffffffffffffffff1673ffffffffffffffffffffffffffffffffffffffff1681526020019081526020015f20549050818110156100e1576040517f08c379a00000000000000000000000000000000000000000000000000000000081526004016100d8906103d5565b60405180910390fd5b818110156101285780826040517f4236af1100000000000000000000000000000000000000000000000000000000815260040161011f929190610402565b60405180910390fd5b8181101561016f5780826040517fa1856404000000000000000000000000000000000000000000000000000000008152600401610166929190610402565b60405180910390fd5b815f803373ffffffffffffffffffffffffffffffffffffffff1673ffffffffffffffffffffffffffffffffffffffff1681526020019081526020015f205f8282546101ba9190610456565b925050819055505f3373ffffffffffffffffffffffffffffffffffffffff16836040516101e6906104b6565b5f6040518083038185875af1925050503d805f8114610220576040519150601f19603f3d011682016040523d82523d5f602084013e610225565b606091505b5050905082826102359190610456565b5f803373ffffffffffffffffffffffffffffffffffffffff1673ffffffffffffffffffffffffffffffffffffffff1681526020019081526020015f2054146102805761027f6104ca565b5b806102c0576040517f08c379a00000000000000000000000000000000000000000000000000000000081526004016102b790610541565b60405180910390fd5b505050565b345f803373ffffffffffffffffffffffffffffffffffffffff1673ffffffffffffffffffffffffffffffffffffffff1681526020019081526020015f205f828254610310919061055f565b92505081905550565b5f80fd5b5f819050919050565b61032f8161031d565b8114610339575f80fd5b50565b5f8135905061034a81610326565b92915050565b5f6020828403121561036557610364610319565b5b5f6103728482850161033c565b91505092915050565b5f82825260208201905092915050565b7f42616c616e6365206973206e6f742073756666696369656e74000000000000005f82015250565b5f6103bf60198361037b565b91506103ca8261038b565b602082019050919050565b5f6020820190508181035f8301526103ec816103b3565b9050919050565b6103fc8161031d565b82525050565b5f6040820190506104155f8301856103f3565b61042260208301846103f3565b9392505050565b7f4e487b71000000000000000000000000000000000000000000000000000000005f52601160045260245ffd5b5f6104608261031d565b915061046b8361031d565b925082820390508181111561048357610482610429565b5b92915050565b5f81905092915050565b50565b5f6104a15f83610489565b91506104ac82610493565b5f82019050919050565b5f6104c082610496565b9150819050919050565b7f4e487b71000000000000000000000000000000000000000000000000000000005f52600160045260245ffd5b7f5061796d656e74206661696c65640000000000000000000000000000000000005f82015250565b5f61052b600e8361037b565b9150610536826104f7565b602082019050919050565b5f6020820190508181035f8301526105588161051f565b9050919050565b5f6105698261031d565b91506105748361031d565b925082820190508082111561058c5761058b610429565b5b9291505056fea26469706673582212200f5299c8b57482618e0b7eea0edce83bd6743986820fabc46c8a4d434491096964736f6c634300081a0033",
					"opcodes": "PUSH1 0x80 PUSH1 0x40 MSTORE CALLVALUE DUP1 ISZERO PUSH1 0xE JUMPI PUSH0 DUP1 REVERT JUMPDEST POP PUSH2 0x5C8 DUP1 PUSH2 0x1C PUSH0 CODECOPY PUSH0 RETURN INVALID PUSH1 0x80 PUSH1 0x40 MSTORE PUSH1 0x4 CALLDATASIZE LT PUSH2 0x28 JUMPI PUSH0 CALLDATALOAD PUSH1 0xE0 SHR DUP1 PUSH4 0x2E1A7D4D EQ PUSH2 0x2C JUMPI DUP1 PUSH4 0xD0E30DB0 EQ PUSH2 0x54 JUMPI JUMPDEST PUSH0 DUP1 REVERT JUMPDEST CALLVALUE DUP1 ISZERO PUSH2 0x37 JUMPI PUSH0 DUP1 REVERT JUMPDEST POP PUSH2 0x52 PUSH1 0x4 DUP1 CALLDATASIZE SUB DUP2 ADD SWAP1 PUSH2 0x4D SWAP2 SWAP1 PUSH2 0x350 JUMP JUMPDEST PUSH2 0x5E JUMP JUMPDEST STOP JUMPDEST PUSH2 0x5C PUSH2 0x2C5 JUMP JUMPDEST STOP JUMPDEST PUSH0 DUP1 PUSH0 CALLER PUSH20 0xFFFFFFFFFFFFFFFFFFFFFFFFFFFFFFFFFFFFFFFF AND PUSH20 0xFFFFFFFFFFFFFFFFFFFFFFFFFFFFFFFFFFFFFFFF AND DUP2 MSTORE PUSH1 0x20 ADD SWAP1 DUP2 MSTORE PUSH1 0x20 ADD PUSH0 KECCAK256 SLOAD SWAP1 POP DUP2 DUP2 LT ISZERO PUSH2 0xE1 JUMPI PUSH1 0x40 MLOAD PUSH32 0x8C379A000000000000000000000000000000000000000000000000000000000 DUP2 MSTORE PUSH1 0x4 ADD PUSH2 0xD8 SWAP1 PUSH2 0x3D5 JUMP JUMPDEST PUSH1 0x40 MLOAD DUP1 SWAP2 SUB SWAP1 REVERT JUMPDEST DUP2 DUP2 LT ISZERO PUSH2 0x128 JUMPI DUP1 DUP3 PUSH1 0x40 MLOAD PUSH32 0x4236AF1100000000000000000000000000000000000000000000000000000000 DUP2 MSTORE PUSH1 0x4 ADD PUSH2 0x11F SWAP3 SWAP2 SWAP1 PUSH2 0x402 JUMP JUMPDEST PUSH1 0x40 MLOAD DUP1 SWAP2 SUB SWAP1 REVERT JUMPDEST DUP2 DUP2 LT ISZERO PUSH2 0x16F JUMPI DUP1 DUP3 PUSH1 0x40 MLOAD PUSH32 0xA185640400000000000000000000000000000000000000000000000000000000 DUP2 MSTORE PUSH1 0x4 ADD PUSH2 0x166 SWAP3 SWAP2 SWAP1 PUSH2 0x402 JUMP JUMPDEST PUSH1 0x40 MLOAD DUP1 SWAP2 SUB SWAP1 REVERT JUMPDEST DUP2 PUSH0 DUP1 CALLER PUSH20 0xFFFFFFFFFFFFFFFFFFFFFFFFFFFFFFFFFFFFFFFF AND PUSH20 0xFFFFFFFFFFFFFFFFFFFFFFFFFFFFFFFFFFFFFFFF AND DUP2 MSTORE PUSH1 0x20 ADD SWAP1 DUP2 MSTORE PUSH1 0x20 ADD PUSH0 KECCAK256 PUSH0 DUP3 DUP3 SLOAD PUSH2 0x1BA SWAP2 SWAP1 PUSH2 0x456 JUMP JUMPDEST SWAP3 POP POP DUP2 SWAP1 SSTORE POP PUSH0 CALLER PUSH20 0xFFFFFFFFFFFFFFFFFFFFFFFFFFFFFFFFFFFFFFFF AND DUP4 PUSH1 0x40 MLOAD PUSH2 0x1E6 SWAP1 PUSH2 0x4B6 JUMP JUMPDEST PUSH0 PUSH1 0x40 MLOAD DUP1 DUP4 SUB DUP2 DUP6 DUP8 GAS CALL SWAP3 POP POP POP RETURNDATASIZE DUP1 PUSH0 DUP2 EQ PUSH2 0x220 JUMPI PUSH1 0x40 MLOAD SWAP2 POP PUSH1 0x1F NOT PUSH1 0x3F RETURNDATASIZE ADD AND DUP3 ADD PUSH1 0x40 MSTORE RETURNDATASIZE DUP3 MSTORE RETURNDATASIZE PUSH0 PUSH1 0x20 DUP5 ADD RETURNDATACOPY PUSH2 0x225 JUMP JUMPDEST PUSH1 0x60 SWAP2 POP JUMPDEST POP POP SWAP1 POP DUP3 DUP3 PUSH2 0x235 SWAP2 SWAP1 PUSH2 0x456 JUMP JUMPDEST PUSH0 DUP1 CALLER PUSH20 0xFFFFFFFFFFFFFFFFFFFFFFFFFFFFFFFFFFFFFFFF AND PUSH20 0xFFFFFFFFFFFFFFFFFFFFFFFFFFFFFFFFFFFFFFFF AND DUP2 MSTORE PUSH1 0x20 ADD SWAP1 DUP2 MSTORE PUSH1 0x20 ADD PUSH0 KECCAK256 SLOAD EQ PUSH2 0x280 JUMPI PUSH2 0x27F PUSH2 0x4CA JUMP JUMPDEST JUMPDEST DUP1 PUSH2 0x2C0 JUMPI PUSH1 0x40 MLOAD PUSH32 0x8C379A000000000000000000000000000000000000000000000000000000000 DUP2 MSTORE PUSH1 0x4 ADD PUSH2 0x2B7 SWAP1 PUSH2 0x541 JUMP JUMPDEST PUSH1 0x40 MLOAD DUP1 SWAP2 SUB SWAP1 REVERT JUMPDEST POP POP POP JUMP JUMPDEST CALLVALUE PUSH0 DUP1 CALLER PUSH20 0xFFFFFFFFFFFFFFFFFFFFFFFFFFFFFFFFFFFFFFFF AND PUSH20 0xFFFFFFFFFFFFFFFFFFFFFFFFFFFFFFFFFFFFFFFF AND DUP2 MSTORE PUSH1 0x20 ADD SWAP1 DUP2 MSTORE PUSH1 0x20 ADD PUSH0 KECCAK256 PUSH0 DUP3 DUP3 SLOAD PUSH2 0x310 SWAP2 SWAP1 PUSH2 0x55F JUMP JUMPDEST SWAP3 POP POP DUP2 SWAP1 SSTORE POP JUMP JUMPDEST PUSH0 DUP1 REVERT JUMPDEST PUSH0 DUP2 SWAP1 POP SWAP2 SWAP1 POP JUMP JUMPDEST PUSH2 0x32F DUP2 PUSH2 0x31D JUMP JUMPDEST DUP2 EQ PUSH2 0x339 JUMPI PUSH0 DUP1 REVERT JUMPDEST POP JUMP JUMPDEST PUSH0 DUP2 CALLDATALOAD SWAP1 POP PUSH2 0x34A DUP2 PUSH2 0x326 JUMP JUMPDEST SWAP3 SWAP2 POP POP JUMP JUMPDEST PUSH0 PUSH1 0x20 DUP3 DUP5 SUB SLT ISZERO PUSH2 0x365 JUMPI PUSH2 0x364 PUSH2 0x319 JUMP JUMPDEST JUMPDEST PUSH0 PUSH2 0x372 DUP5 DUP3 DUP6 ADD PUSH2 0x33C JUMP JUMPDEST SWAP2 POP POP SWAP3 SWAP2 POP POP JUMP JUMPDEST PUSH0 DUP3 DUP3 MSTORE PUSH1 0x20 DUP3 ADD SWAP1 POP SWAP3 SWAP2 POP POP JUMP JUMPDEST PUSH32 0x42616C616E6365206973206E6F742073756666696369656E7400000000000000 PUSH0 DUP3 ADD MSTORE POP JUMP JUMPDEST PUSH0 PUSH2 0x3BF PUSH1 0x19 DUP4 PUSH2 0x37B JUMP JUMPDEST SWAP2 POP PUSH2 0x3CA DUP3 PUSH2 0x38B JUMP JUMPDEST PUSH1 0x20 DUP3 ADD SWAP1 POP SWAP2 SWAP1 POP JUMP JUMPDEST PUSH0 PUSH1 0x20 DUP3 ADD SWAP1 POP DUP2 DUP2 SUB PUSH0 DUP4 ADD MSTORE PUSH2 0x3EC DUP2 PUSH2 0x3B3 JUMP JUMPDEST SWAP1 POP SWAP2 SWAP1 POP JUMP JUMPDEST PUSH2 0x3FC DUP2 PUSH2 0x31D JUMP JUMPDEST DUP3 MSTORE POP POP JUMP JUMPDEST PUSH0 PUSH1 0x40 DUP3 ADD SWAP1 POP PUSH2 0x415 PUSH0 DUP4 ADD DUP6 PUSH2 0x3F3 JUMP JUMPDEST PUSH2 0x422 PUSH1 0x20 DUP4 ADD DUP5 PUSH2 0x3F3 JUMP JUMPDEST SWAP4 SWAP3 POP POP POP JUMP JUMPDEST PUSH32 0x4E487B7100000000000000000000000000000000000000000000000000000000 PUSH0 MSTORE PUSH1 0x11 PUSH1 0x4 MSTORE PUSH1 0x24 PUSH0 REVERT JUMPDEST PUSH0 PUSH2 0x460 DUP3 PUSH2 0x31D JUMP JUMPDEST SWAP2 POP PUSH2 0x46B DUP4 PUSH2 0x31D JUMP JUMPDEST SWAP3 POP DUP3 DUP3 SUB SWAP1 POP DUP2 DUP2 GT ISZERO PUSH2 0x483 JUMPI PUSH2 0x482 PUSH2 0x429 JUMP JUMPDEST JUMPDEST SWAP3 SWAP2 POP POP JUMP JUMPDEST PUSH0 DUP2 SWAP1 POP SWAP3 SWAP2 POP POP JUMP JUMPDEST POP JUMP JUMPDEST PUSH0 PUSH2 0x4A1 PUSH0 DUP4 PUSH2 0x489 JUMP JUMPDEST SWAP2 POP PUSH2 0x4AC DUP3 PUSH2 0x493 JUMP JUMPDEST PUSH0 DUP3 ADD SWAP1 POP SWAP2 SWAP1 POP JUMP JUMPDEST PUSH0 PUSH2 0x4C0 DUP3 PUSH2 0x496 JUMP JUMPDEST SWAP2 POP DUP2 SWAP1 POP SWAP2 SWAP1 POP JUMP JUMPDEST PUSH32 0x4E487B7100000000000000000000000000000000000000000000000000000000 PUSH0 MSTORE PUSH1 0x1 PUSH1 0x4 MSTORE PUSH1 0x24 PUSH0 REVERT JUMPDEST PUSH32 0x5061796D656E74206661696C6564000000000000000000000000000000000000 PUSH0 DUP3 ADD MSTORE POP JUMP JUMPDEST PUSH0 PUSH2 0x52B PUSH1 0xE DUP4 PUSH2 0x37B JUMP JUMPDEST SWAP2 POP PUSH2 0x536 DUP3 PUSH2 0x4F7 JUMP JUMPDEST PUSH1 0x20 DUP3 ADD SWAP1 POP SWAP2 SWAP1 POP JUMP JUMPDEST PUSH0 PUSH1 0x20 DUP3 ADD SWAP1 POP DUP2 DUP2 SUB PUSH0 DUP4 ADD MSTORE PUSH2 0x558 DUP2 PUSH2 0x51F JUMP JUMPDEST SWAP1 POP SWAP2 SWAP1 POP JUMP JUMPDEST PUSH0 PUSH2 0x569 DUP3 PUSH2 0x31D JUMP JUMPDEST SWAP2 POP PUSH2 0x574 DUP4 PUSH2 0x31D JUMP JUMPDEST SWAP3 POP DUP3 DUP3 ADD SWAP1 POP DUP1 DUP3 GT ISZERO PUSH2 0x58C JUMPI PUSH2 0x58B PUSH2 0x429 JUMP JUMPDEST JUMPDEST SWAP3 SWAP2 POP POP JUMP INVALID LOG2 PUSH5 0x6970667358 0x22 SLT KECCAK256 0xF MSTORE SWAP10 0xC8 0xB5 PUSH21 0x82618E0B7EEA0EDCE83BD6743986820FABC46C8A4D NUMBER PREVRANDAO SWAP2 MULMOD PUSH10 0x64736F6C634300081A00 CALLER "
				},
				"gasEstimates": {
					"creation": {
						"codeDepositCost": "296000",
						"executionCost": "335",
						"totalCost": "296335"
					},
					"external": {
						"deposit()": "infinite",
						"withdraw(uint256)": "infinite"
					}
				},
				"methodIdentifiers": {
					"deposit()": "d0e30db0",
					"withdraw(uint256)": "2e1a7d4d"
				}
			},
			"storageLayout": {
				"storage": [
					{
						"astId": 20,
						"contract": "contracts/ExceptionAndErrorHandling.sol:ExceptionAndErrorHandling",
						"label": "balances",
						"offset": 0,
						"slot": "0",
						"type": "t_mapping(t_address,t_uint256)"
					}
				],
				"types": {
					"t_address": {
						"encoding": "inplace",
						"label": "address",
						"numberOfBytes": "20"
					},
					"t_mapping(t_address,t_uint256)": {
						"encoding": "mapping",
						"key": "t_address",
						"label": "mapping(address => uint256)",
						"numberOfBytes": "32",
						"value": "t_uint256"
					},
					"t_uint256": {
						"encoding": "inplace",
						"label": "uint256",
						"numberOfBytes": "32"
					}
				}
			},
			"userdoc": {
				"kind": "user",
				"methods": {},
				"version": 1
			}
		}
	}
}