{
	"contracts/Mapping.sol": {
		"Mapping": {
			"abi": [
				{
					"inputs": [
						{
							"internalType": "uint256",
							"name": "key1",
							"type": "uint256"
						},
						{
							"internalType": "uint256",
							"name": "key2",
							"type": "uint256"
						},
						{
							"internalType": "bool",
							"name": "value",
							"type": "bool"
						}
					],
					"name": "addItemToNestedMap",
					"outputs": [],
					"stateMutability": "nonpayable",
					"type": "function"
				},
				{
					"inputs": [
						{
							"internalType": "uint256",
							"name": "key",
							"type": "uint256"
						},
						{
							"internalType": "bool",
							"name": "value",
							"type": "bool"
						}
					],
					"name": "addItems",
					"outputs": [],
					"stateMutability": "nonpayable",
					"type": "function"
				},
				{
					"inputs": [
						{
							"internalType": "uint256",
							"name": "key",
							"type": "uint256"
						}
					],
					"name": "get",
					"outputs": [
						{
							"internalType": "bool",
							"name": "",
							"type": "bool"
						}
					],
					"stateMutability": "view",
					"type": "function"
				},
				{
					"inputs": [
						{
							"internalType": "uint256",
							"name": "key1",
							"type": "uint256"
						},
						{
							"internalType": "uint256",
							"name": "key2",
							"type": "uint256"
						}
					],
					"name": "getFromNestedMap",
					"outputs": [
						{
							"internalType": "bool",
							"name": "",
							"type": "bool"
						}
					],
					"stateMutability": "view",
					"type": "function"
				}
			],
			"devdoc": {
				"kind": "dev",
				"methods": {
					"addItemToNestedMap(uint256,uint256,bool)": {
						"details": "Adds or updates an item in the `nestedMap` nested mapping. This function demonstrates how to work with nested mappings in Solidity. A nested mapping allows you to map a key to another mapping.",
						"params": {
							"key1": "The first key in the nested mapping.",
							"key2": "The second key within the mapping associated with `key1`.",
							"value": "The boolean value to associate with the given keys."
						}
					},
					"addItems(uint256,bool)": {
						"details": "Adds or updates an item in the `map` mapping. Mappings do not have a length or a concept of keys that do not exist.  Assigning a value to a key will add it if it does not exist or update it if it does.",
						"params": {
							"key": "The key in the mapping to add or update.",
							"value": "The boolean value to associate with the given key."
						}
					},
					"get(uint256)": {
						"details": "Retrieves the value associated with a given key in the `map` mapping. If the key does not exist in the mapping, it returns the default value of the data type. For `bool`, the default value is `false`. For `int` or `uint`, the default value is `0`.",
						"params": {
							"key": "The key to look up in the mapping."
						},
						"returns": {
							"_0": "The boolean value associated with the given key, or `false` if the key does not exist."
						}
					},
					"getFromNestedMap(uint256,uint256)": {
						"details": "Retrieves the value associated with the given keys in the `nestedMap` mapping. Similar to simple mappings, if the keys do not exist, the default value for `bool` (false) is returned.",
						"params": {
							"key1": "The first key in the nested mapping.",
							"key2": "The second key within the mapping associated with `key1`."
						},
						"returns": {
							"_0": "The boolean value associated with the given keys, or `false` if the keys do not exist."
						}
					}
				},
				"version": 1
			},
			"evm": {
				"assembly": "    /* \"contracts/Mapping.sol\":65:2617  contract Mapping {... */\n  mstore(0x40, 0x80)\n  callvalue\n  dup1\n  iszero\n  tag_1\n  jumpi\n  0x00\n  dup1\n  revert\ntag_1:\n  pop\n  dataSize(sub_0)\n  dup1\n  dataOffset(sub_0)\n  0x00\n  codecopy\n  0x00\n  return\nstop\n\nsub_0: assembly {\n        /* \"contracts/Mapping.sol\":65:2617  contract Mapping {... */\n      mstore(0x40, 0x80)\n      callvalue\n      dup1\n      iszero\n      tag_1\n      jumpi\n      0x00\n      dup1\n      revert\n    tag_1:\n      pop\n      jumpi(tag_2, lt(calldatasize, 0x04))\n      shr(0xe0, calldataload(0x00))\n      dup1\n      0x63ed4cd9\n      eq\n      tag_3\n      jumpi\n      dup1\n      0x7a160658\n      eq\n      tag_4\n      jumpi\n      dup1\n      0x9507d39a\n      eq\n      tag_5\n      jumpi\n      dup1\n      0xaf1cb3f1\n      eq\n      tag_6\n      jumpi\n    tag_2:\n      0x00\n      dup1\n      revert\n        /* \"contracts/Mapping.sol\":1851:2002  function addItemToNestedMap(... */\n    tag_3:\n      tag_7\n      0x04\n      dup1\n      calldatasize\n      sub\n      dup2\n      add\n      swap1\n      tag_8\n      swap2\n      swap1\n      tag_9\n      jump\t// in\n    tag_8:\n      tag_10\n      jump\t// in\n    tag_7:\n      stop\n        /* \"contracts/Mapping.sol\":2461:2615  function getFromNestedMap(uint256 key1, uint256 key2)... */\n    tag_4:\n      tag_11\n      0x04\n      dup1\n      calldatasize\n      sub\n      dup2\n      add\n      swap1\n      tag_12\n      swap2\n      swap1\n      tag_13\n      jump\t// in\n    tag_12:\n      tag_14\n      jump\t// in\n    tag_11:\n      mload(0x40)\n      tag_15\n      swap2\n      swap1\n      tag_16\n      jump\t// in\n    tag_15:\n      mload(0x40)\n      dup1\n      swap2\n      sub\n      swap1\n      return\n        /* \"contracts/Mapping.sol\":1320:1405  function get(uint256 key) public view returns (bool) {... */\n    tag_5:\n      tag_17\n      0x04\n      dup1\n      calldatasize\n      sub\n      dup2\n      add\n      swap1\n      tag_18\n      swap2\n      swap1\n      tag_19\n      jump\t// in\n    tag_18:\n      tag_20\n      jump\t// in\n    tag_17:\n      mload(0x40)\n      tag_21\n      swap2\n      swap1\n      tag_16\n      jump\t// in\n    tag_21:\n      mload(0x40)\n      dup1\n      swap2\n      sub\n      swap1\n      return\n        /* \"contracts/Mapping.sol\":779:862  function addItems(uint256 key, bool value) public {... */\n    tag_6:\n      tag_22\n      0x04\n      dup1\n      calldatasize\n      sub\n      dup2\n      add\n      swap1\n      tag_23\n      swap2\n      swap1\n      tag_24\n      jump\t// in\n    tag_23:\n      tag_25\n      jump\t// in\n    tag_22:\n      stop\n        /* \"contracts/Mapping.sol\":1851:2002  function addItemToNestedMap(... */\n    tag_10:\n        /* \"contracts/Mapping.sol\":1990:1995  value */\n      dup1\n        /* \"contracts/Mapping.sol\":1966:1975  nestedMap */\n      0x01\n        /* \"contracts/Mapping.sol\":1966:1981  nestedMap[key1] */\n      0x00\n        /* \"contracts/Mapping.sol\":1976:1980  key1 */\n      dup6\n        /* \"contracts/Mapping.sol\":1966:1981  nestedMap[key1] */\n      dup2\n      mstore\n      0x20\n      add\n      swap1\n      dup2\n      mstore\n      0x20\n      add\n      0x00\n      keccak256\n        /* \"contracts/Mapping.sol\":1966:1987  nestedMap[key1][key2] */\n      0x00\n        /* \"contracts/Mapping.sol\":1982:1986  key2 */\n      dup5\n        /* \"contracts/Mapping.sol\":1966:1987  nestedMap[key1][key2] */\n      dup2\n      mstore\n      0x20\n      add\n      swap1\n      dup2\n      mstore\n      0x20\n      add\n      0x00\n      keccak256\n      0x00\n        /* \"contracts/Mapping.sol\":1966:1995  nestedMap[key1][key2] = value */\n      0x0100\n      exp\n      dup2\n      sload\n      dup2\n      0xff\n      mul\n      not\n      and\n      swap1\n      dup4\n      iszero\n      iszero\n      mul\n      or\n      swap1\n      sstore\n      pop\n        /* \"contracts/Mapping.sol\":1851:2002  function addItemToNestedMap(... */\n      pop\n      pop\n      pop\n      jump\t// out\n        /* \"contracts/Mapping.sol\":2461:2615  function getFromNestedMap(uint256 key1, uint256 key2)... */\n    tag_14:\n        /* \"contracts/Mapping.sol\":2560:2564  bool */\n      0x00\n        /* \"contracts/Mapping.sol\":2587:2596  nestedMap */\n      0x01\n        /* \"contracts/Mapping.sol\":2587:2602  nestedMap[key1] */\n      0x00\n        /* \"contracts/Mapping.sol\":2597:2601  key1 */\n      dup5\n        /* \"contracts/Mapping.sol\":2587:2602  nestedMap[key1] */\n      dup2\n      mstore\n      0x20\n      add\n      swap1\n      dup2\n      mstore\n      0x20\n      add\n      0x00\n      keccak256\n        /* \"contracts/Mapping.sol\":2587:2608  nestedMap[key1][key2] */\n      0x00\n        /* \"contracts/Mapping.sol\":2603:2607  key2 */\n      dup4\n        /* \"contracts/Mapping.sol\":2587:2608  nestedMap[key1][key2] */\n      dup2\n      mstore\n      0x20\n      add\n      swap1\n      dup2\n      mstore\n      0x20\n      add\n      0x00\n      keccak256\n      0x00\n      swap1\n      sload\n      swap1\n      0x0100\n      exp\n      swap1\n      div\n      0xff\n      and\n        /* \"contracts/Mapping.sol\":2580:2608  return nestedMap[key1][key2] */\n      swap1\n      pop\n        /* \"contracts/Mapping.sol\":2461:2615  function getFromNestedMap(uint256 key1, uint256 key2)... */\n      swap3\n      swap2\n      pop\n      pop\n      jump\t// out\n        /* \"contracts/Mapping.sol\":1320:1405  function get(uint256 key) public view returns (bool) {... */\n    tag_20:\n        /* \"contracts/Mapping.sol\":1367:1371  bool */\n      0x00\n        /* \"contracts/Mapping.sol\":1390:1393  map */\n      dup1\n        /* \"contracts/Mapping.sol\":1390:1398  map[key] */\n      0x00\n        /* \"contracts/Mapping.sol\":1394:1397  key */\n      dup4\n        /* \"contracts/Mapping.sol\":1390:1398  map[key] */\n      dup2\n      mstore\n      0x20\n      add\n      swap1\n      dup2\n      mstore\n      0x20\n      add\n      0x00\n      keccak256\n      0x00\n      swap1\n      sload\n      swap1\n      0x0100\n      exp\n      swap1\n      div\n      0xff\n      and\n        /* \"contracts/Mapping.sol\":1383:1398  return map[key] */\n      swap1\n      pop\n        /* \"contracts/Mapping.sol\":1320:1405  function get(uint256 key) public view returns (bool) {... */\n      swap2\n      swap1\n      pop\n      jump\t// out\n        /* \"contracts/Mapping.sol\":779:862  function addItems(uint256 key, bool value) public {... */\n    tag_25:\n        /* \"contracts/Mapping.sol\":850:855  value */\n      dup1\n        /* \"contracts/Mapping.sol\":839:842  map */\n      0x00\n        /* \"contracts/Mapping.sol\":839:847  map[key] */\n      dup1\n        /* \"contracts/Mapping.sol\":843:846  key */\n      dup5\n        /* \"contracts/Mapping.sol\":839:847  map[key] */\n      dup2\n      mstore\n      0x20\n      add\n      swap1\n      dup2\n      mstore\n      0x20\n      add\n      0x00\n      keccak256\n      0x00\n        /* \"contracts/Mapping.sol\":839:855  map[key] = value */\n      0x0100\n      exp\n      dup2\n      sload\n      dup2\n      0xff\n      mul\n      not\n      and\n      swap1\n      dup4\n      iszero\n      iszero\n      mul\n      or\n      swap1\n      sstore\n      pop\n        /* \"contracts/Mapping.sol\":779:862  function addItems(uint256 key, bool value) public {... */\n      pop\n      pop\n      jump\t// out\n        /* \"#utility.yul\":88:205   */\n    tag_31:\n        /* \"#utility.yul\":197:198   */\n      0x00\n        /* \"#utility.yul\":194:195   */\n      dup1\n        /* \"#utility.yul\":187:199   */\n      revert\n        /* \"#utility.yul\":334:411   */\n    tag_33:\n        /* \"#utility.yul\":371:378   */\n      0x00\n        /* \"#utility.yul\":400:405   */\n      dup2\n        /* \"#utility.yul\":389:405   */\n      swap1\n      pop\n        /* \"#utility.yul\":334:411   */\n      swap2\n      swap1\n      pop\n      jump\t// out\n        /* \"#utility.yul\":417:539   */\n    tag_34:\n        /* \"#utility.yul\":490:514   */\n      tag_46\n        /* \"#utility.yul\":508:513   */\n      dup2\n        /* \"#utility.yul\":490:514   */\n      tag_33\n      jump\t// in\n    tag_46:\n        /* \"#utility.yul\":483:488   */\n      dup2\n        /* \"#utility.yul\":480:515   */\n      eq\n        /* \"#utility.yul\":470:533   */\n      tag_47\n      jumpi\n        /* \"#utility.yul\":529:530   */\n      0x00\n        /* \"#utility.yul\":526:527   */\n      dup1\n        /* \"#utility.yul\":519:531   */\n      revert\n        /* \"#utility.yul\":470:533   */\n    tag_47:\n        /* \"#utility.yul\":417:539   */\n      pop\n      jump\t// out\n        /* \"#utility.yul\":545:684   */\n    tag_35:\n        /* \"#utility.yul\":591:596   */\n      0x00\n        /* \"#utility.yul\":629:635   */\n      dup2\n        /* \"#utility.yul\":616:636   */\n      calldataload\n        /* \"#utility.yul\":607:636   */\n      swap1\n      pop\n        /* \"#utility.yul\":645:678   */\n      tag_49\n        /* \"#utility.yul\":672:677   */\n      dup2\n        /* \"#utility.yul\":645:678   */\n      tag_34\n      jump\t// in\n    tag_49:\n        /* \"#utility.yul\":545:684   */\n      swap3\n      swap2\n      pop\n      pop\n      jump\t// out\n        /* \"#utility.yul\":690:780   */\n    tag_36:\n        /* \"#utility.yul\":724:731   */\n      0x00\n        /* \"#utility.yul\":767:772   */\n      dup2\n        /* \"#utility.yul\":760:773   */\n      iszero\n        /* \"#utility.yul\":753:774   */\n      iszero\n        /* \"#utility.yul\":742:774   */\n      swap1\n      pop\n        /* \"#utility.yul\":690:780   */\n      swap2\n      swap1\n      pop\n      jump\t// out\n        /* \"#utility.yul\":786:902   */\n    tag_37:\n        /* \"#utility.yul\":856:877   */\n      tag_52\n        /* \"#utility.yul\":871:876   */\n      dup2\n        /* \"#utility.yul\":856:877   */\n      tag_36\n      jump\t// in\n    tag_52:\n        /* \"#utility.yul\":849:854   */\n      dup2\n        /* \"#utility.yul\":846:878   */\n      eq\n        /* \"#utility.yul\":836:896   */\n      tag_53\n      jumpi\n        /* \"#utility.yul\":892:893   */\n      0x00\n        /* \"#utility.yul\":889:890   */\n      dup1\n        /* \"#utility.yul\":882:894   */\n      revert\n        /* \"#utility.yul\":836:896   */\n    tag_53:\n        /* \"#utility.yul\":786:902   */\n      pop\n      jump\t// out\n        /* \"#utility.yul\":908:1041   */\n    tag_38:\n        /* \"#utility.yul\":951:956   */\n      0x00\n        /* \"#utility.yul\":989:995   */\n      dup2\n        /* \"#utility.yul\":976:996   */\n      calldataload\n        /* \"#utility.yul\":967:996   */\n      swap1\n      pop\n        /* \"#utility.yul\":1005:1035   */\n      tag_55\n        /* \"#utility.yul\":1029:1034   */\n      dup2\n        /* \"#utility.yul\":1005:1035   */\n      tag_37\n      jump\t// in\n    tag_55:\n        /* \"#utility.yul\":908:1041   */\n      swap3\n      swap2\n      pop\n      pop\n      jump\t// out\n        /* \"#utility.yul\":1047:1660   */\n    tag_9:\n        /* \"#utility.yul\":1121:1127   */\n      0x00\n        /* \"#utility.yul\":1129:1135   */\n      dup1\n        /* \"#utility.yul\":1137:1143   */\n      0x00\n        /* \"#utility.yul\":1186:1188   */\n      0x60\n        /* \"#utility.yul\":1174:1183   */\n      dup5\n        /* \"#utility.yul\":1165:1172   */\n      dup7\n        /* \"#utility.yul\":1161:1184   */\n      sub\n        /* \"#utility.yul\":1157:1189   */\n      slt\n        /* \"#utility.yul\":1154:1273   */\n      iszero\n      tag_57\n      jumpi\n        /* \"#utility.yul\":1192:1271   */\n      tag_58\n      tag_31\n      jump\t// in\n    tag_58:\n        /* \"#utility.yul\":1154:1273   */\n    tag_57:\n        /* \"#utility.yul\":1312:1313   */\n      0x00\n        /* \"#utility.yul\":1337:1390   */\n      tag_59\n        /* \"#utility.yul\":1382:1389   */\n      dup7\n        /* \"#utility.yul\":1373:1379   */\n      dup3\n        /* \"#utility.yul\":1362:1371   */\n      dup8\n        /* \"#utility.yul\":1358:1380   */\n      add\n        /* \"#utility.yul\":1337:1390   */\n      tag_35\n      jump\t// in\n    tag_59:\n        /* \"#utility.yul\":1327:1390   */\n      swap4\n      pop\n        /* \"#utility.yul\":1283:1400   */\n      pop\n        /* \"#utility.yul\":1439:1441   */\n      0x20\n        /* \"#utility.yul\":1465:1518   */\n      tag_60\n        /* \"#utility.yul\":1510:1517   */\n      dup7\n        /* \"#utility.yul\":1501:1507   */\n      dup3\n        /* \"#utility.yul\":1490:1499   */\n      dup8\n        /* \"#utility.yul\":1486:1508   */\n      add\n        /* \"#utility.yul\":1465:1518   */\n      tag_35\n      jump\t// in\n    tag_60:\n        /* \"#utility.yul\":1455:1518   */\n      swap3\n      pop\n        /* \"#utility.yul\":1410:1528   */\n      pop\n        /* \"#utility.yul\":1567:1569   */\n      0x40\n        /* \"#utility.yul\":1593:1643   */\n      tag_61\n        /* \"#utility.yul\":1635:1642   */\n      dup7\n        /* \"#utility.yul\":1626:1632   */\n      dup3\n        /* \"#utility.yul\":1615:1624   */\n      dup8\n        /* \"#utility.yul\":1611:1633   */\n      add\n        /* \"#utility.yul\":1593:1643   */\n      tag_38\n      jump\t// in\n    tag_61:\n        /* \"#utility.yul\":1583:1643   */\n      swap2\n      pop\n        /* \"#utility.yul\":1538:1653   */\n      pop\n        /* \"#utility.yul\":1047:1660   */\n      swap3\n      pop\n      swap3\n      pop\n      swap3\n      jump\t// out\n        /* \"#utility.yul\":1666:2140   */\n    tag_13:\n        /* \"#utility.yul\":1734:1740   */\n      0x00\n        /* \"#utility.yul\":1742:1748   */\n      dup1\n        /* \"#utility.yul\":1791:1793   */\n      0x40\n        /* \"#utility.yul\":1779:1788   */\n      dup4\n        /* \"#utility.yul\":1770:1777   */\n      dup6\n        /* \"#utility.yul\":1766:1789   */\n      sub\n        /* \"#utility.yul\":1762:1794   */\n      slt\n        /* \"#utility.yul\":1759:1878   */\n      iszero\n      tag_63\n      jumpi\n        /* \"#utility.yul\":1797:1876   */\n      tag_64\n      tag_31\n      jump\t// in\n    tag_64:\n        /* \"#utility.yul\":1759:1878   */\n    tag_63:\n        /* \"#utility.yul\":1917:1918   */\n      0x00\n        /* \"#utility.yul\":1942:1995   */\n      tag_65\n        /* \"#utility.yul\":1987:1994   */\n      dup6\n        /* \"#utility.yul\":1978:1984   */\n      dup3\n        /* \"#utility.yul\":1967:1976   */\n      dup7\n        /* \"#utility.yul\":1963:1985   */\n      add\n        /* \"#utility.yul\":1942:1995   */\n      tag_35\n      jump\t// in\n    tag_65:\n        /* \"#utility.yul\":1932:1995   */\n      swap3\n      pop\n        /* \"#utility.yul\":1888:2005   */\n      pop\n        /* \"#utility.yul\":2044:2046   */\n      0x20\n        /* \"#utility.yul\":2070:2123   */\n      tag_66\n        /* \"#utility.yul\":2115:2122   */\n      dup6\n        /* \"#utility.yul\":2106:2112   */\n      dup3\n        /* \"#utility.yul\":2095:2104   */\n      dup7\n        /* \"#utility.yul\":2091:2113   */\n      add\n        /* \"#utility.yul\":2070:2123   */\n      tag_35\n      jump\t// in\n    tag_66:\n        /* \"#utility.yul\":2060:2123   */\n      swap2\n      pop\n        /* \"#utility.yul\":2015:2133   */\n      pop\n        /* \"#utility.yul\":1666:2140   */\n      swap3\n      pop\n      swap3\n      swap1\n      pop\n      jump\t// out\n        /* \"#utility.yul\":2146:2255   */\n    tag_39:\n        /* \"#utility.yul\":2227:2248   */\n      tag_68\n        /* \"#utility.yul\":2242:2247   */\n      dup2\n        /* \"#utility.yul\":2227:2248   */\n      tag_36\n      jump\t// in\n    tag_68:\n        /* \"#utility.yul\":2222:2225   */\n      dup3\n        /* \"#utility.yul\":2215:2249   */\n      mstore\n        /* \"#utility.yul\":2146:2255   */\n      pop\n      pop\n      jump\t// out\n        /* \"#utility.yul\":2261:2471   */\n    tag_16:\n        /* \"#utility.yul\":2348:2352   */\n      0x00\n        /* \"#utility.yul\":2386:2388   */\n      0x20\n        /* \"#utility.yul\":2375:2384   */\n      dup3\n        /* \"#utility.yul\":2371:2389   */\n      add\n        /* \"#utility.yul\":2363:2389   */\n      swap1\n      pop\n        /* \"#utility.yul\":2399:2464   */\n      tag_70\n        /* \"#utility.yul\":2461:2462   */\n      0x00\n        /* \"#utility.yul\":2450:2459   */\n      dup4\n        /* \"#utility.yul\":2446:2463   */\n      add\n        /* \"#utility.yul\":2437:2443   */\n      dup5\n        /* \"#utility.yul\":2399:2464   */\n      tag_39\n      jump\t// in\n    tag_70:\n        /* \"#utility.yul\":2261:2471   */\n      swap3\n      swap2\n      pop\n      pop\n      jump\t// out\n        /* \"#utility.yul\":2477:2806   */\n    tag_19:\n        /* \"#utility.yul\":2536:2542   */\n      0x00\n        /* \"#utility.yul\":2585:2587   */\n      0x20\n        /* \"#utility.yul\":2573:2582   */\n      dup3\n        /* \"#utility.yul\":2564:2571   */\n      dup5\n        /* \"#utility.yul\":2560:2583   */\n      sub\n        /* \"#utility.yul\":2556:2588   */\n      slt\n        /* \"#utility.yul\":2553:2672   */\n      iszero\n      tag_72\n      jumpi\n        /* \"#utility.yul\":2591:2670   */\n      tag_73\n      tag_31\n      jump\t// in\n    tag_73:\n        /* \"#utility.yul\":2553:2672   */\n    tag_72:\n        /* \"#utility.yul\":2711:2712   */\n      0x00\n        /* \"#utility.yul\":2736:2789   */\n      tag_74\n        /* \"#utility.yul\":2781:2788   */\n      dup5\n        /* \"#utility.yul\":2772:2778   */\n      dup3\n        /* \"#utility.yul\":2761:2770   */\n      dup6\n        /* \"#utility.yul\":2757:2779   */\n      add\n        /* \"#utility.yul\":2736:2789   */\n      tag_35\n      jump\t// in\n    tag_74:\n        /* \"#utility.yul\":2726:2789   */\n      swap2\n      pop\n        /* \"#utility.yul\":2682:2799   */\n      pop\n        /* \"#utility.yul\":2477:2806   */\n      swap3\n      swap2\n      pop\n      pop\n      jump\t// out\n        /* \"#utility.yul\":2812:3280   */\n    tag_24:\n        /* \"#utility.yul\":2877:2883   */\n      0x00\n        /* \"#utility.yul\":2885:2891   */\n      dup1\n        /* \"#utility.yul\":2934:2936   */\n      0x40\n        /* \"#utility.yul\":2922:2931   */\n      dup4\n        /* \"#utility.yul\":2913:2920   */\n      dup6\n        /* \"#utility.yul\":2909:2932   */\n      sub\n        /* \"#utility.yul\":2905:2937   */\n      slt\n        /* \"#utility.yul\":2902:3021   */\n      iszero\n      tag_76\n      jumpi\n        /* \"#utility.yul\":2940:3019   */\n      tag_77\n      tag_31\n      jump\t// in\n    tag_77:\n        /* \"#utility.yul\":2902:3021   */\n    tag_76:\n        /* \"#utility.yul\":3060:3061   */\n      0x00\n        /* \"#utility.yul\":3085:3138   */\n      tag_78\n        /* \"#utility.yul\":3130:3137   */\n      dup6\n        /* \"#utility.yul\":3121:3127   */\n      dup3\n        /* \"#utility.yul\":3110:3119   */\n      dup7\n        /* \"#utility.yul\":3106:3128   */\n      add\n        /* \"#utility.yul\":3085:3138   */\n      tag_35\n      jump\t// in\n    tag_78:\n        /* \"#utility.yul\":3075:3138   */\n      swap3\n      pop\n        /* \"#utility.yul\":3031:3148   */\n      pop\n        /* \"#utility.yul\":3187:3189   */\n      0x20\n        /* \"#utility.yul\":3213:3263   */\n      tag_79\n        /* \"#utility.yul\":3255:3262   */\n      dup6\n        /* \"#utility.yul\":3246:3252   */\n      dup3\n        /* \"#utility.yul\":3235:3244   */\n      dup7\n        /* \"#utility.yul\":3231:3253   */\n      add\n        /* \"#utility.yul\":3213:3263   */\n      tag_38\n      jump\t// in\n    tag_79:\n        /* \"#utility.yul\":3203:3263   */\n      swap2\n      pop\n        /* \"#utility.yul\":3158:3273   */\n      pop\n        /* \"#utility.yul\":2812:3280   */\n      swap3\n      pop\n      swap3\n      swap1\n      pop\n      jump\t// out\n\n    auxdata: 0xa26469706673582212204e297526646b9e24bae9955bc81403abd09043b5fc89cd2fbfc4bda823205d2664736f6c634300081a0033\n}\n",
				"bytecode": {
					"linkReferences": {},
					"object": "6080604052348015600e575f80fd5b506103698061001c5f395ff3fe608060405234801561000f575f80fd5b506004361061004a575f3560e01c806363ed4cd91461004e5780637a1606581461006a5780639507d39a1461009a578063af1cb3f1146100ca575b5f80fd5b61006860048036038101906100639190610214565b6100e6565b005b610084600480360381019061007f9190610264565b610122565b60405161009191906102b1565b60405180910390f35b6100b460048036038101906100af91906102ca565b610158565b6040516100c191906102b1565b60405180910390f35b6100e460048036038101906100df91906102f5565b61017d565b005b8060015f8581526020019081526020015f205f8481526020019081526020015f205f6101000a81548160ff021916908315150217905550505050565b5f60015f8481526020019081526020015f205f8381526020019081526020015f205f9054906101000a900460ff16905092915050565b5f805f8381526020019081526020015f205f9054906101000a900460ff169050919050565b805f808481526020019081526020015f205f6101000a81548160ff0219169083151502179055505050565b5f80fd5b5f819050919050565b6101be816101ac565b81146101c8575f80fd5b50565b5f813590506101d9816101b5565b92915050565b5f8115159050919050565b6101f3816101df565b81146101fd575f80fd5b50565b5f8135905061020e816101ea565b92915050565b5f805f6060848603121561022b5761022a6101a8565b5b5f610238868287016101cb565b9350506020610249868287016101cb565b925050604061025a86828701610200565b9150509250925092565b5f806040838503121561027a576102796101a8565b5b5f610287858286016101cb565b9250506020610298858286016101cb565b9150509250929050565b6102ab816101df565b82525050565b5f6020820190506102c45f8301846102a2565b92915050565b5f602082840312156102df576102de6101a8565b5b5f6102ec848285016101cb565b91505092915050565b5f806040838503121561030b5761030a6101a8565b5b5f610318858286016101cb565b925050602061032985828601610200565b915050925092905056fea26469706673582212204e297526646b9e24bae9955bc81403abd09043b5fc89cd2fbfc4bda823205d2664736f6c634300081a0033",
					"opcodes": "PUSH1 0x80 PUSH1 0x40 MSTORE CALLVALUE DUP1 ISZERO PUSH1 0xE JUMPI PUSH0 DUP1 REVERT JUMPDEST POP PUSH2 0x369 DUP1 PUSH2 0x1C PUSH0 CODECOPY PUSH0 RETURN INVALID PUSH1 0x80 PUSH1 0x40 MSTORE CALLVALUE DUP1 ISZERO PUSH2 0xF JUMPI PUSH0 DUP1 REVERT JUMPDEST POP PUSH1 0x4 CALLDATASIZE LT PUSH2 0x4A JUMPI PUSH0 CALLDATALOAD PUSH1 0xE0 SHR DUP1 PUSH4 0x63ED4CD9 EQ PUSH2 0x4E JUMPI DUP1 PUSH4 0x7A160658 EQ PUSH2 0x6A JUMPI DUP1 PUSH4 0x9507D39A EQ PUSH2 0x9A JUMPI DUP1 PUSH4 0xAF1CB3F1 EQ PUSH2 0xCA JUMPI JUMPDEST PUSH0 DUP1 REVERT JUMPDEST PUSH2 0x68 PUSH1 0x4 DUP1 CALLDATASIZE SUB DUP2 ADD SWAP1 PUSH2 0x63 SWAP2 SWAP1 PUSH2 0x214 JUMP JUMPDEST PUSH2 0xE6 JUMP JUMPDEST STOP JUMPDEST PUSH2 0x84 PUSH1 0x4 DUP1 CALLDATASIZE SUB DUP2 ADD SWAP1 PUSH2 0x7F SWAP2 SWAP1 PUSH2 0x264 JUMP JUMPDEST PUSH2 0x122 JUMP JUMPDEST PUSH1 0x40 MLOAD PUSH2 0x91 SWAP2 SWAP1 PUSH2 0x2B1 JUMP JUMPDEST PUSH1 0x40 MLOAD DUP1 SWAP2 SUB SWAP1 RETURN JUMPDEST PUSH2 0xB4 PUSH1 0x4 DUP1 CALLDATASIZE SUB DUP2 ADD SWAP1 PUSH2 0xAF SWAP2 SWAP1 PUSH2 0x2CA JUMP JUMPDEST PUSH2 0x158 JUMP JUMPDEST PUSH1 0x40 MLOAD PUSH2 0xC1 SWAP2 SWAP1 PUSH2 0x2B1 JUMP JUMPDEST PUSH1 0x40 MLOAD DUP1 SWAP2 SUB SWAP1 RETURN JUMPDEST PUSH2 0xE4 PUSH1 0x4 DUP1 CALLDATASIZE SUB DUP2 ADD SWAP1 PUSH2 0xDF SWAP2 SWAP1 PUSH2 0x2F5 JUMP JUMPDEST PUSH2 0x17D JUMP JUMPDEST STOP JUMPDEST DUP1 PUSH1 0x1 PUSH0 DUP6 DUP2 MSTORE PUSH1 0x20 ADD SWAP1 DUP2 MSTORE PUSH1 0x20 ADD PUSH0 KECCAK256 PUSH0 DUP5 DUP2 MSTORE PUSH1 0x20 ADD SWAP1 DUP2 MSTORE PUSH1 0x20 ADD PUSH0 KECCAK256 PUSH0 PUSH2 0x100 EXP DUP2 SLOAD DUP2 PUSH1 0xFF MUL NOT AND SWAP1 DUP4 ISZERO ISZERO MUL OR SWAP1 SSTORE POP POP POP POP JUMP JUMPDEST PUSH0 PUSH1 0x1 PUSH0 DUP5 DUP2 MSTORE PUSH1 0x20 ADD SWAP1 DUP2 MSTORE PUSH1 0x20 ADD PUSH0 KECCAK256 PUSH0 DUP4 DUP2 MSTORE PUSH1 0x20 ADD SWAP1 DUP2 MSTORE PUSH1 0x20 ADD PUSH0 KECCAK256 PUSH0 SWAP1 SLOAD SWAP1 PUSH2 0x100 EXP SWAP1 DIV PUSH1 0xFF AND SWAP1 POP SWAP3 SWAP2 POP POP JUMP JUMPDEST PUSH0 DUP1 PUSH0 DUP4 DUP2 MSTORE PUSH1 0x20 ADD SWAP1 DUP2 MSTORE PUSH1 0x20 ADD PUSH0 KECCAK256 PUSH0 SWAP1 SLOAD SWAP1 PUSH2 0x100 EXP SWAP1 DIV PUSH1 0xFF AND SWAP1 POP SWAP2 SWAP1 POP JUMP JUMPDEST DUP1 PUSH0 DUP1 DUP5 DUP2 MSTORE PUSH1 0x20 ADD SWAP1 DUP2 MSTORE PUSH1 0x20 ADD PUSH0 KECCAK256 PUSH0 PUSH2 0x100 EXP DUP2 SLOAD DUP2 PUSH1 0xFF MUL NOT AND SWAP1 DUP4 ISZERO ISZERO MUL OR SWAP1 SSTORE POP POP POP JUMP JUMPDEST PUSH0 DUP1 REVERT JUMPDEST PUSH0 DUP2 SWAP1 POP SWAP2 SWAP1 POP JUMP JUMPDEST PUSH2 0x1BE DUP2 PUSH2 0x1AC JUMP JUMPDEST DUP2 EQ PUSH2 0x1C8 JUMPI PUSH0 DUP1 REVERT JUMPDEST POP JUMP JUMPDEST PUSH0 DUP2 CALLDATALOAD SWAP1 POP PUSH2 0x1D9 DUP2 PUSH2 0x1B5 JUMP JUMPDEST SWAP3 SWAP2 POP POP JUMP JUMPDEST PUSH0 DUP2 ISZERO ISZERO SWAP1 POP SWAP2 SWAP1 POP JUMP JUMPDEST PUSH2 0x1F3 DUP2 PUSH2 0x1DF JUMP JUMPDEST DUP2 EQ PUSH2 0x1FD JUMPI PUSH0 DUP1 REVERT JUMPDEST POP JUMP JUMPDEST PUSH0 DUP2 CALLDATALOAD SWAP1 POP PUSH2 0x20E DUP2 PUSH2 0x1EA JUMP JUMPDEST SWAP3 SWAP2 POP POP JUMP JUMPDEST PUSH0 DUP1 PUSH0 PUSH1 0x60 DUP5 DUP7 SUB SLT ISZERO PUSH2 0x22B JUMPI PUSH2 0x22A PUSH2 0x1A8 JUMP JUMPDEST JUMPDEST PUSH0 PUSH2 0x238 DUP7 DUP3 DUP8 ADD PUSH2 0x1CB JUMP JUMPDEST SWAP4 POP POP PUSH1 0x20 PUSH2 0x249 DUP7 DUP3 DUP8 ADD PUSH2 0x1CB JUMP JUMPDEST SWAP3 POP POP PUSH1 0x40 PUSH2 0x25A DUP7 DUP3 DUP8 ADD PUSH2 0x200 JUMP JUMPDEST SWAP2 POP POP SWAP3 POP SWAP3 POP SWAP3 JUMP JUMPDEST PUSH0 DUP1 PUSH1 0x40 DUP4 DUP6 SUB SLT ISZERO PUSH2 0x27A JUMPI PUSH2 0x279 PUSH2 0x1A8 JUMP JUMPDEST JUMPDEST PUSH0 PUSH2 0x287 DUP6 DUP3 DUP7 ADD PUSH2 0x1CB JUMP JUMPDEST SWAP3 POP POP PUSH1 0x20 PUSH2 0x298 DUP6 DUP3 DUP7 ADD PUSH2 0x1CB JUMP JUMPDEST SWAP2 POP POP SWAP3 POP SWAP3 SWAP1 POP JUMP JUMPDEST PUSH2 0x2AB DUP2 PUSH2 0x1DF JUMP JUMPDEST DUP3 MSTORE POP POP JUMP JUMPDEST PUSH0 PUSH1 0x20 DUP3 ADD SWAP1 POP PUSH2 0x2C4 PUSH0 DUP4 ADD DUP5 PUSH2 0x2A2 JUMP JUMPDEST SWAP3 SWAP2 POP POP JUMP JUMPDEST PUSH0 PUSH1 0x20 DUP3 DUP5 SUB SLT ISZERO PUSH2 0x2DF JUMPI PUSH2 0x2DE PUSH2 0x1A8 JUMP JUMPDEST JUMPDEST PUSH0 PUSH2 0x2EC DUP5 DUP3 DUP6 ADD PUSH2 0x1CB JUMP JUMPDEST SWAP2 POP POP SWAP3 SWAP2 POP POP JUMP JUMPDEST PUSH0 DUP1 PUSH1 0x40 DUP4 DUP6 SUB SLT ISZERO PUSH2 0x30B JUMPI PUSH2 0x30A PUSH2 0x1A8 JUMP JUMPDEST JUMPDEST PUSH0 PUSH2 0x318 DUP6 DUP3 DUP7 ADD PUSH2 0x1CB JUMP JUMPDEST SWAP3 POP POP PUSH1 0x20 PUSH2 0x329 DUP6 DUP3 DUP7 ADD PUSH2 0x200 JUMP JUMPDEST SWAP2 POP POP SWAP3 POP SWAP3 SWAP1 POP JUMP INVALID LOG2 PUSH5 0x6970667358 0x22 SLT KECCAK256 0x4E 0x29 PUSH22 0x26646B9E24BAE9955BC81403ABD09043B5FC89CD2FBF 0xC4 0xBD 0xA8 0x23 KECCAK256 TSTORE 0x26 PUSH5 0x736F6C6343 STOP ADDMOD BYTE STOP CALLER "
				},
				"gasEstimates": {
					"creation": {
						"codeDepositCost": "174600",
						"executionCost": "218",
						"totalCost": "174818"
					},
					"external": {
						"addItemToNestedMap(uint256,uint256,bool)": "infinite",
						"addItems(uint256,bool)": "24964",
						"get(uint256)": "2832",
						"getFromNestedMap(uint256,uint256)": "infinite"
					}
				},
				"methodIdentifiers": {
					"addItemToNestedMap(uint256,uint256,bool)": "63ed4cd9",
					"addItems(uint256,bool)": "af1cb3f1",
					"get(uint256)": "9507d39a",
					"getFromNestedMap(uint256,uint256)": "7a160658"
				}
			},
			"storageLayout": {
				"storage": [
					{
						"astId": 5,
						"contract": "contracts/Mapping.sol:Mapping",
						"label": "map",
						"offset": 0,
						"slot": "0",
						"type": "t_mapping(t_uint256,t_bool)"
					},
					{
						"astId": 11,
						"contract": "contracts/Mapping.sol:Mapping",
						"label": "nestedMap",
						"offset": 0,
						"slot": "1",
						"type": "t_mapping(t_uint256,t_mapping(t_uint256,t_bool))"
					}
				],
				"types": {
					"t_bool": {
						"encoding": "inplace",
						"label": "bool",
						"numberOfBytes": "1"
					},
					"t_mapping(t_uint256,t_bool)": {
						"encoding": "mapping",
						"key": "t_uint256",
						"label": "mapping(uint256 => bool)",
						"numberOfBytes": "32",
						"value": "t_bool"
					},
					"t_mapping(t_uint256,t_mapping(t_uint256,t_bool))": {
						"encoding": "mapping",
						"key": "t_uint256",
						"label": "mapping(uint256 => mapping(uint256 => bool))",
						"numberOfBytes": "32",
						"value": "t_mapping(t_uint256,t_bool)"
					},
					"t_uint256": {
						"encoding": "inplace",
						"label": "uint256",
						"numberOfBytes": "32"
					}
				}
			},
			"userdoc": {
				"kind": "user",
				"methods": {},
				"version": 1
			}
		}
	}
}