{
	"advanced/Enums.sol": {
		"Enums": {
			"abi": [
				{
					"inputs": [
						{
							"internalType": "enum Enums.Size",
							"name": "size",
							"type": "uint8"
						},
						{
							"internalType": "enum Enums.Color",
							"name": "color",
							"type": "uint8"
						}
					],
					"name": "buyShirt",
					"outputs": [],
					"stateMutability": "payable",
					"type": "function"
				},
				{
					"inputs": [
						{
							"internalType": "enum Enums.Size",
							"name": "size",
							"type": "uint8"
						},
						{
							"internalType": "enum Enums.Color",
							"name": "color",
							"type": "uint8"
						}
					],
					"name": "getShirtPrice",
					"outputs": [
						{
							"internalType": "uint256",
							"name": "",
							"type": "uint256"
						}
					],
					"stateMutability": "pure",
					"type": "function"
				},
				{
					"inputs": [
						{
							"internalType": "enum Enums.Size",
							"name": "size",
							"type": "uint8"
						},
						{
							"internalType": "enum Enums.Color",
							"name": "color",
							"type": "uint8"
						}
					],
					"name": "getShirts",
					"outputs": [
						{
							"internalType": "uint256",
							"name": "",
							"type": "uint256"
						}
					],
					"stateMutability": "view",
					"type": "function"
				}
			],
			"devdoc": {
				"details": "This contract allows users to buy shirts of different sizes and colors.",
				"kind": "dev",
				"methods": {
					"buyShirt(uint8,uint8)": {
						"details": "Allows users to buy a shirt of a specific size and color by paying the correct amount.",
						"params": {
							"color": "The color of the shirt.",
							"size": "The size of the shirt."
						}
					},
					"getShirtPrice(uint8,uint8)": {
						"details": "Returns the price of a shirt based on its size and color.",
						"params": {
							"color": "The color of the shirt.",
							"size": "The size of the shirt."
						},
						"returns": {
							"_0": "The price of the shirt in wei."
						}
					},
					"getShirts(uint8,uint8)": {
						"details": "Returns the number of shirts owned by the caller of a specific size and color.",
						"params": {
							"color": "The color of the shirt.",
							"size": "The size of the shirt."
						},
						"returns": {
							"_0": "The count of shirts of the specified size and color owned by the caller."
						}
					}
				},
				"title": "FancyShirts Contract",
				"version": 1
			},
			"evm": {
				"assembly": "    /* \"advanced/Enums.sol\":184:2749  contract Enums {... */\n  mstore(0x40, 0x80)\n  callvalue\n  dup1\n  iszero\n  tag_1\n  jumpi\n  0x00\n  dup1\n  revert\ntag_1:\n  pop\n  dataSize(sub_0)\n  dup1\n  dataOffset(sub_0)\n  0x00\n  codecopy\n  0x00\n  return\nstop\n\nsub_0: assembly {\n        /* \"advanced/Enums.sol\":184:2749  contract Enums {... */\n      mstore(0x40, 0x80)\n      jumpi(tag_1, lt(calldatasize, 0x04))\n      shr(0xe0, calldataload(0x00))\n      dup1\n      0x6aa283a5\n      eq\n      tag_2\n      jumpi\n      dup1\n      0x71cc64b4\n      eq\n      tag_3\n      jumpi\n      dup1\n      0xb97461d3\n      eq\n      tag_4\n      jumpi\n    tag_1:\n      0x00\n      dup1\n      revert\n        /* \"advanced/Enums.sol\":1890:2070  function buyShirt(Size size, Color color) public payable correctAmount(size, color) {... */\n    tag_2:\n      tag_5\n      0x04\n      dup1\n      calldatasize\n      sub\n      dup2\n      add\n      swap1\n      tag_6\n      swap2\n      swap1\n      tag_7\n      jump\t// in\n    tag_6:\n      tag_8\n      jump\t// in\n    tag_5:\n      stop\n        /* \"advanced/Enums.sol\":2357:2747  function getShirts(Size size, Color color) public view returns (uint256) {... */\n    tag_3:\n      callvalue\n      dup1\n      iszero\n      tag_9\n      jumpi\n      0x00\n      dup1\n      revert\n    tag_9:\n      pop\n      tag_10\n      0x04\n      dup1\n      calldatasize\n      sub\n      dup2\n      add\n      swap1\n      tag_11\n      swap2\n      swap1\n      tag_7\n      jump\t// in\n    tag_11:\n      tag_12\n      jump\t// in\n    tag_10:\n      mload(0x40)\n      tag_13\n      swap2\n      swap1\n      tag_14\n      jump\t// in\n    tag_13:\n      mload(0x40)\n      dup1\n      swap2\n      sub\n      swap1\n      return\n        /* \"advanced/Enums.sol\":1278:1683  function getShirtPrice(Size size, Color color)... */\n    tag_4:\n      callvalue\n      dup1\n      iszero\n      tag_15\n      jumpi\n      0x00\n      dup1\n      revert\n    tag_15:\n      pop\n      tag_16\n      0x04\n      dup1\n      calldatasize\n      sub\n      dup2\n      add\n      swap1\n      tag_17\n      swap2\n      swap1\n      tag_7\n      jump\t// in\n    tag_17:\n      tag_18\n      jump\t// in\n    tag_16:\n      mload(0x40)\n      tag_19\n      swap2\n      swap1\n      tag_14\n      jump\t// in\n    tag_19:\n      mload(0x40)\n      dup1\n      swap2\n      sub\n      swap1\n      return\n        /* \"advanced/Enums.sol\":1890:2070  function buyShirt(Size size, Color color) public payable correctAmount(size, color) {... */\n    tag_8:\n        /* \"advanced/Enums.sol\":1961:1965  size */\n      dup2\n        /* \"advanced/Enums.sol\":1967:1972  color */\n      dup2\n        /* \"advanced/Enums.sol\":980:989  msg.value */\n      callvalue\n        /* \"advanced/Enums.sol\":950:976  getShirtPrice(size, color) */\n      tag_21\n        /* \"advanced/Enums.sol\":964:968  size */\n      dup4\n        /* \"advanced/Enums.sol\":970:975  color */\n      dup4\n        /* \"advanced/Enums.sol\":950:963  getShirtPrice */\n      tag_18\n        /* \"advanced/Enums.sol\":950:976  getShirtPrice(size, color) */\n      jump\t// in\n    tag_21:\n        /* \"advanced/Enums.sol\":950:989  getShirtPrice(size, color) == msg.value */\n      eq\n        /* \"advanced/Enums.sol\":929:1036  require(... */\n      tag_22\n      jumpi\n      mload(0x40)\n      0x08c379a000000000000000000000000000000000000000000000000000000000\n      dup2\n      mstore\n      0x04\n      add\n      tag_23\n      swap1\n      tag_24\n      jump\t// in\n    tag_23:\n      mload(0x40)\n      dup1\n      swap2\n      sub\n      swap1\n      revert\n    tag_22:\n        /* \"advanced/Enums.sol\":1984:2002  Shirt memory shirt */\n      0x00\n        /* \"advanced/Enums.sol\":2005:2023  Shirt(size, color) */\n      mload(0x40)\n      dup1\n      0x40\n      add\n      0x40\n      mstore\n      dup1\n        /* \"advanced/Enums.sol\":2011:2015  size */\n      dup7\n        /* \"advanced/Enums.sol\":2005:2023  Shirt(size, color) */\n      0x02\n      dup2\n      gt\n      iszero\n      tag_26\n      jumpi\n      tag_27\n      tag_28\n      jump\t// in\n    tag_27:\n    tag_26:\n      dup2\n      mstore\n      0x20\n      add\n        /* \"advanced/Enums.sol\":2017:2022  color */\n      dup6\n        /* \"advanced/Enums.sol\":2005:2023  Shirt(size, color) */\n      0x02\n      dup2\n      gt\n      iszero\n      tag_29\n      jumpi\n      tag_30\n      tag_28\n      jump\t// in\n    tag_30:\n    tag_29:\n      dup2\n      mstore\n      pop\n        /* \"advanced/Enums.sol\":1984:2023  Shirt memory shirt = Shirt(size, color) */\n      swap1\n      pop\n        /* \"advanced/Enums.sol\":2033:2039  shirts */\n      0x00\n        /* \"advanced/Enums.sol\":2033:2051  shirts[msg.sender] */\n      dup1\n        /* \"advanced/Enums.sol\":2040:2050  msg.sender */\n      caller\n        /* \"advanced/Enums.sol\":2033:2051  shirts[msg.sender] */\n      0xffffffffffffffffffffffffffffffffffffffff\n      and\n      0xffffffffffffffffffffffffffffffffffffffff\n      and\n      dup2\n      mstore\n      0x20\n      add\n      swap1\n      dup2\n      mstore\n      0x20\n      add\n      0x00\n      keccak256\n        /* \"advanced/Enums.sol\":2057:2062  shirt */\n      dup2\n        /* \"advanced/Enums.sol\":2033:2063  shirts[msg.sender].push(shirt) */\n      swap1\n      dup1\n      0x01\n      dup2\n      sload\n      add\n      dup1\n      dup3\n      sstore\n      dup1\n      swap2\n      pop\n      pop\n      0x01\n      swap1\n      sub\n      swap1\n      0x00\n      mstore\n      keccak256(0x00, 0x20)\n      add\n      0x00\n      swap1\n      swap2\n      swap1\n      swap2\n      swap1\n      swap2\n      pop\n      0x00\n      dup3\n      add\n      mload\n      dup2\n      0x00\n      add\n      exp(0x0100, 0x00)\n      dup2\n      sload\n      dup2\n      0xff\n      mul\n      not\n      and\n      swap1\n      dup4\n      0x02\n      dup2\n      gt\n      iszero\n      tag_32\n      jumpi\n      tag_33\n      tag_28\n      jump\t// in\n    tag_33:\n    tag_32:\n      mul\n      or\n      swap1\n      sstore\n      pop\n      0x20\n      dup3\n      add\n      mload\n      dup2\n      0x00\n      add\n      exp(0x0100, 0x01)\n      dup2\n      sload\n      dup2\n      0xff\n      mul\n      not\n      and\n      swap1\n      dup4\n      0x02\n      dup2\n      gt\n      iszero\n      tag_34\n      jumpi\n      tag_35\n      tag_28\n      jump\t// in\n    tag_35:\n    tag_34:\n      mul\n      or\n      swap1\n      sstore\n      pop\n      pop\n      pop\n        /* \"advanced/Enums.sol\":1974:2070  {... */\n      pop\n        /* \"advanced/Enums.sol\":1890:2070  function buyShirt(Size size, Color color) public payable correctAmount(size, color) {... */\n      pop\n      pop\n      pop\n      pop\n      jump\t// out\n        /* \"advanced/Enums.sol\":2357:2747  function getShirts(Size size, Color color) public view returns (uint256) {... */\n    tag_12:\n        /* \"advanced/Enums.sol\":2421:2428  uint256 */\n      0x00\n        /* \"advanced/Enums.sol\":2440:2453  uint256 count */\n      dup1\n        /* \"advanced/Enums.sol\":2468:2479  uint256 idx */\n      0x00\n        /* \"advanced/Enums.sol\":2463:2719  for (uint256 idx = 0; idx < shirts[msg.sender].length; idx++) {... */\n    tag_37:\n        /* \"advanced/Enums.sol\":2491:2497  shirts */\n      0x00\n        /* \"advanced/Enums.sol\":2491:2509  shirts[msg.sender] */\n      dup1\n        /* \"advanced/Enums.sol\":2498:2508  msg.sender */\n      caller\n        /* \"advanced/Enums.sol\":2491:2509  shirts[msg.sender] */\n      0xffffffffffffffffffffffffffffffffffffffff\n      and\n      0xffffffffffffffffffffffffffffffffffffffff\n      and\n      dup2\n      mstore\n      0x20\n      add\n      swap1\n      dup2\n      mstore\n      0x20\n      add\n      0x00\n      keccak256\n        /* \"advanced/Enums.sol\":2491:2516  shirts[msg.sender].length */\n      dup1\n      sload\n      swap1\n      pop\n        /* \"advanced/Enums.sol\":2485:2488  idx */\n      dup2\n        /* \"advanced/Enums.sol\":2485:2516  idx < shirts[msg.sender].length */\n      lt\n        /* \"advanced/Enums.sol\":2463:2719  for (uint256 idx = 0; idx < shirts[msg.sender].length; idx++) {... */\n      iszero\n      tag_38\n      jumpi\n        /* \"advanced/Enums.sol\":2592:2596  size */\n      dup5\n        /* \"advanced/Enums.sol\":2560:2596  shirts[msg.sender][idx].size == size */\n      0x02\n      dup2\n      gt\n      iszero\n      tag_40\n      jumpi\n      tag_41\n      tag_28\n      jump\t// in\n    tag_41:\n    tag_40:\n        /* \"advanced/Enums.sol\":2560:2566  shirts */\n      0x00\n        /* \"advanced/Enums.sol\":2560:2578  shirts[msg.sender] */\n      dup1\n        /* \"advanced/Enums.sol\":2567:2577  msg.sender */\n      caller\n        /* \"advanced/Enums.sol\":2560:2578  shirts[msg.sender] */\n      0xffffffffffffffffffffffffffffffffffffffff\n      and\n      0xffffffffffffffffffffffffffffffffffffffff\n      and\n      dup2\n      mstore\n      0x20\n      add\n      swap1\n      dup2\n      mstore\n      0x20\n      add\n      0x00\n      keccak256\n        /* \"advanced/Enums.sol\":2579:2582  idx */\n      dup3\n        /* \"advanced/Enums.sol\":2560:2583  shirts[msg.sender][idx] */\n      dup2\n      sload\n      dup2\n      lt\n      tag_42\n      jumpi\n      tag_43\n      tag_44\n      jump\t// in\n    tag_43:\n    tag_42:\n      swap1\n      0x00\n      mstore\n      keccak256(0x00, 0x20)\n      add\n        /* \"advanced/Enums.sol\":2560:2588  shirts[msg.sender][idx].size */\n      0x00\n      add\n      0x00\n      swap1\n      sload\n      swap1\n      0x0100\n      exp\n      swap1\n      div\n      0xff\n      and\n        /* \"advanced/Enums.sol\":2560:2596  shirts[msg.sender][idx].size == size */\n      0x02\n      dup2\n      gt\n      iszero\n      tag_46\n      jumpi\n      tag_47\n      tag_28\n      jump\t// in\n    tag_47:\n    tag_46:\n      eq\n        /* \"advanced/Enums.sol\":2560:2654  shirts[msg.sender][idx].size == size &&... */\n      dup1\n      iszero\n      tag_48\n      jumpi\n      pop\n        /* \"advanced/Enums.sol\":2649:2654  color */\n      dup4\n        /* \"advanced/Enums.sol\":2616:2654  shirts[msg.sender][idx].color == color */\n      0x02\n      dup2\n      gt\n      iszero\n      tag_49\n      jumpi\n      tag_50\n      tag_28\n      jump\t// in\n    tag_50:\n    tag_49:\n        /* \"advanced/Enums.sol\":2616:2622  shirts */\n      0x00\n        /* \"advanced/Enums.sol\":2616:2634  shirts[msg.sender] */\n      dup1\n        /* \"advanced/Enums.sol\":2623:2633  msg.sender */\n      caller\n        /* \"advanced/Enums.sol\":2616:2634  shirts[msg.sender] */\n      0xffffffffffffffffffffffffffffffffffffffff\n      and\n      0xffffffffffffffffffffffffffffffffffffffff\n      and\n      dup2\n      mstore\n      0x20\n      add\n      swap1\n      dup2\n      mstore\n      0x20\n      add\n      0x00\n      keccak256\n        /* \"advanced/Enums.sol\":2635:2638  idx */\n      dup3\n        /* \"advanced/Enums.sol\":2616:2639  shirts[msg.sender][idx] */\n      dup2\n      sload\n      dup2\n      lt\n      tag_51\n      jumpi\n      tag_52\n      tag_44\n      jump\t// in\n    tag_52:\n    tag_51:\n      swap1\n      0x00\n      mstore\n      keccak256(0x00, 0x20)\n      add\n        /* \"advanced/Enums.sol\":2616:2645  shirts[msg.sender][idx].color */\n      0x00\n      add\n      0x01\n      swap1\n      sload\n      swap1\n      0x0100\n      exp\n      swap1\n      div\n      0xff\n      and\n        /* \"advanced/Enums.sol\":2616:2654  shirts[msg.sender][idx].color == color */\n      0x02\n      dup2\n      gt\n      iszero\n      tag_54\n      jumpi\n      tag_55\n      tag_28\n      jump\t// in\n    tag_55:\n    tag_54:\n      eq\n        /* \"advanced/Enums.sol\":2560:2654  shirts[msg.sender][idx].size == size &&... */\n    tag_48:\n        /* \"advanced/Enums.sol\":2539:2709  if (... */\n      iszero\n      tag_56\n      jumpi\n        /* \"advanced/Enums.sol\":2687:2694  count++ */\n      dup2\n      dup1\n      tag_57\n      swap1\n      tag_58\n      jump\t// in\n    tag_57:\n      swap3\n      pop\n      pop\n        /* \"advanced/Enums.sol\":2539:2709  if (... */\n    tag_56:\n        /* \"advanced/Enums.sol\":2518:2523  idx++ */\n      dup1\n      dup1\n      0x01\n      add\n      swap2\n      pop\n      pop\n        /* \"advanced/Enums.sol\":2463:2719  for (uint256 idx = 0; idx < shirts[msg.sender].length; idx++) {... */\n      jump(tag_37)\n    tag_38:\n      pop\n        /* \"advanced/Enums.sol\":2735:2740  count */\n      dup1\n        /* \"advanced/Enums.sol\":2728:2740  return count */\n      swap2\n      pop\n      pop\n        /* \"advanced/Enums.sol\":2357:2747  function getShirts(Size size, Color color) public view returns (uint256) {... */\n      swap3\n      swap2\n      pop\n      pop\n      jump\t// out\n        /* \"advanced/Enums.sol\":1278:1683  function getShirtPrice(Size size, Color color)... */\n    tag_18:\n        /* \"advanced/Enums.sol\":1370:1377  uint256 */\n      0x00\n        /* \"advanced/Enums.sol\":1393:1406  uint256 price */\n      dup1\n        /* \"advanced/Enums.sol\":1428:1438  Size.Small */\n      0x00\n        /* \"advanced/Enums.sol\":1420:1438  size == Size.Small */\n      0x02\n      dup2\n      gt\n      iszero\n      tag_60\n      jumpi\n      tag_61\n      tag_28\n      jump\t// in\n    tag_61:\n    tag_60:\n        /* \"advanced/Enums.sol\":1420:1424  size */\n      dup5\n        /* \"advanced/Enums.sol\":1420:1438  size == Size.Small */\n      0x02\n      dup2\n      gt\n      iszero\n      tag_62\n      jumpi\n      tag_63\n      tag_28\n      jump\t// in\n    tag_63:\n    tag_62:\n      sub\n        /* \"advanced/Enums.sol\":1416:1585  if (size == Size.Small) {... */\n      tag_64\n      jumpi\n        /* \"advanced/Enums.sol\":1463:1465  10 */\n      0x0a\n        /* \"advanced/Enums.sol\":1454:1465  price += 10 */\n      dup2\n      tag_65\n      swap2\n      swap1\n      tag_66\n      jump\t// in\n    tag_65:\n      swap1\n      pop\n        /* \"advanced/Enums.sol\":1416:1585  if (size == Size.Small) {... */\n      jump(tag_67)\n    tag_64:\n        /* \"advanced/Enums.sol\":1494:1505  Size.Medium */\n      0x01\n        /* \"advanced/Enums.sol\":1486:1505  size == Size.Medium */\n      0x02\n      dup2\n      gt\n      iszero\n      tag_68\n      jumpi\n      tag_69\n      tag_28\n      jump\t// in\n    tag_69:\n    tag_68:\n        /* \"advanced/Enums.sol\":1486:1490  size */\n      dup5\n        /* \"advanced/Enums.sol\":1486:1505  size == Size.Medium */\n      0x02\n      dup2\n      gt\n      iszero\n      tag_70\n      jumpi\n      tag_71\n      tag_28\n      jump\t// in\n    tag_71:\n    tag_70:\n      sub\n        /* \"advanced/Enums.sol\":1482:1585  if (size == Size.Medium) {... */\n      tag_72\n      jumpi\n        /* \"advanced/Enums.sol\":1530:1532  15 */\n      0x0f\n        /* \"advanced/Enums.sol\":1521:1532  price += 15 */\n      dup2\n      tag_73\n      swap2\n      swap1\n      tag_66\n      jump\t// in\n    tag_73:\n      swap1\n      pop\n        /* \"advanced/Enums.sol\":1482:1585  if (size == Size.Medium) {... */\n      jump(tag_74)\n    tag_72:\n        /* \"advanced/Enums.sol\":1572:1574  20 */\n      0x14\n        /* \"advanced/Enums.sol\":1563:1574  price += 20 */\n      dup2\n      tag_75\n      swap2\n      swap1\n      tag_66\n      jump\t// in\n    tag_75:\n      swap1\n      pop\n        /* \"advanced/Enums.sol\":1482:1585  if (size == Size.Medium) {... */\n    tag_74:\n        /* \"advanced/Enums.sol\":1416:1585  if (size == Size.Small) {... */\n    tag_67:\n        /* \"advanced/Enums.sol\":1608:1617  Color.Red */\n      0x00\n        /* \"advanced/Enums.sol\":1599:1617  color != Color.Red */\n      0x02\n      dup2\n      gt\n      iszero\n      tag_76\n      jumpi\n      tag_77\n      tag_28\n      jump\t// in\n    tag_77:\n    tag_76:\n        /* \"advanced/Enums.sol\":1599:1604  color */\n      dup4\n        /* \"advanced/Enums.sol\":1599:1617  color != Color.Red */\n      0x02\n      dup2\n      gt\n      iszero\n      tag_78\n      jumpi\n      tag_79\n      tag_28\n      jump\t// in\n    tag_79:\n    tag_78:\n      eq\n        /* \"advanced/Enums.sol\":1595:1654  if (color != Color.Red) {... */\n      tag_80\n      jumpi\n        /* \"advanced/Enums.sol\":1642:1643  5 */\n      0x05\n        /* \"advanced/Enums.sol\":1633:1643  price += 5 */\n      dup2\n      tag_81\n      swap2\n      swap1\n      tag_66\n      jump\t// in\n    tag_81:\n      swap1\n      pop\n        /* \"advanced/Enums.sol\":1595:1654  if (color != Color.Red) {... */\n    tag_80:\n        /* \"advanced/Enums.sol\":1671:1676  price */\n      dup1\n        /* \"advanced/Enums.sol\":1664:1676  return price */\n      swap2\n      pop\n      pop\n        /* \"advanced/Enums.sol\":1278:1683  function getShirtPrice(Size size, Color color)... */\n      swap3\n      swap2\n      pop\n      pop\n      jump\t// out\n        /* \"#utility.yul\":88:205   */\n    tag_83:\n        /* \"#utility.yul\":197:198   */\n      0x00\n        /* \"#utility.yul\":194:195   */\n      dup1\n        /* \"#utility.yul\":187:199   */\n      revert\n        /* \"#utility.yul\":334:439   */\n    tag_85:\n        /* \"#utility.yul\":413:414   */\n      0x03\n        /* \"#utility.yul\":406:411   */\n      dup2\n        /* \"#utility.yul\":403:415   */\n      lt\n        /* \"#utility.yul\":393:433   */\n      tag_100\n      jumpi\n        /* \"#utility.yul\":429:430   */\n      0x00\n        /* \"#utility.yul\":426:427   */\n      dup1\n        /* \"#utility.yul\":419:431   */\n      revert\n        /* \"#utility.yul\":393:433   */\n    tag_100:\n        /* \"#utility.yul\":334:439   */\n      pop\n      jump\t// out\n        /* \"#utility.yul\":445:596   */\n    tag_86:\n        /* \"#utility.yul\":497:502   */\n      0x00\n        /* \"#utility.yul\":535:541   */\n      dup2\n        /* \"#utility.yul\":522:542   */\n      calldataload\n        /* \"#utility.yul\":513:542   */\n      swap1\n      pop\n        /* \"#utility.yul\":551:590   */\n      tag_102\n        /* \"#utility.yul\":584:589   */\n      dup2\n        /* \"#utility.yul\":551:590   */\n      tag_85\n      jump\t// in\n    tag_102:\n        /* \"#utility.yul\":445:596   */\n      swap3\n      swap2\n      pop\n      pop\n      jump\t// out\n        /* \"#utility.yul\":602:709   */\n    tag_87:\n        /* \"#utility.yul\":683:684   */\n      0x03\n        /* \"#utility.yul\":676:681   */\n      dup2\n        /* \"#utility.yul\":673:685   */\n      lt\n        /* \"#utility.yul\":663:703   */\n      tag_104\n      jumpi\n        /* \"#utility.yul\":699:700   */\n      0x00\n        /* \"#utility.yul\":696:697   */\n      dup1\n        /* \"#utility.yul\":689:701   */\n      revert\n        /* \"#utility.yul\":663:703   */\n    tag_104:\n        /* \"#utility.yul\":602:709   */\n      pop\n      jump\t// out\n        /* \"#utility.yul\":715:870   */\n    tag_88:\n        /* \"#utility.yul\":769:774   */\n      0x00\n        /* \"#utility.yul\":807:813   */\n      dup2\n        /* \"#utility.yul\":794:814   */\n      calldataload\n        /* \"#utility.yul\":785:814   */\n      swap1\n      pop\n        /* \"#utility.yul\":823:864   */\n      tag_106\n        /* \"#utility.yul\":858:863   */\n      dup2\n        /* \"#utility.yul\":823:864   */\n      tag_87\n      jump\t// in\n    tag_106:\n        /* \"#utility.yul\":715:870   */\n      swap3\n      swap2\n      pop\n      pop\n      jump\t// out\n        /* \"#utility.yul\":876:1378   */\n    tag_7:\n        /* \"#utility.yul\":958:964   */\n      0x00\n        /* \"#utility.yul\":966:972   */\n      dup1\n        /* \"#utility.yul\":1015:1017   */\n      0x40\n        /* \"#utility.yul\":1003:1012   */\n      dup4\n        /* \"#utility.yul\":994:1001   */\n      dup6\n        /* \"#utility.yul\":990:1013   */\n      sub\n        /* \"#utility.yul\":986:1018   */\n      slt\n        /* \"#utility.yul\":983:1102   */\n      iszero\n      tag_108\n      jumpi\n        /* \"#utility.yul\":1021:1100   */\n      tag_109\n      tag_83\n      jump\t// in\n    tag_109:\n        /* \"#utility.yul\":983:1102   */\n    tag_108:\n        /* \"#utility.yul\":1141:1142   */\n      0x00\n        /* \"#utility.yul\":1166:1225   */\n      tag_110\n        /* \"#utility.yul\":1217:1224   */\n      dup6\n        /* \"#utility.yul\":1208:1214   */\n      dup3\n        /* \"#utility.yul\":1197:1206   */\n      dup7\n        /* \"#utility.yul\":1193:1215   */\n      add\n        /* \"#utility.yul\":1166:1225   */\n      tag_86\n      jump\t// in\n    tag_110:\n        /* \"#utility.yul\":1156:1225   */\n      swap3\n      pop\n        /* \"#utility.yul\":1112:1235   */\n      pop\n        /* \"#utility.yul\":1274:1276   */\n      0x20\n        /* \"#utility.yul\":1300:1361   */\n      tag_111\n        /* \"#utility.yul\":1353:1360   */\n      dup6\n        /* \"#utility.yul\":1344:1350   */\n      dup3\n        /* \"#utility.yul\":1333:1342   */\n      dup7\n        /* \"#utility.yul\":1329:1351   */\n      add\n        /* \"#utility.yul\":1300:1361   */\n      tag_88\n      jump\t// in\n    tag_111:\n        /* \"#utility.yul\":1290:1361   */\n      swap2\n      pop\n        /* \"#utility.yul\":1245:1371   */\n      pop\n        /* \"#utility.yul\":876:1378   */\n      swap3\n      pop\n      swap3\n      swap1\n      pop\n      jump\t// out\n        /* \"#utility.yul\":1384:1461   */\n    tag_89:\n        /* \"#utility.yul\":1421:1428   */\n      0x00\n        /* \"#utility.yul\":1450:1455   */\n      dup2\n        /* \"#utility.yul\":1439:1455   */\n      swap1\n      pop\n        /* \"#utility.yul\":1384:1461   */\n      swap2\n      swap1\n      pop\n      jump\t// out\n        /* \"#utility.yul\":1467:1585   */\n    tag_90:\n        /* \"#utility.yul\":1554:1578   */\n      tag_114\n        /* \"#utility.yul\":1572:1577   */\n      dup2\n        /* \"#utility.yul\":1554:1578   */\n      tag_89\n      jump\t// in\n    tag_114:\n        /* \"#utility.yul\":1549:1552   */\n      dup3\n        /* \"#utility.yul\":1542:1579   */\n      mstore\n        /* \"#utility.yul\":1467:1585   */\n      pop\n      pop\n      jump\t// out\n        /* \"#utility.yul\":1591:1813   */\n    tag_14:\n        /* \"#utility.yul\":1684:1688   */\n      0x00\n        /* \"#utility.yul\":1722:1724   */\n      0x20\n        /* \"#utility.yul\":1711:1720   */\n      dup3\n        /* \"#utility.yul\":1707:1725   */\n      add\n        /* \"#utility.yul\":1699:1725   */\n      swap1\n      pop\n        /* \"#utility.yul\":1735:1806   */\n      tag_116\n        /* \"#utility.yul\":1803:1804   */\n      0x00\n        /* \"#utility.yul\":1792:1801   */\n      dup4\n        /* \"#utility.yul\":1788:1805   */\n      add\n        /* \"#utility.yul\":1779:1785   */\n      dup5\n        /* \"#utility.yul\":1735:1806   */\n      tag_90\n      jump\t// in\n    tag_116:\n        /* \"#utility.yul\":1591:1813   */\n      swap3\n      swap2\n      pop\n      pop\n      jump\t// out\n        /* \"#utility.yul\":1819:1988   */\n    tag_91:\n        /* \"#utility.yul\":1903:1914   */\n      0x00\n        /* \"#utility.yul\":1937:1943   */\n      dup3\n        /* \"#utility.yul\":1932:1935   */\n      dup3\n        /* \"#utility.yul\":1925:1944   */\n      mstore\n        /* \"#utility.yul\":1977:1981   */\n      0x20\n        /* \"#utility.yul\":1972:1975   */\n      dup3\n        /* \"#utility.yul\":1968:1982   */\n      add\n        /* \"#utility.yul\":1953:1982   */\n      swap1\n      pop\n        /* \"#utility.yul\":1819:1988   */\n      swap3\n      swap2\n      pop\n      pop\n      jump\t// out\n        /* \"#utility.yul\":1994:2165   */\n    tag_92:\n        /* \"#utility.yul\":2134:2157   */\n      0x496e636f727265637420616d6f756e742073656e740000000000000000000000\n        /* \"#utility.yul\":2130:2131   */\n      0x00\n        /* \"#utility.yul\":2122:2128   */\n      dup3\n        /* \"#utility.yul\":2118:2132   */\n      add\n        /* \"#utility.yul\":2111:2158   */\n      mstore\n        /* \"#utility.yul\":1994:2165   */\n      pop\n      jump\t// out\n        /* \"#utility.yul\":2171:2537   */\n    tag_93:\n        /* \"#utility.yul\":2313:2316   */\n      0x00\n        /* \"#utility.yul\":2334:2401   */\n      tag_120\n        /* \"#utility.yul\":2398:2400   */\n      0x15\n        /* \"#utility.yul\":2393:2396   */\n      dup4\n        /* \"#utility.yul\":2334:2401   */\n      tag_91\n      jump\t// in\n    tag_120:\n        /* \"#utility.yul\":2327:2401   */\n      swap2\n      pop\n        /* \"#utility.yul\":2410:2503   */\n      tag_121\n        /* \"#utility.yul\":2499:2502   */\n      dup3\n        /* \"#utility.yul\":2410:2503   */\n      tag_92\n      jump\t// in\n    tag_121:\n        /* \"#utility.yul\":2528:2530   */\n      0x20\n        /* \"#utility.yul\":2523:2526   */\n      dup3\n        /* \"#utility.yul\":2519:2531   */\n      add\n        /* \"#utility.yul\":2512:2531   */\n      swap1\n      pop\n        /* \"#utility.yul\":2171:2537   */\n      swap2\n      swap1\n      pop\n      jump\t// out\n        /* \"#utility.yul\":2543:2962   */\n    tag_24:\n        /* \"#utility.yul\":2709:2713   */\n      0x00\n        /* \"#utility.yul\":2747:2749   */\n      0x20\n        /* \"#utility.yul\":2736:2745   */\n      dup3\n        /* \"#utility.yul\":2732:2750   */\n      add\n        /* \"#utility.yul\":2724:2750   */\n      swap1\n      pop\n        /* \"#utility.yul\":2796:2805   */\n      dup2\n        /* \"#utility.yul\":2790:2794   */\n      dup2\n        /* \"#utility.yul\":2786:2806   */\n      sub\n        /* \"#utility.yul\":2782:2783   */\n      0x00\n        /* \"#utility.yul\":2771:2780   */\n      dup4\n        /* \"#utility.yul\":2767:2784   */\n      add\n        /* \"#utility.yul\":2760:2807   */\n      mstore\n        /* \"#utility.yul\":2824:2955   */\n      tag_123\n        /* \"#utility.yul\":2950:2954   */\n      dup2\n        /* \"#utility.yul\":2824:2955   */\n      tag_93\n      jump\t// in\n    tag_123:\n        /* \"#utility.yul\":2816:2955   */\n      swap1\n      pop\n        /* \"#utility.yul\":2543:2962   */\n      swap2\n      swap1\n      pop\n      jump\t// out\n        /* \"#utility.yul\":2968:3148   */\n    tag_28:\n        /* \"#utility.yul\":3016:3093   */\n      0x4e487b7100000000000000000000000000000000000000000000000000000000\n        /* \"#utility.yul\":3013:3014   */\n      0x00\n        /* \"#utility.yul\":3006:3094   */\n      mstore\n        /* \"#utility.yul\":3113:3117   */\n      0x21\n        /* \"#utility.yul\":3110:3111   */\n      0x04\n        /* \"#utility.yul\":3103:3118   */\n      mstore\n        /* \"#utility.yul\":3137:3141   */\n      0x24\n        /* \"#utility.yul\":3134:3135   */\n      0x00\n        /* \"#utility.yul\":3127:3142   */\n      revert\n        /* \"#utility.yul\":3154:3334   */\n    tag_44:\n        /* \"#utility.yul\":3202:3279   */\n      0x4e487b7100000000000000000000000000000000000000000000000000000000\n        /* \"#utility.yul\":3199:3200   */\n      0x00\n        /* \"#utility.yul\":3192:3280   */\n      mstore\n        /* \"#utility.yul\":3299:3303   */\n      0x32\n        /* \"#utility.yul\":3296:3297   */\n      0x04\n        /* \"#utility.yul\":3289:3304   */\n      mstore\n        /* \"#utility.yul\":3323:3327   */\n      0x24\n        /* \"#utility.yul\":3320:3321   */\n      0x00\n        /* \"#utility.yul\":3313:3328   */\n      revert\n        /* \"#utility.yul\":3340:3520   */\n    tag_94:\n        /* \"#utility.yul\":3388:3465   */\n      0x4e487b7100000000000000000000000000000000000000000000000000000000\n        /* \"#utility.yul\":3385:3386   */\n      0x00\n        /* \"#utility.yul\":3378:3466   */\n      mstore\n        /* \"#utility.yul\":3485:3489   */\n      0x11\n        /* \"#utility.yul\":3482:3483   */\n      0x04\n        /* \"#utility.yul\":3475:3490   */\n      mstore\n        /* \"#utility.yul\":3509:3513   */\n      0x24\n        /* \"#utility.yul\":3506:3507   */\n      0x00\n        /* \"#utility.yul\":3499:3514   */\n      revert\n        /* \"#utility.yul\":3526:3759   */\n    tag_58:\n        /* \"#utility.yul\":3565:3568   */\n      0x00\n        /* \"#utility.yul\":3588:3612   */\n      tag_128\n        /* \"#utility.yul\":3606:3611   */\n      dup3\n        /* \"#utility.yul\":3588:3612   */\n      tag_89\n      jump\t// in\n    tag_128:\n        /* \"#utility.yul\":3579:3612   */\n      swap2\n      pop\n        /* \"#utility.yul\":3634:3700   */\n      0xffffffffffffffffffffffffffffffffffffffffffffffffffffffffffffffff\n        /* \"#utility.yul\":3627:3632   */\n      dup3\n        /* \"#utility.yul\":3624:3701   */\n      sub\n        /* \"#utility.yul\":3621:3724   */\n      tag_129\n      jumpi\n        /* \"#utility.yul\":3704:3722   */\n      tag_130\n      tag_94\n      jump\t// in\n    tag_130:\n        /* \"#utility.yul\":3621:3724   */\n    tag_129:\n        /* \"#utility.yul\":3751:3752   */\n      0x01\n        /* \"#utility.yul\":3744:3749   */\n      dup3\n        /* \"#utility.yul\":3740:3753   */\n      add\n        /* \"#utility.yul\":3733:3753   */\n      swap1\n      pop\n        /* \"#utility.yul\":3526:3759   */\n      swap2\n      swap1\n      pop\n      jump\t// out\n        /* \"#utility.yul\":3765:3956   */\n    tag_66:\n        /* \"#utility.yul\":3805:3808   */\n      0x00\n        /* \"#utility.yul\":3824:3844   */\n      tag_132\n        /* \"#utility.yul\":3842:3843   */\n      dup3\n        /* \"#utility.yul\":3824:3844   */\n      tag_89\n      jump\t// in\n    tag_132:\n        /* \"#utility.yul\":3819:3844   */\n      swap2\n      pop\n        /* \"#utility.yul\":3858:3878   */\n      tag_133\n        /* \"#utility.yul\":3876:3877   */\n      dup4\n        /* \"#utility.yul\":3858:3878   */\n      tag_89\n      jump\t// in\n    tag_133:\n        /* \"#utility.yul\":3853:3878   */\n      swap3\n      pop\n        /* \"#utility.yul\":3901:3902   */\n      dup3\n        /* \"#utility.yul\":3898:3899   */\n      dup3\n        /* \"#utility.yul\":3894:3903   */\n      add\n        /* \"#utility.yul\":3887:3903   */\n      swap1\n      pop\n        /* \"#utility.yul\":3922:3925   */\n      dup1\n        /* \"#utility.yul\":3919:3920   */\n      dup3\n        /* \"#utility.yul\":3916:3926   */\n      gt\n        /* \"#utility.yul\":3913:3949   */\n      iszero\n      tag_134\n      jumpi\n        /* \"#utility.yul\":3929:3947   */\n      tag_135\n      tag_94\n      jump\t// in\n    tag_135:\n        /* \"#utility.yul\":3913:3949   */\n    tag_134:\n        /* \"#utility.yul\":3765:3956   */\n      swap3\n      swap2\n      pop\n      pop\n      jump\t// out\n\n    auxdata: 0xa264697066735822122055d8479999225ce8410a1fcfaf5f8d1256ec469e7613d53248da539aba04268164736f6c634300081a0033\n}\n",
				"bytecode": {
					"linkReferences": {},
					"object": "6080604052348015600e575f80fd5b506106ed8061001c5f395ff3fe608060405260043610610033575f3560e01c80636aa283a51461003757806371cc64b414610053578063b97461d31461008f575b5f80fd5b610051600480360381019061004c91906104cf565b6100cb565b005b34801561005e575f80fd5b50610079600480360381019061007491906104cf565b610218565b6040516100869190610525565b60405180910390f35b34801561009a575f80fd5b506100b560048036038101906100b091906104cf565b6103ae565b6040516100c29190610525565b60405180910390f35b8181346100d883836103ae565b14610118576040517f08c379a000000000000000000000000000000000000000000000000000000000815260040161010f90610598565b60405180910390fd5b5f6040518060400160405280866002811115610137576101366105b6565b5b815260200185600281111561014f5761014e6105b6565b5b81525090505f803373ffffffffffffffffffffffffffffffffffffffff1673ffffffffffffffffffffffffffffffffffffffff1681526020019081526020015f2081908060018154018082558091505060019003905f5260205f20015f909190919091505f820151815f015f6101000a81548160ff021916908360028111156101db576101da6105b6565b5b02179055506020820151815f0160016101000a81548160ff0219169083600281111561020a576102096105b6565b5b021790555050505050505050565b5f805f5b5f803373ffffffffffffffffffffffffffffffffffffffff1673ffffffffffffffffffffffffffffffffffffffff1681526020019081526020015f20805490508110156103a357846002811115610276576102756105b6565b5b5f803373ffffffffffffffffffffffffffffffffffffffff1673ffffffffffffffffffffffffffffffffffffffff1681526020019081526020015f2082815481106102c4576102c36105e3565b5b905f5260205f20015f015f9054906101000a900460ff1660028111156102ed576102ec6105b6565b5b1480156103825750836002811115610308576103076105b6565b5b5f803373ffffffffffffffffffffffffffffffffffffffff1673ffffffffffffffffffffffffffffffffffffffff1681526020019081526020015f208281548110610356576103556105e3565b5b905f5260205f20015f0160019054906101000a900460ff1660028111156103805761037f6105b6565b5b145b156103965781806103929061063d565b9250505b808060010191505061021c565b508091505092915050565b5f805f60028111156103c3576103c26105b6565b5b8460028111156103d6576103d56105b6565b5b036103ef57600a816103e89190610684565b9050610440565b60016002811115610403576104026105b6565b5b846002811115610416576104156105b6565b5b0361042f57600f816104289190610684565b905061043f565b60148161043c9190610684565b90505b5b5f6002811115610453576104526105b6565b5b836002811115610466576104656105b6565b5b1461047b576005816104789190610684565b90505b8091505092915050565b5f80fd5b60038110610495575f80fd5b50565b5f813590506104a681610489565b92915050565b600381106104b8575f80fd5b50565b5f813590506104c9816104ac565b92915050565b5f80604083850312156104e5576104e4610485565b5b5f6104f285828601610498565b9250506020610503858286016104bb565b9150509250929050565b5f819050919050565b61051f8161050d565b82525050565b5f6020820190506105385f830184610516565b92915050565b5f82825260208201905092915050565b7f496e636f727265637420616d6f756e742073656e7400000000000000000000005f82015250565b5f61058260158361053e565b915061058d8261054e565b602082019050919050565b5f6020820190508181035f8301526105af81610576565b9050919050565b7f4e487b71000000000000000000000000000000000000000000000000000000005f52602160045260245ffd5b7f4e487b71000000000000000000000000000000000000000000000000000000005f52603260045260245ffd5b7f4e487b71000000000000000000000000000000000000000000000000000000005f52601160045260245ffd5b5f6106478261050d565b91507fffffffffffffffffffffffffffffffffffffffffffffffffffffffffffffffff820361067957610678610610565b5b600182019050919050565b5f61068e8261050d565b91506106998361050d565b92508282019050808211156106b1576106b0610610565b5b9291505056fea264697066735822122055d8479999225ce8410a1fcfaf5f8d1256ec469e7613d53248da539aba04268164736f6c634300081a0033",
					"opcodes": "PUSH1 0x80 PUSH1 0x40 MSTORE CALLVALUE DUP1 ISZERO PUSH1 0xE JUMPI PUSH0 DUP1 REVERT JUMPDEST POP PUSH2 0x6ED DUP1 PUSH2 0x1C PUSH0 CODECOPY PUSH0 RETURN INVALID PUSH1 0x80 PUSH1 0x40 MSTORE PUSH1 0x4 CALLDATASIZE LT PUSH2 0x33 JUMPI PUSH0 CALLDATALOAD PUSH1 0xE0 SHR DUP1 PUSH4 0x6AA283A5 EQ PUSH2 0x37 JUMPI DUP1 PUSH4 0x71CC64B4 EQ PUSH2 0x53 JUMPI DUP1 PUSH4 0xB97461D3 EQ PUSH2 0x8F JUMPI JUMPDEST PUSH0 DUP1 REVERT JUMPDEST PUSH2 0x51 PUSH1 0x4 DUP1 CALLDATASIZE SUB DUP2 ADD SWAP1 PUSH2 0x4C SWAP2 SWAP1 PUSH2 0x4CF JUMP JUMPDEST PUSH2 0xCB JUMP JUMPDEST STOP JUMPDEST CALLVALUE DUP1 ISZERO PUSH2 0x5E JUMPI PUSH0 DUP1 REVERT JUMPDEST POP PUSH2 0x79 PUSH1 0x4 DUP1 CALLDATASIZE SUB DUP2 ADD SWAP1 PUSH2 0x74 SWAP2 SWAP1 PUSH2 0x4CF JUMP JUMPDEST PUSH2 0x218 JUMP JUMPDEST PUSH1 0x40 MLOAD PUSH2 0x86 SWAP2 SWAP1 PUSH2 0x525 JUMP JUMPDEST PUSH1 0x40 MLOAD DUP1 SWAP2 SUB SWAP1 RETURN JUMPDEST CALLVALUE DUP1 ISZERO PUSH2 0x9A JUMPI PUSH0 DUP1 REVERT JUMPDEST POP PUSH2 0xB5 PUSH1 0x4 DUP1 CALLDATASIZE SUB DUP2 ADD SWAP1 PUSH2 0xB0 SWAP2 SWAP1 PUSH2 0x4CF JUMP JUMPDEST PUSH2 0x3AE JUMP JUMPDEST PUSH1 0x40 MLOAD PUSH2 0xC2 SWAP2 SWAP1 PUSH2 0x525 JUMP JUMPDEST PUSH1 0x40 MLOAD DUP1 SWAP2 SUB SWAP1 RETURN JUMPDEST DUP2 DUP2 CALLVALUE PUSH2 0xD8 DUP4 DUP4 PUSH2 0x3AE JUMP JUMPDEST EQ PUSH2 0x118 JUMPI PUSH1 0x40 MLOAD PUSH32 0x8C379A000000000000000000000000000000000000000000000000000000000 DUP2 MSTORE PUSH1 0x4 ADD PUSH2 0x10F SWAP1 PUSH2 0x598 JUMP JUMPDEST PUSH1 0x40 MLOAD DUP1 SWAP2 SUB SWAP1 REVERT JUMPDEST PUSH0 PUSH1 0x40 MLOAD DUP1 PUSH1 0x40 ADD PUSH1 0x40 MSTORE DUP1 DUP7 PUSH1 0x2 DUP2 GT ISZERO PUSH2 0x137 JUMPI PUSH2 0x136 PUSH2 0x5B6 JUMP JUMPDEST JUMPDEST DUP2 MSTORE PUSH1 0x20 ADD DUP6 PUSH1 0x2 DUP2 GT ISZERO PUSH2 0x14F JUMPI PUSH2 0x14E PUSH2 0x5B6 JUMP JUMPDEST JUMPDEST DUP2 MSTORE POP SWAP1 POP PUSH0 DUP1 CALLER PUSH20 0xFFFFFFFFFFFFFFFFFFFFFFFFFFFFFFFFFFFFFFFF AND PUSH20 0xFFFFFFFFFFFFFFFFFFFFFFFFFFFFFFFFFFFFFFFF AND DUP2 MSTORE PUSH1 0x20 ADD SWAP1 DUP2 MSTORE PUSH1 0x20 ADD PUSH0 KECCAK256 DUP2 SWAP1 DUP1 PUSH1 0x1 DUP2 SLOAD ADD DUP1 DUP3 SSTORE DUP1 SWAP2 POP POP PUSH1 0x1 SWAP1 SUB SWAP1 PUSH0 MSTORE PUSH1 0x20 PUSH0 KECCAK256 ADD PUSH0 SWAP1 SWAP2 SWAP1 SWAP2 SWAP1 SWAP2 POP PUSH0 DUP3 ADD MLOAD DUP2 PUSH0 ADD PUSH0 PUSH2 0x100 EXP DUP2 SLOAD DUP2 PUSH1 0xFF MUL NOT AND SWAP1 DUP4 PUSH1 0x2 DUP2 GT ISZERO PUSH2 0x1DB JUMPI PUSH2 0x1DA PUSH2 0x5B6 JUMP JUMPDEST JUMPDEST MUL OR SWAP1 SSTORE POP PUSH1 0x20 DUP3 ADD MLOAD DUP2 PUSH0 ADD PUSH1 0x1 PUSH2 0x100 EXP DUP2 SLOAD DUP2 PUSH1 0xFF MUL NOT AND SWAP1 DUP4 PUSH1 0x2 DUP2 GT ISZERO PUSH2 0x20A JUMPI PUSH2 0x209 PUSH2 0x5B6 JUMP JUMPDEST JUMPDEST MUL OR SWAP1 SSTORE POP POP POP POP POP POP POP POP JUMP JUMPDEST PUSH0 DUP1 PUSH0 JUMPDEST PUSH0 DUP1 CALLER PUSH20 0xFFFFFFFFFFFFFFFFFFFFFFFFFFFFFFFFFFFFFFFF AND PUSH20 0xFFFFFFFFFFFFFFFFFFFFFFFFFFFFFFFFFFFFFFFF AND DUP2 MSTORE PUSH1 0x20 ADD SWAP1 DUP2 MSTORE PUSH1 0x20 ADD PUSH0 KECCAK256 DUP1 SLOAD SWAP1 POP DUP2 LT ISZERO PUSH2 0x3A3 JUMPI DUP5 PUSH1 0x2 DUP2 GT ISZERO PUSH2 0x276 JUMPI PUSH2 0x275 PUSH2 0x5B6 JUMP JUMPDEST JUMPDEST PUSH0 DUP1 CALLER PUSH20 0xFFFFFFFFFFFFFFFFFFFFFFFFFFFFFFFFFFFFFFFF AND PUSH20 0xFFFFFFFFFFFFFFFFFFFFFFFFFFFFFFFFFFFFFFFF AND DUP2 MSTORE PUSH1 0x20 ADD SWAP1 DUP2 MSTORE PUSH1 0x20 ADD PUSH0 KECCAK256 DUP3 DUP2 SLOAD DUP2 LT PUSH2 0x2C4 JUMPI PUSH2 0x2C3 PUSH2 0x5E3 JUMP JUMPDEST JUMPDEST SWAP1 PUSH0 MSTORE PUSH1 0x20 PUSH0 KECCAK256 ADD PUSH0 ADD PUSH0 SWAP1 SLOAD SWAP1 PUSH2 0x100 EXP SWAP1 DIV PUSH1 0xFF AND PUSH1 0x2 DUP2 GT ISZERO PUSH2 0x2ED JUMPI PUSH2 0x2EC PUSH2 0x5B6 JUMP JUMPDEST JUMPDEST EQ DUP1 ISZERO PUSH2 0x382 JUMPI POP DUP4 PUSH1 0x2 DUP2 GT ISZERO PUSH2 0x308 JUMPI PUSH2 0x307 PUSH2 0x5B6 JUMP JUMPDEST JUMPDEST PUSH0 DUP1 CALLER PUSH20 0xFFFFFFFFFFFFFFFFFFFFFFFFFFFFFFFFFFFFFFFF AND PUSH20 0xFFFFFFFFFFFFFFFFFFFFFFFFFFFFFFFFFFFFFFFF AND DUP2 MSTORE PUSH1 0x20 ADD SWAP1 DUP2 MSTORE PUSH1 0x20 ADD PUSH0 KECCAK256 DUP3 DUP2 SLOAD DUP2 LT PUSH2 0x356 JUMPI PUSH2 0x355 PUSH2 0x5E3 JUMP JUMPDEST JUMPDEST SWAP1 PUSH0 MSTORE PUSH1 0x20 PUSH0 KECCAK256 ADD PUSH0 ADD PUSH1 0x1 SWAP1 SLOAD SWAP1 PUSH2 0x100 EXP SWAP1 DIV PUSH1 0xFF AND PUSH1 0x2 DUP2 GT ISZERO PUSH2 0x380 JUMPI PUSH2 0x37F PUSH2 0x5B6 JUMP JUMPDEST JUMPDEST EQ JUMPDEST ISZERO PUSH2 0x396 JUMPI DUP2 DUP1 PUSH2 0x392 SWAP1 PUSH2 0x63D JUMP JUMPDEST SWAP3 POP POP JUMPDEST DUP1 DUP1 PUSH1 0x1 ADD SWAP2 POP POP PUSH2 0x21C JUMP JUMPDEST POP DUP1 SWAP2 POP POP SWAP3 SWAP2 POP POP JUMP JUMPDEST PUSH0 DUP1 PUSH0 PUSH1 0x2 DUP2 GT ISZERO PUSH2 0x3C3 JUMPI PUSH2 0x3C2 PUSH2 0x5B6 JUMP JUMPDEST JUMPDEST DUP5 PUSH1 0x2 DUP2 GT ISZERO PUSH2 0x3D6 JUMPI PUSH2 0x3D5 PUSH2 0x5B6 JUMP JUMPDEST JUMPDEST SUB PUSH2 0x3EF JUMPI PUSH1 0xA DUP2 PUSH2 0x3E8 SWAP2 SWAP1 PUSH2 0x684 JUMP JUMPDEST SWAP1 POP PUSH2 0x440 JUMP JUMPDEST PUSH1 0x1 PUSH1 0x2 DUP2 GT ISZERO PUSH2 0x403 JUMPI PUSH2 0x402 PUSH2 0x5B6 JUMP JUMPDEST JUMPDEST DUP5 PUSH1 0x2 DUP2 GT ISZERO PUSH2 0x416 JUMPI PUSH2 0x415 PUSH2 0x5B6 JUMP JUMPDEST JUMPDEST SUB PUSH2 0x42F JUMPI PUSH1 0xF DUP2 PUSH2 0x428 SWAP2 SWAP1 PUSH2 0x684 JUMP JUMPDEST SWAP1 POP PUSH2 0x43F JUMP JUMPDEST PUSH1 0x14 DUP2 PUSH2 0x43C SWAP2 SWAP1 PUSH2 0x684 JUMP JUMPDEST SWAP1 POP JUMPDEST JUMPDEST PUSH0 PUSH1 0x2 DUP2 GT ISZERO PUSH2 0x453 JUMPI PUSH2 0x452 PUSH2 0x5B6 JUMP JUMPDEST JUMPDEST DUP4 PUSH1 0x2 DUP2 GT ISZERO PUSH2 0x466 JUMPI PUSH2 0x465 PUSH2 0x5B6 JUMP JUMPDEST JUMPDEST EQ PUSH2 0x47B JUMPI PUSH1 0x5 DUP2 PUSH2 0x478 SWAP2 SWAP1 PUSH2 0x684 JUMP JUMPDEST SWAP1 POP JUMPDEST DUP1 SWAP2 POP POP SWAP3 SWAP2 POP POP JUMP JUMPDEST PUSH0 DUP1 REVERT JUMPDEST PUSH1 0x3 DUP2 LT PUSH2 0x495 JUMPI PUSH0 DUP1 REVERT JUMPDEST POP JUMP JUMPDEST PUSH0 DUP2 CALLDATALOAD SWAP1 POP PUSH2 0x4A6 DUP2 PUSH2 0x489 JUMP JUMPDEST SWAP3 SWAP2 POP POP JUMP JUMPDEST PUSH1 0x3 DUP2 LT PUSH2 0x4B8 JUMPI PUSH0 DUP1 REVERT JUMPDEST POP JUMP JUMPDEST PUSH0 DUP2 CALLDATALOAD SWAP1 POP PUSH2 0x4C9 DUP2 PUSH2 0x4AC JUMP JUMPDEST SWAP3 SWAP2 POP POP JUMP JUMPDEST PUSH0 DUP1 PUSH1 0x40 DUP4 DUP6 SUB SLT ISZERO PUSH2 0x4E5 JUMPI PUSH2 0x4E4 PUSH2 0x485 JUMP JUMPDEST JUMPDEST PUSH0 PUSH2 0x4F2 DUP6 DUP3 DUP7 ADD PUSH2 0x498 JUMP JUMPDEST SWAP3 POP POP PUSH1 0x20 PUSH2 0x503 DUP6 DUP3 DUP7 ADD PUSH2 0x4BB JUMP JUMPDEST SWAP2 POP POP SWAP3 POP SWAP3 SWAP1 POP JUMP JUMPDEST PUSH0 DUP2 SWAP1 POP SWAP2 SWAP1 POP JUMP JUMPDEST PUSH2 0x51F DUP2 PUSH2 0x50D JUMP JUMPDEST DUP3 MSTORE POP POP JUMP JUMPDEST PUSH0 PUSH1 0x20 DUP3 ADD SWAP1 POP PUSH2 0x538 PUSH0 DUP4 ADD DUP5 PUSH2 0x516 JUMP JUMPDEST SWAP3 SWAP2 POP POP JUMP JUMPDEST PUSH0 DUP3 DUP3 MSTORE PUSH1 0x20 DUP3 ADD SWAP1 POP SWAP3 SWAP2 POP POP JUMP JUMPDEST PUSH32 0x496E636F727265637420616D6F756E742073656E740000000000000000000000 PUSH0 DUP3 ADD MSTORE POP JUMP JUMPDEST PUSH0 PUSH2 0x582 PUSH1 0x15 DUP4 PUSH2 0x53E JUMP JUMPDEST SWAP2 POP PUSH2 0x58D DUP3 PUSH2 0x54E JUMP JUMPDEST PUSH1 0x20 DUP3 ADD SWAP1 POP SWAP2 SWAP1 POP JUMP JUMPDEST PUSH0 PUSH1 0x20 DUP3 ADD SWAP1 POP DUP2 DUP2 SUB PUSH0 DUP4 ADD MSTORE PUSH2 0x5AF DUP2 PUSH2 0x576 JUMP JUMPDEST SWAP1 POP SWAP2 SWAP1 POP JUMP JUMPDEST PUSH32 0x4E487B7100000000000000000000000000000000000000000000000000000000 PUSH0 MSTORE PUSH1 0x21 PUSH1 0x4 MSTORE PUSH1 0x24 PUSH0 REVERT JUMPDEST PUSH32 0x4E487B7100000000000000000000000000000000000000000000000000000000 PUSH0 MSTORE PUSH1 0x32 PUSH1 0x4 MSTORE PUSH1 0x24 PUSH0 REVERT JUMPDEST PUSH32 0x4E487B7100000000000000000000000000000000000000000000000000000000 PUSH0 MSTORE PUSH1 0x11 PUSH1 0x4 MSTORE PUSH1 0x24 PUSH0 REVERT JUMPDEST PUSH0 PUSH2 0x647 DUP3 PUSH2 0x50D JUMP JUMPDEST SWAP2 POP PUSH32 0xFFFFFFFFFFFFFFFFFFFFFFFFFFFFFFFFFFFFFFFFFFFFFFFFFFFFFFFFFFFFFFFF DUP3 SUB PUSH2 0x679 JUMPI PUSH2 0x678 PUSH2 0x610 JUMP JUMPDEST JUMPDEST PUSH1 0x1 DUP3 ADD SWAP1 POP SWAP2 SWAP1 POP JUMP JUMPDEST PUSH0 PUSH2 0x68E DUP3 PUSH2 0x50D JUMP JUMPDEST SWAP2 POP PUSH2 0x699 DUP4 PUSH2 0x50D JUMP JUMPDEST SWAP3 POP DUP3 DUP3 ADD SWAP1 POP DUP1 DUP3 GT ISZERO PUSH2 0x6B1 JUMPI PUSH2 0x6B0 PUSH2 0x610 JUMP JUMPDEST JUMPDEST SWAP3 SWAP2 POP POP JUMP INVALID LOG2 PUSH5 0x6970667358 0x22 SLT KECCAK256 SSTORE 0xD8 SELFBALANCE SWAP10 SWAP10 0x22 TLOAD 0xE8 COINBASE EXP 0x1F 0xCF 0xAF PUSH0 DUP14 SLT JUMP 0xEC CHAINID SWAP15 PUSH23 0x13D53248DA539ABA04268164736F6C634300081A003300 "
				},
				"gasEstimates": {
					"creation": {
						"codeDepositCost": "354600",
						"executionCost": "391",
						"totalCost": "354991"
					},
					"external": {
						"buyShirt(uint8,uint8)": "infinite",
						"getShirtPrice(uint8,uint8)": "infinite",
						"getShirts(uint8,uint8)": "infinite"
					}
				},
				"methodIdentifiers": {
					"buyShirt(uint8,uint8)": "6aa283a5",
					"getShirtPrice(uint8,uint8)": "b97461d3",
					"getShirts(uint8,uint8)": "71cc64b4"
				}
			},
			"storageLayout": {
				"storage": [
					{
						"astId": 26,
						"contract": "advanced/Enums.sol:Enums",
						"label": "shirts",
						"offset": 0,
						"slot": "0",
						"type": "t_mapping(t_address,t_array(t_struct(Shirt)20_storage)dyn_storage)"
					}
				],
				"types": {
					"t_address": {
						"encoding": "inplace",
						"label": "address",
						"numberOfBytes": "20"
					},
					"t_array(t_struct(Shirt)20_storage)dyn_storage": {
						"base": "t_struct(Shirt)20_storage",
						"encoding": "dynamic_array",
						"label": "struct Enums.Shirt[]",
						"numberOfBytes": "32"
					},
					"t_enum(Color)12": {
						"encoding": "inplace",
						"label": "enum Enums.Color",
						"numberOfBytes": "1"
					},
					"t_enum(Size)7": {
						"encoding": "inplace",
						"label": "enum Enums.Size",
						"numberOfBytes": "1"
					},
					"t_mapping(t_address,t_array(t_struct(Shirt)20_storage)dyn_storage)": {
						"encoding": "mapping",
						"key": "t_address",
						"label": "mapping(address => struct Enums.Shirt[])",
						"numberOfBytes": "32",
						"value": "t_array(t_struct(Shirt)20_storage)dyn_storage"
					},
					"t_struct(Shirt)20_storage": {
						"encoding": "inplace",
						"label": "struct Enums.Shirt",
						"members": [
							{
								"astId": 16,
								"contract": "advanced/Enums.sol:Enums",
								"label": "size",
								"offset": 0,
								"slot": "0",
								"type": "t_enum(Size)7"
							},
							{
								"astId": 19,
								"contract": "advanced/Enums.sol:Enums",
								"label": "color",
								"offset": 1,
								"slot": "0",
								"type": "t_enum(Color)12"
							}
						],
						"numberOfBytes": "32"
					}
				}
			},
			"userdoc": {
				"kind": "user",
				"methods": {},
				"version": 1
			}
		}
	}
}