{
	"advanced/Time.sol": {
		"Time": {
			"abi": [
				{
					"inputs": [],
					"name": "getTime",
					"outputs": [
						{
							"internalType": "uint256",
							"name": "",
							"type": "uint256"
						}
					],
					"stateMutability": "view",
					"type": "function"
				},
				{
					"inputs": [],
					"name": "getTimeMinusOneDay",
					"outputs": [
						{
							"internalType": "uint256",
							"name": "",
							"type": "uint256"
						}
					],
					"stateMutability": "view",
					"type": "function"
				},
				{
					"inputs": [],
					"name": "getTimeMinusOneHour",
					"outputs": [
						{
							"internalType": "uint256",
							"name": "",
							"type": "uint256"
						}
					],
					"stateMutability": "view",
					"type": "function"
				},
				{
					"inputs": [],
					"name": "getTimeMinusOneMinute",
					"outputs": [
						{
							"internalType": "uint256",
							"name": "",
							"type": "uint256"
						}
					],
					"stateMutability": "view",
					"type": "function"
				},
				{
					"inputs": [],
					"name": "getTimeMinusOneSecond",
					"outputs": [
						{
							"internalType": "uint256",
							"name": "",
							"type": "uint256"
						}
					],
					"stateMutability": "view",
					"type": "function"
				},
				{
					"inputs": [],
					"name": "getTimeMinusOneWeek",
					"outputs": [
						{
							"internalType": "uint256",
							"name": "",
							"type": "uint256"
						}
					],
					"stateMutability": "view",
					"type": "function"
				}
			],
			"devdoc": {
				"details": "Provides functions to get the current time and perform time calculations with different time units in Solidity.",
				"kind": "dev",
				"methods": {
					"getTime()": {
						"details": "Returns the current block timestamp.",
						"returns": {
							"_0": "The current block timestamp in seconds since the Unix epoch."
						}
					},
					"getTimeMinusOneDay()": {
						"details": "Returns the block timestamp minus one day.",
						"returns": {
							"_0": "The current block timestamp minus 1 day, in seconds since the Unix epoch."
						}
					},
					"getTimeMinusOneHour()": {
						"details": "Returns the block timestamp minus one hour.",
						"returns": {
							"_0": "The current block timestamp minus 1 hour, in seconds since the Unix epoch."
						}
					},
					"getTimeMinusOneMinute()": {
						"details": "Returns the block timestamp minus one minute.",
						"returns": {
							"_0": "The current block timestamp minus 1 minute, in seconds since the Unix epoch."
						}
					},
					"getTimeMinusOneSecond()": {
						"details": "Returns the block timestamp minus one second.",
						"returns": {
							"_0": "The current block timestamp minus 1 second, in seconds since the Unix epoch."
						}
					},
					"getTimeMinusOneWeek()": {
						"details": "Returns the block timestamp minus one week.",
						"returns": {
							"_0": "The current block timestamp minus 1 week, in seconds since the Unix epoch."
						}
					}
				},
				"title": "Time Utility Contract",
				"version": 1
			},
			"evm": {
				"assembly": "    /* \"advanced/Time.sol\":219:1873  contract Time {... */\n  mstore(0x40, 0x80)\n  callvalue\n  dup1\n  iszero\n  tag_1\n  jumpi\n  0x00\n  dup1\n  revert\ntag_1:\n  pop\n  dataSize(sub_0)\n  dup1\n  dataOffset(sub_0)\n  0x00\n  codecopy\n  0x00\n  return\nstop\n\nsub_0: assembly {\n        /* \"advanced/Time.sol\":219:1873  contract Time {... */\n      mstore(0x40, 0x80)\n      callvalue\n      dup1\n      iszero\n      tag_1\n      jumpi\n      0x00\n      dup1\n      revert\n    tag_1:\n      pop\n      jumpi(tag_2, lt(calldatasize, 0x04))\n      shr(0xe0, calldataload(0x00))\n      dup1\n      0x4738fbd2\n      eq\n      tag_3\n      jumpi\n      dup1\n      0x557ed1ba\n      eq\n      tag_4\n      jumpi\n      dup1\n      0x9b5b6aee\n      eq\n      tag_5\n      jumpi\n      dup1\n      0x9f678d84\n      eq\n      tag_6\n      jumpi\n      dup1\n      0xe32f43e3\n      eq\n      tag_7\n      jumpi\n      dup1\n      0xf1977748\n      eq\n      tag_8\n      jumpi\n    tag_2:\n      0x00\n      dup1\n      revert\n        /* \"advanced/Time.sol\":915:1029  function getTimeMinusOneSecond() public view returns (uint256) {... */\n    tag_3:\n      tag_9\n      tag_10\n      jump\t// in\n    tag_9:\n      mload(0x40)\n      tag_11\n      swap2\n      swap1\n      tag_12\n      jump\t// in\n    tag_11:\n      mload(0x40)\n      dup1\n      swap2\n      sub\n      swap1\n      return\n        /* \"advanced/Time.sol\":381:469  function getTime() public view returns (uint256) {... */\n    tag_4:\n      tag_13\n      tag_14\n      jump\t// in\n    tag_13:\n      mload(0x40)\n      tag_15\n      swap2\n      swap1\n      tag_12\n      jump\t// in\n    tag_15:\n      mload(0x40)\n      dup1\n      swap2\n      sub\n      swap1\n      return\n        /* \"advanced/Time.sol\":1483:1593  function getTimeMinusOneHour() public view returns (uint256) {... */\n    tag_5:\n      tag_16\n      tag_17\n      jump\t// in\n    tag_16:\n      mload(0x40)\n      tag_18\n      swap2\n      swap1\n      tag_12\n      jump\t// in\n    tag_18:\n      mload(0x40)\n      dup1\n      swap2\n      sub\n      swap1\n      return\n        /* \"advanced/Time.sol\":1201:1315  function getTimeMinusOneMinute() public view returns (uint256) {... */\n    tag_6:\n      tag_19\n      tag_20\n      jump\t// in\n    tag_19:\n      mload(0x40)\n      tag_21\n      swap2\n      swap1\n      tag_12\n      jump\t// in\n    tag_21:\n      mload(0x40)\n      dup1\n      swap2\n      sub\n      swap1\n      return\n        /* \"advanced/Time.sol\":1761:1871  function getTimeMinusOneWeek() public view returns (uint256) {... */\n    tag_7:\n      tag_22\n      tag_23\n      jump\t// in\n    tag_22:\n      mload(0x40)\n      tag_24\n      swap2\n      swap1\n      tag_12\n      jump\t// in\n    tag_24:\n      mload(0x40)\n      dup1\n      swap2\n      sub\n      swap1\n      return\n        /* \"advanced/Time.sol\":635:743  function getTimeMinusOneDay() public view returns (uint256) {... */\n    tag_8:\n      tag_25\n      tag_26\n      jump\t// in\n    tag_25:\n      mload(0x40)\n      tag_27\n      swap2\n      swap1\n      tag_12\n      jump\t// in\n    tag_27:\n      mload(0x40)\n      dup1\n      swap2\n      sub\n      swap1\n      return\n        /* \"advanced/Time.sol\":915:1029  function getTimeMinusOneSecond() public view returns (uint256) {... */\n    tag_10:\n        /* \"advanced/Time.sol\":969:976  uint256 */\n      0x00\n        /* \"advanced/Time.sol\":1013:1022  1 seconds */\n      0x01\n        /* \"advanced/Time.sol\":995:1010  block.timestamp */\n      timestamp\n        /* \"advanced/Time.sol\":995:1022  block.timestamp - 1 seconds */\n      tag_29\n      swap2\n      swap1\n      tag_30\n      jump\t// in\n    tag_29:\n        /* \"advanced/Time.sol\":988:1022  return block.timestamp - 1 seconds */\n      swap1\n      pop\n        /* \"advanced/Time.sol\":915:1029  function getTimeMinusOneSecond() public view returns (uint256) {... */\n      swap1\n      jump\t// out\n        /* \"advanced/Time.sol\":381:469  function getTime() public view returns (uint256) {... */\n    tag_14:\n        /* \"advanced/Time.sol\":421:428  uint256 */\n      0x00\n        /* \"advanced/Time.sol\":447:462  block.timestamp */\n      timestamp\n        /* \"advanced/Time.sol\":440:462  return block.timestamp */\n      swap1\n      pop\n        /* \"advanced/Time.sol\":381:469  function getTime() public view returns (uint256) {... */\n      swap1\n      jump\t// out\n        /* \"advanced/Time.sol\":1483:1593  function getTimeMinusOneHour() public view returns (uint256) {... */\n    tag_17:\n        /* \"advanced/Time.sol\":1535:1542  uint256 */\n      0x00\n        /* \"advanced/Time.sol\":1579:1586  1 hours */\n      0x0e10\n        /* \"advanced/Time.sol\":1561:1576  block.timestamp */\n      timestamp\n        /* \"advanced/Time.sol\":1561:1586  block.timestamp - 1 hours */\n      tag_33\n      swap2\n      swap1\n      tag_30\n      jump\t// in\n    tag_33:\n        /* \"advanced/Time.sol\":1554:1586  return block.timestamp - 1 hours */\n      swap1\n      pop\n        /* \"advanced/Time.sol\":1483:1593  function getTimeMinusOneHour() public view returns (uint256) {... */\n      swap1\n      jump\t// out\n        /* \"advanced/Time.sol\":1201:1315  function getTimeMinusOneMinute() public view returns (uint256) {... */\n    tag_20:\n        /* \"advanced/Time.sol\":1255:1262  uint256 */\n      0x00\n        /* \"advanced/Time.sol\":1299:1308  1 minutes */\n      0x3c\n        /* \"advanced/Time.sol\":1281:1296  block.timestamp */\n      timestamp\n        /* \"advanced/Time.sol\":1281:1308  block.timestamp - 1 minutes */\n      tag_35\n      swap2\n      swap1\n      tag_30\n      jump\t// in\n    tag_35:\n        /* \"advanced/Time.sol\":1274:1308  return block.timestamp - 1 minutes */\n      swap1\n      pop\n        /* \"advanced/Time.sol\":1201:1315  function getTimeMinusOneMinute() public view returns (uint256) {... */\n      swap1\n      jump\t// out\n        /* \"advanced/Time.sol\":1761:1871  function getTimeMinusOneWeek() public view returns (uint256) {... */\n    tag_23:\n        /* \"advanced/Time.sol\":1813:1820  uint256 */\n      0x00\n        /* \"advanced/Time.sol\":1857:1864  1 weeks */\n      0x093a80\n        /* \"advanced/Time.sol\":1839:1854  block.timestamp */\n      timestamp\n        /* \"advanced/Time.sol\":1839:1864  block.timestamp - 1 weeks */\n      tag_37\n      swap2\n      swap1\n      tag_30\n      jump\t// in\n    tag_37:\n        /* \"advanced/Time.sol\":1832:1864  return block.timestamp - 1 weeks */\n      swap1\n      pop\n        /* \"advanced/Time.sol\":1761:1871  function getTimeMinusOneWeek() public view returns (uint256) {... */\n      swap1\n      jump\t// out\n        /* \"advanced/Time.sol\":635:743  function getTimeMinusOneDay() public view returns (uint256) {... */\n    tag_26:\n        /* \"advanced/Time.sol\":686:693  uint256 */\n      0x00\n        /* \"advanced/Time.sol\":730:736  1 days */\n      0x015180\n        /* \"advanced/Time.sol\":712:727  block.timestamp */\n      timestamp\n        /* \"advanced/Time.sol\":712:736  block.timestamp - 1 days */\n      tag_39\n      swap2\n      swap1\n      tag_30\n      jump\t// in\n    tag_39:\n        /* \"advanced/Time.sol\":705:736  return block.timestamp - 1 days */\n      swap1\n      pop\n        /* \"advanced/Time.sol\":635:743  function getTimeMinusOneDay() public view returns (uint256) {... */\n      swap1\n      jump\t// out\n        /* \"#utility.yul\":7:84   */\n    tag_40:\n        /* \"#utility.yul\":44:51   */\n      0x00\n        /* \"#utility.yul\":73:78   */\n      dup2\n        /* \"#utility.yul\":62:78   */\n      swap1\n      pop\n        /* \"#utility.yul\":7:84   */\n      swap2\n      swap1\n      pop\n      jump\t// out\n        /* \"#utility.yul\":90:208   */\n    tag_41:\n        /* \"#utility.yul\":177:201   */\n      tag_46\n        /* \"#utility.yul\":195:200   */\n      dup2\n        /* \"#utility.yul\":177:201   */\n      tag_40\n      jump\t// in\n    tag_46:\n        /* \"#utility.yul\":172:175   */\n      dup3\n        /* \"#utility.yul\":165:202   */\n      mstore\n        /* \"#utility.yul\":90:208   */\n      pop\n      pop\n      jump\t// out\n        /* \"#utility.yul\":214:436   */\n    tag_12:\n        /* \"#utility.yul\":307:311   */\n      0x00\n        /* \"#utility.yul\":345:347   */\n      0x20\n        /* \"#utility.yul\":334:343   */\n      dup3\n        /* \"#utility.yul\":330:348   */\n      add\n        /* \"#utility.yul\":322:348   */\n      swap1\n      pop\n        /* \"#utility.yul\":358:429   */\n      tag_48\n        /* \"#utility.yul\":426:427   */\n      0x00\n        /* \"#utility.yul\":415:424   */\n      dup4\n        /* \"#utility.yul\":411:428   */\n      add\n        /* \"#utility.yul\":402:408   */\n      dup5\n        /* \"#utility.yul\":358:429   */\n      tag_41\n      jump\t// in\n    tag_48:\n        /* \"#utility.yul\":214:436   */\n      swap3\n      swap2\n      pop\n      pop\n      jump\t// out\n        /* \"#utility.yul\":442:622   */\n    tag_42:\n        /* \"#utility.yul\":490:567   */\n      0x4e487b7100000000000000000000000000000000000000000000000000000000\n        /* \"#utility.yul\":487:488   */\n      0x00\n        /* \"#utility.yul\":480:568   */\n      mstore\n        /* \"#utility.yul\":587:591   */\n      0x11\n        /* \"#utility.yul\":584:585   */\n      0x04\n        /* \"#utility.yul\":577:592   */\n      mstore\n        /* \"#utility.yul\":611:615   */\n      0x24\n        /* \"#utility.yul\":608:609   */\n      0x00\n        /* \"#utility.yul\":601:616   */\n      revert\n        /* \"#utility.yul\":628:822   */\n    tag_30:\n        /* \"#utility.yul\":668:672   */\n      0x00\n        /* \"#utility.yul\":688:708   */\n      tag_51\n        /* \"#utility.yul\":706:707   */\n      dup3\n        /* \"#utility.yul\":688:708   */\n      tag_40\n      jump\t// in\n    tag_51:\n        /* \"#utility.yul\":683:708   */\n      swap2\n      pop\n        /* \"#utility.yul\":722:742   */\n      tag_52\n        /* \"#utility.yul\":740:741   */\n      dup4\n        /* \"#utility.yul\":722:742   */\n      tag_40\n      jump\t// in\n    tag_52:\n        /* \"#utility.yul\":717:742   */\n      swap3\n      pop\n        /* \"#utility.yul\":766:767   */\n      dup3\n        /* \"#utility.yul\":763:764   */\n      dup3\n        /* \"#utility.yul\":759:768   */\n      sub\n        /* \"#utility.yul\":751:768   */\n      swap1\n      pop\n        /* \"#utility.yul\":790:791   */\n      dup2\n        /* \"#utility.yul\":784:788   */\n      dup2\n        /* \"#utility.yul\":781:792   */\n      gt\n        /* \"#utility.yul\":778:815   */\n      iszero\n      tag_53\n      jumpi\n        /* \"#utility.yul\":795:813   */\n      tag_54\n      tag_42\n      jump\t// in\n    tag_54:\n        /* \"#utility.yul\":778:815   */\n    tag_53:\n        /* \"#utility.yul\":628:822   */\n      swap3\n      swap2\n      pop\n      pop\n      jump\t// out\n\n    auxdata: 0xa2646970667358221220a862262e60ee358a16374ef3edf09153d8c3a61b5fcbf54ed6168af47f5e48ed64736f6c634300081a0033\n}\n",
				"bytecode": {
					"linkReferences": {},
					"object": "6080604052348015600e575f80fd5b5061024a8061001c5f395ff3fe608060405234801561000f575f80fd5b5060043610610060575f3560e01c80634738fbd214610064578063557ed1ba146100825780639b5b6aee146100a05780639f678d84146100be578063e32f43e3146100dc578063f1977748146100fa575b5f80fd5b61006c610118565b604051610079919061019b565b60405180910390f35b61008a61012b565b604051610097919061019b565b60405180910390f35b6100a8610132565b6040516100b5919061019b565b60405180910390f35b6100c6610146565b6040516100d3919061019b565b60405180910390f35b6100e4610159565b6040516100f1919061019b565b60405180910390f35b61010261016e565b60405161010f919061019b565b60405180910390f35b5f60014261012691906101e1565b905090565b5f42905090565b5f610e104261014191906101e1565b905090565b5f603c4261015491906101e1565b905090565b5f62093a804261016991906101e1565b905090565b5f620151804261017e91906101e1565b905090565b5f819050919050565b61019581610183565b82525050565b5f6020820190506101ae5f83018461018c565b92915050565b7f4e487b71000000000000000000000000000000000000000000000000000000005f52601160045260245ffd5b5f6101eb82610183565b91506101f683610183565b925082820390508181111561020e5761020d6101b4565b5b9291505056fea2646970667358221220a862262e60ee358a16374ef3edf09153d8c3a61b5fcbf54ed6168af47f5e48ed64736f6c634300081a0033",
					"opcodes": "PUSH1 0x80 PUSH1 0x40 MSTORE CALLVALUE DUP1 ISZERO PUSH1 0xE JUMPI PUSH0 DUP1 REVERT JUMPDEST POP PUSH2 0x24A DUP1 PUSH2 0x1C PUSH0 CODECOPY PUSH0 RETURN INVALID PUSH1 0x80 PUSH1 0x40 MSTORE CALLVALUE DUP1 ISZERO PUSH2 0xF JUMPI PUSH0 DUP1 REVERT JUMPDEST POP PUSH1 0x4 CALLDATASIZE LT PUSH2 0x60 JUMPI PUSH0 CALLDATALOAD PUSH1 0xE0 SHR DUP1 PUSH4 0x4738FBD2 EQ PUSH2 0x64 JUMPI DUP1 PUSH4 0x557ED1BA EQ PUSH2 0x82 JUMPI DUP1 PUSH4 0x9B5B6AEE EQ PUSH2 0xA0 JUMPI DUP1 PUSH4 0x9F678D84 EQ PUSH2 0xBE JUMPI DUP1 PUSH4 0xE32F43E3 EQ PUSH2 0xDC JUMPI DUP1 PUSH4 0xF1977748 EQ PUSH2 0xFA JUMPI JUMPDEST PUSH0 DUP1 REVERT JUMPDEST PUSH2 0x6C PUSH2 0x118 JUMP JUMPDEST PUSH1 0x40 MLOAD PUSH2 0x79 SWAP2 SWAP1 PUSH2 0x19B JUMP JUMPDEST PUSH1 0x40 MLOAD DUP1 SWAP2 SUB SWAP1 RETURN JUMPDEST PUSH2 0x8A PUSH2 0x12B JUMP JUMPDEST PUSH1 0x40 MLOAD PUSH2 0x97 SWAP2 SWAP1 PUSH2 0x19B JUMP JUMPDEST PUSH1 0x40 MLOAD DUP1 SWAP2 SUB SWAP1 RETURN JUMPDEST PUSH2 0xA8 PUSH2 0x132 JUMP JUMPDEST PUSH1 0x40 MLOAD PUSH2 0xB5 SWAP2 SWAP1 PUSH2 0x19B JUMP JUMPDEST PUSH1 0x40 MLOAD DUP1 SWAP2 SUB SWAP1 RETURN JUMPDEST PUSH2 0xC6 PUSH2 0x146 JUMP JUMPDEST PUSH1 0x40 MLOAD PUSH2 0xD3 SWAP2 SWAP1 PUSH2 0x19B JUMP JUMPDEST PUSH1 0x40 MLOAD DUP1 SWAP2 SUB SWAP1 RETURN JUMPDEST PUSH2 0xE4 PUSH2 0x159 JUMP JUMPDEST PUSH1 0x40 MLOAD PUSH2 0xF1 SWAP2 SWAP1 PUSH2 0x19B JUMP JUMPDEST PUSH1 0x40 MLOAD DUP1 SWAP2 SUB SWAP1 RETURN JUMPDEST PUSH2 0x102 PUSH2 0x16E JUMP JUMPDEST PUSH1 0x40 MLOAD PUSH2 0x10F SWAP2 SWAP1 PUSH2 0x19B JUMP JUMPDEST PUSH1 0x40 MLOAD DUP1 SWAP2 SUB SWAP1 RETURN JUMPDEST PUSH0 PUSH1 0x1 TIMESTAMP PUSH2 0x126 SWAP2 SWAP1 PUSH2 0x1E1 JUMP JUMPDEST SWAP1 POP SWAP1 JUMP JUMPDEST PUSH0 TIMESTAMP SWAP1 POP SWAP1 JUMP JUMPDEST PUSH0 PUSH2 0xE10 TIMESTAMP PUSH2 0x141 SWAP2 SWAP1 PUSH2 0x1E1 JUMP JUMPDEST SWAP1 POP SWAP1 JUMP JUMPDEST PUSH0 PUSH1 0x3C TIMESTAMP PUSH2 0x154 SWAP2 SWAP1 PUSH2 0x1E1 JUMP JUMPDEST SWAP1 POP SWAP1 JUMP JUMPDEST PUSH0 PUSH3 0x93A80 TIMESTAMP PUSH2 0x169 SWAP2 SWAP1 PUSH2 0x1E1 JUMP JUMPDEST SWAP1 POP SWAP1 JUMP JUMPDEST PUSH0 PUSH3 0x15180 TIMESTAMP PUSH2 0x17E SWAP2 SWAP1 PUSH2 0x1E1 JUMP JUMPDEST SWAP1 POP SWAP1 JUMP JUMPDEST PUSH0 DUP2 SWAP1 POP SWAP2 SWAP1 POP JUMP JUMPDEST PUSH2 0x195 DUP2 PUSH2 0x183 JUMP JUMPDEST DUP3 MSTORE POP POP JUMP JUMPDEST PUSH0 PUSH1 0x20 DUP3 ADD SWAP1 POP PUSH2 0x1AE PUSH0 DUP4 ADD DUP5 PUSH2 0x18C JUMP JUMPDEST SWAP3 SWAP2 POP POP JUMP JUMPDEST PUSH32 0x4E487B7100000000000000000000000000000000000000000000000000000000 PUSH0 MSTORE PUSH1 0x11 PUSH1 0x4 MSTORE PUSH1 0x24 PUSH0 REVERT JUMPDEST PUSH0 PUSH2 0x1EB DUP3 PUSH2 0x183 JUMP JUMPDEST SWAP2 POP PUSH2 0x1F6 DUP4 PUSH2 0x183 JUMP JUMPDEST SWAP3 POP DUP3 DUP3 SUB SWAP1 POP DUP2 DUP2 GT ISZERO PUSH2 0x20E JUMPI PUSH2 0x20D PUSH2 0x1B4 JUMP JUMPDEST JUMPDEST SWAP3 SWAP2 POP POP JUMP INVALID LOG2 PUSH5 0x6970667358 0x22 SLT KECCAK256 0xA8 PUSH3 0x262E60 0xEE CALLDATALOAD DUP11 AND CALLDATACOPY 0x4E RETURN 0xED CREATE SWAP2 MSTORE8 0xD8 0xC3 0xA6 SHL PUSH0 0xCB CREATE2 0x4E 0xD6 AND DUP11 DELEGATECALL PUSH32 0x5E48ED64736F6C634300081A0033000000000000000000000000000000000000 "
				},
				"gasEstimates": {
					"creation": {
						"codeDepositCost": "117200",
						"executionCost": "163",
						"totalCost": "117363"
					},
					"external": {
						"getTime()": "331",
						"getTimeMinusOneDay()": "infinite",
						"getTimeMinusOneHour()": "infinite",
						"getTimeMinusOneMinute()": "infinite",
						"getTimeMinusOneSecond()": "infinite",
						"getTimeMinusOneWeek()": "infinite"
					}
				},
				"methodIdentifiers": {
					"getTime()": "557ed1ba",
					"getTimeMinusOneDay()": "f1977748",
					"getTimeMinusOneHour()": "9b5b6aee",
					"getTimeMinusOneMinute()": "9f678d84",
					"getTimeMinusOneSecond()": "4738fbd2",
					"getTimeMinusOneWeek()": "e32f43e3"
				}
			},
			"storageLayout": {
				"storage": [],
				"types": null
			},
			"userdoc": {
				"kind": "user",
				"methods": {},
				"version": 1
			}
		}
	}
}