{
	"advanced/ExampleWithAllConcepts.sol": {
		"ExampleWithAllConcepts": {
			"abi": [
				{
					"inputs": [
						{
							"internalType": "address",
							"name": "friend",
							"type": "address"
						}
					],
					"name": "acceptFriendRequest",
					"outputs": [],
					"stateMutability": "nonpayable",
					"type": "function"
				},
				{
					"inputs": [],
					"name": "getFriendRequests",
					"outputs": [
						{
							"internalType": "address[]",
							"name": "",
							"type": "address[]"
						}
					],
					"stateMutability": "view",
					"type": "function"
				},
				{
					"inputs": [],
					"name": "getFriends",
					"outputs": [
						{
							"internalType": "address[]",
							"name": "",
							"type": "address[]"
						}
					],
					"stateMutability": "view",
					"type": "function"
				},
				{
					"inputs": [],
					"name": "getNumberOfFriends",
					"outputs": [
						{
							"internalType": "uint256",
							"name": "",
							"type": "uint256"
						}
					],
					"stateMutability": "view",
					"type": "function"
				},
				{
					"inputs": [
						{
							"internalType": "address",
							"name": "friend",
							"type": "address"
						}
					],
					"name": "sendFriendRequest",
					"outputs": [],
					"stateMutability": "nonpayable",
					"type": "function"
				}
			],
			"devdoc": {
				"details": "A contract to manage a basic friend request system.",
				"kind": "dev",
				"methods": {
					"acceptFriendRequest(address)": {
						"details": "Accepts a friend request from another address.",
						"params": {
							"friend": "The address whose friend request is to be accepted."
						}
					},
					"getFriendRequests()": {
						"details": "Gets the friend requests received by the sender.",
						"returns": {
							"_0": "address[] The list of addresses that have sent a friend request."
						}
					},
					"getFriends()": {
						"details": "Gets the list of friends of the sender.",
						"returns": {
							"_0": "address[] The list of friends."
						}
					},
					"getNumberOfFriends()": {
						"details": "Gets the number of friends of the sender.",
						"returns": {
							"_0": "uint256 The number of friends."
						}
					},
					"sendFriendRequest(address)": {
						"details": "Sends a friend request to another address.",
						"params": {
							"friend": "The address to send a friend request to."
						}
					}
				},
				"title": "Friends",
				"version": 1
			},
			"evm": {
				"assembly": "    /* \"advanced/ExampleWithAllConcepts.sol\":151:4647  contract ExampleWithAllConcepts {... */\n  mstore(0x40, 0x80)\n  callvalue\n  dup1\n  iszero\n  tag_1\n  jumpi\n  0x00\n  dup1\n  revert\ntag_1:\n  pop\n  dataSize(sub_0)\n  dup1\n  dataOffset(sub_0)\n  0x00\n  codecopy\n  0x00\n  return\nstop\n\nsub_0: assembly {\n        /* \"advanced/ExampleWithAllConcepts.sol\":151:4647  contract ExampleWithAllConcepts {... */\n      mstore(0x40, 0x80)\n      callvalue\n      dup1\n      iszero\n      tag_1\n      jumpi\n      0x00\n      dup1\n      revert\n    tag_1:\n      pop\n      jumpi(tag_2, lt(calldatasize, 0x04))\n      shr(0xe0, calldataload(0x00))\n      dup1\n      0x1f8f7270\n      eq\n      tag_3\n      jumpi\n      dup1\n      0x67db8b68\n      eq\n      tag_4\n      jumpi\n      dup1\n      0x837b770a\n      eq\n      tag_5\n      jumpi\n      dup1\n      0xa9f56466\n      eq\n      tag_6\n      jumpi\n      dup1\n      0xd6688cbd\n      eq\n      tag_7\n      jumpi\n    tag_2:\n      0x00\n      dup1\n      revert\n        /* \"advanced/ExampleWithAllConcepts.sol\":4534:4645  function getFriends() public view returns (address[] memory) {... */\n    tag_3:\n      tag_8\n      tag_9\n      jump\t// in\n    tag_8:\n      mload(0x40)\n      tag_10\n      swap2\n      swap1\n      tag_11\n      jump\t// in\n    tag_10:\n      mload(0x40)\n      dup1\n      swap2\n      sub\n      swap1\n      return\n        /* \"advanced/ExampleWithAllConcepts.sol\":3384:3501  function getNumberOfFriends() public view returns (uint256) {... */\n    tag_4:\n      tag_12\n      tag_13\n      jump\t// in\n    tag_12:\n      mload(0x40)\n      tag_14\n      swap2\n      swap1\n      tag_15\n      jump\t// in\n    tag_14:\n      mload(0x40)\n      dup1\n      swap2\n      sub\n      swap1\n      return\n        /* \"advanced/ExampleWithAllConcepts.sol\":3640:3945  function sendFriendRequest(address friend)... */\n    tag_5:\n      tag_16\n      0x04\n      dup1\n      calldatasize\n      sub\n      dup2\n      add\n      swap1\n      tag_17\n      swap2\n      swap1\n      tag_18\n      jump\t// in\n    tag_17:\n      tag_19\n      jump\t// in\n    tag_16:\n      stop\n        /* \"advanced/ExampleWithAllConcepts.sol\":4099:4414  function acceptFriendRequest(address friend) public requestExists(friend) {... */\n    tag_6:\n      tag_20\n      0x04\n      dup1\n      calldatasize\n      sub\n      dup2\n      add\n      swap1\n      tag_21\n      swap2\n      swap1\n      tag_18\n      jump\t// in\n    tag_21:\n      tag_22\n      jump\t// in\n    tag_20:\n      stop\n        /* \"advanced/ExampleWithAllConcepts.sol\":3135:3262  function getFriendRequests() public view returns (address[] memory) {... */\n    tag_7:\n      tag_23\n      tag_24\n      jump\t// in\n    tag_23:\n      mload(0x40)\n      tag_25\n      swap2\n      swap1\n      tag_11\n      jump\t// in\n    tag_25:\n      mload(0x40)\n      dup1\n      swap2\n      sub\n      swap1\n      return\n        /* \"advanced/ExampleWithAllConcepts.sol\":4534:4645  function getFriends() public view returns (address[] memory) {... */\n    tag_9:\n        /* \"advanced/ExampleWithAllConcepts.sol\":4577:4593  address[] memory */\n      0x60\n        /* \"advanced/ExampleWithAllConcepts.sol\":4612:4618  people */\n      0x00\n        /* \"advanced/ExampleWithAllConcepts.sol\":4612:4630  people[msg.sender] */\n      dup1\n        /* \"advanced/ExampleWithAllConcepts.sol\":4619:4629  msg.sender */\n      caller\n        /* \"advanced/ExampleWithAllConcepts.sol\":4612:4630  people[msg.sender] */\n      0xffffffffffffffffffffffffffffffffffffffff\n      and\n      0xffffffffffffffffffffffffffffffffffffffff\n      and\n      dup2\n      mstore\n      0x20\n      add\n      swap1\n      dup2\n      mstore\n      0x20\n      add\n      0x00\n      keccak256\n        /* \"advanced/ExampleWithAllConcepts.sol\":4612:4638  people[msg.sender].friends */\n      0x00\n      add\n        /* \"advanced/ExampleWithAllConcepts.sol\":4605:4638  return people[msg.sender].friends */\n      dup1\n      sload\n      dup1\n      0x20\n      mul\n      0x20\n      add\n      mload(0x40)\n      swap1\n      dup2\n      add\n      0x40\n      mstore\n      dup1\n      swap3\n      swap2\n      swap1\n      dup2\n      dup2\n      mstore\n      0x20\n      add\n      dup3\n      dup1\n      sload\n      dup1\n      iszero\n      tag_27\n      jumpi\n      0x20\n      mul\n      dup3\n      add\n      swap2\n      swap1\n      0x00\n      mstore\n      keccak256(0x00, 0x20)\n      swap1\n    tag_28:\n      dup2\n      0x00\n      swap1\n      sload\n      swap1\n      0x0100\n      exp\n      swap1\n      div\n      0xffffffffffffffffffffffffffffffffffffffff\n      and\n      0xffffffffffffffffffffffffffffffffffffffff\n      and\n      dup2\n      mstore\n      0x20\n      add\n      swap1\n      0x01\n      add\n      swap1\n      dup1\n      dup4\n      gt\n      tag_28\n      jumpi\n    tag_27:\n      pop\n      pop\n      pop\n      pop\n      pop\n      swap1\n      pop\n        /* \"advanced/ExampleWithAllConcepts.sol\":4534:4645  function getFriends() public view returns (address[] memory) {... */\n      swap1\n      jump\t// out\n        /* \"advanced/ExampleWithAllConcepts.sol\":3384:3501  function getNumberOfFriends() public view returns (uint256) {... */\n    tag_13:\n        /* \"advanced/ExampleWithAllConcepts.sol\":3435:3442  uint256 */\n      0x00\n        /* \"advanced/ExampleWithAllConcepts.sol\":3461:3467  people */\n      dup1\n        /* \"advanced/ExampleWithAllConcepts.sol\":3461:3479  people[msg.sender] */\n      0x00\n        /* \"advanced/ExampleWithAllConcepts.sol\":3468:3478  msg.sender */\n      caller\n        /* \"advanced/ExampleWithAllConcepts.sol\":3461:3479  people[msg.sender] */\n      0xffffffffffffffffffffffffffffffffffffffff\n      and\n      0xffffffffffffffffffffffffffffffffffffffff\n      and\n      dup2\n      mstore\n      0x20\n      add\n      swap1\n      dup2\n      mstore\n      0x20\n      add\n      0x00\n      keccak256\n        /* \"advanced/ExampleWithAllConcepts.sol\":3461:3487  people[msg.sender].friends */\n      0x00\n      add\n        /* \"advanced/ExampleWithAllConcepts.sol\":3461:3494  people[msg.sender].friends.length */\n      dup1\n      sload\n      swap1\n      pop\n        /* \"advanced/ExampleWithAllConcepts.sol\":3454:3494  return people[msg.sender].friends.length */\n      swap1\n      pop\n        /* \"advanced/ExampleWithAllConcepts.sol\":3384:3501  function getNumberOfFriends() public view returns (uint256) {... */\n      swap1\n      jump\t// out\n        /* \"advanced/ExampleWithAllConcepts.sol\":3640:3945  function sendFriendRequest(address friend)... */\n    tag_19:\n        /* \"advanced/ExampleWithAllConcepts.sol\":3721:3727  friend */\n      dup1\n        /* \"advanced/ExampleWithAllConcepts.sol\":1761:1790  address[] memory requestsSent */\n      0x00\n        /* \"advanced/ExampleWithAllConcepts.sol\":1793:1799  people */\n      dup1\n        /* \"advanced/ExampleWithAllConcepts.sol\":1793:1811  people[msg.sender] */\n      0x00\n        /* \"advanced/ExampleWithAllConcepts.sol\":1800:1810  msg.sender */\n      caller\n        /* \"advanced/ExampleWithAllConcepts.sol\":1793:1811  people[msg.sender] */\n      0xffffffffffffffffffffffffffffffffffffffff\n      and\n      0xffffffffffffffffffffffffffffffffffffffff\n      and\n      dup2\n      mstore\n      0x20\n      add\n      swap1\n      dup2\n      mstore\n      0x20\n      add\n      0x00\n      keccak256\n        /* \"advanced/ExampleWithAllConcepts.sol\":1793:1824  people[msg.sender].requestsSent */\n      0x01\n      add\n        /* \"advanced/ExampleWithAllConcepts.sol\":1761:1824  address[] memory requestsSent = people[msg.sender].requestsSent */\n      dup1\n      sload\n      dup1\n      0x20\n      mul\n      0x20\n      add\n      mload(0x40)\n      swap1\n      dup2\n      add\n      0x40\n      mstore\n      dup1\n      swap3\n      swap2\n      swap1\n      dup2\n      dup2\n      mstore\n      0x20\n      add\n      dup3\n      dup1\n      sload\n      dup1\n      iszero\n      tag_31\n      jumpi\n      0x20\n      mul\n      dup3\n      add\n      swap2\n      swap1\n      0x00\n      mstore\n      keccak256(0x00, 0x20)\n      swap1\n    tag_32:\n      dup2\n      0x00\n      swap1\n      sload\n      swap1\n      0x0100\n      exp\n      swap1\n      div\n      0xffffffffffffffffffffffffffffffffffffffff\n      and\n      0xffffffffffffffffffffffffffffffffffffffff\n      and\n      dup2\n      mstore\n      0x20\n      add\n      swap1\n      0x01\n      add\n      swap1\n      dup1\n      dup4\n      gt\n      tag_32\n      jumpi\n    tag_31:\n      pop\n      pop\n      pop\n      pop\n      pop\n      swap1\n      pop\n        /* \"advanced/ExampleWithAllConcepts.sol\":1856:1891  arrayContains(requestsSent, friend) */\n      tag_33\n        /* \"advanced/ExampleWithAllConcepts.sol\":1870:1882  requestsSent */\n      dup2\n        /* \"advanced/ExampleWithAllConcepts.sol\":1884:1890  friend */\n      dup4\n        /* \"advanced/ExampleWithAllConcepts.sol\":1856:1869  arrayContains */\n      tag_34\n        /* \"advanced/ExampleWithAllConcepts.sol\":1856:1891  arrayContains(requestsSent, friend) */\n      jump\t// in\n    tag_33:\n        /* \"advanced/ExampleWithAllConcepts.sol\":1855:1891  !arrayContains(requestsSent, friend) */\n      iszero\n        /* \"advanced/ExampleWithAllConcepts.sol\":1834:1958  require(... */\n      tag_35\n      jumpi\n      mload(0x40)\n      0x08c379a000000000000000000000000000000000000000000000000000000000\n      dup2\n      mstore\n      0x04\n      add\n      tag_36\n      swap1\n      tag_37\n      jump\t// in\n    tag_36:\n      mload(0x40)\n      dup1\n      swap2\n      sub\n      swap1\n      revert\n    tag_35:\n        /* \"advanced/ExampleWithAllConcepts.sol\":3756:3762  friend */\n      dup3\n        /* \"advanced/ExampleWithAllConcepts.sol\":2036:2069  address[] memory requestsReceived */\n      0x00\n        /* \"advanced/ExampleWithAllConcepts.sol\":2072:2078  people */\n      dup1\n        /* \"advanced/ExampleWithAllConcepts.sol\":2072:2090  people[msg.sender] */\n      0x00\n        /* \"advanced/ExampleWithAllConcepts.sol\":2079:2089  msg.sender */\n      caller\n        /* \"advanced/ExampleWithAllConcepts.sol\":2072:2090  people[msg.sender] */\n      0xffffffffffffffffffffffffffffffffffffffff\n      and\n      0xffffffffffffffffffffffffffffffffffffffff\n      and\n      dup2\n      mstore\n      0x20\n      add\n      swap1\n      dup2\n      mstore\n      0x20\n      add\n      0x00\n      keccak256\n        /* \"advanced/ExampleWithAllConcepts.sol\":2072:2107  people[msg.sender].requestsReceived */\n      0x02\n      add\n        /* \"advanced/ExampleWithAllConcepts.sol\":2036:2107  address[] memory requestsReceived = people[msg.sender].requestsReceived */\n      dup1\n      sload\n      dup1\n      0x20\n      mul\n      0x20\n      add\n      mload(0x40)\n      swap1\n      dup2\n      add\n      0x40\n      mstore\n      dup1\n      swap3\n      swap2\n      swap1\n      dup2\n      dup2\n      mstore\n      0x20\n      add\n      dup3\n      dup1\n      sload\n      dup1\n      iszero\n      tag_39\n      jumpi\n      0x20\n      mul\n      dup3\n      add\n      swap2\n      swap1\n      0x00\n      mstore\n      keccak256(0x00, 0x20)\n      swap1\n    tag_40:\n      dup2\n      0x00\n      swap1\n      sload\n      swap1\n      0x0100\n      exp\n      swap1\n      div\n      0xffffffffffffffffffffffffffffffffffffffff\n      and\n      0xffffffffffffffffffffffffffffffffffffffff\n      and\n      dup2\n      mstore\n      0x20\n      add\n      swap1\n      0x01\n      add\n      swap1\n      dup1\n      dup4\n      gt\n      tag_40\n      jumpi\n    tag_39:\n      pop\n      pop\n      pop\n      pop\n      pop\n      swap1\n      pop\n        /* \"advanced/ExampleWithAllConcepts.sol\":2139:2178  arrayContains(requestsReceived, friend) */\n      tag_41\n        /* \"advanced/ExampleWithAllConcepts.sol\":2153:2169  requestsReceived */\n      dup2\n        /* \"advanced/ExampleWithAllConcepts.sol\":2171:2177  friend */\n      dup4\n        /* \"advanced/ExampleWithAllConcepts.sol\":2139:2152  arrayContains */\n      tag_34\n        /* \"advanced/ExampleWithAllConcepts.sol\":2139:2178  arrayContains(requestsReceived, friend) */\n      jump\t// in\n    tag_41:\n        /* \"advanced/ExampleWithAllConcepts.sol\":2138:2178  !arrayContains(requestsReceived, friend) */\n      iszero\n        /* \"advanced/ExampleWithAllConcepts.sol\":2117:2244  require(... */\n      tag_42\n      jumpi\n      mload(0x40)\n      0x08c379a000000000000000000000000000000000000000000000000000000000\n      dup2\n      mstore\n      0x04\n      add\n      tag_43\n      swap1\n      tag_44\n      jump\t// in\n    tag_43:\n      mload(0x40)\n      dup1\n      swap2\n      sub\n      swap1\n      revert\n    tag_42:\n        /* \"advanced/ExampleWithAllConcepts.sol\":3790:3796  friend */\n      dup5\n        /* \"advanced/ExampleWithAllConcepts.sol\":2597:2621  address[] memory friends */\n      0x00\n        /* \"advanced/ExampleWithAllConcepts.sol\":2624:2630  people */\n      dup1\n        /* \"advanced/ExampleWithAllConcepts.sol\":2624:2642  people[msg.sender] */\n      0x00\n        /* \"advanced/ExampleWithAllConcepts.sol\":2631:2641  msg.sender */\n      caller\n        /* \"advanced/ExampleWithAllConcepts.sol\":2624:2642  people[msg.sender] */\n      0xffffffffffffffffffffffffffffffffffffffff\n      and\n      0xffffffffffffffffffffffffffffffffffffffff\n      and\n      dup2\n      mstore\n      0x20\n      add\n      swap1\n      dup2\n      mstore\n      0x20\n      add\n      0x00\n      keccak256\n        /* \"advanced/ExampleWithAllConcepts.sol\":2624:2650  people[msg.sender].friends */\n      0x00\n      add\n        /* \"advanced/ExampleWithAllConcepts.sol\":2597:2650  address[] memory friends = people[msg.sender].friends */\n      dup1\n      sload\n      dup1\n      0x20\n      mul\n      0x20\n      add\n      mload(0x40)\n      swap1\n      dup2\n      add\n      0x40\n      mstore\n      dup1\n      swap3\n      swap2\n      swap1\n      dup2\n      dup2\n      mstore\n      0x20\n      add\n      dup3\n      dup1\n      sload\n      dup1\n      iszero\n      tag_46\n      jumpi\n      0x20\n      mul\n      dup3\n      add\n      swap2\n      swap1\n      0x00\n      mstore\n      keccak256(0x00, 0x20)\n      swap1\n    tag_47:\n      dup2\n      0x00\n      swap1\n      sload\n      swap1\n      0x0100\n      exp\n      swap1\n      div\n      0xffffffffffffffffffffffffffffffffffffffff\n      and\n      0xffffffffffffffffffffffffffffffffffffffff\n      and\n      dup2\n      mstore\n      0x20\n      add\n      swap1\n      0x01\n      add\n      swap1\n      dup1\n      dup4\n      gt\n      tag_47\n      jumpi\n    tag_46:\n      pop\n      pop\n      pop\n      pop\n      pop\n      swap1\n      pop\n        /* \"advanced/ExampleWithAllConcepts.sol\":2682:2712  arrayContains(friends, friend) */\n      tag_48\n        /* \"advanced/ExampleWithAllConcepts.sol\":2696:2703  friends */\n      dup2\n        /* \"advanced/ExampleWithAllConcepts.sol\":2705:2711  friend */\n      dup4\n        /* \"advanced/ExampleWithAllConcepts.sol\":2682:2695  arrayContains */\n      tag_34\n        /* \"advanced/ExampleWithAllConcepts.sol\":2682:2712  arrayContains(friends, friend) */\n      jump\t// in\n    tag_48:\n        /* \"advanced/ExampleWithAllConcepts.sol\":2681:2712  !arrayContains(friends, friend) */\n      iszero\n        /* \"advanced/ExampleWithAllConcepts.sol\":2660:2776  require(... */\n      tag_49\n      jumpi\n      mload(0x40)\n      0x08c379a000000000000000000000000000000000000000000000000000000000\n      dup2\n      mstore\n      0x04\n      add\n      tag_50\n      swap1\n      tag_51\n      jump\t// in\n    tag_50:\n      mload(0x40)\n      dup1\n      swap2\n      sub\n      swap1\n      revert\n    tag_49:\n        /* \"advanced/ExampleWithAllConcepts.sol\":3814:3820  friend */\n      dup7\n        /* \"advanced/ExampleWithAllConcepts.sol\":2874:2884  msg.sender */\n      caller\n        /* \"advanced/ExampleWithAllConcepts.sol\":2864:2884  friend != msg.sender */\n      0xffffffffffffffffffffffffffffffffffffffff\n      and\n        /* \"advanced/ExampleWithAllConcepts.sol\":2864:2870  friend */\n      dup2\n        /* \"advanced/ExampleWithAllConcepts.sol\":2864:2884  friend != msg.sender */\n      0xffffffffffffffffffffffffffffffffffffffff\n      and\n      sub\n        /* \"advanced/ExampleWithAllConcepts.sol\":2843:2954  require(... */\n      tag_53\n      jumpi\n      mload(0x40)\n      0x08c379a000000000000000000000000000000000000000000000000000000000\n      dup2\n      mstore\n      0x04\n      add\n      tag_54\n      swap1\n      tag_55\n      jump\t// in\n    tag_54:\n      mload(0x40)\n      dup1\n      swap2\n      sub\n      swap1\n      revert\n    tag_53:\n        /* \"advanced/ExampleWithAllConcepts.sol\":3836:3842  people */\n      0x00\n        /* \"advanced/ExampleWithAllConcepts.sol\":3836:3854  people[msg.sender] */\n      dup1\n        /* \"advanced/ExampleWithAllConcepts.sol\":3843:3853  msg.sender */\n      caller\n        /* \"advanced/ExampleWithAllConcepts.sol\":3836:3854  people[msg.sender] */\n      0xffffffffffffffffffffffffffffffffffffffff\n      and\n      0xffffffffffffffffffffffffffffffffffffffff\n      and\n      dup2\n      mstore\n      0x20\n      add\n      swap1\n      dup2\n      mstore\n      0x20\n      add\n      0x00\n      keccak256\n        /* \"advanced/ExampleWithAllConcepts.sol\":3836:3867  people[msg.sender].requestsSent */\n      0x01\n      add\n        /* \"advanced/ExampleWithAllConcepts.sol\":3873:3879  friend */\n      dup9\n        /* \"advanced/ExampleWithAllConcepts.sol\":3836:3880  people[msg.sender].requestsSent.push(friend) */\n      swap1\n      dup1\n      0x01\n      dup2\n      sload\n      add\n      dup1\n      dup3\n      sstore\n      dup1\n      swap2\n      pop\n      pop\n      0x01\n      swap1\n      sub\n      swap1\n      0x00\n      mstore\n      keccak256(0x00, 0x20)\n      add\n      0x00\n      swap1\n      swap2\n      swap1\n      swap2\n      swap1\n      swap2\n      0x0100\n      exp\n      dup2\n      sload\n      dup2\n      0xffffffffffffffffffffffffffffffffffffffff\n      mul\n      not\n      and\n      swap1\n      dup4\n      0xffffffffffffffffffffffffffffffffffffffff\n      and\n      mul\n      or\n      swap1\n      sstore\n      pop\n        /* \"advanced/ExampleWithAllConcepts.sol\":3890:3896  people */\n      0x00\n        /* \"advanced/ExampleWithAllConcepts.sol\":3890:3904  people[friend] */\n      dup1\n        /* \"advanced/ExampleWithAllConcepts.sol\":3897:3903  friend */\n      dup10\n        /* \"advanced/ExampleWithAllConcepts.sol\":3890:3904  people[friend] */\n      0xffffffffffffffffffffffffffffffffffffffff\n      and\n      0xffffffffffffffffffffffffffffffffffffffff\n      and\n      dup2\n      mstore\n      0x20\n      add\n      swap1\n      dup2\n      mstore\n      0x20\n      add\n      0x00\n      keccak256\n        /* \"advanced/ExampleWithAllConcepts.sol\":3890:3921  people[friend].requestsReceived */\n      0x02\n      add\n        /* \"advanced/ExampleWithAllConcepts.sol\":3927:3937  msg.sender */\n      caller\n        /* \"advanced/ExampleWithAllConcepts.sol\":3890:3938  people[friend].requestsReceived.push(msg.sender) */\n      swap1\n      dup1\n      0x01\n      dup2\n      sload\n      add\n      dup1\n      dup3\n      sstore\n      dup1\n      swap2\n      pop\n      pop\n      0x01\n      swap1\n      sub\n      swap1\n      0x00\n      mstore\n      keccak256(0x00, 0x20)\n      add\n      0x00\n      swap1\n      swap2\n      swap1\n      swap2\n      swap1\n      swap2\n      0x0100\n      exp\n      dup2\n      sload\n      dup2\n      0xffffffffffffffffffffffffffffffffffffffff\n      mul\n      not\n      and\n      swap1\n      dup4\n      0xffffffffffffffffffffffffffffffffffffffff\n      and\n      mul\n      or\n      swap1\n      sstore\n      pop\n        /* \"advanced/ExampleWithAllConcepts.sol\":2786:2787  _ */\n      pop\n        /* \"advanced/ExampleWithAllConcepts.sol\":2587:2794  {... */\n      pop\n        /* \"advanced/ExampleWithAllConcepts.sol\":2254:2255  _ */\n      pop\n        /* \"advanced/ExampleWithAllConcepts.sol\":2026:2262  {... */\n      pop\n        /* \"advanced/ExampleWithAllConcepts.sol\":1968:1969  _ */\n      pop\n        /* \"advanced/ExampleWithAllConcepts.sol\":1751:1976  {... */\n      pop\n        /* \"advanced/ExampleWithAllConcepts.sol\":3640:3945  function sendFriendRequest(address friend)... */\n      pop\n      pop\n      jump\t// out\n        /* \"advanced/ExampleWithAllConcepts.sol\":4099:4414  function acceptFriendRequest(address friend) public requestExists(friend) {... */\n    tag_22:\n        /* \"advanced/ExampleWithAllConcepts.sol\":4165:4171  friend */\n      dup1\n        /* \"advanced/ExampleWithAllConcepts.sol\":2317:2350  address[] memory requestsReceived */\n      0x00\n        /* \"advanced/ExampleWithAllConcepts.sol\":2353:2359  people */\n      dup1\n        /* \"advanced/ExampleWithAllConcepts.sol\":2353:2371  people[msg.sender] */\n      0x00\n        /* \"advanced/ExampleWithAllConcepts.sol\":2360:2370  msg.sender */\n      caller\n        /* \"advanced/ExampleWithAllConcepts.sol\":2353:2371  people[msg.sender] */\n      0xffffffffffffffffffffffffffffffffffffffff\n      and\n      0xffffffffffffffffffffffffffffffffffffffff\n      and\n      dup2\n      mstore\n      0x20\n      add\n      swap1\n      dup2\n      mstore\n      0x20\n      add\n      0x00\n      keccak256\n        /* \"advanced/ExampleWithAllConcepts.sol\":2353:2388  people[msg.sender].requestsReceived */\n      0x02\n      add\n        /* \"advanced/ExampleWithAllConcepts.sol\":2317:2388  address[] memory requestsReceived = people[msg.sender].requestsReceived */\n      dup1\n      sload\n      dup1\n      0x20\n      mul\n      0x20\n      add\n      mload(0x40)\n      swap1\n      dup2\n      add\n      0x40\n      mstore\n      dup1\n      swap3\n      swap2\n      swap1\n      dup2\n      dup2\n      mstore\n      0x20\n      add\n      dup3\n      dup1\n      sload\n      dup1\n      iszero\n      tag_60\n      jumpi\n      0x20\n      mul\n      dup3\n      add\n      swap2\n      swap1\n      0x00\n      mstore\n      keccak256(0x00, 0x20)\n      swap1\n    tag_61:\n      dup2\n      0x00\n      swap1\n      sload\n      swap1\n      0x0100\n      exp\n      swap1\n      div\n      0xffffffffffffffffffffffffffffffffffffffff\n      and\n      0xffffffffffffffffffffffffffffffffffffffff\n      and\n      dup2\n      mstore\n      0x20\n      add\n      swap1\n      0x01\n      add\n      swap1\n      dup1\n      dup4\n      gt\n      tag_61\n      jumpi\n    tag_60:\n      pop\n      pop\n      pop\n      pop\n      pop\n      swap1\n      pop\n        /* \"advanced/ExampleWithAllConcepts.sol\":2419:2458  arrayContains(requestsReceived, friend) */\n      tag_62\n        /* \"advanced/ExampleWithAllConcepts.sol\":2433:2449  requestsReceived */\n      dup2\n        /* \"advanced/ExampleWithAllConcepts.sol\":2451:2457  friend */\n      dup4\n        /* \"advanced/ExampleWithAllConcepts.sol\":2419:2432  arrayContains */\n      tag_34\n        /* \"advanced/ExampleWithAllConcepts.sol\":2419:2458  arrayContains(requestsReceived, friend) */\n      jump\t// in\n    tag_62:\n        /* \"advanced/ExampleWithAllConcepts.sol\":2398:2520  require(... */\n      tag_63\n      jumpi\n      mload(0x40)\n      0x08c379a000000000000000000000000000000000000000000000000000000000\n      dup2\n      mstore\n      0x04\n      add\n      tag_64\n      swap1\n      tag_65\n      jump\t// in\n    tag_64:\n      mload(0x40)\n      dup1\n      swap2\n      sub\n      swap1\n      revert\n    tag_63:\n        /* \"advanced/ExampleWithAllConcepts.sol\":4183:4243  deleteFromArray(people[msg.sender].requestsReceived, friend) */\n      tag_67\n        /* \"advanced/ExampleWithAllConcepts.sol\":4199:4205  people */\n      0x00\n        /* \"advanced/ExampleWithAllConcepts.sol\":4199:4217  people[msg.sender] */\n      dup1\n        /* \"advanced/ExampleWithAllConcepts.sol\":4206:4216  msg.sender */\n      caller\n        /* \"advanced/ExampleWithAllConcepts.sol\":4199:4217  people[msg.sender] */\n      0xffffffffffffffffffffffffffffffffffffffff\n      and\n      0xffffffffffffffffffffffffffffffffffffffff\n      and\n      dup2\n      mstore\n      0x20\n      add\n      swap1\n      dup2\n      mstore\n      0x20\n      add\n      0x00\n      keccak256\n        /* \"advanced/ExampleWithAllConcepts.sol\":4199:4234  people[msg.sender].requestsReceived */\n      0x02\n      add\n        /* \"advanced/ExampleWithAllConcepts.sol\":4236:4242  friend */\n      dup5\n        /* \"advanced/ExampleWithAllConcepts.sol\":4183:4198  deleteFromArray */\n      tag_68\n        /* \"advanced/ExampleWithAllConcepts.sol\":4183:4243  deleteFromArray(people[msg.sender].requestsReceived, friend) */\n      jump\t// in\n    tag_67:\n        /* \"advanced/ExampleWithAllConcepts.sol\":4253:4309  deleteFromArray(people[friend].requestsSent, msg.sender) */\n      tag_69\n        /* \"advanced/ExampleWithAllConcepts.sol\":4269:4275  people */\n      0x00\n        /* \"advanced/ExampleWithAllConcepts.sol\":4269:4283  people[friend] */\n      dup1\n        /* \"advanced/ExampleWithAllConcepts.sol\":4276:4282  friend */\n      dup6\n        /* \"advanced/ExampleWithAllConcepts.sol\":4269:4283  people[friend] */\n      0xffffffffffffffffffffffffffffffffffffffff\n      and\n      0xffffffffffffffffffffffffffffffffffffffff\n      and\n      dup2\n      mstore\n      0x20\n      add\n      swap1\n      dup2\n      mstore\n      0x20\n      add\n      0x00\n      keccak256\n        /* \"advanced/ExampleWithAllConcepts.sol\":4269:4296  people[friend].requestsSent */\n      0x01\n      add\n        /* \"advanced/ExampleWithAllConcepts.sol\":4298:4308  msg.sender */\n      caller\n        /* \"advanced/ExampleWithAllConcepts.sol\":4253:4268  deleteFromArray */\n      tag_68\n        /* \"advanced/ExampleWithAllConcepts.sol\":4253:4309  deleteFromArray(people[friend].requestsSent, msg.sender) */\n      jump\t// in\n    tag_69:\n        /* \"advanced/ExampleWithAllConcepts.sol\":4319:4325  people */\n      0x00\n        /* \"advanced/ExampleWithAllConcepts.sol\":4319:4337  people[msg.sender] */\n      dup1\n        /* \"advanced/ExampleWithAllConcepts.sol\":4326:4336  msg.sender */\n      caller\n        /* \"advanced/ExampleWithAllConcepts.sol\":4319:4337  people[msg.sender] */\n      0xffffffffffffffffffffffffffffffffffffffff\n      and\n      0xffffffffffffffffffffffffffffffffffffffff\n      and\n      dup2\n      mstore\n      0x20\n      add\n      swap1\n      dup2\n      mstore\n      0x20\n      add\n      0x00\n      keccak256\n        /* \"advanced/ExampleWithAllConcepts.sol\":4319:4345  people[msg.sender].friends */\n      0x00\n      add\n        /* \"advanced/ExampleWithAllConcepts.sol\":4351:4357  friend */\n      dup4\n        /* \"advanced/ExampleWithAllConcepts.sol\":4319:4358  people[msg.sender].friends.push(friend) */\n      swap1\n      dup1\n      0x01\n      dup2\n      sload\n      add\n      dup1\n      dup3\n      sstore\n      dup1\n      swap2\n      pop\n      pop\n      0x01\n      swap1\n      sub\n      swap1\n      0x00\n      mstore\n      keccak256(0x00, 0x20)\n      add\n      0x00\n      swap1\n      swap2\n      swap1\n      swap2\n      swap1\n      swap2\n      0x0100\n      exp\n      dup2\n      sload\n      dup2\n      0xffffffffffffffffffffffffffffffffffffffff\n      mul\n      not\n      and\n      swap1\n      dup4\n      0xffffffffffffffffffffffffffffffffffffffff\n      and\n      mul\n      or\n      swap1\n      sstore\n      pop\n        /* \"advanced/ExampleWithAllConcepts.sol\":4368:4374  people */\n      0x00\n        /* \"advanced/ExampleWithAllConcepts.sol\":4368:4382  people[friend] */\n      dup1\n        /* \"advanced/ExampleWithAllConcepts.sol\":4375:4381  friend */\n      dup5\n        /* \"advanced/ExampleWithAllConcepts.sol\":4368:4382  people[friend] */\n      0xffffffffffffffffffffffffffffffffffffffff\n      and\n      0xffffffffffffffffffffffffffffffffffffffff\n      and\n      dup2\n      mstore\n      0x20\n      add\n      swap1\n      dup2\n      mstore\n      0x20\n      add\n      0x00\n      keccak256\n        /* \"advanced/ExampleWithAllConcepts.sol\":4368:4390  people[friend].friends */\n      0x00\n      add\n        /* \"advanced/ExampleWithAllConcepts.sol\":4396:4406  msg.sender */\n      caller\n        /* \"advanced/ExampleWithAllConcepts.sol\":4368:4407  people[friend].friends.push(msg.sender) */\n      swap1\n      dup1\n      0x01\n      dup2\n      sload\n      add\n      dup1\n      dup3\n      sstore\n      dup1\n      swap2\n      pop\n      pop\n      0x01\n      swap1\n      sub\n      swap1\n      0x00\n      mstore\n      keccak256(0x00, 0x20)\n      add\n      0x00\n      swap1\n      swap2\n      swap1\n      swap2\n      swap1\n      swap2\n      0x0100\n      exp\n      dup2\n      sload\n      dup2\n      0xffffffffffffffffffffffffffffffffffffffff\n      mul\n      not\n      and\n      swap1\n      dup4\n      0xffffffffffffffffffffffffffffffffffffffff\n      and\n      mul\n      or\n      swap1\n      sstore\n      pop\n        /* \"advanced/ExampleWithAllConcepts.sol\":2307:2538  {... */\n      pop\n        /* \"advanced/ExampleWithAllConcepts.sol\":4099:4414  function acceptFriendRequest(address friend) public requestExists(friend) {... */\n      pop\n      pop\n      jump\t// out\n        /* \"advanced/ExampleWithAllConcepts.sol\":3135:3262  function getFriendRequests() public view returns (address[] memory) {... */\n    tag_24:\n        /* \"advanced/ExampleWithAllConcepts.sol\":3185:3201  address[] memory */\n      0x60\n        /* \"advanced/ExampleWithAllConcepts.sol\":3220:3226  people */\n      0x00\n        /* \"advanced/ExampleWithAllConcepts.sol\":3220:3238  people[msg.sender] */\n      dup1\n        /* \"advanced/ExampleWithAllConcepts.sol\":3227:3237  msg.sender */\n      caller\n        /* \"advanced/ExampleWithAllConcepts.sol\":3220:3238  people[msg.sender] */\n      0xffffffffffffffffffffffffffffffffffffffff\n      and\n      0xffffffffffffffffffffffffffffffffffffffff\n      and\n      dup2\n      mstore\n      0x20\n      add\n      swap1\n      dup2\n      mstore\n      0x20\n      add\n      0x00\n      keccak256\n        /* \"advanced/ExampleWithAllConcepts.sol\":3220:3255  people[msg.sender].requestsReceived */\n      0x02\n      add\n        /* \"advanced/ExampleWithAllConcepts.sol\":3213:3255  return people[msg.sender].requestsReceived */\n      dup1\n      sload\n      dup1\n      0x20\n      mul\n      0x20\n      add\n      mload(0x40)\n      swap1\n      dup2\n      add\n      0x40\n      mstore\n      dup1\n      swap3\n      swap2\n      swap1\n      dup2\n      dup2\n      mstore\n      0x20\n      add\n      dup3\n      dup1\n      sload\n      dup1\n      iszero\n      tag_73\n      jumpi\n      0x20\n      mul\n      dup3\n      add\n      swap2\n      swap1\n      0x00\n      mstore\n      keccak256(0x00, 0x20)\n      swap1\n    tag_74:\n      dup2\n      0x00\n      swap1\n      sload\n      swap1\n      0x0100\n      exp\n      swap1\n      div\n      0xffffffffffffffffffffffffffffffffffffffff\n      and\n      0xffffffffffffffffffffffffffffffffffffffff\n      and\n      dup2\n      mstore\n      0x20\n      add\n      swap1\n      0x01\n      add\n      swap1\n      dup1\n      dup4\n      gt\n      tag_74\n      jumpi\n    tag_73:\n      pop\n      pop\n      pop\n      pop\n      pop\n      swap1\n      pop\n        /* \"advanced/ExampleWithAllConcepts.sol\":3135:3262  function getFriendRequests() public view returns (address[] memory) {... */\n      swap1\n      jump\t// out\n        /* \"advanced/ExampleWithAllConcepts.sol\":628:925  function arrayContains(address[] memory array, address target)... */\n    tag_34:\n        /* \"advanced/ExampleWithAllConcepts.sol\":738:742  bool */\n      0x00\n        /* \"advanced/ExampleWithAllConcepts.sol\":763:774  uint256 idx */\n      dup1\n        /* \"advanced/ExampleWithAllConcepts.sol\":758:897  for (uint256 idx; idx < array.length; idx++) {... */\n    tag_76:\n        /* \"advanced/ExampleWithAllConcepts.sol\":782:787  array */\n      dup4\n        /* \"advanced/ExampleWithAllConcepts.sol\":782:794  array.length */\n      mload\n        /* \"advanced/ExampleWithAllConcepts.sol\":776:779  idx */\n      dup2\n        /* \"advanced/ExampleWithAllConcepts.sol\":776:794  idx < array.length */\n      lt\n        /* \"advanced/ExampleWithAllConcepts.sol\":758:897  for (uint256 idx; idx < array.length; idx++) {... */\n      iszero\n      tag_77\n      jumpi\n        /* \"advanced/ExampleWithAllConcepts.sol\":835:841  target */\n      dup3\n        /* \"advanced/ExampleWithAllConcepts.sol\":821:841  array[idx] == target */\n      0xffffffffffffffffffffffffffffffffffffffff\n      and\n        /* \"advanced/ExampleWithAllConcepts.sol\":821:826  array */\n      dup5\n        /* \"advanced/ExampleWithAllConcepts.sol\":827:830  idx */\n      dup3\n        /* \"advanced/ExampleWithAllConcepts.sol\":821:831  array[idx] */\n      dup2\n      mload\n      dup2\n      lt\n      tag_79\n      jumpi\n      tag_80\n      tag_81\n      jump\t// in\n    tag_80:\n    tag_79:\n      0x20\n      mul\n      0x20\n      add\n      add\n      mload\n        /* \"advanced/ExampleWithAllConcepts.sol\":821:841  array[idx] == target */\n      0xffffffffffffffffffffffffffffffffffffffff\n      and\n      sub\n        /* \"advanced/ExampleWithAllConcepts.sol\":817:887  if (array[idx] == target) {... */\n      tag_82\n      jumpi\n        /* \"advanced/ExampleWithAllConcepts.sol\":868:872  true */\n      0x01\n        /* \"advanced/ExampleWithAllConcepts.sol\":861:872  return true */\n      swap2\n      pop\n      pop\n      jump(tag_75)\n        /* \"advanced/ExampleWithAllConcepts.sol\":817:887  if (array[idx] == target) {... */\n    tag_82:\n        /* \"advanced/ExampleWithAllConcepts.sol\":796:801  idx++ */\n      dup1\n      dup1\n      0x01\n      add\n      swap2\n      pop\n      pop\n        /* \"advanced/ExampleWithAllConcepts.sol\":758:897  for (uint256 idx; idx < array.length; idx++) {... */\n      jump(tag_76)\n    tag_77:\n      pop\n        /* \"advanced/ExampleWithAllConcepts.sol\":913:918  false */\n      0x00\n        /* \"advanced/ExampleWithAllConcepts.sol\":906:918  return false */\n      swap1\n      pop\n        /* \"advanced/ExampleWithAllConcepts.sol\":628:925  function arrayContains(address[] memory array, address target)... */\n    tag_75:\n      swap3\n      swap2\n      pop\n      pop\n      jump\t// out\n        /* \"advanced/ExampleWithAllConcepts.sol\":1158:1623  function deleteFromArray(address[] storage array, address target) internal {... */\n    tag_68:\n        /* \"advanced/ExampleWithAllConcepts.sol\":1243:1260  uint256 targetIdx */\n      0x00\n        /* \"advanced/ExampleWithAllConcepts.sol\":1275:1286  uint256 idx */\n      dup1\n        /* \"advanced/ExampleWithAllConcepts.sol\":1270:1436  for (uint256 idx; idx < array.length; idx++) {... */\n    tag_84:\n        /* \"advanced/ExampleWithAllConcepts.sol\":1294:1299  array */\n      dup4\n        /* \"advanced/ExampleWithAllConcepts.sol\":1294:1306  array.length */\n      dup1\n      sload\n      swap1\n      pop\n        /* \"advanced/ExampleWithAllConcepts.sol\":1288:1291  idx */\n      dup2\n        /* \"advanced/ExampleWithAllConcepts.sol\":1288:1306  idx < array.length */\n      lt\n        /* \"advanced/ExampleWithAllConcepts.sol\":1270:1436  for (uint256 idx; idx < array.length; idx++) {... */\n      iszero\n      tag_85\n      jumpi\n        /* \"advanced/ExampleWithAllConcepts.sol\":1347:1353  target */\n      dup3\n        /* \"advanced/ExampleWithAllConcepts.sol\":1333:1353  array[idx] == target */\n      0xffffffffffffffffffffffffffffffffffffffff\n      and\n        /* \"advanced/ExampleWithAllConcepts.sol\":1333:1338  array */\n      dup5\n        /* \"advanced/ExampleWithAllConcepts.sol\":1339:1342  idx */\n      dup3\n        /* \"advanced/ExampleWithAllConcepts.sol\":1333:1343  array[idx] */\n      dup2\n      sload\n      dup2\n      lt\n      tag_87\n      jumpi\n      tag_88\n      tag_81\n      jump\t// in\n    tag_88:\n    tag_87:\n      swap1\n      0x00\n      mstore\n      keccak256(0x00, 0x20)\n      add\n      0x00\n      swap1\n      sload\n      swap1\n      0x0100\n      exp\n      swap1\n      div\n      0xffffffffffffffffffffffffffffffffffffffff\n      and\n        /* \"advanced/ExampleWithAllConcepts.sol\":1333:1353  array[idx] == target */\n      0xffffffffffffffffffffffffffffffffffffffff\n      and\n      sub\n        /* \"advanced/ExampleWithAllConcepts.sol\":1329:1426  if (array[idx] == target) {... */\n      tag_90\n      jumpi\n        /* \"advanced/ExampleWithAllConcepts.sol\":1385:1388  idx */\n      dup1\n        /* \"advanced/ExampleWithAllConcepts.sol\":1373:1388  targetIdx = idx */\n      swap2\n      pop\n        /* \"advanced/ExampleWithAllConcepts.sol\":1406:1411  break */\n      jump(tag_85)\n        /* \"advanced/ExampleWithAllConcepts.sol\":1329:1426  if (array[idx] == target) {... */\n    tag_90:\n        /* \"advanced/ExampleWithAllConcepts.sol\":1308:1313  idx++ */\n      dup1\n      dup1\n      0x01\n      add\n      swap2\n      pop\n      pop\n        /* \"advanced/ExampleWithAllConcepts.sol\":1270:1436  for (uint256 idx; idx < array.length; idx++) {... */\n      jump(tag_84)\n    tag_85:\n      pop\n        /* \"advanced/ExampleWithAllConcepts.sol\":1446:1461  uint256 lastIdx */\n      0x00\n        /* \"advanced/ExampleWithAllConcepts.sol\":1479:1480  1 */\n      0x01\n        /* \"advanced/ExampleWithAllConcepts.sol\":1464:1469  array */\n      dup5\n        /* \"advanced/ExampleWithAllConcepts.sol\":1464:1476  array.length */\n      dup1\n      sload\n      swap1\n      pop\n        /* \"advanced/ExampleWithAllConcepts.sol\":1464:1480  array.length - 1 */\n      tag_91\n      swap2\n      swap1\n      tag_92\n      jump\t// in\n    tag_91:\n        /* \"advanced/ExampleWithAllConcepts.sol\":1446:1480  uint256 lastIdx = array.length - 1 */\n      swap1\n      pop\n        /* \"advanced/ExampleWithAllConcepts.sol\":1490:1507  address lastValue */\n      0x00\n        /* \"advanced/ExampleWithAllConcepts.sol\":1510:1515  array */\n      dup5\n        /* \"advanced/ExampleWithAllConcepts.sol\":1516:1523  lastIdx */\n      dup3\n        /* \"advanced/ExampleWithAllConcepts.sol\":1510:1524  array[lastIdx] */\n      dup2\n      sload\n      dup2\n      lt\n      tag_93\n      jumpi\n      tag_94\n      tag_81\n      jump\t// in\n    tag_94:\n    tag_93:\n      swap1\n      0x00\n      mstore\n      keccak256(0x00, 0x20)\n      add\n      0x00\n      swap1\n      sload\n      swap1\n      0x0100\n      exp\n      swap1\n      div\n      0xffffffffffffffffffffffffffffffffffffffff\n      and\n        /* \"advanced/ExampleWithAllConcepts.sol\":1490:1524  address lastValue = array[lastIdx] */\n      swap1\n      pop\n        /* \"advanced/ExampleWithAllConcepts.sol\":1551:1557  target */\n      dup4\n        /* \"advanced/ExampleWithAllConcepts.sol\":1534:1539  array */\n      dup6\n        /* \"advanced/ExampleWithAllConcepts.sol\":1540:1547  lastIdx */\n      dup4\n        /* \"advanced/ExampleWithAllConcepts.sol\":1534:1548  array[lastIdx] */\n      dup2\n      sload\n      dup2\n      lt\n      tag_96\n      jumpi\n      tag_97\n      tag_81\n      jump\t// in\n    tag_97:\n    tag_96:\n      swap1\n      0x00\n      mstore\n      keccak256(0x00, 0x20)\n      add\n      0x00\n        /* \"advanced/ExampleWithAllConcepts.sol\":1534:1557  array[lastIdx] = target */\n      0x0100\n      exp\n      dup2\n      sload\n      dup2\n      0xffffffffffffffffffffffffffffffffffffffff\n      mul\n      not\n      and\n      swap1\n      dup4\n      0xffffffffffffffffffffffffffffffffffffffff\n      and\n      mul\n      or\n      swap1\n      sstore\n      pop\n        /* \"advanced/ExampleWithAllConcepts.sol\":1586:1595  lastValue */\n      dup1\n        /* \"advanced/ExampleWithAllConcepts.sol\":1567:1572  array */\n      dup6\n        /* \"advanced/ExampleWithAllConcepts.sol\":1573:1582  targetIdx */\n      dup5\n        /* \"advanced/ExampleWithAllConcepts.sol\":1567:1583  array[targetIdx] */\n      dup2\n      sload\n      dup2\n      lt\n      tag_99\n      jumpi\n      tag_100\n      tag_81\n      jump\t// in\n    tag_100:\n    tag_99:\n      swap1\n      0x00\n      mstore\n      keccak256(0x00, 0x20)\n      add\n      0x00\n        /* \"advanced/ExampleWithAllConcepts.sol\":1567:1595  array[targetIdx] = lastValue */\n      0x0100\n      exp\n      dup2\n      sload\n      dup2\n      0xffffffffffffffffffffffffffffffffffffffff\n      mul\n      not\n      and\n      swap1\n      dup4\n      0xffffffffffffffffffffffffffffffffffffffff\n      and\n      mul\n      or\n      swap1\n      sstore\n      pop\n        /* \"advanced/ExampleWithAllConcepts.sol\":1605:1610  array */\n      dup5\n        /* \"advanced/ExampleWithAllConcepts.sol\":1605:1616  array.pop() */\n      dup1\n      sload\n      dup1\n      tag_102\n      jumpi\n      tag_103\n      tag_104\n      jump\t// in\n    tag_103:\n    tag_102:\n      0x01\n      swap1\n      sub\n      dup2\n      dup2\n      swap1\n      0x00\n      mstore\n      keccak256(0x00, 0x20)\n      add\n      exp(0x0100, 0x00)\n      dup2\n      sload\n      swap1\n      0xffffffffffffffffffffffffffffffffffffffff\n      mul\n      not\n      and\n      swap1\n      sstore\n      swap1\n      sstore\n        /* \"advanced/ExampleWithAllConcepts.sol\":1233:1623  {... */\n      pop\n      pop\n      pop\n        /* \"advanced/ExampleWithAllConcepts.sol\":1158:1623  function deleteFromArray(address[] storage array, address target) internal {... */\n      pop\n      pop\n      jump\t// out\n        /* \"#utility.yul\":7:121   */\n    tag_106:\n        /* \"#utility.yul\":74:80   */\n      0x00\n        /* \"#utility.yul\":108:113   */\n      dup2\n        /* \"#utility.yul\":102:114   */\n      mload\n        /* \"#utility.yul\":92:114   */\n      swap1\n      pop\n        /* \"#utility.yul\":7:121   */\n      swap2\n      swap1\n      pop\n      jump\t// out\n        /* \"#utility.yul\":127:311   */\n    tag_107:\n        /* \"#utility.yul\":226:237   */\n      0x00\n        /* \"#utility.yul\":260:266   */\n      dup3\n        /* \"#utility.yul\":255:258   */\n      dup3\n        /* \"#utility.yul\":248:267   */\n      mstore\n        /* \"#utility.yul\":300:304   */\n      0x20\n        /* \"#utility.yul\":295:298   */\n      dup3\n        /* \"#utility.yul\":291:305   */\n      add\n        /* \"#utility.yul\":276:305   */\n      swap1\n      pop\n        /* \"#utility.yul\":127:311   */\n      swap3\n      swap2\n      pop\n      pop\n      jump\t// out\n        /* \"#utility.yul\":317:449   */\n    tag_108:\n        /* \"#utility.yul\":384:388   */\n      0x00\n        /* \"#utility.yul\":407:410   */\n      dup2\n        /* \"#utility.yul\":399:410   */\n      swap1\n      pop\n        /* \"#utility.yul\":437:441   */\n      0x20\n        /* \"#utility.yul\":432:435   */\n      dup3\n        /* \"#utility.yul\":428:442   */\n      add\n        /* \"#utility.yul\":420:442   */\n      swap1\n      pop\n        /* \"#utility.yul\":317:449   */\n      swap2\n      swap1\n      pop\n      jump\t// out\n        /* \"#utility.yul\":455:581   */\n    tag_109:\n        /* \"#utility.yul\":492:499   */\n      0x00\n        /* \"#utility.yul\":532:574   */\n      0xffffffffffffffffffffffffffffffffffffffff\n        /* \"#utility.yul\":525:530   */\n      dup3\n        /* \"#utility.yul\":521:575   */\n      and\n        /* \"#utility.yul\":510:575   */\n      swap1\n      pop\n        /* \"#utility.yul\":455:581   */\n      swap2\n      swap1\n      pop\n      jump\t// out\n        /* \"#utility.yul\":587:683   */\n    tag_110:\n        /* \"#utility.yul\":624:631   */\n      0x00\n        /* \"#utility.yul\":653:677   */\n      tag_140\n        /* \"#utility.yul\":671:676   */\n      dup3\n        /* \"#utility.yul\":653:677   */\n      tag_109\n      jump\t// in\n    tag_140:\n        /* \"#utility.yul\":642:677   */\n      swap1\n      pop\n        /* \"#utility.yul\":587:683   */\n      swap2\n      swap1\n      pop\n      jump\t// out\n        /* \"#utility.yul\":689:797   */\n    tag_111:\n        /* \"#utility.yul\":766:790   */\n      tag_142\n        /* \"#utility.yul\":784:789   */\n      dup2\n        /* \"#utility.yul\":766:790   */\n      tag_110\n      jump\t// in\n    tag_142:\n        /* \"#utility.yul\":761:764   */\n      dup3\n        /* \"#utility.yul\":754:791   */\n      mstore\n        /* \"#utility.yul\":689:797   */\n      pop\n      pop\n      jump\t// out\n        /* \"#utility.yul\":803:982   */\n    tag_112:\n        /* \"#utility.yul\":872:882   */\n      0x00\n        /* \"#utility.yul\":893:939   */\n      tag_144\n        /* \"#utility.yul\":935:938   */\n      dup4\n        /* \"#utility.yul\":927:933   */\n      dup4\n        /* \"#utility.yul\":893:939   */\n      tag_111\n      jump\t// in\n    tag_144:\n        /* \"#utility.yul\":971:975   */\n      0x20\n        /* \"#utility.yul\":966:969   */\n      dup4\n        /* \"#utility.yul\":962:976   */\n      add\n        /* \"#utility.yul\":948:976   */\n      swap1\n      pop\n        /* \"#utility.yul\":803:982   */\n      swap3\n      swap2\n      pop\n      pop\n      jump\t// out\n        /* \"#utility.yul\":988:1101   */\n    tag_113:\n        /* \"#utility.yul\":1058:1062   */\n      0x00\n        /* \"#utility.yul\":1090:1094   */\n      0x20\n        /* \"#utility.yul\":1085:1088   */\n      dup3\n        /* \"#utility.yul\":1081:1095   */\n      add\n        /* \"#utility.yul\":1073:1095   */\n      swap1\n      pop\n        /* \"#utility.yul\":988:1101   */\n      swap2\n      swap1\n      pop\n      jump\t// out\n        /* \"#utility.yul\":1137:1869   */\n    tag_114:\n        /* \"#utility.yul\":1256:1259   */\n      0x00\n        /* \"#utility.yul\":1285:1339   */\n      tag_147\n        /* \"#utility.yul\":1333:1338   */\n      dup3\n        /* \"#utility.yul\":1285:1339   */\n      tag_106\n      jump\t// in\n    tag_147:\n        /* \"#utility.yul\":1355:1441   */\n      tag_148\n        /* \"#utility.yul\":1434:1440   */\n      dup2\n        /* \"#utility.yul\":1429:1432   */\n      dup6\n        /* \"#utility.yul\":1355:1441   */\n      tag_107\n      jump\t// in\n    tag_148:\n        /* \"#utility.yul\":1348:1441   */\n      swap4\n      pop\n        /* \"#utility.yul\":1465:1521   */\n      tag_149\n        /* \"#utility.yul\":1515:1520   */\n      dup4\n        /* \"#utility.yul\":1465:1521   */\n      tag_108\n      jump\t// in\n    tag_149:\n        /* \"#utility.yul\":1544:1551   */\n      dup1\n        /* \"#utility.yul\":1575:1576   */\n      0x00\n        /* \"#utility.yul\":1560:1844   */\n    tag_150:\n        /* \"#utility.yul\":1585:1591   */\n      dup4\n        /* \"#utility.yul\":1582:1583   */\n      dup2\n        /* \"#utility.yul\":1579:1592   */\n      lt\n        /* \"#utility.yul\":1560:1844   */\n      iszero\n      tag_152\n      jumpi\n        /* \"#utility.yul\":1661:1667   */\n      dup2\n        /* \"#utility.yul\":1655:1668   */\n      mload\n        /* \"#utility.yul\":1688:1751   */\n      tag_153\n        /* \"#utility.yul\":1747:1750   */\n      dup9\n        /* \"#utility.yul\":1732:1745   */\n      dup3\n        /* \"#utility.yul\":1688:1751   */\n      tag_112\n      jump\t// in\n    tag_153:\n        /* \"#utility.yul\":1681:1751   */\n      swap8\n      pop\n        /* \"#utility.yul\":1774:1834   */\n      tag_154\n        /* \"#utility.yul\":1827:1833   */\n      dup4\n        /* \"#utility.yul\":1774:1834   */\n      tag_113\n      jump\t// in\n    tag_154:\n        /* \"#utility.yul\":1764:1834   */\n      swap3\n      pop\n        /* \"#utility.yul\":1620:1844   */\n      pop\n        /* \"#utility.yul\":1607:1608   */\n      0x01\n        /* \"#utility.yul\":1604:1605   */\n      dup2\n        /* \"#utility.yul\":1600:1609   */\n      add\n        /* \"#utility.yul\":1595:1609   */\n      swap1\n      pop\n        /* \"#utility.yul\":1560:1844   */\n      jump(tag_150)\n    tag_152:\n        /* \"#utility.yul\":1564:1578   */\n      pop\n        /* \"#utility.yul\":1860:1863   */\n      dup6\n        /* \"#utility.yul\":1853:1863   */\n      swap4\n      pop\n        /* \"#utility.yul\":1261:1869   */\n      pop\n      pop\n      pop\n        /* \"#utility.yul\":1137:1869   */\n      swap3\n      swap2\n      pop\n      pop\n      jump\t// out\n        /* \"#utility.yul\":1875:2248   */\n    tag_11:\n        /* \"#utility.yul\":2018:2022   */\n      0x00\n        /* \"#utility.yul\":2056:2058   */\n      0x20\n        /* \"#utility.yul\":2045:2054   */\n      dup3\n        /* \"#utility.yul\":2041:2059   */\n      add\n        /* \"#utility.yul\":2033:2059   */\n      swap1\n      pop\n        /* \"#utility.yul\":2105:2114   */\n      dup2\n        /* \"#utility.yul\":2099:2103   */\n      dup2\n        /* \"#utility.yul\":2095:2115   */\n      sub\n        /* \"#utility.yul\":2091:2092   */\n      0x00\n        /* \"#utility.yul\":2080:2089   */\n      dup4\n        /* \"#utility.yul\":2076:2093   */\n      add\n        /* \"#utility.yul\":2069:2116   */\n      mstore\n        /* \"#utility.yul\":2133:2241   */\n      tag_156\n        /* \"#utility.yul\":2236:2240   */\n      dup2\n        /* \"#utility.yul\":2227:2233   */\n      dup5\n        /* \"#utility.yul\":2133:2241   */\n      tag_114\n      jump\t// in\n    tag_156:\n        /* \"#utility.yul\":2125:2241   */\n      swap1\n      pop\n        /* \"#utility.yul\":1875:2248   */\n      swap3\n      swap2\n      pop\n      pop\n      jump\t// out\n        /* \"#utility.yul\":2254:2331   */\n    tag_115:\n        /* \"#utility.yul\":2291:2298   */\n      0x00\n        /* \"#utility.yul\":2320:2325   */\n      dup2\n        /* \"#utility.yul\":2309:2325   */\n      swap1\n      pop\n        /* \"#utility.yul\":2254:2331   */\n      swap2\n      swap1\n      pop\n      jump\t// out\n        /* \"#utility.yul\":2337:2455   */\n    tag_116:\n        /* \"#utility.yul\":2424:2448   */\n      tag_159\n        /* \"#utility.yul\":2442:2447   */\n      dup2\n        /* \"#utility.yul\":2424:2448   */\n      tag_115\n      jump\t// in\n    tag_159:\n        /* \"#utility.yul\":2419:2422   */\n      dup3\n        /* \"#utility.yul\":2412:2449   */\n      mstore\n        /* \"#utility.yul\":2337:2455   */\n      pop\n      pop\n      jump\t// out\n        /* \"#utility.yul\":2461:2683   */\n    tag_15:\n        /* \"#utility.yul\":2554:2558   */\n      0x00\n        /* \"#utility.yul\":2592:2594   */\n      0x20\n        /* \"#utility.yul\":2581:2590   */\n      dup3\n        /* \"#utility.yul\":2577:2595   */\n      add\n        /* \"#utility.yul\":2569:2595   */\n      swap1\n      pop\n        /* \"#utility.yul\":2605:2676   */\n      tag_161\n        /* \"#utility.yul\":2673:2674   */\n      0x00\n        /* \"#utility.yul\":2662:2671   */\n      dup4\n        /* \"#utility.yul\":2658:2675   */\n      add\n        /* \"#utility.yul\":2649:2655   */\n      dup5\n        /* \"#utility.yul\":2605:2676   */\n      tag_116\n      jump\t// in\n    tag_161:\n        /* \"#utility.yul\":2461:2683   */\n      swap3\n      swap2\n      pop\n      pop\n      jump\t// out\n        /* \"#utility.yul\":2770:2887   */\n    tag_118:\n        /* \"#utility.yul\":2879:2880   */\n      0x00\n        /* \"#utility.yul\":2876:2877   */\n      dup1\n        /* \"#utility.yul\":2869:2881   */\n      revert\n        /* \"#utility.yul\":3016:3138   */\n    tag_120:\n        /* \"#utility.yul\":3089:3113   */\n      tag_166\n        /* \"#utility.yul\":3107:3112   */\n      dup2\n        /* \"#utility.yul\":3089:3113   */\n      tag_110\n      jump\t// in\n    tag_166:\n        /* \"#utility.yul\":3082:3087   */\n      dup2\n        /* \"#utility.yul\":3079:3114   */\n      eq\n        /* \"#utility.yul\":3069:3132   */\n      tag_167\n      jumpi\n        /* \"#utility.yul\":3128:3129   */\n      0x00\n        /* \"#utility.yul\":3125:3126   */\n      dup1\n        /* \"#utility.yul\":3118:3130   */\n      revert\n        /* \"#utility.yul\":3069:3132   */\n    tag_167:\n        /* \"#utility.yul\":3016:3138   */\n      pop\n      jump\t// out\n        /* \"#utility.yul\":3144:3283   */\n    tag_121:\n        /* \"#utility.yul\":3190:3195   */\n      0x00\n        /* \"#utility.yul\":3228:3234   */\n      dup2\n        /* \"#utility.yul\":3215:3235   */\n      calldataload\n        /* \"#utility.yul\":3206:3235   */\n      swap1\n      pop\n        /* \"#utility.yul\":3244:3277   */\n      tag_169\n        /* \"#utility.yul\":3271:3276   */\n      dup2\n        /* \"#utility.yul\":3244:3277   */\n      tag_120\n      jump\t// in\n    tag_169:\n        /* \"#utility.yul\":3144:3283   */\n      swap3\n      swap2\n      pop\n      pop\n      jump\t// out\n        /* \"#utility.yul\":3289:3618   */\n    tag_18:\n        /* \"#utility.yul\":3348:3354   */\n      0x00\n        /* \"#utility.yul\":3397:3399   */\n      0x20\n        /* \"#utility.yul\":3385:3394   */\n      dup3\n        /* \"#utility.yul\":3376:3383   */\n      dup5\n        /* \"#utility.yul\":3372:3395   */\n      sub\n        /* \"#utility.yul\":3368:3400   */\n      slt\n        /* \"#utility.yul\":3365:3484   */\n      iszero\n      tag_171\n      jumpi\n        /* \"#utility.yul\":3403:3482   */\n      tag_172\n      tag_118\n      jump\t// in\n    tag_172:\n        /* \"#utility.yul\":3365:3484   */\n    tag_171:\n        /* \"#utility.yul\":3523:3524   */\n      0x00\n        /* \"#utility.yul\":3548:3601   */\n      tag_173\n        /* \"#utility.yul\":3593:3600   */\n      dup5\n        /* \"#utility.yul\":3584:3590   */\n      dup3\n        /* \"#utility.yul\":3573:3582   */\n      dup6\n        /* \"#utility.yul\":3569:3591   */\n      add\n        /* \"#utility.yul\":3548:3601   */\n      tag_121\n      jump\t// in\n    tag_173:\n        /* \"#utility.yul\":3538:3601   */\n      swap2\n      pop\n        /* \"#utility.yul\":3494:3611   */\n      pop\n        /* \"#utility.yul\":3289:3618   */\n      swap3\n      swap2\n      pop\n      pop\n      jump\t// out\n        /* \"#utility.yul\":3624:3793   */\n    tag_122:\n        /* \"#utility.yul\":3708:3719   */\n      0x00\n        /* \"#utility.yul\":3742:3748   */\n      dup3\n        /* \"#utility.yul\":3737:3740   */\n      dup3\n        /* \"#utility.yul\":3730:3749   */\n      mstore\n        /* \"#utility.yul\":3782:3786   */\n      0x20\n        /* \"#utility.yul\":3777:3780   */\n      dup3\n        /* \"#utility.yul\":3773:3787   */\n      add\n        /* \"#utility.yul\":3758:3787   */\n      swap1\n      pop\n        /* \"#utility.yul\":3624:3793   */\n      swap3\n      swap2\n      pop\n      pop\n      jump\t// out\n        /* \"#utility.yul\":3799:4027   */\n    tag_123:\n        /* \"#utility.yul\":3939:3973   */\n      0x596f75206861766520616c72656164792073656e742074686973207573657220\n        /* \"#utility.yul\":3935:3936   */\n      0x00\n        /* \"#utility.yul\":3927:3933   */\n      dup3\n        /* \"#utility.yul\":3923:3937   */\n      add\n        /* \"#utility.yul\":3916:3974   */\n      mstore\n        /* \"#utility.yul\":4008:4019   */\n      0x6120726571756573740000000000000000000000000000000000000000000000\n        /* \"#utility.yul\":4003:4005   */\n      0x20\n        /* \"#utility.yul\":3995:4001   */\n      dup3\n        /* \"#utility.yul\":3991:4006   */\n      add\n        /* \"#utility.yul\":3984:4020   */\n      mstore\n        /* \"#utility.yul\":3799:4027   */\n      pop\n      jump\t// out\n        /* \"#utility.yul\":4033:4399   */\n    tag_124:\n        /* \"#utility.yul\":4175:4178   */\n      0x00\n        /* \"#utility.yul\":4196:4263   */\n      tag_177\n        /* \"#utility.yul\":4260:4262   */\n      0x29\n        /* \"#utility.yul\":4255:4258   */\n      dup4\n        /* \"#utility.yul\":4196:4263   */\n      tag_122\n      jump\t// in\n    tag_177:\n        /* \"#utility.yul\":4189:4263   */\n      swap2\n      pop\n        /* \"#utility.yul\":4272:4365   */\n      tag_178\n        /* \"#utility.yul\":4361:4364   */\n      dup3\n        /* \"#utility.yul\":4272:4365   */\n      tag_123\n      jump\t// in\n    tag_178:\n        /* \"#utility.yul\":4390:4392   */\n      0x40\n        /* \"#utility.yul\":4385:4388   */\n      dup3\n        /* \"#utility.yul\":4381:4393   */\n      add\n        /* \"#utility.yul\":4374:4393   */\n      swap1\n      pop\n        /* \"#utility.yul\":4033:4399   */\n      swap2\n      swap1\n      pop\n      jump\t// out\n        /* \"#utility.yul\":4405:4824   */\n    tag_37:\n        /* \"#utility.yul\":4571:4575   */\n      0x00\n        /* \"#utility.yul\":4609:4611   */\n      0x20\n        /* \"#utility.yul\":4598:4607   */\n      dup3\n        /* \"#utility.yul\":4594:4612   */\n      add\n        /* \"#utility.yul\":4586:4612   */\n      swap1\n      pop\n        /* \"#utility.yul\":4658:4667   */\n      dup2\n        /* \"#utility.yul\":4652:4656   */\n      dup2\n        /* \"#utility.yul\":4648:4668   */\n      sub\n        /* \"#utility.yul\":4644:4645   */\n      0x00\n        /* \"#utility.yul\":4633:4642   */\n      dup4\n        /* \"#utility.yul\":4629:4646   */\n      add\n        /* \"#utility.yul\":4622:4669   */\n      mstore\n        /* \"#utility.yul\":4686:4817   */\n      tag_180\n        /* \"#utility.yul\":4812:4816   */\n      dup2\n        /* \"#utility.yul\":4686:4817   */\n      tag_124\n      jump\t// in\n    tag_180:\n        /* \"#utility.yul\":4678:4817   */\n      swap1\n      pop\n        /* \"#utility.yul\":4405:4824   */\n      swap2\n      swap1\n      pop\n      jump\t// out\n        /* \"#utility.yul\":4830:5057   */\n    tag_125:\n        /* \"#utility.yul\":4970:5004   */\n      0x5468697320757365722068617320616c72656164792073656e7420796f752061\n        /* \"#utility.yul\":4966:4967   */\n      0x00\n        /* \"#utility.yul\":4958:4964   */\n      dup3\n        /* \"#utility.yul\":4954:4968   */\n      add\n        /* \"#utility.yul\":4947:5005   */\n      mstore\n        /* \"#utility.yul\":5039:5049   */\n      0x2072657175657374000000000000000000000000000000000000000000000000\n        /* \"#utility.yul\":5034:5036   */\n      0x20\n        /* \"#utility.yul\":5026:5032   */\n      dup3\n        /* \"#utility.yul\":5022:5037   */\n      add\n        /* \"#utility.yul\":5015:5050   */\n      mstore\n        /* \"#utility.yul\":4830:5057   */\n      pop\n      jump\t// out\n        /* \"#utility.yul\":5063:5429   */\n    tag_126:\n        /* \"#utility.yul\":5205:5208   */\n      0x00\n        /* \"#utility.yul\":5226:5293   */\n      tag_183\n        /* \"#utility.yul\":5290:5292   */\n      0x28\n        /* \"#utility.yul\":5285:5288   */\n      dup4\n        /* \"#utility.yul\":5226:5293   */\n      tag_122\n      jump\t// in\n    tag_183:\n        /* \"#utility.yul\":5219:5293   */\n      swap2\n      pop\n        /* \"#utility.yul\":5302:5395   */\n      tag_184\n        /* \"#utility.yul\":5391:5394   */\n      dup3\n        /* \"#utility.yul\":5302:5395   */\n      tag_125\n      jump\t// in\n    tag_184:\n        /* \"#utility.yul\":5420:5422   */\n      0x40\n        /* \"#utility.yul\":5415:5418   */\n      dup3\n        /* \"#utility.yul\":5411:5423   */\n      add\n        /* \"#utility.yul\":5404:5423   */\n      swap1\n      pop\n        /* \"#utility.yul\":5063:5429   */\n      swap2\n      swap1\n      pop\n      jump\t// out\n        /* \"#utility.yul\":5435:5854   */\n    tag_44:\n        /* \"#utility.yul\":5601:5605   */\n      0x00\n        /* \"#utility.yul\":5639:5641   */\n      0x20\n        /* \"#utility.yul\":5628:5637   */\n      dup3\n        /* \"#utility.yul\":5624:5642   */\n      add\n        /* \"#utility.yul\":5616:5642   */\n      swap1\n      pop\n        /* \"#utility.yul\":5688:5697   */\n      dup2\n        /* \"#utility.yul\":5682:5686   */\n      dup2\n        /* \"#utility.yul\":5678:5698   */\n      sub\n        /* \"#utility.yul\":5674:5675   */\n      0x00\n        /* \"#utility.yul\":5663:5672   */\n      dup4\n        /* \"#utility.yul\":5659:5676   */\n      add\n        /* \"#utility.yul\":5652:5699   */\n      mstore\n        /* \"#utility.yul\":5716:5847   */\n      tag_186\n        /* \"#utility.yul\":5842:5846   */\n      dup2\n        /* \"#utility.yul\":5716:5847   */\n      tag_126\n      jump\t// in\n    tag_186:\n        /* \"#utility.yul\":5708:5847   */\n      swap1\n      pop\n        /* \"#utility.yul\":5435:5854   */\n      swap2\n      swap1\n      pop\n      jump\t// out\n        /* \"#utility.yul\":5860:6085   */\n    tag_127:\n        /* \"#utility.yul\":6000:6034   */\n      0x596f752061726520616c726561647920667269656e6473207769746820746869\n        /* \"#utility.yul\":5996:5997   */\n      0x00\n        /* \"#utility.yul\":5988:5994   */\n      dup3\n        /* \"#utility.yul\":5984:5998   */\n      add\n        /* \"#utility.yul\":5977:6035   */\n      mstore\n        /* \"#utility.yul\":6069:6077   */\n      0x7320757365720000000000000000000000000000000000000000000000000000\n        /* \"#utility.yul\":6064:6066   */\n      0x20\n        /* \"#utility.yul\":6056:6062   */\n      dup3\n        /* \"#utility.yul\":6052:6067   */\n      add\n        /* \"#utility.yul\":6045:6078   */\n      mstore\n        /* \"#utility.yul\":5860:6085   */\n      pop\n      jump\t// out\n        /* \"#utility.yul\":6091:6457   */\n    tag_128:\n        /* \"#utility.yul\":6233:6236   */\n      0x00\n        /* \"#utility.yul\":6254:6321   */\n      tag_189\n        /* \"#utility.yul\":6318:6320   */\n      0x26\n        /* \"#utility.yul\":6313:6316   */\n      dup4\n        /* \"#utility.yul\":6254:6321   */\n      tag_122\n      jump\t// in\n    tag_189:\n        /* \"#utility.yul\":6247:6321   */\n      swap2\n      pop\n        /* \"#utility.yul\":6330:6423   */\n      tag_190\n        /* \"#utility.yul\":6419:6422   */\n      dup3\n        /* \"#utility.yul\":6330:6423   */\n      tag_127\n      jump\t// in\n    tag_190:\n        /* \"#utility.yul\":6448:6450   */\n      0x40\n        /* \"#utility.yul\":6443:6446   */\n      dup3\n        /* \"#utility.yul\":6439:6451   */\n      add\n        /* \"#utility.yul\":6432:6451   */\n      swap1\n      pop\n        /* \"#utility.yul\":6091:6457   */\n      swap2\n      swap1\n      pop\n      jump\t// out\n        /* \"#utility.yul\":6463:6882   */\n    tag_51:\n        /* \"#utility.yul\":6629:6633   */\n      0x00\n        /* \"#utility.yul\":6667:6669   */\n      0x20\n        /* \"#utility.yul\":6656:6665   */\n      dup3\n        /* \"#utility.yul\":6652:6670   */\n      add\n        /* \"#utility.yul\":6644:6670   */\n      swap1\n      pop\n        /* \"#utility.yul\":6716:6725   */\n      dup2\n        /* \"#utility.yul\":6710:6714   */\n      dup2\n        /* \"#utility.yul\":6706:6726   */\n      sub\n        /* \"#utility.yul\":6702:6703   */\n      0x00\n        /* \"#utility.yul\":6691:6700   */\n      dup4\n        /* \"#utility.yul\":6687:6704   */\n      add\n        /* \"#utility.yul\":6680:6727   */\n      mstore\n        /* \"#utility.yul\":6744:6875   */\n      tag_192\n        /* \"#utility.yul\":6870:6874   */\n      dup2\n        /* \"#utility.yul\":6744:6875   */\n      tag_128\n      jump\t// in\n    tag_192:\n        /* \"#utility.yul\":6736:6875   */\n      swap1\n      pop\n        /* \"#utility.yul\":6463:6882   */\n      swap2\n      swap1\n      pop\n      jump\t// out\n        /* \"#utility.yul\":6888:7119   */\n    tag_129:\n        /* \"#utility.yul\":7028:7062   */\n      0x596f752063616e6e6f742073656e64206120667269656e642072657175657374\n        /* \"#utility.yul\":7024:7025   */\n      0x00\n        /* \"#utility.yul\":7016:7022   */\n      dup3\n        /* \"#utility.yul\":7012:7026   */\n      add\n        /* \"#utility.yul\":7005:7063   */\n      mstore\n        /* \"#utility.yul\":7097:7111   */\n      0x20746f20796f757273656c660000000000000000000000000000000000000000\n        /* \"#utility.yul\":7092:7094   */\n      0x20\n        /* \"#utility.yul\":7084:7090   */\n      dup3\n        /* \"#utility.yul\":7080:7095   */\n      add\n        /* \"#utility.yul\":7073:7112   */\n      mstore\n        /* \"#utility.yul\":6888:7119   */\n      pop\n      jump\t// out\n        /* \"#utility.yul\":7125:7491   */\n    tag_130:\n        /* \"#utility.yul\":7267:7270   */\n      0x00\n        /* \"#utility.yul\":7288:7355   */\n      tag_195\n        /* \"#utility.yul\":7352:7354   */\n      0x2c\n        /* \"#utility.yul\":7347:7350   */\n      dup4\n        /* \"#utility.yul\":7288:7355   */\n      tag_122\n      jump\t// in\n    tag_195:\n        /* \"#utility.yul\":7281:7355   */\n      swap2\n      pop\n        /* \"#utility.yul\":7364:7457   */\n      tag_196\n        /* \"#utility.yul\":7453:7456   */\n      dup3\n        /* \"#utility.yul\":7364:7457   */\n      tag_129\n      jump\t// in\n    tag_196:\n        /* \"#utility.yul\":7482:7484   */\n      0x40\n        /* \"#utility.yul\":7477:7480   */\n      dup3\n        /* \"#utility.yul\":7473:7485   */\n      add\n        /* \"#utility.yul\":7466:7485   */\n      swap1\n      pop\n        /* \"#utility.yul\":7125:7491   */\n      swap2\n      swap1\n      pop\n      jump\t// out\n        /* \"#utility.yul\":7497:7916   */\n    tag_55:\n        /* \"#utility.yul\":7663:7667   */\n      0x00\n        /* \"#utility.yul\":7701:7703   */\n      0x20\n        /* \"#utility.yul\":7690:7699   */\n      dup3\n        /* \"#utility.yul\":7686:7704   */\n      add\n        /* \"#utility.yul\":7678:7704   */\n      swap1\n      pop\n        /* \"#utility.yul\":7750:7759   */\n      dup2\n        /* \"#utility.yul\":7744:7748   */\n      dup2\n        /* \"#utility.yul\":7740:7760   */\n      sub\n        /* \"#utility.yul\":7736:7737   */\n      0x00\n        /* \"#utility.yul\":7725:7734   */\n      dup4\n        /* \"#utility.yul\":7721:7738   */\n      add\n        /* \"#utility.yul\":7714:7761   */\n      mstore\n        /* \"#utility.yul\":7778:7909   */\n      tag_198\n        /* \"#utility.yul\":7904:7908   */\n      dup2\n        /* \"#utility.yul\":7778:7909   */\n      tag_130\n      jump\t// in\n    tag_198:\n        /* \"#utility.yul\":7770:7909   */\n      swap1\n      pop\n        /* \"#utility.yul\":7497:7916   */\n      swap2\n      swap1\n      pop\n      jump\t// out\n        /* \"#utility.yul\":7922:8145   */\n    tag_131:\n        /* \"#utility.yul\":8062:8096   */\n      0x54686973207573657220686173206e6f742073656e7420796f75206120726571\n        /* \"#utility.yul\":8058:8059   */\n      0x00\n        /* \"#utility.yul\":8050:8056   */\n      dup3\n        /* \"#utility.yul\":8046:8060   */\n      add\n        /* \"#utility.yul\":8039:8097   */\n      mstore\n        /* \"#utility.yul\":8131:8137   */\n      0x7565737400000000000000000000000000000000000000000000000000000000\n        /* \"#utility.yul\":8126:8128   */\n      0x20\n        /* \"#utility.yul\":8118:8124   */\n      dup3\n        /* \"#utility.yul\":8114:8129   */\n      add\n        /* \"#utility.yul\":8107:8138   */\n      mstore\n        /* \"#utility.yul\":7922:8145   */\n      pop\n      jump\t// out\n        /* \"#utility.yul\":8151:8517   */\n    tag_132:\n        /* \"#utility.yul\":8293:8296   */\n      0x00\n        /* \"#utility.yul\":8314:8381   */\n      tag_201\n        /* \"#utility.yul\":8378:8380   */\n      0x24\n        /* \"#utility.yul\":8373:8376   */\n      dup4\n        /* \"#utility.yul\":8314:8381   */\n      tag_122\n      jump\t// in\n    tag_201:\n        /* \"#utility.yul\":8307:8381   */\n      swap2\n      pop\n        /* \"#utility.yul\":8390:8483   */\n      tag_202\n        /* \"#utility.yul\":8479:8482   */\n      dup3\n        /* \"#utility.yul\":8390:8483   */\n      tag_131\n      jump\t// in\n    tag_202:\n        /* \"#utility.yul\":8508:8510   */\n      0x40\n        /* \"#utility.yul\":8503:8506   */\n      dup3\n        /* \"#utility.yul\":8499:8511   */\n      add\n        /* \"#utility.yul\":8492:8511   */\n      swap1\n      pop\n        /* \"#utility.yul\":8151:8517   */\n      swap2\n      swap1\n      pop\n      jump\t// out\n        /* \"#utility.yul\":8523:8942   */\n    tag_65:\n        /* \"#utility.yul\":8689:8693   */\n      0x00\n        /* \"#utility.yul\":8727:8729   */\n      0x20\n        /* \"#utility.yul\":8716:8725   */\n      dup3\n        /* \"#utility.yul\":8712:8730   */\n      add\n        /* \"#utility.yul\":8704:8730   */\n      swap1\n      pop\n        /* \"#utility.yul\":8776:8785   */\n      dup2\n        /* \"#utility.yul\":8770:8774   */\n      dup2\n        /* \"#utility.yul\":8766:8786   */\n      sub\n        /* \"#utility.yul\":8762:8763   */\n      0x00\n        /* \"#utility.yul\":8751:8760   */\n      dup4\n        /* \"#utility.yul\":8747:8764   */\n      add\n        /* \"#utility.yul\":8740:8787   */\n      mstore\n        /* \"#utility.yul\":8804:8935   */\n      tag_204\n        /* \"#utility.yul\":8930:8934   */\n      dup2\n        /* \"#utility.yul\":8804:8935   */\n      tag_132\n      jump\t// in\n    tag_204:\n        /* \"#utility.yul\":8796:8935   */\n      swap1\n      pop\n        /* \"#utility.yul\":8523:8942   */\n      swap2\n      swap1\n      pop\n      jump\t// out\n        /* \"#utility.yul\":8948:9128   */\n    tag_81:\n        /* \"#utility.yul\":8996:9073   */\n      0x4e487b7100000000000000000000000000000000000000000000000000000000\n        /* \"#utility.yul\":8993:8994   */\n      0x00\n        /* \"#utility.yul\":8986:9074   */\n      mstore\n        /* \"#utility.yul\":9093:9097   */\n      0x32\n        /* \"#utility.yul\":9090:9091   */\n      0x04\n        /* \"#utility.yul\":9083:9098   */\n      mstore\n        /* \"#utility.yul\":9117:9121   */\n      0x24\n        /* \"#utility.yul\":9114:9115   */\n      0x00\n        /* \"#utility.yul\":9107:9122   */\n      revert\n        /* \"#utility.yul\":9134:9314   */\n    tag_133:\n        /* \"#utility.yul\":9182:9259   */\n      0x4e487b7100000000000000000000000000000000000000000000000000000000\n        /* \"#utility.yul\":9179:9180   */\n      0x00\n        /* \"#utility.yul\":9172:9260   */\n      mstore\n        /* \"#utility.yul\":9279:9283   */\n      0x11\n        /* \"#utility.yul\":9276:9277   */\n      0x04\n        /* \"#utility.yul\":9269:9284   */\n      mstore\n        /* \"#utility.yul\":9303:9307   */\n      0x24\n        /* \"#utility.yul\":9300:9301   */\n      0x00\n        /* \"#utility.yul\":9293:9308   */\n      revert\n        /* \"#utility.yul\":9320:9514   */\n    tag_92:\n        /* \"#utility.yul\":9360:9364   */\n      0x00\n        /* \"#utility.yul\":9380:9400   */\n      tag_208\n        /* \"#utility.yul\":9398:9399   */\n      dup3\n        /* \"#utility.yul\":9380:9400   */\n      tag_115\n      jump\t// in\n    tag_208:\n        /* \"#utility.yul\":9375:9400   */\n      swap2\n      pop\n        /* \"#utility.yul\":9414:9434   */\n      tag_209\n        /* \"#utility.yul\":9432:9433   */\n      dup4\n        /* \"#utility.yul\":9414:9434   */\n      tag_115\n      jump\t// in\n    tag_209:\n        /* \"#utility.yul\":9409:9434   */\n      swap3\n      pop\n        /* \"#utility.yul\":9458:9459   */\n      dup3\n        /* \"#utility.yul\":9455:9456   */\n      dup3\n        /* \"#utility.yul\":9451:9460   */\n      sub\n        /* \"#utility.yul\":9443:9460   */\n      swap1\n      pop\n        /* \"#utility.yul\":9482:9483   */\n      dup2\n        /* \"#utility.yul\":9476:9480   */\n      dup2\n        /* \"#utility.yul\":9473:9484   */\n      gt\n        /* \"#utility.yul\":9470:9507   */\n      iszero\n      tag_210\n      jumpi\n        /* \"#utility.yul\":9487:9505   */\n      tag_211\n      tag_133\n      jump\t// in\n    tag_211:\n        /* \"#utility.yul\":9470:9507   */\n    tag_210:\n        /* \"#utility.yul\":9320:9514   */\n      swap3\n      swap2\n      pop\n      pop\n      jump\t// out\n        /* \"#utility.yul\":9520:9700   */\n    tag_104:\n        /* \"#utility.yul\":9568:9645   */\n      0x4e487b7100000000000000000000000000000000000000000000000000000000\n        /* \"#utility.yul\":9565:9566   */\n      0x00\n        /* \"#utility.yul\":9558:9646   */\n      mstore\n        /* \"#utility.yul\":9665:9669   */\n      0x31\n        /* \"#utility.yul\":9662:9663   */\n      0x04\n        /* \"#utility.yul\":9655:9670   */\n      mstore\n        /* \"#utility.yul\":9689:9693   */\n      0x24\n        /* \"#utility.yul\":9686:9687   */\n      0x00\n        /* \"#utility.yul\":9679:9694   */\n      revert\n\n    auxdata: 0xa26469706673582212206d6c71050cd4b89e6d4881bd69f6a9f3a38720da14e547224228a06112f91fa164736f6c634300081a0033\n}\n",
				"bytecode": {
					"linkReferences": {},
					"object": "6080604052348015600e575f80fd5b5061122e8061001c5f395ff3fe608060405234801561000f575f80fd5b5060043610610055575f3560e01c80631f8f72701461005957806367db8b6814610077578063837b770a14610095578063a9f56466146100b1578063d6688cbd146100cd575b5f80fd5b6100616100eb565b60405161006e9190610dbe565b60405180910390f35b61007f6101b2565b60405161008c9190610df6565b60405180910390f35b6100af60048036038101906100aa9190610e3d565b6101fa565b005b6100cb60048036038101906100c69190610e3d565b6106d9565b005b6100d56109b4565b6040516100e29190610dbe565b60405180910390f35b60605f803373ffffffffffffffffffffffffffffffffffffffff1673ffffffffffffffffffffffffffffffffffffffff1681526020019081526020015f205f018054806020026020016040519081016040528092919081815260200182805480156101a857602002820191905f5260205f20905b815f9054906101000a900473ffffffffffffffffffffffffffffffffffffffff1673ffffffffffffffffffffffffffffffffffffffff168152602001906001019080831161015f575b5050505050905090565b5f805f3373ffffffffffffffffffffffffffffffffffffffff1673ffffffffffffffffffffffffffffffffffffffff1681526020019081526020015f205f0180549050905090565b805f805f3373ffffffffffffffffffffffffffffffffffffffff1673ffffffffffffffffffffffffffffffffffffffff1681526020019081526020015f206001018054806020026020016040519081016040528092919081815260200182805480156102b857602002820191905f5260205f20905b815f9054906101000a900473ffffffffffffffffffffffffffffffffffffffff1673ffffffffffffffffffffffffffffffffffffffff168152602001906001019080831161026f575b505050505090506102c98183610a7c565b15610309576040517f08c379a000000000000000000000000000000000000000000000000000000000815260040161030090610ee8565b60405180910390fd5b825f805f3373ffffffffffffffffffffffffffffffffffffffff1673ffffffffffffffffffffffffffffffffffffffff1681526020019081526020015f206002018054806020026020016040519081016040528092919081815260200182805480156103c757602002820191905f5260205f20905b815f9054906101000a900473ffffffffffffffffffffffffffffffffffffffff1673ffffffffffffffffffffffffffffffffffffffff168152602001906001019080831161037e575b505050505090506103d88183610a7c565b15610418576040517f08c379a000000000000000000000000000000000000000000000000000000000815260040161040f90610f76565b60405180910390fd5b845f805f3373ffffffffffffffffffffffffffffffffffffffff1673ffffffffffffffffffffffffffffffffffffffff1681526020019081526020015f205f018054806020026020016040519081016040528092919081815260200182805480156104d557602002820191905f5260205f20905b815f9054906101000a900473ffffffffffffffffffffffffffffffffffffffff1673ffffffffffffffffffffffffffffffffffffffff168152602001906001019080831161048c575b505050505090506104e68183610a7c565b15610526576040517f08c379a000000000000000000000000000000000000000000000000000000000815260040161051d90611004565b60405180910390fd5b863373ffffffffffffffffffffffffffffffffffffffff168173ffffffffffffffffffffffffffffffffffffffff1603610595576040517f08c379a000000000000000000000000000000000000000000000000000000000815260040161058c90611092565b60405180910390fd5b5f803373ffffffffffffffffffffffffffffffffffffffff1673ffffffffffffffffffffffffffffffffffffffff1681526020019081526020015f2060010188908060018154018082558091505060019003905f5260205f20015f9091909190916101000a81548173ffffffffffffffffffffffffffffffffffffffff021916908373ffffffffffffffffffffffffffffffffffffffff1602179055505f808973ffffffffffffffffffffffffffffffffffffffff1673ffffffffffffffffffffffffffffffffffffffff1681526020019081526020015f2060020133908060018154018082558091505060019003905f5260205f20015f9091909190916101000a81548173ffffffffffffffffffffffffffffffffffffffff021916908373ffffffffffffffffffffffffffffffffffffffff1602179055505050505050505050565b805f805f3373ffffffffffffffffffffffffffffffffffffffff1673ffffffffffffffffffffffffffffffffffffffff1681526020019081526020015f2060020180548060200260200160405190810160405280929190818152602001828054801561079757602002820191905f5260205f20905b815f9054906101000a900473ffffffffffffffffffffffffffffffffffffffff1673ffffffffffffffffffffffffffffffffffffffff168152602001906001019080831161074e575b505050505090506107a88183610a7c565b6107e7576040517f08c379a00000000000000000000000000000000000000000000000000000000081526004016107de90611120565b60405180910390fd5b61082f5f803373ffffffffffffffffffffffffffffffffffffffff1673ffffffffffffffffffffffffffffffffffffffff1681526020019081526020015f2060020184610af7565b6108775f808573ffffffffffffffffffffffffffffffffffffffff1673ffffffffffffffffffffffffffffffffffffffff1681526020019081526020015f2060010133610af7565b5f803373ffffffffffffffffffffffffffffffffffffffff1673ffffffffffffffffffffffffffffffffffffffff1681526020019081526020015f205f0183908060018154018082558091505060019003905f5260205f20015f9091909190916101000a81548173ffffffffffffffffffffffffffffffffffffffff021916908373ffffffffffffffffffffffffffffffffffffffff1602179055505f808473ffffffffffffffffffffffffffffffffffffffff1673ffffffffffffffffffffffffffffffffffffffff1681526020019081526020015f205f0133908060018154018082558091505060019003905f5260205f20015f9091909190916101000a81548173ffffffffffffffffffffffffffffffffffffffff021916908373ffffffffffffffffffffffffffffffffffffffff160217905550505050565b60605f803373ffffffffffffffffffffffffffffffffffffffff1673ffffffffffffffffffffffffffffffffffffffff1681526020019081526020015f20600201805480602002602001604051908101604052809291908181526020018280548015610a7257602002820191905f5260205f20905b815f9054906101000a900473ffffffffffffffffffffffffffffffffffffffff1673ffffffffffffffffffffffffffffffffffffffff1681526020019060010190808311610a29575b5050505050905090565b5f805b8351811015610aec578273ffffffffffffffffffffffffffffffffffffffff16848281518110610ab257610ab161113e565b5b602002602001015173ffffffffffffffffffffffffffffffffffffffff1603610adf576001915050610af1565b8080600101915050610a7f565b505f90505b92915050565b5f805b8380549050811015610b88578273ffffffffffffffffffffffffffffffffffffffff16848281548110610b3057610b2f61113e565b5b905f5260205f20015f9054906101000a900473ffffffffffffffffffffffffffffffffffffffff1673ffffffffffffffffffffffffffffffffffffffff1603610b7b57809150610b88565b8080600101915050610afa565b505f60018480549050610b9b9190611198565b90505f848281548110610bb157610bb061113e565b5b905f5260205f20015f9054906101000a900473ffffffffffffffffffffffffffffffffffffffff16905083858381548110610bef57610bee61113e565b5b905f5260205f20015f6101000a81548173ffffffffffffffffffffffffffffffffffffffff021916908373ffffffffffffffffffffffffffffffffffffffff16021790555080858481548110610c4857610c4761113e565b5b905f5260205f20015f6101000a81548173ffffffffffffffffffffffffffffffffffffffff021916908373ffffffffffffffffffffffffffffffffffffffff16021790555084805480610c9e57610c9d6111cb565b5b600190038181905f5260205f20015f6101000a81549073ffffffffffffffffffffffffffffffffffffffff021916905590555050505050565b5f81519050919050565b5f82825260208201905092915050565b5f819050602082019050919050565b5f73ffffffffffffffffffffffffffffffffffffffff82169050919050565b5f610d2982610d00565b9050919050565b610d3981610d1f565b82525050565b5f610d4a8383610d30565b60208301905092915050565b5f602082019050919050565b5f610d6c82610cd7565b610d768185610ce1565b9350610d8183610cf1565b805f5b83811015610db1578151610d988882610d3f565b9750610da383610d56565b925050600181019050610d84565b5085935050505092915050565b5f6020820190508181035f830152610dd68184610d62565b905092915050565b5f819050919050565b610df081610dde565b82525050565b5f602082019050610e095f830184610de7565b92915050565b5f80fd5b610e1c81610d1f565b8114610e26575f80fd5b50565b5f81359050610e3781610e13565b92915050565b5f60208284031215610e5257610e51610e0f565b5b5f610e5f84828501610e29565b91505092915050565b5f82825260208201905092915050565b7f596f75206861766520616c72656164792073656e7420746869732075736572205f8201527f6120726571756573740000000000000000000000000000000000000000000000602082015250565b5f610ed2602983610e68565b9150610edd82610e78565b604082019050919050565b5f6020820190508181035f830152610eff81610ec6565b9050919050565b7f5468697320757365722068617320616c72656164792073656e7420796f7520615f8201527f2072657175657374000000000000000000000000000000000000000000000000602082015250565b5f610f60602883610e68565b9150610f6b82610f06565b604082019050919050565b5f6020820190508181035f830152610f8d81610f54565b9050919050565b7f596f752061726520616c726561647920667269656e64732077697468207468695f8201527f7320757365720000000000000000000000000000000000000000000000000000602082015250565b5f610fee602683610e68565b9150610ff982610f94565b604082019050919050565b5f6020820190508181035f83015261101b81610fe2565b9050919050565b7f596f752063616e6e6f742073656e64206120667269656e6420726571756573745f8201527f20746f20796f757273656c660000000000000000000000000000000000000000602082015250565b5f61107c602c83610e68565b915061108782611022565b604082019050919050565b5f6020820190508181035f8301526110a981611070565b9050919050565b7f54686973207573657220686173206e6f742073656e7420796f752061207265715f8201527f7565737400000000000000000000000000000000000000000000000000000000602082015250565b5f61110a602483610e68565b9150611115826110b0565b604082019050919050565b5f6020820190508181035f830152611137816110fe565b9050919050565b7f4e487b71000000000000000000000000000000000000000000000000000000005f52603260045260245ffd5b7f4e487b71000000000000000000000000000000000000000000000000000000005f52601160045260245ffd5b5f6111a282610dde565b91506111ad83610dde565b92508282039050818111156111c5576111c461116b565b5b92915050565b7f4e487b71000000000000000000000000000000000000000000000000000000005f52603160045260245ffdfea26469706673582212206d6c71050cd4b89e6d4881bd69f6a9f3a38720da14e547224228a06112f91fa164736f6c634300081a0033",
					"opcodes": "PUSH1 0x80 PUSH1 0x40 MSTORE CALLVALUE DUP1 ISZERO PUSH1 0xE JUMPI PUSH0 DUP1 REVERT JUMPDEST POP PUSH2 0x122E DUP1 PUSH2 0x1C PUSH0 CODECOPY PUSH0 RETURN INVALID PUSH1 0x80 PUSH1 0x40 MSTORE CALLVALUE DUP1 ISZERO PUSH2 0xF JUMPI PUSH0 DUP1 REVERT JUMPDEST POP PUSH1 0x4 CALLDATASIZE LT PUSH2 0x55 JUMPI PUSH0 CALLDATALOAD PUSH1 0xE0 SHR DUP1 PUSH4 0x1F8F7270 EQ PUSH2 0x59 JUMPI DUP1 PUSH4 0x67DB8B68 EQ PUSH2 0x77 JUMPI DUP1 PUSH4 0x837B770A EQ PUSH2 0x95 JUMPI DUP1 PUSH4 0xA9F56466 EQ PUSH2 0xB1 JUMPI DUP1 PUSH4 0xD6688CBD EQ PUSH2 0xCD JUMPI JUMPDEST PUSH0 DUP1 REVERT JUMPDEST PUSH2 0x61 PUSH2 0xEB JUMP JUMPDEST PUSH1 0x40 MLOAD PUSH2 0x6E SWAP2 SWAP1 PUSH2 0xDBE JUMP JUMPDEST PUSH1 0x40 MLOAD DUP1 SWAP2 SUB SWAP1 RETURN JUMPDEST PUSH2 0x7F PUSH2 0x1B2 JUMP JUMPDEST PUSH1 0x40 MLOAD PUSH2 0x8C SWAP2 SWAP1 PUSH2 0xDF6 JUMP JUMPDEST PUSH1 0x40 MLOAD DUP1 SWAP2 SUB SWAP1 RETURN JUMPDEST PUSH2 0xAF PUSH1 0x4 DUP1 CALLDATASIZE SUB DUP2 ADD SWAP1 PUSH2 0xAA SWAP2 SWAP1 PUSH2 0xE3D JUMP JUMPDEST PUSH2 0x1FA JUMP JUMPDEST STOP JUMPDEST PUSH2 0xCB PUSH1 0x4 DUP1 CALLDATASIZE SUB DUP2 ADD SWAP1 PUSH2 0xC6 SWAP2 SWAP1 PUSH2 0xE3D JUMP JUMPDEST PUSH2 0x6D9 JUMP JUMPDEST STOP JUMPDEST PUSH2 0xD5 PUSH2 0x9B4 JUMP JUMPDEST PUSH1 0x40 MLOAD PUSH2 0xE2 SWAP2 SWAP1 PUSH2 0xDBE JUMP JUMPDEST PUSH1 0x40 MLOAD DUP1 SWAP2 SUB SWAP1 RETURN JUMPDEST PUSH1 0x60 PUSH0 DUP1 CALLER PUSH20 0xFFFFFFFFFFFFFFFFFFFFFFFFFFFFFFFFFFFFFFFF AND PUSH20 0xFFFFFFFFFFFFFFFFFFFFFFFFFFFFFFFFFFFFFFFF AND DUP2 MSTORE PUSH1 0x20 ADD SWAP1 DUP2 MSTORE PUSH1 0x20 ADD PUSH0 KECCAK256 PUSH0 ADD DUP1 SLOAD DUP1 PUSH1 0x20 MUL PUSH1 0x20 ADD PUSH1 0x40 MLOAD SWAP1 DUP2 ADD PUSH1 0x40 MSTORE DUP1 SWAP3 SWAP2 SWAP1 DUP2 DUP2 MSTORE PUSH1 0x20 ADD DUP3 DUP1 SLOAD DUP1 ISZERO PUSH2 0x1A8 JUMPI PUSH1 0x20 MUL DUP3 ADD SWAP2 SWAP1 PUSH0 MSTORE PUSH1 0x20 PUSH0 KECCAK256 SWAP1 JUMPDEST DUP2 PUSH0 SWAP1 SLOAD SWAP1 PUSH2 0x100 EXP SWAP1 DIV PUSH20 0xFFFFFFFFFFFFFFFFFFFFFFFFFFFFFFFFFFFFFFFF AND PUSH20 0xFFFFFFFFFFFFFFFFFFFFFFFFFFFFFFFFFFFFFFFF AND DUP2 MSTORE PUSH1 0x20 ADD SWAP1 PUSH1 0x1 ADD SWAP1 DUP1 DUP4 GT PUSH2 0x15F JUMPI JUMPDEST POP POP POP POP POP SWAP1 POP SWAP1 JUMP JUMPDEST PUSH0 DUP1 PUSH0 CALLER PUSH20 0xFFFFFFFFFFFFFFFFFFFFFFFFFFFFFFFFFFFFFFFF AND PUSH20 0xFFFFFFFFFFFFFFFFFFFFFFFFFFFFFFFFFFFFFFFF AND DUP2 MSTORE PUSH1 0x20 ADD SWAP1 DUP2 MSTORE PUSH1 0x20 ADD PUSH0 KECCAK256 PUSH0 ADD DUP1 SLOAD SWAP1 POP SWAP1 POP SWAP1 JUMP JUMPDEST DUP1 PUSH0 DUP1 PUSH0 CALLER PUSH20 0xFFFFFFFFFFFFFFFFFFFFFFFFFFFFFFFFFFFFFFFF AND PUSH20 0xFFFFFFFFFFFFFFFFFFFFFFFFFFFFFFFFFFFFFFFF AND DUP2 MSTORE PUSH1 0x20 ADD SWAP1 DUP2 MSTORE PUSH1 0x20 ADD PUSH0 KECCAK256 PUSH1 0x1 ADD DUP1 SLOAD DUP1 PUSH1 0x20 MUL PUSH1 0x20 ADD PUSH1 0x40 MLOAD SWAP1 DUP2 ADD PUSH1 0x40 MSTORE DUP1 SWAP3 SWAP2 SWAP1 DUP2 DUP2 MSTORE PUSH1 0x20 ADD DUP3 DUP1 SLOAD DUP1 ISZERO PUSH2 0x2B8 JUMPI PUSH1 0x20 MUL DUP3 ADD SWAP2 SWAP1 PUSH0 MSTORE PUSH1 0x20 PUSH0 KECCAK256 SWAP1 JUMPDEST DUP2 PUSH0 SWAP1 SLOAD SWAP1 PUSH2 0x100 EXP SWAP1 DIV PUSH20 0xFFFFFFFFFFFFFFFFFFFFFFFFFFFFFFFFFFFFFFFF AND PUSH20 0xFFFFFFFFFFFFFFFFFFFFFFFFFFFFFFFFFFFFFFFF AND DUP2 MSTORE PUSH1 0x20 ADD SWAP1 PUSH1 0x1 ADD SWAP1 DUP1 DUP4 GT PUSH2 0x26F JUMPI JUMPDEST POP POP POP POP POP SWAP1 POP PUSH2 0x2C9 DUP2 DUP4 PUSH2 0xA7C JUMP JUMPDEST ISZERO PUSH2 0x309 JUMPI PUSH1 0x40 MLOAD PUSH32 0x8C379A000000000000000000000000000000000000000000000000000000000 DUP2 MSTORE PUSH1 0x4 ADD PUSH2 0x300 SWAP1 PUSH2 0xEE8 JUMP JUMPDEST PUSH1 0x40 MLOAD DUP1 SWAP2 SUB SWAP1 REVERT JUMPDEST DUP3 PUSH0 DUP1 PUSH0 CALLER PUSH20 0xFFFFFFFFFFFFFFFFFFFFFFFFFFFFFFFFFFFFFFFF AND PUSH20 0xFFFFFFFFFFFFFFFFFFFFFFFFFFFFFFFFFFFFFFFF AND DUP2 MSTORE PUSH1 0x20 ADD SWAP1 DUP2 MSTORE PUSH1 0x20 ADD PUSH0 KECCAK256 PUSH1 0x2 ADD DUP1 SLOAD DUP1 PUSH1 0x20 MUL PUSH1 0x20 ADD PUSH1 0x40 MLOAD SWAP1 DUP2 ADD PUSH1 0x40 MSTORE DUP1 SWAP3 SWAP2 SWAP1 DUP2 DUP2 MSTORE PUSH1 0x20 ADD DUP3 DUP1 SLOAD DUP1 ISZERO PUSH2 0x3C7 JUMPI PUSH1 0x20 MUL DUP3 ADD SWAP2 SWAP1 PUSH0 MSTORE PUSH1 0x20 PUSH0 KECCAK256 SWAP1 JUMPDEST DUP2 PUSH0 SWAP1 SLOAD SWAP1 PUSH2 0x100 EXP SWAP1 DIV PUSH20 0xFFFFFFFFFFFFFFFFFFFFFFFFFFFFFFFFFFFFFFFF AND PUSH20 0xFFFFFFFFFFFFFFFFFFFFFFFFFFFFFFFFFFFFFFFF AND DUP2 MSTORE PUSH1 0x20 ADD SWAP1 PUSH1 0x1 ADD SWAP1 DUP1 DUP4 GT PUSH2 0x37E JUMPI JUMPDEST POP POP POP POP POP SWAP1 POP PUSH2 0x3D8 DUP2 DUP4 PUSH2 0xA7C JUMP JUMPDEST ISZERO PUSH2 0x418 JUMPI PUSH1 0x40 MLOAD PUSH32 0x8C379A000000000000000000000000000000000000000000000000000000000 DUP2 MSTORE PUSH1 0x4 ADD PUSH2 0x40F SWAP1 PUSH2 0xF76 JUMP JUMPDEST PUSH1 0x40 MLOAD DUP1 SWAP2 SUB SWAP1 REVERT JUMPDEST DUP5 PUSH0 DUP1 PUSH0 CALLER PUSH20 0xFFFFFFFFFFFFFFFFFFFFFFFFFFFFFFFFFFFFFFFF AND PUSH20 0xFFFFFFFFFFFFFFFFFFFFFFFFFFFFFFFFFFFFFFFF AND DUP2 MSTORE PUSH1 0x20 ADD SWAP1 DUP2 MSTORE PUSH1 0x20 ADD PUSH0 KECCAK256 PUSH0 ADD DUP1 SLOAD DUP1 PUSH1 0x20 MUL PUSH1 0x20 ADD PUSH1 0x40 MLOAD SWAP1 DUP2 ADD PUSH1 0x40 MSTORE DUP1 SWAP3 SWAP2 SWAP1 DUP2 DUP2 MSTORE PUSH1 0x20 ADD DUP3 DUP1 SLOAD DUP1 ISZERO PUSH2 0x4D5 JUMPI PUSH1 0x20 MUL DUP3 ADD SWAP2 SWAP1 PUSH0 MSTORE PUSH1 0x20 PUSH0 KECCAK256 SWAP1 JUMPDEST DUP2 PUSH0 SWAP1 SLOAD SWAP1 PUSH2 0x100 EXP SWAP1 DIV PUSH20 0xFFFFFFFFFFFFFFFFFFFFFFFFFFFFFFFFFFFFFFFF AND PUSH20 0xFFFFFFFFFFFFFFFFFFFFFFFFFFFFFFFFFFFFFFFF AND DUP2 MSTORE PUSH1 0x20 ADD SWAP1 PUSH1 0x1 ADD SWAP1 DUP1 DUP4 GT PUSH2 0x48C JUMPI JUMPDEST POP POP POP POP POP SWAP1 POP PUSH2 0x4E6 DUP2 DUP4 PUSH2 0xA7C JUMP JUMPDEST ISZERO PUSH2 0x526 JUMPI PUSH1 0x40 MLOAD PUSH32 0x8C379A000000000000000000000000000000000000000000000000000000000 DUP2 MSTORE PUSH1 0x4 ADD PUSH2 0x51D SWAP1 PUSH2 0x1004 JUMP JUMPDEST PUSH1 0x40 MLOAD DUP1 SWAP2 SUB SWAP1 REVERT JUMPDEST DUP7 CALLER PUSH20 0xFFFFFFFFFFFFFFFFFFFFFFFFFFFFFFFFFFFFFFFF AND DUP2 PUSH20 0xFFFFFFFFFFFFFFFFFFFFFFFFFFFFFFFFFFFFFFFF AND SUB PUSH2 0x595 JUMPI PUSH1 0x40 MLOAD PUSH32 0x8C379A000000000000000000000000000000000000000000000000000000000 DUP2 MSTORE PUSH1 0x4 ADD PUSH2 0x58C SWAP1 PUSH2 0x1092 JUMP JUMPDEST PUSH1 0x40 MLOAD DUP1 SWAP2 SUB SWAP1 REVERT JUMPDEST PUSH0 DUP1 CALLER PUSH20 0xFFFFFFFFFFFFFFFFFFFFFFFFFFFFFFFFFFFFFFFF AND PUSH20 0xFFFFFFFFFFFFFFFFFFFFFFFFFFFFFFFFFFFFFFFF AND DUP2 MSTORE PUSH1 0x20 ADD SWAP1 DUP2 MSTORE PUSH1 0x20 ADD PUSH0 KECCAK256 PUSH1 0x1 ADD DUP9 SWAP1 DUP1 PUSH1 0x1 DUP2 SLOAD ADD DUP1 DUP3 SSTORE DUP1 SWAP2 POP POP PUSH1 0x1 SWAP1 SUB SWAP1 PUSH0 MSTORE PUSH1 0x20 PUSH0 KECCAK256 ADD PUSH0 SWAP1 SWAP2 SWAP1 SWAP2 SWAP1 SWAP2 PUSH2 0x100 EXP DUP2 SLOAD DUP2 PUSH20 0xFFFFFFFFFFFFFFFFFFFFFFFFFFFFFFFFFFFFFFFF MUL NOT AND SWAP1 DUP4 PUSH20 0xFFFFFFFFFFFFFFFFFFFFFFFFFFFFFFFFFFFFFFFF AND MUL OR SWAP1 SSTORE POP PUSH0 DUP1 DUP10 PUSH20 0xFFFFFFFFFFFFFFFFFFFFFFFFFFFFFFFFFFFFFFFF AND PUSH20 0xFFFFFFFFFFFFFFFFFFFFFFFFFFFFFFFFFFFFFFFF AND DUP2 MSTORE PUSH1 0x20 ADD SWAP1 DUP2 MSTORE PUSH1 0x20 ADD PUSH0 KECCAK256 PUSH1 0x2 ADD CALLER SWAP1 DUP1 PUSH1 0x1 DUP2 SLOAD ADD DUP1 DUP3 SSTORE DUP1 SWAP2 POP POP PUSH1 0x1 SWAP1 SUB SWAP1 PUSH0 MSTORE PUSH1 0x20 PUSH0 KECCAK256 ADD PUSH0 SWAP1 SWAP2 SWAP1 SWAP2 SWAP1 SWAP2 PUSH2 0x100 EXP DUP2 SLOAD DUP2 PUSH20 0xFFFFFFFFFFFFFFFFFFFFFFFFFFFFFFFFFFFFFFFF MUL NOT AND SWAP1 DUP4 PUSH20 0xFFFFFFFFFFFFFFFFFFFFFFFFFFFFFFFFFFFFFFFF AND MUL OR SWAP1 SSTORE POP POP POP POP POP POP POP POP POP JUMP JUMPDEST DUP1 PUSH0 DUP1 PUSH0 CALLER PUSH20 0xFFFFFFFFFFFFFFFFFFFFFFFFFFFFFFFFFFFFFFFF AND PUSH20 0xFFFFFFFFFFFFFFFFFFFFFFFFFFFFFFFFFFFFFFFF AND DUP2 MSTORE PUSH1 0x20 ADD SWAP1 DUP2 MSTORE PUSH1 0x20 ADD PUSH0 KECCAK256 PUSH1 0x2 ADD DUP1 SLOAD DUP1 PUSH1 0x20 MUL PUSH1 0x20 ADD PUSH1 0x40 MLOAD SWAP1 DUP2 ADD PUSH1 0x40 MSTORE DUP1 SWAP3 SWAP2 SWAP1 DUP2 DUP2 MSTORE PUSH1 0x20 ADD DUP3 DUP1 SLOAD DUP1 ISZERO PUSH2 0x797 JUMPI PUSH1 0x20 MUL DUP3 ADD SWAP2 SWAP1 PUSH0 MSTORE PUSH1 0x20 PUSH0 KECCAK256 SWAP1 JUMPDEST DUP2 PUSH0 SWAP1 SLOAD SWAP1 PUSH2 0x100 EXP SWAP1 DIV PUSH20 0xFFFFFFFFFFFFFFFFFFFFFFFFFFFFFFFFFFFFFFFF AND PUSH20 0xFFFFFFFFFFFFFFFFFFFFFFFFFFFFFFFFFFFFFFFF AND DUP2 MSTORE PUSH1 0x20 ADD SWAP1 PUSH1 0x1 ADD SWAP1 DUP1 DUP4 GT PUSH2 0x74E JUMPI JUMPDEST POP POP POP POP POP SWAP1 POP PUSH2 0x7A8 DUP2 DUP4 PUSH2 0xA7C JUMP JUMPDEST PUSH2 0x7E7 JUMPI PUSH1 0x40 MLOAD PUSH32 0x8C379A000000000000000000000000000000000000000000000000000000000 DUP2 MSTORE PUSH1 0x4 ADD PUSH2 0x7DE SWAP1 PUSH2 0x1120 JUMP JUMPDEST PUSH1 0x40 MLOAD DUP1 SWAP2 SUB SWAP1 REVERT JUMPDEST PUSH2 0x82F PUSH0 DUP1 CALLER PUSH20 0xFFFFFFFFFFFFFFFFFFFFFFFFFFFFFFFFFFFFFFFF AND PUSH20 0xFFFFFFFFFFFFFFFFFFFFFFFFFFFFFFFFFFFFFFFF AND DUP2 MSTORE PUSH1 0x20 ADD SWAP1 DUP2 MSTORE PUSH1 0x20 ADD PUSH0 KECCAK256 PUSH1 0x2 ADD DUP5 PUSH2 0xAF7 JUMP JUMPDEST PUSH2 0x877 PUSH0 DUP1 DUP6 PUSH20 0xFFFFFFFFFFFFFFFFFFFFFFFFFFFFFFFFFFFFFFFF AND PUSH20 0xFFFFFFFFFFFFFFFFFFFFFFFFFFFFFFFFFFFFFFFF AND DUP2 MSTORE PUSH1 0x20 ADD SWAP1 DUP2 MSTORE PUSH1 0x20 ADD PUSH0 KECCAK256 PUSH1 0x1 ADD CALLER PUSH2 0xAF7 JUMP JUMPDEST PUSH0 DUP1 CALLER PUSH20 0xFFFFFFFFFFFFFFFFFFFFFFFFFFFFFFFFFFFFFFFF AND PUSH20 0xFFFFFFFFFFFFFFFFFFFFFFFFFFFFFFFFFFFFFFFF AND DUP2 MSTORE PUSH1 0x20 ADD SWAP1 DUP2 MSTORE PUSH1 0x20 ADD PUSH0 KECCAK256 PUSH0 ADD DUP4 SWAP1 DUP1 PUSH1 0x1 DUP2 SLOAD ADD DUP1 DUP3 SSTORE DUP1 SWAP2 POP POP PUSH1 0x1 SWAP1 SUB SWAP1 PUSH0 MSTORE PUSH1 0x20 PUSH0 KECCAK256 ADD PUSH0 SWAP1 SWAP2 SWAP1 SWAP2 SWAP1 SWAP2 PUSH2 0x100 EXP DUP2 SLOAD DUP2 PUSH20 0xFFFFFFFFFFFFFFFFFFFFFFFFFFFFFFFFFFFFFFFF MUL NOT AND SWAP1 DUP4 PUSH20 0xFFFFFFFFFFFFFFFFFFFFFFFFFFFFFFFFFFFFFFFF AND MUL OR SWAP1 SSTORE POP PUSH0 DUP1 DUP5 PUSH20 0xFFFFFFFFFFFFFFFFFFFFFFFFFFFFFFFFFFFFFFFF AND PUSH20 0xFFFFFFFFFFFFFFFFFFFFFFFFFFFFFFFFFFFFFFFF AND DUP2 MSTORE PUSH1 0x20 ADD SWAP1 DUP2 MSTORE PUSH1 0x20 ADD PUSH0 KECCAK256 PUSH0 ADD CALLER SWAP1 DUP1 PUSH1 0x1 DUP2 SLOAD ADD DUP1 DUP3 SSTORE DUP1 SWAP2 POP POP PUSH1 0x1 SWAP1 SUB SWAP1 PUSH0 MSTORE PUSH1 0x20 PUSH0 KECCAK256 ADD PUSH0 SWAP1 SWAP2 SWAP1 SWAP2 SWAP1 SWAP2 PUSH2 0x100 EXP DUP2 SLOAD DUP2 PUSH20 0xFFFFFFFFFFFFFFFFFFFFFFFFFFFFFFFFFFFFFFFF MUL NOT AND SWAP1 DUP4 PUSH20 0xFFFFFFFFFFFFFFFFFFFFFFFFFFFFFFFFFFFFFFFF AND MUL OR SWAP1 SSTORE POP POP POP POP JUMP JUMPDEST PUSH1 0x60 PUSH0 DUP1 CALLER PUSH20 0xFFFFFFFFFFFFFFFFFFFFFFFFFFFFFFFFFFFFFFFF AND PUSH20 0xFFFFFFFFFFFFFFFFFFFFFFFFFFFFFFFFFFFFFFFF AND DUP2 MSTORE PUSH1 0x20 ADD SWAP1 DUP2 MSTORE PUSH1 0x20 ADD PUSH0 KECCAK256 PUSH1 0x2 ADD DUP1 SLOAD DUP1 PUSH1 0x20 MUL PUSH1 0x20 ADD PUSH1 0x40 MLOAD SWAP1 DUP2 ADD PUSH1 0x40 MSTORE DUP1 SWAP3 SWAP2 SWAP1 DUP2 DUP2 MSTORE PUSH1 0x20 ADD DUP3 DUP1 SLOAD DUP1 ISZERO PUSH2 0xA72 JUMPI PUSH1 0x20 MUL DUP3 ADD SWAP2 SWAP1 PUSH0 MSTORE PUSH1 0x20 PUSH0 KECCAK256 SWAP1 JUMPDEST DUP2 PUSH0 SWAP1 SLOAD SWAP1 PUSH2 0x100 EXP SWAP1 DIV PUSH20 0xFFFFFFFFFFFFFFFFFFFFFFFFFFFFFFFFFFFFFFFF AND PUSH20 0xFFFFFFFFFFFFFFFFFFFFFFFFFFFFFFFFFFFFFFFF AND DUP2 MSTORE PUSH1 0x20 ADD SWAP1 PUSH1 0x1 ADD SWAP1 DUP1 DUP4 GT PUSH2 0xA29 JUMPI JUMPDEST POP POP POP POP POP SWAP1 POP SWAP1 JUMP JUMPDEST PUSH0 DUP1 JUMPDEST DUP4 MLOAD DUP2 LT ISZERO PUSH2 0xAEC JUMPI DUP3 PUSH20 0xFFFFFFFFFFFFFFFFFFFFFFFFFFFFFFFFFFFFFFFF AND DUP5 DUP3 DUP2 MLOAD DUP2 LT PUSH2 0xAB2 JUMPI PUSH2 0xAB1 PUSH2 0x113E JUMP JUMPDEST JUMPDEST PUSH1 0x20 MUL PUSH1 0x20 ADD ADD MLOAD PUSH20 0xFFFFFFFFFFFFFFFFFFFFFFFFFFFFFFFFFFFFFFFF AND SUB PUSH2 0xADF JUMPI PUSH1 0x1 SWAP2 POP POP PUSH2 0xAF1 JUMP JUMPDEST DUP1 DUP1 PUSH1 0x1 ADD SWAP2 POP POP PUSH2 0xA7F JUMP JUMPDEST POP PUSH0 SWAP1 POP JUMPDEST SWAP3 SWAP2 POP POP JUMP JUMPDEST PUSH0 DUP1 JUMPDEST DUP4 DUP1 SLOAD SWAP1 POP DUP2 LT ISZERO PUSH2 0xB88 JUMPI DUP3 PUSH20 0xFFFFFFFFFFFFFFFFFFFFFFFFFFFFFFFFFFFFFFFF AND DUP5 DUP3 DUP2 SLOAD DUP2 LT PUSH2 0xB30 JUMPI PUSH2 0xB2F PUSH2 0x113E JUMP JUMPDEST JUMPDEST SWAP1 PUSH0 MSTORE PUSH1 0x20 PUSH0 KECCAK256 ADD PUSH0 SWAP1 SLOAD SWAP1 PUSH2 0x100 EXP SWAP1 DIV PUSH20 0xFFFFFFFFFFFFFFFFFFFFFFFFFFFFFFFFFFFFFFFF AND PUSH20 0xFFFFFFFFFFFFFFFFFFFFFFFFFFFFFFFFFFFFFFFF AND SUB PUSH2 0xB7B JUMPI DUP1 SWAP2 POP PUSH2 0xB88 JUMP JUMPDEST DUP1 DUP1 PUSH1 0x1 ADD SWAP2 POP POP PUSH2 0xAFA JUMP JUMPDEST POP PUSH0 PUSH1 0x1 DUP5 DUP1 SLOAD SWAP1 POP PUSH2 0xB9B SWAP2 SWAP1 PUSH2 0x1198 JUMP JUMPDEST SWAP1 POP PUSH0 DUP5 DUP3 DUP2 SLOAD DUP2 LT PUSH2 0xBB1 JUMPI PUSH2 0xBB0 PUSH2 0x113E JUMP JUMPDEST JUMPDEST SWAP1 PUSH0 MSTORE PUSH1 0x20 PUSH0 KECCAK256 ADD PUSH0 SWAP1 SLOAD SWAP1 PUSH2 0x100 EXP SWAP1 DIV PUSH20 0xFFFFFFFFFFFFFFFFFFFFFFFFFFFFFFFFFFFFFFFF AND SWAP1 POP DUP4 DUP6 DUP4 DUP2 SLOAD DUP2 LT PUSH2 0xBEF JUMPI PUSH2 0xBEE PUSH2 0x113E JUMP JUMPDEST JUMPDEST SWAP1 PUSH0 MSTORE PUSH1 0x20 PUSH0 KECCAK256 ADD PUSH0 PUSH2 0x100 EXP DUP2 SLOAD DUP2 PUSH20 0xFFFFFFFFFFFFFFFFFFFFFFFFFFFFFFFFFFFFFFFF MUL NOT AND SWAP1 DUP4 PUSH20 0xFFFFFFFFFFFFFFFFFFFFFFFFFFFFFFFFFFFFFFFF AND MUL OR SWAP1 SSTORE POP DUP1 DUP6 DUP5 DUP2 SLOAD DUP2 LT PUSH2 0xC48 JUMPI PUSH2 0xC47 PUSH2 0x113E JUMP JUMPDEST JUMPDEST SWAP1 PUSH0 MSTORE PUSH1 0x20 PUSH0 KECCAK256 ADD PUSH0 PUSH2 0x100 EXP DUP2 SLOAD DUP2 PUSH20 0xFFFFFFFFFFFFFFFFFFFFFFFFFFFFFFFFFFFFFFFF MUL NOT AND SWAP1 DUP4 PUSH20 0xFFFFFFFFFFFFFFFFFFFFFFFFFFFFFFFFFFFFFFFF AND MUL OR SWAP1 SSTORE POP DUP5 DUP1 SLOAD DUP1 PUSH2 0xC9E JUMPI PUSH2 0xC9D PUSH2 0x11CB JUMP JUMPDEST JUMPDEST PUSH1 0x1 SWAP1 SUB DUP2 DUP2 SWAP1 PUSH0 MSTORE PUSH1 0x20 PUSH0 KECCAK256 ADD PUSH0 PUSH2 0x100 EXP DUP2 SLOAD SWAP1 PUSH20 0xFFFFFFFFFFFFFFFFFFFFFFFFFFFFFFFFFFFFFFFF MUL NOT AND SWAP1 SSTORE SWAP1 SSTORE POP POP POP POP POP JUMP JUMPDEST PUSH0 DUP2 MLOAD SWAP1 POP SWAP2 SWAP1 POP JUMP JUMPDEST PUSH0 DUP3 DUP3 MSTORE PUSH1 0x20 DUP3 ADD SWAP1 POP SWAP3 SWAP2 POP POP JUMP JUMPDEST PUSH0 DUP2 SWAP1 POP PUSH1 0x20 DUP3 ADD SWAP1 POP SWAP2 SWAP1 POP JUMP JUMPDEST PUSH0 PUSH20 0xFFFFFFFFFFFFFFFFFFFFFFFFFFFFFFFFFFFFFFFF DUP3 AND SWAP1 POP SWAP2 SWAP1 POP JUMP JUMPDEST PUSH0 PUSH2 0xD29 DUP3 PUSH2 0xD00 JUMP JUMPDEST SWAP1 POP SWAP2 SWAP1 POP JUMP JUMPDEST PUSH2 0xD39 DUP2 PUSH2 0xD1F JUMP JUMPDEST DUP3 MSTORE POP POP JUMP JUMPDEST PUSH0 PUSH2 0xD4A DUP4 DUP4 PUSH2 0xD30 JUMP JUMPDEST PUSH1 0x20 DUP4 ADD SWAP1 POP SWAP3 SWAP2 POP POP JUMP JUMPDEST PUSH0 PUSH1 0x20 DUP3 ADD SWAP1 POP SWAP2 SWAP1 POP JUMP JUMPDEST PUSH0 PUSH2 0xD6C DUP3 PUSH2 0xCD7 JUMP JUMPDEST PUSH2 0xD76 DUP2 DUP6 PUSH2 0xCE1 JUMP JUMPDEST SWAP4 POP PUSH2 0xD81 DUP4 PUSH2 0xCF1 JUMP JUMPDEST DUP1 PUSH0 JUMPDEST DUP4 DUP2 LT ISZERO PUSH2 0xDB1 JUMPI DUP2 MLOAD PUSH2 0xD98 DUP9 DUP3 PUSH2 0xD3F JUMP JUMPDEST SWAP8 POP PUSH2 0xDA3 DUP4 PUSH2 0xD56 JUMP JUMPDEST SWAP3 POP POP PUSH1 0x1 DUP2 ADD SWAP1 POP PUSH2 0xD84 JUMP JUMPDEST POP DUP6 SWAP4 POP POP POP POP SWAP3 SWAP2 POP POP JUMP JUMPDEST PUSH0 PUSH1 0x20 DUP3 ADD SWAP1 POP DUP2 DUP2 SUB PUSH0 DUP4 ADD MSTORE PUSH2 0xDD6 DUP2 DUP5 PUSH2 0xD62 JUMP JUMPDEST SWAP1 POP SWAP3 SWAP2 POP POP JUMP JUMPDEST PUSH0 DUP2 SWAP1 POP SWAP2 SWAP1 POP JUMP JUMPDEST PUSH2 0xDF0 DUP2 PUSH2 0xDDE JUMP JUMPDEST DUP3 MSTORE POP POP JUMP JUMPDEST PUSH0 PUSH1 0x20 DUP3 ADD SWAP1 POP PUSH2 0xE09 PUSH0 DUP4 ADD DUP5 PUSH2 0xDE7 JUMP JUMPDEST SWAP3 SWAP2 POP POP JUMP JUMPDEST PUSH0 DUP1 REVERT JUMPDEST PUSH2 0xE1C DUP2 PUSH2 0xD1F JUMP JUMPDEST DUP2 EQ PUSH2 0xE26 JUMPI PUSH0 DUP1 REVERT JUMPDEST POP JUMP JUMPDEST PUSH0 DUP2 CALLDATALOAD SWAP1 POP PUSH2 0xE37 DUP2 PUSH2 0xE13 JUMP JUMPDEST SWAP3 SWAP2 POP POP JUMP JUMPDEST PUSH0 PUSH1 0x20 DUP3 DUP5 SUB SLT ISZERO PUSH2 0xE52 JUMPI PUSH2 0xE51 PUSH2 0xE0F JUMP JUMPDEST JUMPDEST PUSH0 PUSH2 0xE5F DUP5 DUP3 DUP6 ADD PUSH2 0xE29 JUMP JUMPDEST SWAP2 POP POP SWAP3 SWAP2 POP POP JUMP JUMPDEST PUSH0 DUP3 DUP3 MSTORE PUSH1 0x20 DUP3 ADD SWAP1 POP SWAP3 SWAP2 POP POP JUMP JUMPDEST PUSH32 0x596F75206861766520616C72656164792073656E742074686973207573657220 PUSH0 DUP3 ADD MSTORE PUSH32 0x6120726571756573740000000000000000000000000000000000000000000000 PUSH1 0x20 DUP3 ADD MSTORE POP JUMP JUMPDEST PUSH0 PUSH2 0xED2 PUSH1 0x29 DUP4 PUSH2 0xE68 JUMP JUMPDEST SWAP2 POP PUSH2 0xEDD DUP3 PUSH2 0xE78 JUMP JUMPDEST PUSH1 0x40 DUP3 ADD SWAP1 POP SWAP2 SWAP1 POP JUMP JUMPDEST PUSH0 PUSH1 0x20 DUP3 ADD SWAP1 POP DUP2 DUP2 SUB PUSH0 DUP4 ADD MSTORE PUSH2 0xEFF DUP2 PUSH2 0xEC6 JUMP JUMPDEST SWAP1 POP SWAP2 SWAP1 POP JUMP JUMPDEST PUSH32 0x5468697320757365722068617320616C72656164792073656E7420796F752061 PUSH0 DUP3 ADD MSTORE PUSH32 0x2072657175657374000000000000000000000000000000000000000000000000 PUSH1 0x20 DUP3 ADD MSTORE POP JUMP JUMPDEST PUSH0 PUSH2 0xF60 PUSH1 0x28 DUP4 PUSH2 0xE68 JUMP JUMPDEST SWAP2 POP PUSH2 0xF6B DUP3 PUSH2 0xF06 JUMP JUMPDEST PUSH1 0x40 DUP3 ADD SWAP1 POP SWAP2 SWAP1 POP JUMP JUMPDEST PUSH0 PUSH1 0x20 DUP3 ADD SWAP1 POP DUP2 DUP2 SUB PUSH0 DUP4 ADD MSTORE PUSH2 0xF8D DUP2 PUSH2 0xF54 JUMP JUMPDEST SWAP1 POP SWAP2 SWAP1 POP JUMP JUMPDEST PUSH32 0x596F752061726520616C726561647920667269656E6473207769746820746869 PUSH0 DUP3 ADD MSTORE PUSH32 0x7320757365720000000000000000000000000000000000000000000000000000 PUSH1 0x20 DUP3 ADD MSTORE POP JUMP JUMPDEST PUSH0 PUSH2 0xFEE PUSH1 0x26 DUP4 PUSH2 0xE68 JUMP JUMPDEST SWAP2 POP PUSH2 0xFF9 DUP3 PUSH2 0xF94 JUMP JUMPDEST PUSH1 0x40 DUP3 ADD SWAP1 POP SWAP2 SWAP1 POP JUMP JUMPDEST PUSH0 PUSH1 0x20 DUP3 ADD SWAP1 POP DUP2 DUP2 SUB PUSH0 DUP4 ADD MSTORE PUSH2 0x101B DUP2 PUSH2 0xFE2 JUMP JUMPDEST SWAP1 POP SWAP2 SWAP1 POP JUMP JUMPDEST PUSH32 0x596F752063616E6E6F742073656E64206120667269656E642072657175657374 PUSH0 DUP3 ADD MSTORE PUSH32 0x20746F20796F757273656C660000000000000000000000000000000000000000 PUSH1 0x20 DUP3 ADD MSTORE POP JUMP JUMPDEST PUSH0 PUSH2 0x107C PUSH1 0x2C DUP4 PUSH2 0xE68 JUMP JUMPDEST SWAP2 POP PUSH2 0x1087 DUP3 PUSH2 0x1022 JUMP JUMPDEST PUSH1 0x40 DUP3 ADD SWAP1 POP SWAP2 SWAP1 POP JUMP JUMPDEST PUSH0 PUSH1 0x20 DUP3 ADD SWAP1 POP DUP2 DUP2 SUB PUSH0 DUP4 ADD MSTORE PUSH2 0x10A9 DUP2 PUSH2 0x1070 JUMP JUMPDEST SWAP1 POP SWAP2 SWAP1 POP JUMP JUMPDEST PUSH32 0x54686973207573657220686173206E6F742073656E7420796F75206120726571 PUSH0 DUP3 ADD MSTORE PUSH32 0x7565737400000000000000000000000000000000000000000000000000000000 PUSH1 0x20 DUP3 ADD MSTORE POP JUMP JUMPDEST PUSH0 PUSH2 0x110A PUSH1 0x24 DUP4 PUSH2 0xE68 JUMP JUMPDEST SWAP2 POP PUSH2 0x1115 DUP3 PUSH2 0x10B0 JUMP JUMPDEST PUSH1 0x40 DUP3 ADD SWAP1 POP SWAP2 SWAP1 POP JUMP JUMPDEST PUSH0 PUSH1 0x20 DUP3 ADD SWAP1 POP DUP2 DUP2 SUB PUSH0 DUP4 ADD MSTORE PUSH2 0x1137 DUP2 PUSH2 0x10FE JUMP JUMPDEST SWAP1 POP SWAP2 SWAP1 POP JUMP JUMPDEST PUSH32 0x4E487B7100000000000000000000000000000000000000000000000000000000 PUSH0 MSTORE PUSH1 0x32 PUSH1 0x4 MSTORE PUSH1 0x24 PUSH0 REVERT JUMPDEST PUSH32 0x4E487B7100000000000000000000000000000000000000000000000000000000 PUSH0 MSTORE PUSH1 0x11 PUSH1 0x4 MSTORE PUSH1 0x24 PUSH0 REVERT JUMPDEST PUSH0 PUSH2 0x11A2 DUP3 PUSH2 0xDDE JUMP JUMPDEST SWAP2 POP PUSH2 0x11AD DUP4 PUSH2 0xDDE JUMP JUMPDEST SWAP3 POP DUP3 DUP3 SUB SWAP1 POP DUP2 DUP2 GT ISZERO PUSH2 0x11C5 JUMPI PUSH2 0x11C4 PUSH2 0x116B JUMP JUMPDEST JUMPDEST SWAP3 SWAP2 POP POP JUMP JUMPDEST PUSH32 0x4E487B7100000000000000000000000000000000000000000000000000000000 PUSH0 MSTORE PUSH1 0x31 PUSH1 0x4 MSTORE PUSH1 0x24 PUSH0 REVERT INVALID LOG2 PUSH5 0x6970667358 0x22 SLT KECCAK256 PUSH14 0x6C71050CD4B89E6D4881BD69F6A9 RETURN LOG3 DUP8 KECCAK256 0xDA EQ 0xE5 SELFBALANCE 0x22 TIMESTAMP 0x28 LOG0 PUSH2 0x12F9 0x1F LOG1 PUSH5 0x736F6C6343 STOP ADDMOD BYTE STOP CALLER "
				},
				"gasEstimates": {
					"creation": {
						"codeDepositCost": "930800",
						"executionCost": "966",
						"totalCost": "931766"
					},
					"external": {
						"acceptFriendRequest(address)": "infinite",
						"getFriendRequests()": "infinite",
						"getFriends()": "infinite",
						"getNumberOfFriends()": "2532",
						"sendFriendRequest(address)": "infinite"
					},
					"internal": {
						"arrayContains(address[] memory,address)": "infinite",
						"deleteFromArray(address[] storage pointer,address)": "infinite"
					}
				},
				"methodIdentifiers": {
					"acceptFriendRequest(address)": "a9f56466",
					"getFriendRequests()": "d6688cbd",
					"getFriends()": "1f8f7270",
					"getNumberOfFriends()": "67db8b68",
					"sendFriendRequest(address)": "837b770a"
				}
			},
			"storageLayout": {
				"storage": [
					{
						"astId": 17,
						"contract": "advanced/ExampleWithAllConcepts.sol:ExampleWithAllConcepts",
						"label": "people",
						"offset": 0,
						"slot": "0",
						"type": "t_mapping(t_address,t_struct(Person)12_storage)"
					}
				],
				"types": {
					"t_address": {
						"encoding": "inplace",
						"label": "address",
						"numberOfBytes": "20"
					},
					"t_array(t_address)dyn_storage": {
						"base": "t_address",
						"encoding": "dynamic_array",
						"label": "address[]",
						"numberOfBytes": "32"
					},
					"t_mapping(t_address,t_struct(Person)12_storage)": {
						"encoding": "mapping",
						"key": "t_address",
						"label": "mapping(address => struct ExampleWithAllConcepts.Person)",
						"numberOfBytes": "32",
						"value": "t_struct(Person)12_storage"
					},
					"t_struct(Person)12_storage": {
						"encoding": "inplace",
						"label": "struct ExampleWithAllConcepts.Person",
						"members": [
							{
								"astId": 5,
								"contract": "advanced/ExampleWithAllConcepts.sol:ExampleWithAllConcepts",
								"label": "friends",
								"offset": 0,
								"slot": "0",
								"type": "t_array(t_address)dyn_storage"
							},
							{
								"astId": 8,
								"contract": "advanced/ExampleWithAllConcepts.sol:ExampleWithAllConcepts",
								"label": "requestsSent",
								"offset": 0,
								"slot": "1",
								"type": "t_array(t_address)dyn_storage"
							},
							{
								"astId": 11,
								"contract": "advanced/ExampleWithAllConcepts.sol:ExampleWithAllConcepts",
								"label": "requestsReceived",
								"offset": 0,
								"slot": "2",
								"type": "t_array(t_address)dyn_storage"
							}
						],
						"numberOfBytes": "96"
					}
				}
			},
			"userdoc": {
				"kind": "user",
				"methods": {},
				"version": 1
			}
		}
	}
}