{
	"advanced/Structs.sol": {
		"Structs": {
			"abi": [
				{
					"inputs": [
						{
							"internalType": "string",
							"name": "listName",
							"type": "string"
						},
						{
							"internalType": "string",
							"name": "itemName",
							"type": "string"
						},
						{
							"internalType": "uint256",
							"name": "quantity",
							"type": "uint256"
						}
					],
					"name": "addItem",
					"outputs": [],
					"stateMutability": "nonpayable",
					"type": "function"
				},
				{
					"inputs": [
						{
							"internalType": "string",
							"name": "name",
							"type": "string"
						}
					],
					"name": "createList",
					"outputs": [],
					"stateMutability": "nonpayable",
					"type": "function"
				},
				{
					"inputs": [
						{
							"internalType": "string",
							"name": "listName",
							"type": "string"
						}
					],
					"name": "getItemNames",
					"outputs": [
						{
							"internalType": "string[]",
							"name": "",
							"type": "string[]"
						}
					],
					"stateMutability": "view",
					"type": "function"
				},
				{
					"inputs": [],
					"name": "getListNames",
					"outputs": [
						{
							"internalType": "string[]",
							"name": "",
							"type": "string[]"
						}
					],
					"stateMutability": "view",
					"type": "function"
				}
			],
			"devdoc": {
				"details": "This contract allows users to create, manage, and interact with their personal shopping lists.",
				"kind": "dev",
				"methods": {
					"addItem(string,string,uint256)": {
						"details": "Adds an item with a specified name and quantity to a specific list created by the sender.",
						"params": {
							"itemName": "The name of the item to add.",
							"listName": "The name of the list to add the item to.",
							"quantity": "The quantity of the item to add."
						}
					},
					"createList(string)": {
						"details": "Creates a new shopping list for the sender with the specified name.",
						"params": {
							"name": "The name of the list to create."
						}
					},
					"getItemNames(string)": {
						"details": "Retrieves the names of all items in a specific list created by the sender.",
						"params": {
							"listName": "The name of the list to retrieve item names from."
						},
						"returns": {
							"_0": "An array of strings containing the names of the items in the list."
						}
					},
					"getListNames()": {
						"details": "Retrieves the names of all lists created by the sender.",
						"returns": {
							"_0": "An array of strings containing the names of the lists."
						}
					}
				},
				"title": "Shopping List Contract",
				"version": 1
			},
			"evm": {
				"assembly": "    /* \"advanced/Structs.sol\":268:3464  contract Structs {... */\n  mstore(0x40, 0x80)\n  callvalue\n  dup1\n  iszero\n  tag_1\n  jumpi\n  0x00\n  dup1\n  revert\ntag_1:\n  pop\n  dataSize(sub_0)\n  dup1\n  dataOffset(sub_0)\n  0x00\n  codecopy\n  0x00\n  return\nstop\n\nsub_0: assembly {\n        /* \"advanced/Structs.sol\":268:3464  contract Structs {... */\n      mstore(0x40, 0x80)\n      callvalue\n      dup1\n      iszero\n      tag_1\n      jumpi\n      0x00\n      dup1\n      revert\n    tag_1:\n      pop\n      jumpi(tag_2, lt(calldatasize, 0x04))\n      shr(0xe0, calldataload(0x00))\n      dup1\n      0x61769db2\n      eq\n      tag_3\n      jumpi\n      dup1\n      0x64432eb8\n      eq\n      tag_4\n      jumpi\n      dup1\n      0x7407285d\n      eq\n      tag_5\n      jumpi\n      dup1\n      0xb8dcc68f\n      eq\n      tag_6\n      jumpi\n    tag_2:\n      0x00\n      dup1\n      revert\n        /* \"advanced/Structs.sol\":2064:2177  function getListNames() public view returns (string[] memory) {... */\n    tag_3:\n      tag_7\n      tag_8\n      jump\t// in\n    tag_7:\n      mload(0x40)\n      tag_9\n      swap2\n      swap1\n      tag_10\n      jump\t// in\n    tag_9:\n      mload(0x40)\n      dup1\n      swap2\n      sub\n      swap1\n      return\n        /* \"advanced/Structs.sol\":3183:3462  function addItem(... */\n    tag_4:\n      tag_11\n      0x04\n      dup1\n      calldatasize\n      sub\n      dup2\n      add\n      swap1\n      tag_12\n      swap2\n      swap1\n      tag_13\n      jump\t// in\n    tag_12:\n      tag_14\n      jump\t// in\n    tag_11:\n      stop\n        /* \"advanced/Structs.sol\":2441:2887  function getItemNames(string memory listName) public view returns (string[] memory) {... */\n    tag_5:\n      tag_15\n      0x04\n      dup1\n      calldatasize\n      sub\n      dup2\n      add\n      swap1\n      tag_16\n      swap2\n      swap1\n      tag_17\n      jump\t// in\n    tag_16:\n      tag_18\n      jump\t// in\n    tag_15:\n      mload(0x40)\n      tag_19\n      swap2\n      swap1\n      tag_10\n      jump\t// in\n    tag_19:\n      mload(0x40)\n      dup1\n      swap2\n      sub\n      swap1\n      return\n        /* \"advanced/Structs.sol\":1610:1904  function createList(string memory name) public {... */\n    tag_6:\n      tag_20\n      0x04\n      dup1\n      calldatasize\n      sub\n      dup2\n      add\n      swap1\n      tag_21\n      swap2\n      swap1\n      tag_17\n      jump\t// in\n    tag_21:\n      tag_22\n      jump\t// in\n    tag_20:\n      stop\n        /* \"advanced/Structs.sol\":2064:2177  function getListNames() public view returns (string[] memory) {... */\n    tag_8:\n        /* \"advanced/Structs.sol\":2109:2124  string[] memory */\n      0x60\n        /* \"advanced/Structs.sol\":2143:2148  users */\n      0x00\n        /* \"advanced/Structs.sol\":2143:2160  users[msg.sender] */\n      dup1\n        /* \"advanced/Structs.sol\":2149:2159  msg.sender */\n      caller\n        /* \"advanced/Structs.sol\":2143:2160  users[msg.sender] */\n      0xffffffffffffffffffffffffffffffffffffffff\n      and\n      0xffffffffffffffffffffffffffffffffffffffff\n      and\n      dup2\n      mstore\n      0x20\n      add\n      swap1\n      dup2\n      mstore\n      0x20\n      add\n      0x00\n      keccak256\n        /* \"advanced/Structs.sol\":2143:2170  users[msg.sender].listNames */\n      0x01\n      add\n        /* \"advanced/Structs.sol\":2136:2170  return users[msg.sender].listNames */\n      dup1\n      sload\n      dup1\n      0x20\n      mul\n      0x20\n      add\n      mload(0x40)\n      swap1\n      dup2\n      add\n      0x40\n      mstore\n      dup1\n      swap3\n      swap2\n      swap1\n      dup2\n      dup2\n      mstore\n      0x20\n      add\n      0x00\n      swap1\n    tag_24:\n      dup3\n      dup3\n      lt\n      iszero\n      tag_25\n      jumpi\n      dup4\n      dup3\n      swap1\n      0x00\n      mstore\n      keccak256(0x00, 0x20)\n      add\n      dup1\n      sload\n      tag_27\n      swap1\n      tag_28\n      jump\t// in\n    tag_27:\n      dup1\n      0x1f\n      add\n      0x20\n      dup1\n      swap2\n      div\n      mul\n      0x20\n      add\n      mload(0x40)\n      swap1\n      dup2\n      add\n      0x40\n      mstore\n      dup1\n      swap3\n      swap2\n      swap1\n      dup2\n      dup2\n      mstore\n      0x20\n      add\n      dup3\n      dup1\n      sload\n      tag_29\n      swap1\n      tag_28\n      jump\t// in\n    tag_29:\n      dup1\n      iszero\n      tag_30\n      jumpi\n      dup1\n      0x1f\n      lt\n      tag_31\n      jumpi\n      0x0100\n      dup1\n      dup4\n      sload\n      div\n      mul\n      dup4\n      mstore\n      swap2\n      0x20\n      add\n      swap2\n      jump(tag_30)\n    tag_31:\n      dup3\n      add\n      swap2\n      swap1\n      0x00\n      mstore\n      keccak256(0x00, 0x20)\n      swap1\n    tag_32:\n      dup2\n      sload\n      dup2\n      mstore\n      swap1\n      0x01\n      add\n      swap1\n      0x20\n      add\n      dup1\n      dup4\n      gt\n      tag_32\n      jumpi\n      dup3\n      swap1\n      sub\n      0x1f\n      and\n      dup3\n      add\n      swap2\n    tag_30:\n      pop\n      pop\n      pop\n      pop\n      pop\n      dup2\n      mstore\n      0x20\n      add\n      swap1\n      0x01\n      add\n      swap1\n      jump(tag_24)\n    tag_25:\n      pop\n      pop\n      pop\n      pop\n      swap1\n      pop\n        /* \"advanced/Structs.sol\":2064:2177  function getListNames() public view returns (string[] memory) {... */\n      swap1\n      jump\t// out\n        /* \"advanced/Structs.sol\":3183:3462  function addItem(... */\n    tag_14:\n        /* \"advanced/Structs.sol\":3321:3341  listExists(listName) */\n      tag_34\n        /* \"advanced/Structs.sol\":3332:3340  listName */\n      dup4\n        /* \"advanced/Structs.sol\":3321:3331  listExists */\n      tag_35\n        /* \"advanced/Structs.sol\":3321:3341  listExists(listName) */\n      jump\t// in\n    tag_34:\n        /* \"advanced/Structs.sol\":3313:3375  require(listExists(listName), \"No list with this name exists\") */\n      tag_36\n      jumpi\n      mload(0x40)\n      0x08c379a000000000000000000000000000000000000000000000000000000000\n      dup2\n      mstore\n      0x04\n      add\n      tag_37\n      swap1\n      tag_38\n      jump\t// in\n    tag_37:\n      mload(0x40)\n      dup1\n      swap2\n      sub\n      swap1\n      revert\n    tag_36:\n        /* \"advanced/Structs.sol\":3385:3390  users */\n      0x00\n        /* \"advanced/Structs.sol\":3385:3402  users[msg.sender] */\n      dup1\n        /* \"advanced/Structs.sol\":3391:3401  msg.sender */\n      caller\n        /* \"advanced/Structs.sol\":3385:3402  users[msg.sender] */\n      0xffffffffffffffffffffffffffffffffffffffff\n      and\n      0xffffffffffffffffffffffffffffffffffffffff\n      and\n      dup2\n      mstore\n      0x20\n      add\n      swap1\n      dup2\n      mstore\n      0x20\n      add\n      0x00\n      keccak256\n        /* \"advanced/Structs.sol\":3385:3408  users[msg.sender].lists */\n      0x00\n      add\n        /* \"advanced/Structs.sol\":3409:3417  listName */\n      dup4\n        /* \"advanced/Structs.sol\":3385:3418  users[msg.sender].lists[listName] */\n      mload(0x40)\n      tag_39\n      swap2\n      swap1\n      tag_40\n      jump\t// in\n    tag_39:\n      swap1\n      dup2\n      mstore\n      0x20\n      add\n      mload(0x40)\n      dup1\n      swap2\n      sub\n      swap1\n      keccak256\n        /* \"advanced/Structs.sol\":3385:3424  users[msg.sender].lists[listName].items */\n      0x01\n      add\n        /* \"advanced/Structs.sol\":3430:3454  Item(itemName, quantity) */\n      mload(0x40)\n      dup1\n      0x40\n      add\n      0x40\n      mstore\n      dup1\n        /* \"advanced/Structs.sol\":3435:3443  itemName */\n      dup5\n        /* \"advanced/Structs.sol\":3430:3454  Item(itemName, quantity) */\n      dup2\n      mstore\n      0x20\n      add\n        /* \"advanced/Structs.sol\":3445:3453  quantity */\n      dup4\n        /* \"advanced/Structs.sol\":3430:3454  Item(itemName, quantity) */\n      dup2\n      mstore\n      pop\n        /* \"advanced/Structs.sol\":3385:3455  users[msg.sender].lists[listName].items.push(Item(itemName, quantity)) */\n      swap1\n      dup1\n      0x01\n      dup2\n      sload\n      add\n      dup1\n      dup3\n      sstore\n      dup1\n      swap2\n      pop\n      pop\n      0x01\n      swap1\n      sub\n      swap1\n      0x00\n      mstore\n      keccak256(0x00, 0x20)\n      swap1\n      0x02\n      mul\n      add\n      0x00\n      swap1\n      swap2\n      swap1\n      swap2\n      swap1\n      swap2\n      pop\n      0x00\n      dup3\n      add\n      mload\n      dup2\n      0x00\n      add\n      swap1\n      dup2\n      tag_42\n      swap2\n      swap1\n      tag_43\n      jump\t// in\n    tag_42:\n      pop\n      0x20\n      dup3\n      add\n      mload\n      dup2\n      0x01\n      add\n      sstore\n      pop\n      pop\n        /* \"advanced/Structs.sol\":3183:3462  function addItem(... */\n      pop\n      pop\n      pop\n      jump\t// out\n        /* \"advanced/Structs.sol\":2441:2887  function getItemNames(string memory listName) public view returns (string[] memory) {... */\n    tag_18:\n        /* \"advanced/Structs.sol\":2508:2523  string[] memory */\n      0x60\n        /* \"advanced/Structs.sol\":2543:2563  listExists(listName) */\n      tag_45\n        /* \"advanced/Structs.sol\":2554:2562  listName */\n      dup3\n        /* \"advanced/Structs.sol\":2543:2553  listExists */\n      tag_35\n        /* \"advanced/Structs.sol\":2543:2563  listExists(listName) */\n      jump\t// in\n    tag_45:\n        /* \"advanced/Structs.sol\":2535:2597  require(listExists(listName), \"No list with this name exists\") */\n      tag_46\n      jumpi\n      mload(0x40)\n      0x08c379a000000000000000000000000000000000000000000000000000000000\n      dup2\n      mstore\n      0x04\n      add\n      tag_47\n      swap1\n      tag_38\n      jump\t// in\n    tag_47:\n      mload(0x40)\n      dup1\n      swap2\n      sub\n      swap1\n      revert\n    tag_46:\n        /* \"advanced/Structs.sol\":2607:2628  string[] memory names */\n      0x00\n        /* \"advanced/Structs.sol\":2657:2662  users */\n      dup1\n        /* \"advanced/Structs.sol\":2657:2674  users[msg.sender] */\n      0x00\n        /* \"advanced/Structs.sol\":2663:2673  msg.sender */\n      caller\n        /* \"advanced/Structs.sol\":2657:2674  users[msg.sender] */\n      0xffffffffffffffffffffffffffffffffffffffff\n      and\n      0xffffffffffffffffffffffffffffffffffffffff\n      and\n      dup2\n      mstore\n      0x20\n      add\n      swap1\n      dup2\n      mstore\n      0x20\n      add\n      0x00\n      keccak256\n        /* \"advanced/Structs.sol\":2657:2680  users[msg.sender].lists */\n      0x00\n      add\n        /* \"advanced/Structs.sol\":2681:2689  listName */\n      dup4\n        /* \"advanced/Structs.sol\":2657:2690  users[msg.sender].lists[listName] */\n      mload(0x40)\n      tag_48\n      swap2\n      swap1\n      tag_40\n      jump\t// in\n    tag_48:\n      swap1\n      dup2\n      mstore\n      0x20\n      add\n      mload(0x40)\n      dup1\n      swap2\n      sub\n      swap1\n      keccak256\n        /* \"advanced/Structs.sol\":2657:2696  users[msg.sender].lists[listName].items */\n      0x01\n      add\n        /* \"advanced/Structs.sol\":2657:2703  users[msg.sender].lists[listName].items.length */\n      dup1\n      sload\n      swap1\n      pop\n        /* \"advanced/Structs.sol\":2631:2713  new string[](... */\n      0xffffffffffffffff\n      dup2\n      gt\n      iszero\n      tag_49\n      jumpi\n      tag_50\n      tag_51\n      jump\t// in\n    tag_50:\n    tag_49:\n      mload(0x40)\n      swap1\n      dup1\n      dup3\n      mstore\n      dup1\n      0x20\n      mul\n      0x20\n      add\n      dup3\n      add\n      0x40\n      mstore\n      dup1\n      iszero\n      tag_52\n      jumpi\n      dup2\n      0x20\n      add\n    tag_53:\n      0x60\n      dup2\n      mstore\n      0x20\n      add\n      swap1\n      0x01\n      swap1\n      sub\n      swap1\n      dup2\n      tag_53\n      jumpi\n      swap1\n      pop\n    tag_52:\n      pop\n        /* \"advanced/Structs.sol\":2607:2713  string[] memory names = new string[](... */\n      swap1\n      pop\n        /* \"advanced/Structs.sol\":2728:2739  uint256 idx */\n      0x00\n        /* \"advanced/Structs.sol\":2723:2859  for (uint256 idx = 0; idx < names.length; idx++) {... */\n    tag_54:\n        /* \"advanced/Structs.sol\":2751:2756  names */\n      dup2\n        /* \"advanced/Structs.sol\":2751:2763  names.length */\n      mload\n        /* \"advanced/Structs.sol\":2745:2748  idx */\n      dup2\n        /* \"advanced/Structs.sol\":2745:2763  idx < names.length */\n      lt\n        /* \"advanced/Structs.sol\":2723:2859  for (uint256 idx = 0; idx < names.length; idx++) {... */\n      iszero\n      tag_55\n      jumpi\n        /* \"advanced/Structs.sol\":2799:2804  users */\n      0x00\n        /* \"advanced/Structs.sol\":2799:2816  users[msg.sender] */\n      dup1\n        /* \"advanced/Structs.sol\":2805:2815  msg.sender */\n      caller\n        /* \"advanced/Structs.sol\":2799:2816  users[msg.sender] */\n      0xffffffffffffffffffffffffffffffffffffffff\n      and\n      0xffffffffffffffffffffffffffffffffffffffff\n      and\n      dup2\n      mstore\n      0x20\n      add\n      swap1\n      dup2\n      mstore\n      0x20\n      add\n      0x00\n      keccak256\n        /* \"advanced/Structs.sol\":2799:2822  users[msg.sender].lists */\n      0x00\n      add\n        /* \"advanced/Structs.sol\":2823:2831  listName */\n      dup5\n        /* \"advanced/Structs.sol\":2799:2832  users[msg.sender].lists[listName] */\n      mload(0x40)\n      tag_57\n      swap2\n      swap1\n      tag_40\n      jump\t// in\n    tag_57:\n      swap1\n      dup2\n      mstore\n      0x20\n      add\n      mload(0x40)\n      dup1\n      swap2\n      sub\n      swap1\n      keccak256\n        /* \"advanced/Structs.sol\":2799:2838  users[msg.sender].lists[listName].items */\n      0x01\n      add\n        /* \"advanced/Structs.sol\":2839:2842  idx */\n      dup2\n        /* \"advanced/Structs.sol\":2799:2843  users[msg.sender].lists[listName].items[idx] */\n      dup2\n      sload\n      dup2\n      lt\n      tag_58\n      jumpi\n      tag_59\n      tag_60\n      jump\t// in\n    tag_59:\n    tag_58:\n      swap1\n      0x00\n      mstore\n      keccak256(0x00, 0x20)\n      swap1\n      0x02\n      mul\n      add\n        /* \"advanced/Structs.sol\":2799:2848  users[msg.sender].lists[listName].items[idx].name */\n      0x00\n      add\n        /* \"advanced/Structs.sol\":2786:2848  names[idx] = users[msg.sender].lists[listName].items[idx].name */\n      dup1\n      sload\n      tag_62\n      swap1\n      tag_28\n      jump\t// in\n    tag_62:\n      dup1\n      0x1f\n      add\n      0x20\n      dup1\n      swap2\n      div\n      mul\n      0x20\n      add\n      mload(0x40)\n      swap1\n      dup2\n      add\n      0x40\n      mstore\n      dup1\n      swap3\n      swap2\n      swap1\n      dup2\n      dup2\n      mstore\n      0x20\n      add\n      dup3\n      dup1\n      sload\n      tag_63\n      swap1\n      tag_28\n      jump\t// in\n    tag_63:\n      dup1\n      iszero\n      tag_64\n      jumpi\n      dup1\n      0x1f\n      lt\n      tag_65\n      jumpi\n      0x0100\n      dup1\n      dup4\n      sload\n      div\n      mul\n      dup4\n      mstore\n      swap2\n      0x20\n      add\n      swap2\n      jump(tag_64)\n    tag_65:\n      dup3\n      add\n      swap2\n      swap1\n      0x00\n      mstore\n      keccak256(0x00, 0x20)\n      swap1\n    tag_66:\n      dup2\n      sload\n      dup2\n      mstore\n      swap1\n      0x01\n      add\n      swap1\n      0x20\n      add\n      dup1\n      dup4\n      gt\n      tag_66\n      jumpi\n      dup3\n      swap1\n      sub\n      0x1f\n      and\n      dup3\n      add\n      swap2\n    tag_64:\n      pop\n      pop\n      pop\n      pop\n      pop\n        /* \"advanced/Structs.sol\":2786:2791  names */\n      dup3\n        /* \"advanced/Structs.sol\":2792:2795  idx */\n      dup3\n        /* \"advanced/Structs.sol\":2786:2796  names[idx] */\n      dup2\n      mload\n      dup2\n      lt\n      tag_67\n      jumpi\n      tag_68\n      tag_60\n      jump\t// in\n    tag_68:\n    tag_67:\n      0x20\n      mul\n      0x20\n      add\n      add\n        /* \"advanced/Structs.sol\":2786:2848  names[idx] = users[msg.sender].lists[listName].items[idx].name */\n      dup2\n      swap1\n      mstore\n      pop\n        /* \"advanced/Structs.sol\":2765:2770  idx++ */\n      dup1\n      dup1\n      0x01\n      add\n      swap2\n      pop\n      pop\n        /* \"advanced/Structs.sol\":2723:2859  for (uint256 idx = 0; idx < names.length; idx++) {... */\n      jump(tag_54)\n    tag_55:\n      pop\n        /* \"advanced/Structs.sol\":2875:2880  names */\n      dup1\n        /* \"advanced/Structs.sol\":2868:2880  return names */\n      swap2\n      pop\n      pop\n        /* \"advanced/Structs.sol\":2441:2887  function getItemNames(string memory listName) public view returns (string[] memory) {... */\n      swap2\n      swap1\n      pop\n      jump\t// out\n        /* \"advanced/Structs.sol\":1610:1904  function createList(string memory name) public {... */\n    tag_22:\n        /* \"advanced/Structs.sol\":1676:1692  listExists(name) */\n      tag_70\n        /* \"advanced/Structs.sol\":1687:1691  name */\n      dup2\n        /* \"advanced/Structs.sol\":1676:1686  listExists */\n      tag_35\n        /* \"advanced/Structs.sol\":1676:1692  listExists(name) */\n      jump\t// in\n    tag_70:\n        /* \"advanced/Structs.sol\":1675:1692  !listExists(name) */\n      iszero\n        /* \"advanced/Structs.sol\":1667:1733  require(!listExists(name), \"A list with this name already exists\") */\n      tag_71\n      jumpi\n      mload(0x40)\n      0x08c379a000000000000000000000000000000000000000000000000000000000\n      dup2\n      mstore\n      0x04\n      add\n      tag_72\n      swap1\n      tag_73\n      jump\t// in\n    tag_72:\n      mload(0x40)\n      dup1\n      swap2\n      sub\n      swap1\n      revert\n    tag_71:\n        /* \"advanced/Structs.sol\":1772:1773  0 */\n      0x00\n        /* \"advanced/Structs.sol\":1757:1761  name */\n      dup2\n        /* \"advanced/Structs.sol\":1751:1769  bytes(name).length */\n      mload\n        /* \"advanced/Structs.sol\":1751:1773  bytes(name).length > 0 */\n      gt\n        /* \"advanced/Structs.sol\":1743:1798  require(bytes(name).length > 0, \"Name cannot be empty\") */\n      tag_74\n      jumpi\n      mload(0x40)\n      0x08c379a000000000000000000000000000000000000000000000000000000000\n      dup2\n      mstore\n      0x04\n      add\n      tag_75\n      swap1\n      tag_76\n      jump\t// in\n    tag_75:\n      mload(0x40)\n      dup1\n      swap2\n      sub\n      swap1\n      revert\n    tag_74:\n        /* \"advanced/Structs.sol\":1808:1813  users */\n      0x00\n        /* \"advanced/Structs.sol\":1808:1825  users[msg.sender] */\n      dup1\n        /* \"advanced/Structs.sol\":1814:1824  msg.sender */\n      caller\n        /* \"advanced/Structs.sol\":1808:1825  users[msg.sender] */\n      0xffffffffffffffffffffffffffffffffffffffff\n      and\n      0xffffffffffffffffffffffffffffffffffffffff\n      and\n      dup2\n      mstore\n      0x20\n      add\n      swap1\n      dup2\n      mstore\n      0x20\n      add\n      0x00\n      keccak256\n        /* \"advanced/Structs.sol\":1808:1835  users[msg.sender].listNames */\n      0x01\n      add\n        /* \"advanced/Structs.sol\":1841:1845  name */\n      dup2\n        /* \"advanced/Structs.sol\":1808:1846  users[msg.sender].listNames.push(name) */\n      swap1\n      dup1\n      0x01\n      dup2\n      sload\n      add\n      dup1\n      dup3\n      sstore\n      dup1\n      swap2\n      pop\n      pop\n      0x01\n      swap1\n      sub\n      swap1\n      0x00\n      mstore\n      keccak256(0x00, 0x20)\n      add\n      0x00\n      swap1\n      swap2\n      swap1\n      swap2\n      swap1\n      swap2\n      pop\n      swap1\n      dup2\n      tag_78\n      swap2\n      swap1\n      tag_43\n      jump\t// in\n    tag_78:\n      pop\n        /* \"advanced/Structs.sol\":1893:1897  name */\n      dup1\n        /* \"advanced/Structs.sol\":1856:1861  users */\n      0x00\n        /* \"advanced/Structs.sol\":1856:1873  users[msg.sender] */\n      dup1\n        /* \"advanced/Structs.sol\":1862:1872  msg.sender */\n      caller\n        /* \"advanced/Structs.sol\":1856:1873  users[msg.sender] */\n      0xffffffffffffffffffffffffffffffffffffffff\n      and\n      0xffffffffffffffffffffffffffffffffffffffff\n      and\n      dup2\n      mstore\n      0x20\n      add\n      swap1\n      dup2\n      mstore\n      0x20\n      add\n      0x00\n      keccak256\n        /* \"advanced/Structs.sol\":1856:1879  users[msg.sender].lists */\n      0x00\n      add\n        /* \"advanced/Structs.sol\":1880:1884  name */\n      dup3\n        /* \"advanced/Structs.sol\":1856:1885  users[msg.sender].lists[name] */\n      mload(0x40)\n      tag_79\n      swap2\n      swap1\n      tag_40\n      jump\t// in\n    tag_79:\n      swap1\n      dup2\n      mstore\n      0x20\n      add\n      mload(0x40)\n      dup1\n      swap2\n      sub\n      swap1\n      keccak256\n        /* \"advanced/Structs.sol\":1856:1890  users[msg.sender].lists[name].name */\n      0x00\n      add\n        /* \"advanced/Structs.sol\":1856:1897  users[msg.sender].lists[name].name = name */\n      swap1\n      dup2\n      tag_80\n      swap2\n      swap1\n      tag_43\n      jump\t// in\n    tag_80:\n      pop\n        /* \"advanced/Structs.sol\":1610:1904  function createList(string memory name) public {... */\n      pop\n      jump\t// out\n        /* \"advanced/Structs.sol\":1230:1457  function listExists(string memory name) internal view returns (bool) {... */\n    tag_35:\n        /* \"advanced/Structs.sol\":1293:1297  bool */\n      0x00\n        /* \"advanced/Structs.sol\":1449:1450  0 */\n      dup1\n        /* \"advanced/Structs.sol\":1403:1408  users */\n      0x00\n        /* \"advanced/Structs.sol\":1403:1420  users[msg.sender] */\n      dup1\n        /* \"advanced/Structs.sol\":1409:1419  msg.sender */\n      caller\n        /* \"advanced/Structs.sol\":1403:1420  users[msg.sender] */\n      0xffffffffffffffffffffffffffffffffffffffff\n      and\n      0xffffffffffffffffffffffffffffffffffffffff\n      and\n      dup2\n      mstore\n      0x20\n      add\n      swap1\n      dup2\n      mstore\n      0x20\n      add\n      0x00\n      keccak256\n        /* \"advanced/Structs.sol\":1403:1426  users[msg.sender].lists */\n      0x00\n      add\n        /* \"advanced/Structs.sol\":1427:1431  name */\n      dup4\n        /* \"advanced/Structs.sol\":1403:1432  users[msg.sender].lists[name] */\n      mload(0x40)\n      tag_82\n      swap2\n      swap1\n      tag_40\n      jump\t// in\n    tag_82:\n      swap1\n      dup2\n      mstore\n      0x20\n      add\n      mload(0x40)\n      dup1\n      swap2\n      sub\n      swap1\n      keccak256\n        /* \"advanced/Structs.sol\":1403:1437  users[msg.sender].lists[name].name */\n      0x00\n      add\n        /* \"advanced/Structs.sol\":1397:1445  bytes(users[msg.sender].lists[name].name).length */\n      dup1\n      sload\n      tag_83\n      swap1\n      tag_28\n      jump\t// in\n    tag_83:\n      swap1\n      pop\n        /* \"advanced/Structs.sol\":1397:1450  bytes(users[msg.sender].lists[name].name).length != 0 */\n      eq\n      iszero\n        /* \"advanced/Structs.sol\":1390:1450  return bytes(users[msg.sender].lists[name].name).length != 0 */\n      swap1\n      pop\n        /* \"advanced/Structs.sol\":1230:1457  function listExists(string memory name) internal view returns (bool) {... */\n      swap2\n      swap1\n      pop\n      jump\t// out\n        /* \"#utility.yul\":7:131   */\n    tag_84:\n        /* \"#utility.yul\":84:90   */\n      0x00\n        /* \"#utility.yul\":118:123   */\n      dup2\n        /* \"#utility.yul\":112:124   */\n      mload\n        /* \"#utility.yul\":102:124   */\n      swap1\n      pop\n        /* \"#utility.yul\":7:131   */\n      swap2\n      swap1\n      pop\n      jump\t// out\n        /* \"#utility.yul\":137:331   */\n    tag_85:\n        /* \"#utility.yul\":246:257   */\n      0x00\n        /* \"#utility.yul\":280:286   */\n      dup3\n        /* \"#utility.yul\":275:278   */\n      dup3\n        /* \"#utility.yul\":268:287   */\n      mstore\n        /* \"#utility.yul\":320:324   */\n      0x20\n        /* \"#utility.yul\":315:318   */\n      dup3\n        /* \"#utility.yul\":311:325   */\n      add\n        /* \"#utility.yul\":296:325   */\n      swap1\n      pop\n        /* \"#utility.yul\":137:331   */\n      swap3\n      swap2\n      pop\n      pop\n      jump\t// out\n        /* \"#utility.yul\":337:479   */\n    tag_86:\n        /* \"#utility.yul\":414:418   */\n      0x00\n        /* \"#utility.yul\":437:440   */\n      dup2\n        /* \"#utility.yul\":429:440   */\n      swap1\n      pop\n        /* \"#utility.yul\":467:471   */\n      0x20\n        /* \"#utility.yul\":462:465   */\n      dup3\n        /* \"#utility.yul\":458:472   */\n      add\n        /* \"#utility.yul\":450:472   */\n      swap1\n      pop\n        /* \"#utility.yul\":337:479   */\n      swap2\n      swap1\n      pop\n      jump\t// out\n        /* \"#utility.yul\":485:584   */\n    tag_87:\n        /* \"#utility.yul\":537:543   */\n      0x00\n        /* \"#utility.yul\":571:576   */\n      dup2\n        /* \"#utility.yul\":565:577   */\n      mload\n        /* \"#utility.yul\":555:577   */\n      swap1\n      pop\n        /* \"#utility.yul\":485:584   */\n      swap2\n      swap1\n      pop\n      jump\t// out\n        /* \"#utility.yul\":590:749   */\n    tag_88:\n        /* \"#utility.yul\":664:675   */\n      0x00\n        /* \"#utility.yul\":698:704   */\n      dup3\n        /* \"#utility.yul\":693:696   */\n      dup3\n        /* \"#utility.yul\":686:705   */\n      mstore\n        /* \"#utility.yul\":738:742   */\n      0x20\n        /* \"#utility.yul\":733:736   */\n      dup3\n        /* \"#utility.yul\":729:743   */\n      add\n        /* \"#utility.yul\":714:743   */\n      swap1\n      pop\n        /* \"#utility.yul\":590:749   */\n      swap3\n      swap2\n      pop\n      pop\n      jump\t// out\n        /* \"#utility.yul\":755:894   */\n    tag_89:\n        /* \"#utility.yul\":844:850   */\n      dup3\n        /* \"#utility.yul\":839:842   */\n      dup2\n        /* \"#utility.yul\":834:837   */\n      dup4\n        /* \"#utility.yul\":828:851   */\n      mcopy\n        /* \"#utility.yul\":885:886   */\n      0x00\n        /* \"#utility.yul\":876:882   */\n      dup4\n        /* \"#utility.yul\":871:874   */\n      dup4\n        /* \"#utility.yul\":867:883   */\n      add\n        /* \"#utility.yul\":860:887   */\n      mstore\n        /* \"#utility.yul\":755:894   */\n      pop\n      pop\n      pop\n      jump\t// out\n        /* \"#utility.yul\":900:1002   */\n    tag_90:\n        /* \"#utility.yul\":941:947   */\n      0x00\n        /* \"#utility.yul\":992:994   */\n      0x1f\n        /* \"#utility.yul\":988:995   */\n      not\n        /* \"#utility.yul\":983:985   */\n      0x1f\n        /* \"#utility.yul\":976:981   */\n      dup4\n        /* \"#utility.yul\":972:986   */\n      add\n        /* \"#utility.yul\":968:996   */\n      and\n        /* \"#utility.yul\":958:996   */\n      swap1\n      pop\n        /* \"#utility.yul\":900:1002   */\n      swap2\n      swap1\n      pop\n      jump\t// out\n        /* \"#utility.yul\":1008:1365   */\n    tag_91:\n        /* \"#utility.yul\":1086:1089   */\n      0x00\n        /* \"#utility.yul\":1114:1153   */\n      tag_143\n        /* \"#utility.yul\":1147:1152   */\n      dup3\n        /* \"#utility.yul\":1114:1153   */\n      tag_87\n      jump\t// in\n    tag_143:\n        /* \"#utility.yul\":1169:1230   */\n      tag_144\n        /* \"#utility.yul\":1223:1229   */\n      dup2\n        /* \"#utility.yul\":1218:1221   */\n      dup6\n        /* \"#utility.yul\":1169:1230   */\n      tag_88\n      jump\t// in\n    tag_144:\n        /* \"#utility.yul\":1162:1230   */\n      swap4\n      pop\n        /* \"#utility.yul\":1239:1304   */\n      tag_145\n        /* \"#utility.yul\":1297:1303   */\n      dup2\n        /* \"#utility.yul\":1292:1295   */\n      dup6\n        /* \"#utility.yul\":1285:1289   */\n      0x20\n        /* \"#utility.yul\":1278:1283   */\n      dup7\n        /* \"#utility.yul\":1274:1290   */\n      add\n        /* \"#utility.yul\":1239:1304   */\n      tag_89\n      jump\t// in\n    tag_145:\n        /* \"#utility.yul\":1329:1358   */\n      tag_146\n        /* \"#utility.yul\":1351:1357   */\n      dup2\n        /* \"#utility.yul\":1329:1358   */\n      tag_90\n      jump\t// in\n    tag_146:\n        /* \"#utility.yul\":1324:1327   */\n      dup5\n        /* \"#utility.yul\":1320:1359   */\n      add\n        /* \"#utility.yul\":1313:1359   */\n      swap2\n      pop\n        /* \"#utility.yul\":1090:1365   */\n      pop\n        /* \"#utility.yul\":1008:1365   */\n      swap3\n      swap2\n      pop\n      pop\n      jump\t// out\n        /* \"#utility.yul\":1371:1567   */\n    tag_92:\n        /* \"#utility.yul\":1460:1470   */\n      0x00\n        /* \"#utility.yul\":1495:1561   */\n      tag_148\n        /* \"#utility.yul\":1557:1560   */\n      dup4\n        /* \"#utility.yul\":1549:1555   */\n      dup4\n        /* \"#utility.yul\":1495:1561   */\n      tag_91\n      jump\t// in\n    tag_148:\n        /* \"#utility.yul\":1481:1561   */\n      swap1\n      pop\n        /* \"#utility.yul\":1371:1567   */\n      swap3\n      swap2\n      pop\n      pop\n      jump\t// out\n        /* \"#utility.yul\":1573:1696   */\n    tag_93:\n        /* \"#utility.yul\":1653:1657   */\n      0x00\n        /* \"#utility.yul\":1685:1689   */\n      0x20\n        /* \"#utility.yul\":1680:1683   */\n      dup3\n        /* \"#utility.yul\":1676:1690   */\n      add\n        /* \"#utility.yul\":1668:1690   */\n      swap1\n      pop\n        /* \"#utility.yul\":1573:1696   */\n      swap2\n      swap1\n      pop\n      jump\t// out\n        /* \"#utility.yul\":1730:2721   */\n    tag_94:\n        /* \"#utility.yul\":1869:1872   */\n      0x00\n        /* \"#utility.yul\":1898:1962   */\n      tag_151\n        /* \"#utility.yul\":1956:1961   */\n      dup3\n        /* \"#utility.yul\":1898:1962   */\n      tag_84\n      jump\t// in\n    tag_151:\n        /* \"#utility.yul\":1978:2074   */\n      tag_152\n        /* \"#utility.yul\":2067:2073   */\n      dup2\n        /* \"#utility.yul\":2062:2065   */\n      dup6\n        /* \"#utility.yul\":1978:2074   */\n      tag_85\n      jump\t// in\n    tag_152:\n        /* \"#utility.yul\":1971:2074   */\n      swap4\n      pop\n        /* \"#utility.yul\":2100:2103   */\n      dup4\n        /* \"#utility.yul\":2145:2149   */\n      0x20\n        /* \"#utility.yul\":2137:2143   */\n      dup3\n        /* \"#utility.yul\":2133:2150   */\n      mul\n        /* \"#utility.yul\":2128:2131   */\n      dup6\n        /* \"#utility.yul\":2124:2151   */\n      add\n        /* \"#utility.yul\":2175:2241   */\n      tag_153\n        /* \"#utility.yul\":2235:2240   */\n      dup6\n        /* \"#utility.yul\":2175:2241   */\n      tag_86\n      jump\t// in\n    tag_153:\n        /* \"#utility.yul\":2264:2271   */\n      dup1\n        /* \"#utility.yul\":2295:2296   */\n      0x00\n        /* \"#utility.yul\":2280:2676   */\n    tag_154:\n        /* \"#utility.yul\":2305:2311   */\n      dup6\n        /* \"#utility.yul\":2302:2303   */\n      dup2\n        /* \"#utility.yul\":2299:2312   */\n      lt\n        /* \"#utility.yul\":2280:2676   */\n      iszero\n      tag_156\n      jumpi\n        /* \"#utility.yul\":2376:2385   */\n      dup5\n        /* \"#utility.yul\":2370:2374   */\n      dup5\n        /* \"#utility.yul\":2366:2386   */\n      sub\n        /* \"#utility.yul\":2361:2364   */\n      dup10\n        /* \"#utility.yul\":2354:2387   */\n      mstore\n        /* \"#utility.yul\":2427:2433   */\n      dup2\n        /* \"#utility.yul\":2421:2434   */\n      mload\n        /* \"#utility.yul\":2455:2539   */\n      tag_157\n        /* \"#utility.yul\":2534:2538   */\n      dup6\n        /* \"#utility.yul\":2519:2532   */\n      dup3\n        /* \"#utility.yul\":2455:2539   */\n      tag_92\n      jump\t// in\n    tag_157:\n        /* \"#utility.yul\":2447:2539   */\n      swap5\n      pop\n        /* \"#utility.yul\":2562:2632   */\n      tag_158\n        /* \"#utility.yul\":2625:2631   */\n      dup4\n        /* \"#utility.yul\":2562:2632   */\n      tag_93\n      jump\t// in\n    tag_158:\n        /* \"#utility.yul\":2552:2632   */\n      swap3\n      pop\n        /* \"#utility.yul\":2661:2665   */\n      0x20\n        /* \"#utility.yul\":2656:2659   */\n      dup11\n        /* \"#utility.yul\":2652:2666   */\n      add\n        /* \"#utility.yul\":2645:2666   */\n      swap10\n      pop\n        /* \"#utility.yul\":2340:2676   */\n      pop\n        /* \"#utility.yul\":2327:2328   */\n      0x01\n        /* \"#utility.yul\":2324:2325   */\n      dup2\n        /* \"#utility.yul\":2320:2329   */\n      add\n        /* \"#utility.yul\":2315:2329   */\n      swap1\n      pop\n        /* \"#utility.yul\":2280:2676   */\n      jump(tag_154)\n    tag_156:\n        /* \"#utility.yul\":2284:2298   */\n      pop\n        /* \"#utility.yul\":2692:2696   */\n      dup3\n        /* \"#utility.yul\":2685:2696   */\n      swap8\n      pop\n        /* \"#utility.yul\":2712:2715   */\n      dup8\n        /* \"#utility.yul\":2705:2715   */\n      swap6\n      pop\n        /* \"#utility.yul\":1874:2721   */\n      pop\n      pop\n      pop\n      pop\n      pop\n        /* \"#utility.yul\":1730:2721   */\n      swap3\n      swap2\n      pop\n      pop\n      jump\t// out\n        /* \"#utility.yul\":2727:3140   */\n    tag_10:\n        /* \"#utility.yul\":2890:2894   */\n      0x00\n        /* \"#utility.yul\":2928:2930   */\n      0x20\n        /* \"#utility.yul\":2917:2926   */\n      dup3\n        /* \"#utility.yul\":2913:2931   */\n      add\n        /* \"#utility.yul\":2905:2931   */\n      swap1\n      pop\n        /* \"#utility.yul\":2977:2986   */\n      dup2\n        /* \"#utility.yul\":2971:2975   */\n      dup2\n        /* \"#utility.yul\":2967:2987   */\n      sub\n        /* \"#utility.yul\":2963:2964   */\n      0x00\n        /* \"#utility.yul\":2952:2961   */\n      dup4\n        /* \"#utility.yul\":2948:2965   */\n      add\n        /* \"#utility.yul\":2941:2988   */\n      mstore\n        /* \"#utility.yul\":3005:3133   */\n      tag_160\n        /* \"#utility.yul\":3128:3132   */\n      dup2\n        /* \"#utility.yul\":3119:3125   */\n      dup5\n        /* \"#utility.yul\":3005:3133   */\n      tag_94\n      jump\t// in\n    tag_160:\n        /* \"#utility.yul\":2997:3133   */\n      swap1\n      pop\n        /* \"#utility.yul\":2727:3140   */\n      swap3\n      swap2\n      pop\n      pop\n      jump\t// out\n        /* \"#utility.yul\":3146:3221   */\n    tag_95:\n        /* \"#utility.yul\":3179:3185   */\n      0x00\n        /* \"#utility.yul\":3212:3214   */\n      0x40\n        /* \"#utility.yul\":3206:3215   */\n      mload\n        /* \"#utility.yul\":3196:3215   */\n      swap1\n      pop\n        /* \"#utility.yul\":3146:3221   */\n      swap1\n      jump\t// out\n        /* \"#utility.yul\":3227:3344   */\n    tag_96:\n        /* \"#utility.yul\":3336:3337   */\n      0x00\n        /* \"#utility.yul\":3333:3334   */\n      dup1\n        /* \"#utility.yul\":3326:3338   */\n      revert\n        /* \"#utility.yul\":3350:3467   */\n    tag_97:\n        /* \"#utility.yul\":3459:3460   */\n      0x00\n        /* \"#utility.yul\":3456:3457   */\n      dup1\n        /* \"#utility.yul\":3449:3461   */\n      revert\n        /* \"#utility.yul\":3473:3590   */\n    tag_98:\n        /* \"#utility.yul\":3582:3583   */\n      0x00\n        /* \"#utility.yul\":3579:3580   */\n      dup1\n        /* \"#utility.yul\":3572:3584   */\n      revert\n        /* \"#utility.yul\":3596:3713   */\n    tag_99:\n        /* \"#utility.yul\":3705:3706   */\n      0x00\n        /* \"#utility.yul\":3702:3703   */\n      dup1\n        /* \"#utility.yul\":3695:3707   */\n      revert\n        /* \"#utility.yul\":3719:3899   */\n    tag_51:\n        /* \"#utility.yul\":3767:3844   */\n      0x4e487b7100000000000000000000000000000000000000000000000000000000\n        /* \"#utility.yul\":3764:3765   */\n      0x00\n        /* \"#utility.yul\":3757:3845   */\n      mstore\n        /* \"#utility.yul\":3864:3868   */\n      0x41\n        /* \"#utility.yul\":3861:3862   */\n      0x04\n        /* \"#utility.yul\":3854:3869   */\n      mstore\n        /* \"#utility.yul\":3888:3892   */\n      0x24\n        /* \"#utility.yul\":3885:3886   */\n      0x00\n        /* \"#utility.yul\":3878:3893   */\n      revert\n        /* \"#utility.yul\":3905:4186   */\n    tag_100:\n        /* \"#utility.yul\":3988:4015   */\n      tag_168\n        /* \"#utility.yul\":4010:4014   */\n      dup3\n        /* \"#utility.yul\":3988:4015   */\n      tag_90\n      jump\t// in\n    tag_168:\n        /* \"#utility.yul\":3980:3986   */\n      dup2\n        /* \"#utility.yul\":3976:4016   */\n      add\n        /* \"#utility.yul\":4118:4124   */\n      dup2\n        /* \"#utility.yul\":4106:4116   */\n      dup2\n        /* \"#utility.yul\":4103:4125   */\n      lt\n        /* \"#utility.yul\":4082:4100   */\n      0xffffffffffffffff\n        /* \"#utility.yul\":4070:4080   */\n      dup3\n        /* \"#utility.yul\":4067:4101   */\n      gt\n        /* \"#utility.yul\":4064:4126   */\n      or\n        /* \"#utility.yul\":4061:4149   */\n      iszero\n      tag_169\n      jumpi\n        /* \"#utility.yul\":4129:4147   */\n      tag_170\n      tag_51\n      jump\t// in\n    tag_170:\n        /* \"#utility.yul\":4061:4149   */\n    tag_169:\n        /* \"#utility.yul\":4169:4179   */\n      dup1\n        /* \"#utility.yul\":4165:4167   */\n      0x40\n        /* \"#utility.yul\":4158:4180   */\n      mstore\n        /* \"#utility.yul\":3948:4186   */\n      pop\n        /* \"#utility.yul\":3905:4186   */\n      pop\n      pop\n      jump\t// out\n        /* \"#utility.yul\":4192:4321   */\n    tag_101:\n        /* \"#utility.yul\":4226:4232   */\n      0x00\n        /* \"#utility.yul\":4253:4273   */\n      tag_172\n      tag_95\n      jump\t// in\n    tag_172:\n        /* \"#utility.yul\":4243:4273   */\n      swap1\n      pop\n        /* \"#utility.yul\":4282:4315   */\n      tag_173\n        /* \"#utility.yul\":4310:4314   */\n      dup3\n        /* \"#utility.yul\":4302:4308   */\n      dup3\n        /* \"#utility.yul\":4282:4315   */\n      tag_100\n      jump\t// in\n    tag_173:\n        /* \"#utility.yul\":4192:4321   */\n      swap2\n      swap1\n      pop\n      jump\t// out\n        /* \"#utility.yul\":4327:4635   */\n    tag_102:\n        /* \"#utility.yul\":4389:4393   */\n      0x00\n        /* \"#utility.yul\":4479:4497   */\n      0xffffffffffffffff\n        /* \"#utility.yul\":4471:4477   */\n      dup3\n        /* \"#utility.yul\":4468:4498   */\n      gt\n        /* \"#utility.yul\":4465:4521   */\n      iszero\n      tag_175\n      jumpi\n        /* \"#utility.yul\":4501:4519   */\n      tag_176\n      tag_51\n      jump\t// in\n    tag_176:\n        /* \"#utility.yul\":4465:4521   */\n    tag_175:\n        /* \"#utility.yul\":4539:4568   */\n      tag_177\n        /* \"#utility.yul\":4561:4567   */\n      dup3\n        /* \"#utility.yul\":4539:4568   */\n      tag_90\n      jump\t// in\n    tag_177:\n        /* \"#utility.yul\":4531:4568   */\n      swap1\n      pop\n        /* \"#utility.yul\":4623:4627   */\n      0x20\n        /* \"#utility.yul\":4617:4621   */\n      dup2\n        /* \"#utility.yul\":4613:4628   */\n      add\n        /* \"#utility.yul\":4605:4628   */\n      swap1\n      pop\n        /* \"#utility.yul\":4327:4635   */\n      swap2\n      swap1\n      pop\n      jump\t// out\n        /* \"#utility.yul\":4641:4789   */\n    tag_103:\n        /* \"#utility.yul\":4739:4745   */\n      dup3\n        /* \"#utility.yul\":4734:4737   */\n      dup2\n        /* \"#utility.yul\":4729:4732   */\n      dup4\n        /* \"#utility.yul\":4716:4746   */\n      calldatacopy\n        /* \"#utility.yul\":4780:4781   */\n      0x00\n        /* \"#utility.yul\":4771:4777   */\n      dup4\n        /* \"#utility.yul\":4766:4769   */\n      dup4\n        /* \"#utility.yul\":4762:4778   */\n      add\n        /* \"#utility.yul\":4755:4782   */\n      mstore\n        /* \"#utility.yul\":4641:4789   */\n      pop\n      pop\n      pop\n      jump\t// out\n        /* \"#utility.yul\":4795:5220   */\n    tag_104:\n        /* \"#utility.yul\":4873:4878   */\n      0x00\n        /* \"#utility.yul\":4898:4964   */\n      tag_180\n        /* \"#utility.yul\":4914:4963   */\n      tag_181\n        /* \"#utility.yul\":4956:4962   */\n      dup5\n        /* \"#utility.yul\":4914:4963   */\n      tag_102\n      jump\t// in\n    tag_181:\n        /* \"#utility.yul\":4898:4964   */\n      tag_101\n      jump\t// in\n    tag_180:\n        /* \"#utility.yul\":4889:4964   */\n      swap1\n      pop\n        /* \"#utility.yul\":4987:4993   */\n      dup3\n        /* \"#utility.yul\":4980:4985   */\n      dup2\n        /* \"#utility.yul\":4973:4994   */\n      mstore\n        /* \"#utility.yul\":5025:5029   */\n      0x20\n        /* \"#utility.yul\":5018:5023   */\n      dup2\n        /* \"#utility.yul\":5014:5030   */\n      add\n        /* \"#utility.yul\":5063:5066   */\n      dup5\n        /* \"#utility.yul\":5054:5060   */\n      dup5\n        /* \"#utility.yul\":5049:5052   */\n      dup5\n        /* \"#utility.yul\":5045:5061   */\n      add\n        /* \"#utility.yul\":5042:5067   */\n      gt\n        /* \"#utility.yul\":5039:5151   */\n      iszero\n      tag_182\n      jumpi\n        /* \"#utility.yul\":5070:5149   */\n      tag_183\n      tag_99\n      jump\t// in\n    tag_183:\n        /* \"#utility.yul\":5039:5151   */\n    tag_182:\n        /* \"#utility.yul\":5160:5214   */\n      tag_184\n        /* \"#utility.yul\":5207:5213   */\n      dup5\n        /* \"#utility.yul\":5202:5205   */\n      dup3\n        /* \"#utility.yul\":5197:5200   */\n      dup6\n        /* \"#utility.yul\":5160:5214   */\n      tag_103\n      jump\t// in\n    tag_184:\n        /* \"#utility.yul\":4879:5220   */\n      pop\n        /* \"#utility.yul\":4795:5220   */\n      swap4\n      swap3\n      pop\n      pop\n      pop\n      jump\t// out\n        /* \"#utility.yul\":5240:5580   */\n    tag_105:\n        /* \"#utility.yul\":5296:5301   */\n      0x00\n        /* \"#utility.yul\":5345:5348   */\n      dup3\n        /* \"#utility.yul\":5338:5342   */\n      0x1f\n        /* \"#utility.yul\":5330:5336   */\n      dup4\n        /* \"#utility.yul\":5326:5343   */\n      add\n        /* \"#utility.yul\":5322:5349   */\n      slt\n        /* \"#utility.yul\":5312:5434   */\n      tag_186\n      jumpi\n        /* \"#utility.yul\":5353:5432   */\n      tag_187\n      tag_98\n      jump\t// in\n    tag_187:\n        /* \"#utility.yul\":5312:5434   */\n    tag_186:\n        /* \"#utility.yul\":5470:5476   */\n      dup2\n        /* \"#utility.yul\":5457:5477   */\n      calldataload\n        /* \"#utility.yul\":5495:5574   */\n      tag_188\n        /* \"#utility.yul\":5570:5573   */\n      dup5\n        /* \"#utility.yul\":5562:5568   */\n      dup3\n        /* \"#utility.yul\":5555:5559   */\n      0x20\n        /* \"#utility.yul\":5547:5553   */\n      dup7\n        /* \"#utility.yul\":5543:5560   */\n      add\n        /* \"#utility.yul\":5495:5574   */\n      tag_104\n      jump\t// in\n    tag_188:\n        /* \"#utility.yul\":5486:5574   */\n      swap2\n      pop\n        /* \"#utility.yul\":5302:5580   */\n      pop\n        /* \"#utility.yul\":5240:5580   */\n      swap3\n      swap2\n      pop\n      pop\n      jump\t// out\n        /* \"#utility.yul\":5586:5663   */\n    tag_106:\n        /* \"#utility.yul\":5623:5630   */\n      0x00\n        /* \"#utility.yul\":5652:5657   */\n      dup2\n        /* \"#utility.yul\":5641:5657   */\n      swap1\n      pop\n        /* \"#utility.yul\":5586:5663   */\n      swap2\n      swap1\n      pop\n      jump\t// out\n        /* \"#utility.yul\":5669:5791   */\n    tag_107:\n        /* \"#utility.yul\":5742:5766   */\n      tag_191\n        /* \"#utility.yul\":5760:5765   */\n      dup2\n        /* \"#utility.yul\":5742:5766   */\n      tag_106\n      jump\t// in\n    tag_191:\n        /* \"#utility.yul\":5735:5740   */\n      dup2\n        /* \"#utility.yul\":5732:5767   */\n      eq\n        /* \"#utility.yul\":5722:5785   */\n      tag_192\n      jumpi\n        /* \"#utility.yul\":5781:5782   */\n      0x00\n        /* \"#utility.yul\":5778:5779   */\n      dup1\n        /* \"#utility.yul\":5771:5783   */\n      revert\n        /* \"#utility.yul\":5722:5785   */\n    tag_192:\n        /* \"#utility.yul\":5669:5791   */\n      pop\n      jump\t// out\n        /* \"#utility.yul\":5797:5936   */\n    tag_108:\n        /* \"#utility.yul\":5843:5848   */\n      0x00\n        /* \"#utility.yul\":5881:5887   */\n      dup2\n        /* \"#utility.yul\":5868:5888   */\n      calldataload\n        /* \"#utility.yul\":5859:5888   */\n      swap1\n      pop\n        /* \"#utility.yul\":5897:5930   */\n      tag_194\n        /* \"#utility.yul\":5924:5929   */\n      dup2\n        /* \"#utility.yul\":5897:5930   */\n      tag_107\n      jump\t// in\n    tag_194:\n        /* \"#utility.yul\":5797:5936   */\n      swap3\n      swap2\n      pop\n      pop\n      jump\t// out\n        /* \"#utility.yul\":5942:6921   */\n    tag_13:\n        /* \"#utility.yul\":6039:6045   */\n      0x00\n        /* \"#utility.yul\":6047:6053   */\n      dup1\n        /* \"#utility.yul\":6055:6061   */\n      0x00\n        /* \"#utility.yul\":6104:6106   */\n      0x60\n        /* \"#utility.yul\":6092:6101   */\n      dup5\n        /* \"#utility.yul\":6083:6090   */\n      dup7\n        /* \"#utility.yul\":6079:6102   */\n      sub\n        /* \"#utility.yul\":6075:6107   */\n      slt\n        /* \"#utility.yul\":6072:6191   */\n      iszero\n      tag_196\n      jumpi\n        /* \"#utility.yul\":6110:6189   */\n      tag_197\n      tag_96\n      jump\t// in\n    tag_197:\n        /* \"#utility.yul\":6072:6191   */\n    tag_196:\n        /* \"#utility.yul\":6258:6259   */\n      0x00\n        /* \"#utility.yul\":6247:6256   */\n      dup5\n        /* \"#utility.yul\":6243:6260   */\n      add\n        /* \"#utility.yul\":6230:6261   */\n      calldataload\n        /* \"#utility.yul\":6288:6306   */\n      0xffffffffffffffff\n        /* \"#utility.yul\":6280:6286   */\n      dup2\n        /* \"#utility.yul\":6277:6307   */\n      gt\n        /* \"#utility.yul\":6274:6391   */\n      iszero\n      tag_198\n      jumpi\n        /* \"#utility.yul\":6310:6389   */\n      tag_199\n      tag_97\n      jump\t// in\n    tag_199:\n        /* \"#utility.yul\":6274:6391   */\n    tag_198:\n        /* \"#utility.yul\":6415:6478   */\n      tag_200\n        /* \"#utility.yul\":6470:6477   */\n      dup7\n        /* \"#utility.yul\":6461:6467   */\n      dup3\n        /* \"#utility.yul\":6450:6459   */\n      dup8\n        /* \"#utility.yul\":6446:6468   */\n      add\n        /* \"#utility.yul\":6415:6478   */\n      tag_105\n      jump\t// in\n    tag_200:\n        /* \"#utility.yul\":6405:6478   */\n      swap4\n      pop\n        /* \"#utility.yul\":6201:6488   */\n      pop\n        /* \"#utility.yul\":6555:6557   */\n      0x20\n        /* \"#utility.yul\":6544:6553   */\n      dup5\n        /* \"#utility.yul\":6540:6558   */\n      add\n        /* \"#utility.yul\":6527:6559   */\n      calldataload\n        /* \"#utility.yul\":6586:6604   */\n      0xffffffffffffffff\n        /* \"#utility.yul\":6578:6584   */\n      dup2\n        /* \"#utility.yul\":6575:6605   */\n      gt\n        /* \"#utility.yul\":6572:6689   */\n      iszero\n      tag_201\n      jumpi\n        /* \"#utility.yul\":6608:6687   */\n      tag_202\n      tag_97\n      jump\t// in\n    tag_202:\n        /* \"#utility.yul\":6572:6689   */\n    tag_201:\n        /* \"#utility.yul\":6713:6776   */\n      tag_203\n        /* \"#utility.yul\":6768:6775   */\n      dup7\n        /* \"#utility.yul\":6759:6765   */\n      dup3\n        /* \"#utility.yul\":6748:6757   */\n      dup8\n        /* \"#utility.yul\":6744:6766   */\n      add\n        /* \"#utility.yul\":6713:6776   */\n      tag_105\n      jump\t// in\n    tag_203:\n        /* \"#utility.yul\":6703:6776   */\n      swap3\n      pop\n        /* \"#utility.yul\":6498:6786   */\n      pop\n        /* \"#utility.yul\":6825:6827   */\n      0x40\n        /* \"#utility.yul\":6851:6904   */\n      tag_204\n        /* \"#utility.yul\":6896:6903   */\n      dup7\n        /* \"#utility.yul\":6887:6893   */\n      dup3\n        /* \"#utility.yul\":6876:6885   */\n      dup8\n        /* \"#utility.yul\":6872:6894   */\n      add\n        /* \"#utility.yul\":6851:6904   */\n      tag_108\n      jump\t// in\n    tag_204:\n        /* \"#utility.yul\":6841:6904   */\n      swap2\n      pop\n        /* \"#utility.yul\":6796:6914   */\n      pop\n        /* \"#utility.yul\":5942:6921   */\n      swap3\n      pop\n      swap3\n      pop\n      swap3\n      jump\t// out\n        /* \"#utility.yul\":6927:7436   */\n    tag_17:\n        /* \"#utility.yul\":6996:7002   */\n      0x00\n        /* \"#utility.yul\":7045:7047   */\n      0x20\n        /* \"#utility.yul\":7033:7042   */\n      dup3\n        /* \"#utility.yul\":7024:7031   */\n      dup5\n        /* \"#utility.yul\":7020:7043   */\n      sub\n        /* \"#utility.yul\":7016:7048   */\n      slt\n        /* \"#utility.yul\":7013:7132   */\n      iszero\n      tag_206\n      jumpi\n        /* \"#utility.yul\":7051:7130   */\n      tag_207\n      tag_96\n      jump\t// in\n    tag_207:\n        /* \"#utility.yul\":7013:7132   */\n    tag_206:\n        /* \"#utility.yul\":7199:7200   */\n      0x00\n        /* \"#utility.yul\":7188:7197   */\n      dup3\n        /* \"#utility.yul\":7184:7201   */\n      add\n        /* \"#utility.yul\":7171:7202   */\n      calldataload\n        /* \"#utility.yul\":7229:7247   */\n      0xffffffffffffffff\n        /* \"#utility.yul\":7221:7227   */\n      dup2\n        /* \"#utility.yul\":7218:7248   */\n      gt\n        /* \"#utility.yul\":7215:7332   */\n      iszero\n      tag_208\n      jumpi\n        /* \"#utility.yul\":7251:7330   */\n      tag_209\n      tag_97\n      jump\t// in\n    tag_209:\n        /* \"#utility.yul\":7215:7332   */\n    tag_208:\n        /* \"#utility.yul\":7356:7419   */\n      tag_210\n        /* \"#utility.yul\":7411:7418   */\n      dup5\n        /* \"#utility.yul\":7402:7408   */\n      dup3\n        /* \"#utility.yul\":7391:7400   */\n      dup6\n        /* \"#utility.yul\":7387:7409   */\n      add\n        /* \"#utility.yul\":7356:7419   */\n      tag_105\n      jump\t// in\n    tag_210:\n        /* \"#utility.yul\":7346:7419   */\n      swap2\n      pop\n        /* \"#utility.yul\":7142:7429   */\n      pop\n        /* \"#utility.yul\":6927:7436   */\n      swap3\n      swap2\n      pop\n      pop\n      jump\t// out\n        /* \"#utility.yul\":7442:7622   */\n    tag_109:\n        /* \"#utility.yul\":7490:7567   */\n      0x4e487b7100000000000000000000000000000000000000000000000000000000\n        /* \"#utility.yul\":7487:7488   */\n      0x00\n        /* \"#utility.yul\":7480:7568   */\n      mstore\n        /* \"#utility.yul\":7587:7591   */\n      0x22\n        /* \"#utility.yul\":7584:7585   */\n      0x04\n        /* \"#utility.yul\":7577:7592   */\n      mstore\n        /* \"#utility.yul\":7611:7615   */\n      0x24\n        /* \"#utility.yul\":7608:7609   */\n      0x00\n        /* \"#utility.yul\":7601:7616   */\n      revert\n        /* \"#utility.yul\":7628:7948   */\n    tag_28:\n        /* \"#utility.yul\":7672:7678   */\n      0x00\n        /* \"#utility.yul\":7709:7710   */\n      0x02\n        /* \"#utility.yul\":7703:7707   */\n      dup3\n        /* \"#utility.yul\":7699:7711   */\n      div\n        /* \"#utility.yul\":7689:7711   */\n      swap1\n      pop\n        /* \"#utility.yul\":7756:7757   */\n      0x01\n        /* \"#utility.yul\":7750:7754   */\n      dup3\n        /* \"#utility.yul\":7746:7758   */\n      and\n        /* \"#utility.yul\":7777:7795   */\n      dup1\n        /* \"#utility.yul\":7767:7848   */\n      tag_213\n      jumpi\n        /* \"#utility.yul\":7833:7837   */\n      0x7f\n        /* \"#utility.yul\":7825:7831   */\n      dup3\n        /* \"#utility.yul\":7821:7838   */\n      and\n        /* \"#utility.yul\":7811:7838   */\n      swap2\n      pop\n        /* \"#utility.yul\":7767:7848   */\n    tag_213:\n        /* \"#utility.yul\":7895:7897   */\n      0x20\n        /* \"#utility.yul\":7887:7893   */\n      dup3\n        /* \"#utility.yul\":7884:7898   */\n      lt\n        /* \"#utility.yul\":7864:7882   */\n      dup2\n        /* \"#utility.yul\":7861:7899   */\n      sub\n        /* \"#utility.yul\":7858:7942   */\n      tag_214\n      jumpi\n        /* \"#utility.yul\":7914:7932   */\n      tag_215\n      tag_109\n      jump\t// in\n    tag_215:\n        /* \"#utility.yul\":7858:7942   */\n    tag_214:\n        /* \"#utility.yul\":7679:7948   */\n      pop\n        /* \"#utility.yul\":7628:7948   */\n      swap2\n      swap1\n      pop\n      jump\t// out\n        /* \"#utility.yul\":7954:8123   */\n    tag_110:\n        /* \"#utility.yul\":8038:8049   */\n      0x00\n        /* \"#utility.yul\":8072:8078   */\n      dup3\n        /* \"#utility.yul\":8067:8070   */\n      dup3\n        /* \"#utility.yul\":8060:8079   */\n      mstore\n        /* \"#utility.yul\":8112:8116   */\n      0x20\n        /* \"#utility.yul\":8107:8110   */\n      dup3\n        /* \"#utility.yul\":8103:8117   */\n      add\n        /* \"#utility.yul\":8088:8117   */\n      swap1\n      pop\n        /* \"#utility.yul\":7954:8123   */\n      swap3\n      swap2\n      pop\n      pop\n      jump\t// out\n        /* \"#utility.yul\":8129:8308   */\n    tag_111:\n        /* \"#utility.yul\":8269:8300   */\n      0x4e6f206c69737420776974682074686973206e616d6520657869737473000000\n        /* \"#utility.yul\":8265:8266   */\n      0x00\n        /* \"#utility.yul\":8257:8263   */\n      dup3\n        /* \"#utility.yul\":8253:8267   */\n      add\n        /* \"#utility.yul\":8246:8301   */\n      mstore\n        /* \"#utility.yul\":8129:8308   */\n      pop\n      jump\t// out\n        /* \"#utility.yul\":8314:8680   */\n    tag_112:\n        /* \"#utility.yul\":8456:8459   */\n      0x00\n        /* \"#utility.yul\":8477:8544   */\n      tag_219\n        /* \"#utility.yul\":8541:8543   */\n      0x1d\n        /* \"#utility.yul\":8536:8539   */\n      dup4\n        /* \"#utility.yul\":8477:8544   */\n      tag_110\n      jump\t// in\n    tag_219:\n        /* \"#utility.yul\":8470:8544   */\n      swap2\n      pop\n        /* \"#utility.yul\":8553:8646   */\n      tag_220\n        /* \"#utility.yul\":8642:8645   */\n      dup3\n        /* \"#utility.yul\":8553:8646   */\n      tag_111\n      jump\t// in\n    tag_220:\n        /* \"#utility.yul\":8671:8673   */\n      0x20\n        /* \"#utility.yul\":8666:8669   */\n      dup3\n        /* \"#utility.yul\":8662:8674   */\n      add\n        /* \"#utility.yul\":8655:8674   */\n      swap1\n      pop\n        /* \"#utility.yul\":8314:8680   */\n      swap2\n      swap1\n      pop\n      jump\t// out\n        /* \"#utility.yul\":8686:9105   */\n    tag_38:\n        /* \"#utility.yul\":8852:8856   */\n      0x00\n        /* \"#utility.yul\":8890:8892   */\n      0x20\n        /* \"#utility.yul\":8879:8888   */\n      dup3\n        /* \"#utility.yul\":8875:8893   */\n      add\n        /* \"#utility.yul\":8867:8893   */\n      swap1\n      pop\n        /* \"#utility.yul\":8939:8948   */\n      dup2\n        /* \"#utility.yul\":8933:8937   */\n      dup2\n        /* \"#utility.yul\":8929:8949   */\n      sub\n        /* \"#utility.yul\":8925:8926   */\n      0x00\n        /* \"#utility.yul\":8914:8923   */\n      dup4\n        /* \"#utility.yul\":8910:8927   */\n      add\n        /* \"#utility.yul\":8903:8950   */\n      mstore\n        /* \"#utility.yul\":8967:9098   */\n      tag_222\n        /* \"#utility.yul\":9093:9097   */\n      dup2\n        /* \"#utility.yul\":8967:9098   */\n      tag_112\n      jump\t// in\n    tag_222:\n        /* \"#utility.yul\":8959:9098   */\n      swap1\n      pop\n        /* \"#utility.yul\":8686:9105   */\n      swap2\n      swap1\n      pop\n      jump\t// out\n        /* \"#utility.yul\":9111:9259   */\n    tag_113:\n        /* \"#utility.yul\":9213:9224   */\n      0x00\n        /* \"#utility.yul\":9250:9253   */\n      dup2\n        /* \"#utility.yul\":9235:9253   */\n      swap1\n      pop\n        /* \"#utility.yul\":9111:9259   */\n      swap3\n      swap2\n      pop\n      pop\n      jump\t// out\n        /* \"#utility.yul\":9265:9655   */\n    tag_114:\n        /* \"#utility.yul\":9371:9374   */\n      0x00\n        /* \"#utility.yul\":9399:9438   */\n      tag_225\n        /* \"#utility.yul\":9432:9437   */\n      dup3\n        /* \"#utility.yul\":9399:9438   */\n      tag_87\n      jump\t// in\n    tag_225:\n        /* \"#utility.yul\":9454:9543   */\n      tag_226\n        /* \"#utility.yul\":9536:9542   */\n      dup2\n        /* \"#utility.yul\":9531:9534   */\n      dup6\n        /* \"#utility.yul\":9454:9543   */\n      tag_113\n      jump\t// in\n    tag_226:\n        /* \"#utility.yul\":9447:9543   */\n      swap4\n      pop\n        /* \"#utility.yul\":9552:9617   */\n      tag_227\n        /* \"#utility.yul\":9610:9616   */\n      dup2\n        /* \"#utility.yul\":9605:9608   */\n      dup6\n        /* \"#utility.yul\":9598:9602   */\n      0x20\n        /* \"#utility.yul\":9591:9596   */\n      dup7\n        /* \"#utility.yul\":9587:9603   */\n      add\n        /* \"#utility.yul\":9552:9617   */\n      tag_89\n      jump\t// in\n    tag_227:\n        /* \"#utility.yul\":9642:9648   */\n      dup1\n        /* \"#utility.yul\":9637:9640   */\n      dup5\n        /* \"#utility.yul\":9633:9649   */\n      add\n        /* \"#utility.yul\":9626:9649   */\n      swap2\n      pop\n        /* \"#utility.yul\":9375:9655   */\n      pop\n        /* \"#utility.yul\":9265:9655   */\n      swap3\n      swap2\n      pop\n      pop\n      jump\t// out\n        /* \"#utility.yul\":9661:9936   */\n    tag_40:\n        /* \"#utility.yul\":9793:9796   */\n      0x00\n        /* \"#utility.yul\":9815:9910   */\n      tag_229\n        /* \"#utility.yul\":9906:9909   */\n      dup3\n        /* \"#utility.yul\":9897:9903   */\n      dup5\n        /* \"#utility.yul\":9815:9910   */\n      tag_114\n      jump\t// in\n    tag_229:\n        /* \"#utility.yul\":9808:9910   */\n      swap2\n      pop\n        /* \"#utility.yul\":9927:9930   */\n      dup2\n        /* \"#utility.yul\":9920:9930   */\n      swap1\n      pop\n        /* \"#utility.yul\":9661:9936   */\n      swap3\n      swap2\n      pop\n      pop\n      jump\t// out\n        /* \"#utility.yul\":9942:10083   */\n    tag_115:\n        /* \"#utility.yul\":9991:9995   */\n      0x00\n        /* \"#utility.yul\":10014:10017   */\n      dup2\n        /* \"#utility.yul\":10006:10017   */\n      swap1\n      pop\n        /* \"#utility.yul\":10037:10040   */\n      dup2\n        /* \"#utility.yul\":10034:10035   */\n      0x00\n        /* \"#utility.yul\":10027:10041   */\n      mstore\n        /* \"#utility.yul\":10071:10075   */\n      0x20\n        /* \"#utility.yul\":10068:10069   */\n      0x00\n        /* \"#utility.yul\":10058:10076   */\n      keccak256\n        /* \"#utility.yul\":10050:10076   */\n      swap1\n      pop\n        /* \"#utility.yul\":9942:10083   */\n      swap2\n      swap1\n      pop\n      jump\t// out\n        /* \"#utility.yul\":10089:10182   */\n    tag_116:\n        /* \"#utility.yul\":10126:10132   */\n      0x00\n        /* \"#utility.yul\":10173:10175   */\n      0x20\n        /* \"#utility.yul\":10168:10170   */\n      0x1f\n        /* \"#utility.yul\":10161:10166   */\n      dup4\n        /* \"#utility.yul\":10157:10171   */\n      add\n        /* \"#utility.yul\":10153:10176   */\n      div\n        /* \"#utility.yul\":10143:10176   */\n      swap1\n      pop\n        /* \"#utility.yul\":10089:10182   */\n      swap2\n      swap1\n      pop\n      jump\t// out\n        /* \"#utility.yul\":10188:10295   */\n    tag_117:\n        /* \"#utility.yul\":10232:10240   */\n      0x00\n        /* \"#utility.yul\":10282:10287   */\n      dup3\n        /* \"#utility.yul\":10276:10280   */\n      dup3\n        /* \"#utility.yul\":10272:10288   */\n      shl\n        /* \"#utility.yul\":10251:10288   */\n      swap1\n      pop\n        /* \"#utility.yul\":10188:10295   */\n      swap3\n      swap2\n      pop\n      pop\n      jump\t// out\n        /* \"#utility.yul\":10301:10694   */\n    tag_118:\n        /* \"#utility.yul\":10370:10376   */\n      0x00\n        /* \"#utility.yul\":10420:10421   */\n      0x08\n        /* \"#utility.yul\":10408:10418   */\n      dup4\n        /* \"#utility.yul\":10404:10422   */\n      mul\n        /* \"#utility.yul\":10443:10540   */\n      tag_234\n        /* \"#utility.yul\":10473:10539   */\n      0xffffffffffffffffffffffffffffffffffffffffffffffffffffffffffffffff\n        /* \"#utility.yul\":10462:10471   */\n      dup3\n        /* \"#utility.yul\":10443:10540   */\n      tag_117\n      jump\t// in\n    tag_234:\n        /* \"#utility.yul\":10561:10600   */\n      tag_235\n        /* \"#utility.yul\":10591:10599   */\n      dup7\n        /* \"#utility.yul\":10580:10589   */\n      dup4\n        /* \"#utility.yul\":10561:10600   */\n      tag_117\n      jump\t// in\n    tag_235:\n        /* \"#utility.yul\":10549:10600   */\n      swap6\n      pop\n        /* \"#utility.yul\":10633:10637   */\n      dup1\n        /* \"#utility.yul\":10629:10638   */\n      not\n        /* \"#utility.yul\":10622:10627   */\n      dup5\n        /* \"#utility.yul\":10618:10639   */\n      and\n        /* \"#utility.yul\":10609:10639   */\n      swap4\n      pop\n        /* \"#utility.yul\":10682:10686   */\n      dup1\n        /* \"#utility.yul\":10672:10680   */\n      dup7\n        /* \"#utility.yul\":10668:10687   */\n      and\n        /* \"#utility.yul\":10661:10666   */\n      dup5\n        /* \"#utility.yul\":10658:10688   */\n      or\n        /* \"#utility.yul\":10648:10688   */\n      swap3\n      pop\n        /* \"#utility.yul\":10377:10694   */\n      pop\n      pop\n        /* \"#utility.yul\":10301:10694   */\n      swap4\n      swap3\n      pop\n      pop\n      pop\n      jump\t// out\n        /* \"#utility.yul\":10700:10760   */\n    tag_119:\n        /* \"#utility.yul\":10728:10731   */\n      0x00\n        /* \"#utility.yul\":10749:10754   */\n      dup2\n        /* \"#utility.yul\":10742:10754   */\n      swap1\n      pop\n        /* \"#utility.yul\":10700:10760   */\n      swap2\n      swap1\n      pop\n      jump\t// out\n        /* \"#utility.yul\":10766:10908   */\n    tag_120:\n        /* \"#utility.yul\":10816:10825   */\n      0x00\n        /* \"#utility.yul\":10849:10902   */\n      tag_238\n        /* \"#utility.yul\":10867:10901   */\n      tag_239\n        /* \"#utility.yul\":10876:10900   */\n      tag_240\n        /* \"#utility.yul\":10894:10899   */\n      dup5\n        /* \"#utility.yul\":10876:10900   */\n      tag_106\n      jump\t// in\n    tag_240:\n        /* \"#utility.yul\":10867:10901   */\n      tag_119\n      jump\t// in\n    tag_239:\n        /* \"#utility.yul\":10849:10902   */\n      tag_106\n      jump\t// in\n    tag_238:\n        /* \"#utility.yul\":10836:10902   */\n      swap1\n      pop\n        /* \"#utility.yul\":10766:10908   */\n      swap2\n      swap1\n      pop\n      jump\t// out\n        /* \"#utility.yul\":10914:10989   */\n    tag_121:\n        /* \"#utility.yul\":10957:10960   */\n      0x00\n        /* \"#utility.yul\":10978:10983   */\n      dup2\n        /* \"#utility.yul\":10971:10983   */\n      swap1\n      pop\n        /* \"#utility.yul\":10914:10989   */\n      swap2\n      swap1\n      pop\n      jump\t// out\n        /* \"#utility.yul\":10995:11264   */\n    tag_122:\n        /* \"#utility.yul\":11105:11144   */\n      tag_243\n        /* \"#utility.yul\":11136:11143   */\n      dup4\n        /* \"#utility.yul\":11105:11144   */\n      tag_120\n      jump\t// in\n    tag_243:\n        /* \"#utility.yul\":11166:11257   */\n      tag_244\n        /* \"#utility.yul\":11215:11256   */\n      tag_245\n        /* \"#utility.yul\":11239:11255   */\n      dup3\n        /* \"#utility.yul\":11215:11256   */\n      tag_121\n      jump\t// in\n    tag_245:\n        /* \"#utility.yul\":11207:11213   */\n      dup5\n        /* \"#utility.yul\":11200:11204   */\n      dup5\n        /* \"#utility.yul\":11194:11205   */\n      sload\n        /* \"#utility.yul\":11166:11257   */\n      tag_118\n      jump\t// in\n    tag_244:\n        /* \"#utility.yul\":11160:11164   */\n      dup3\n        /* \"#utility.yul\":11153:11258   */\n      sstore\n        /* \"#utility.yul\":11071:11264   */\n      pop\n        /* \"#utility.yul\":10995:11264   */\n      pop\n      pop\n      pop\n      jump\t// out\n        /* \"#utility.yul\":11270:11343   */\n    tag_123:\n        /* \"#utility.yul\":11315:11318   */\n      0x00\n        /* \"#utility.yul\":11270:11343   */\n      swap1\n      jump\t// out\n        /* \"#utility.yul\":11349:11538   */\n    tag_124:\n        /* \"#utility.yul\":11426:11458   */\n      tag_248\n      tag_123\n      jump\t// in\n    tag_248:\n        /* \"#utility.yul\":11467:11532   */\n      tag_249\n        /* \"#utility.yul\":11525:11531   */\n      dup2\n        /* \"#utility.yul\":11517:11523   */\n      dup5\n        /* \"#utility.yul\":11511:11515   */\n      dup5\n        /* \"#utility.yul\":11467:11532   */\n      tag_122\n      jump\t// in\n    tag_249:\n        /* \"#utility.yul\":11402:11538   */\n      pop\n        /* \"#utility.yul\":11349:11538   */\n      pop\n      pop\n      jump\t// out\n        /* \"#utility.yul\":11544:11730   */\n    tag_125:\n        /* \"#utility.yul\":11604:11724   */\n    tag_251:\n        /* \"#utility.yul\":11621:11624   */\n      dup2\n        /* \"#utility.yul\":11614:11619   */\n      dup2\n        /* \"#utility.yul\":11611:11625   */\n      lt\n        /* \"#utility.yul\":11604:11724   */\n      iszero\n      tag_253\n      jumpi\n        /* \"#utility.yul\":11675:11714   */\n      tag_254\n        /* \"#utility.yul\":11712:11713   */\n      0x00\n        /* \"#utility.yul\":11705:11710   */\n      dup3\n        /* \"#utility.yul\":11675:11714   */\n      tag_124\n      jump\t// in\n    tag_254:\n        /* \"#utility.yul\":11648:11649   */\n      0x01\n        /* \"#utility.yul\":11641:11646   */\n      dup2\n        /* \"#utility.yul\":11637:11650   */\n      add\n        /* \"#utility.yul\":11628:11650   */\n      swap1\n      pop\n        /* \"#utility.yul\":11604:11724   */\n      jump(tag_251)\n    tag_253:\n        /* \"#utility.yul\":11544:11730   */\n      pop\n      pop\n      jump\t// out\n        /* \"#utility.yul\":11736:12279   */\n    tag_126:\n        /* \"#utility.yul\":11837:11839   */\n      0x1f\n        /* \"#utility.yul\":11832:11835   */\n      dup3\n        /* \"#utility.yul\":11829:11840   */\n      gt\n        /* \"#utility.yul\":11826:12272   */\n      iszero\n      tag_256\n      jumpi\n        /* \"#utility.yul\":11871:11909   */\n      tag_257\n        /* \"#utility.yul\":11903:11908   */\n      dup2\n        /* \"#utility.yul\":11871:11909   */\n      tag_115\n      jump\t// in\n    tag_257:\n        /* \"#utility.yul\":11955:11984   */\n      tag_258\n        /* \"#utility.yul\":11973:11983   */\n      dup5\n        /* \"#utility.yul\":11955:11984   */\n      tag_116\n      jump\t// in\n    tag_258:\n        /* \"#utility.yul\":11945:11953   */\n      dup2\n        /* \"#utility.yul\":11941:11985   */\n      add\n        /* \"#utility.yul\":12138:12140   */\n      0x20\n        /* \"#utility.yul\":12126:12136   */\n      dup6\n        /* \"#utility.yul\":12123:12141   */\n      lt\n        /* \"#utility.yul\":12120:12169   */\n      iszero\n      tag_259\n      jumpi\n        /* \"#utility.yul\":12159:12167   */\n      dup2\n        /* \"#utility.yul\":12144:12167   */\n      swap1\n      pop\n        /* \"#utility.yul\":12120:12169   */\n    tag_259:\n        /* \"#utility.yul\":12182:12262   */\n      tag_260\n        /* \"#utility.yul\":12238:12260   */\n      tag_261\n        /* \"#utility.yul\":12256:12259   */\n      dup6\n        /* \"#utility.yul\":12238:12260   */\n      tag_116\n      jump\t// in\n    tag_261:\n        /* \"#utility.yul\":12228:12236   */\n      dup4\n        /* \"#utility.yul\":12224:12261   */\n      add\n        /* \"#utility.yul\":12211:12222   */\n      dup3\n        /* \"#utility.yul\":12182:12262   */\n      tag_125\n      jump\t// in\n    tag_260:\n        /* \"#utility.yul\":11841:12272   */\n      pop\n      pop\n        /* \"#utility.yul\":11826:12272   */\n    tag_256:\n        /* \"#utility.yul\":11736:12279   */\n      pop\n      pop\n      pop\n      jump\t// out\n        /* \"#utility.yul\":12285:12402   */\n    tag_127:\n        /* \"#utility.yul\":12339:12347   */\n      0x00\n        /* \"#utility.yul\":12389:12394   */\n      dup3\n        /* \"#utility.yul\":12383:12387   */\n      dup3\n        /* \"#utility.yul\":12379:12395   */\n      shr\n        /* \"#utility.yul\":12358:12395   */\n      swap1\n      pop\n        /* \"#utility.yul\":12285:12402   */\n      swap3\n      swap2\n      pop\n      pop\n      jump\t// out\n        /* \"#utility.yul\":12408:12577   */\n    tag_128:\n        /* \"#utility.yul\":12452:12458   */\n      0x00\n        /* \"#utility.yul\":12485:12536   */\n      tag_264\n        /* \"#utility.yul\":12533:12534   */\n      0x00\n        /* \"#utility.yul\":12529:12535   */\n      not\n        /* \"#utility.yul\":12521:12526   */\n      dup5\n        /* \"#utility.yul\":12518:12519   */\n      0x08\n        /* \"#utility.yul\":12514:12527   */\n      mul\n        /* \"#utility.yul\":12485:12536   */\n      tag_127\n      jump\t// in\n    tag_264:\n        /* \"#utility.yul\":12481:12537   */\n      not\n        /* \"#utility.yul\":12566:12570   */\n      dup1\n        /* \"#utility.yul\":12560:12564   */\n      dup4\n        /* \"#utility.yul\":12556:12571   */\n      and\n        /* \"#utility.yul\":12546:12571   */\n      swap2\n      pop\n        /* \"#utility.yul\":12459:12577   */\n      pop\n        /* \"#utility.yul\":12408:12577   */\n      swap3\n      swap2\n      pop\n      pop\n      jump\t// out\n        /* \"#utility.yul\":12582:12877   */\n    tag_129:\n        /* \"#utility.yul\":12658:12662   */\n      0x00\n        /* \"#utility.yul\":12804:12833   */\n      tag_266\n        /* \"#utility.yul\":12829:12832   */\n      dup4\n        /* \"#utility.yul\":12823:12827   */\n      dup4\n        /* \"#utility.yul\":12804:12833   */\n      tag_128\n      jump\t// in\n    tag_266:\n        /* \"#utility.yul\":12796:12833   */\n      swap2\n      pop\n        /* \"#utility.yul\":12866:12869   */\n      dup3\n        /* \"#utility.yul\":12863:12864   */\n      0x02\n        /* \"#utility.yul\":12859:12870   */\n      mul\n        /* \"#utility.yul\":12853:12857   */\n      dup3\n        /* \"#utility.yul\":12850:12871   */\n      or\n        /* \"#utility.yul\":12842:12871   */\n      swap1\n      pop\n        /* \"#utility.yul\":12582:12877   */\n      swap3\n      swap2\n      pop\n      pop\n      jump\t// out\n        /* \"#utility.yul\":12882:14277   */\n    tag_43:\n        /* \"#utility.yul\":12999:13036   */\n      tag_268\n        /* \"#utility.yul\":13032:13035   */\n      dup3\n        /* \"#utility.yul\":12999:13036   */\n      tag_87\n      jump\t// in\n    tag_268:\n        /* \"#utility.yul\":13101:13119   */\n      0xffffffffffffffff\n        /* \"#utility.yul\":13093:13099   */\n      dup2\n        /* \"#utility.yul\":13090:13120   */\n      gt\n        /* \"#utility.yul\":13087:13143   */\n      iszero\n      tag_269\n      jumpi\n        /* \"#utility.yul\":13123:13141   */\n      tag_270\n      tag_51\n      jump\t// in\n    tag_270:\n        /* \"#utility.yul\":13087:13143   */\n    tag_269:\n        /* \"#utility.yul\":13167:13205   */\n      tag_271\n        /* \"#utility.yul\":13199:13203   */\n      dup3\n        /* \"#utility.yul\":13193:13204   */\n      sload\n        /* \"#utility.yul\":13167:13205   */\n      tag_28\n      jump\t// in\n    tag_271:\n        /* \"#utility.yul\":13252:13319   */\n      tag_272\n        /* \"#utility.yul\":13312:13318   */\n      dup3\n        /* \"#utility.yul\":13304:13310   */\n      dup3\n        /* \"#utility.yul\":13298:13302   */\n      dup6\n        /* \"#utility.yul\":13252:13319   */\n      tag_126\n      jump\t// in\n    tag_272:\n        /* \"#utility.yul\":13346:13347   */\n      0x00\n        /* \"#utility.yul\":13370:13374   */\n      0x20\n        /* \"#utility.yul\":13357:13374   */\n      swap1\n      pop\n        /* \"#utility.yul\":13402:13404   */\n      0x1f\n        /* \"#utility.yul\":13394:13400   */\n      dup4\n        /* \"#utility.yul\":13391:13405   */\n      gt\n        /* \"#utility.yul\":13419:13420   */\n      0x01\n        /* \"#utility.yul\":13414:14032   */\n      dup2\n      eq\n      tag_274\n      jumpi\n        /* \"#utility.yul\":14076:14077   */\n      0x00\n        /* \"#utility.yul\":14093:14099   */\n      dup5\n        /* \"#utility.yul\":14090:14167   */\n      iszero\n      tag_275\n      jumpi\n        /* \"#utility.yul\":14142:14151   */\n      dup3\n        /* \"#utility.yul\":14137:14140   */\n      dup8\n        /* \"#utility.yul\":14133:14152   */\n      add\n        /* \"#utility.yul\":14127:14153   */\n      mload\n        /* \"#utility.yul\":14118:14153   */\n      swap1\n      pop\n        /* \"#utility.yul\":14090:14167   */\n    tag_275:\n        /* \"#utility.yul\":14193:14260   */\n      tag_276\n        /* \"#utility.yul\":14253:14259   */\n      dup6\n        /* \"#utility.yul\":14246:14251   */\n      dup3\n        /* \"#utility.yul\":14193:14260   */\n      tag_129\n      jump\t// in\n    tag_276:\n        /* \"#utility.yul\":14187:14191   */\n      dup7\n        /* \"#utility.yul\":14180:14261   */\n      sstore\n        /* \"#utility.yul\":14049:14271   */\n      pop\n        /* \"#utility.yul\":13384:14271   */\n      jump(tag_273)\n        /* \"#utility.yul\":13414:14032   */\n    tag_274:\n        /* \"#utility.yul\":13466:13470   */\n      0x1f\n        /* \"#utility.yul\":13462:13471   */\n      not\n        /* \"#utility.yul\":13454:13460   */\n      dup5\n        /* \"#utility.yul\":13450:13472   */\n      and\n        /* \"#utility.yul\":13500:13537   */\n      tag_277\n        /* \"#utility.yul\":13532:13536   */\n      dup7\n        /* \"#utility.yul\":13500:13537   */\n      tag_115\n      jump\t// in\n    tag_277:\n        /* \"#utility.yul\":13559:13560   */\n      0x00\n        /* \"#utility.yul\":13573:13781   */\n    tag_278:\n        /* \"#utility.yul\":13587:13594   */\n      dup3\n        /* \"#utility.yul\":13584:13585   */\n      dup2\n        /* \"#utility.yul\":13581:13595   */\n      lt\n        /* \"#utility.yul\":13573:13781   */\n      iszero\n      tag_280\n      jumpi\n        /* \"#utility.yul\":13666:13675   */\n      dup5\n        /* \"#utility.yul\":13661:13664   */\n      dup10\n        /* \"#utility.yul\":13657:13676   */\n      add\n        /* \"#utility.yul\":13651:13677   */\n      mload\n        /* \"#utility.yul\":13643:13649   */\n      dup3\n        /* \"#utility.yul\":13636:13678   */\n      sstore\n        /* \"#utility.yul\":13717:13718   */\n      0x01\n        /* \"#utility.yul\":13709:13715   */\n      dup3\n        /* \"#utility.yul\":13705:13719   */\n      add\n        /* \"#utility.yul\":13695:13719   */\n      swap2\n      pop\n        /* \"#utility.yul\":13764:13766   */\n      0x20\n        /* \"#utility.yul\":13753:13762   */\n      dup6\n        /* \"#utility.yul\":13749:13767   */\n      add\n        /* \"#utility.yul\":13736:13767   */\n      swap5\n      pop\n        /* \"#utility.yul\":13610:13614   */\n      0x20\n        /* \"#utility.yul\":13607:13608   */\n      dup2\n        /* \"#utility.yul\":13603:13615   */\n      add\n        /* \"#utility.yul\":13598:13615   */\n      swap1\n      pop\n        /* \"#utility.yul\":13573:13781   */\n      jump(tag_278)\n    tag_280:\n        /* \"#utility.yul\":13809:13815   */\n      dup7\n        /* \"#utility.yul\":13800:13807   */\n      dup4\n        /* \"#utility.yul\":13797:13816   */\n      lt\n        /* \"#utility.yul\":13794:13973   */\n      iszero\n      tag_281\n      jumpi\n        /* \"#utility.yul\":13867:13876   */\n      dup5\n        /* \"#utility.yul\":13862:13865   */\n      dup10\n        /* \"#utility.yul\":13858:13877   */\n      add\n        /* \"#utility.yul\":13852:13878   */\n      mload\n        /* \"#utility.yul\":13910:13958   */\n      tag_282\n        /* \"#utility.yul\":13952:13956   */\n      0x1f\n        /* \"#utility.yul\":13944:13950   */\n      dup10\n        /* \"#utility.yul\":13940:13957   */\n      and\n        /* \"#utility.yul\":13929:13938   */\n      dup3\n        /* \"#utility.yul\":13910:13958   */\n      tag_128\n      jump\t// in\n    tag_282:\n        /* \"#utility.yul\":13902:13908   */\n      dup4\n        /* \"#utility.yul\":13895:13959   */\n      sstore\n        /* \"#utility.yul\":13817:13973   */\n      pop\n        /* \"#utility.yul\":13794:13973   */\n    tag_281:\n        /* \"#utility.yul\":14019:14020   */\n      0x01\n        /* \"#utility.yul\":14015:14016   */\n      0x02\n        /* \"#utility.yul\":14007:14013   */\n      dup9\n        /* \"#utility.yul\":14003:14017   */\n      mul\n        /* \"#utility.yul\":13999:14021   */\n      add\n        /* \"#utility.yul\":13993:13997   */\n      dup9\n        /* \"#utility.yul\":13986:14022   */\n      sstore\n        /* \"#utility.yul\":13421:14032   */\n      pop\n      pop\n      pop\n        /* \"#utility.yul\":13384:14271   */\n    tag_273:\n      pop\n        /* \"#utility.yul\":12974:14277   */\n      pop\n      pop\n      pop\n        /* \"#utility.yul\":12882:14277   */\n      pop\n      pop\n      jump\t// out\n        /* \"#utility.yul\":14283:14463   */\n    tag_60:\n        /* \"#utility.yul\":14331:14408   */\n      0x4e487b7100000000000000000000000000000000000000000000000000000000\n        /* \"#utility.yul\":14328:14329   */\n      0x00\n        /* \"#utility.yul\":14321:14409   */\n      mstore\n        /* \"#utility.yul\":14428:14432   */\n      0x32\n        /* \"#utility.yul\":14425:14426   */\n      0x04\n        /* \"#utility.yul\":14418:14433   */\n      mstore\n        /* \"#utility.yul\":14452:14456   */\n      0x24\n        /* \"#utility.yul\":14449:14450   */\n      0x00\n        /* \"#utility.yul\":14442:14457   */\n      revert\n        /* \"#utility.yul\":14469:14692   */\n    tag_130:\n        /* \"#utility.yul\":14609:14643   */\n      0x41206c69737420776974682074686973206e616d6520616c7265616479206578\n        /* \"#utility.yul\":14605:14606   */\n      0x00\n        /* \"#utility.yul\":14597:14603   */\n      dup3\n        /* \"#utility.yul\":14593:14607   */\n      add\n        /* \"#utility.yul\":14586:14644   */\n      mstore\n        /* \"#utility.yul\":14678:14684   */\n      0x6973747300000000000000000000000000000000000000000000000000000000\n        /* \"#utility.yul\":14673:14675   */\n      0x20\n        /* \"#utility.yul\":14665:14671   */\n      dup3\n        /* \"#utility.yul\":14661:14676   */\n      add\n        /* \"#utility.yul\":14654:14685   */\n      mstore\n        /* \"#utility.yul\":14469:14692   */\n      pop\n      jump\t// out\n        /* \"#utility.yul\":14698:15064   */\n    tag_131:\n        /* \"#utility.yul\":14840:14843   */\n      0x00\n        /* \"#utility.yul\":14861:14928   */\n      tag_286\n        /* \"#utility.yul\":14925:14927   */\n      0x24\n        /* \"#utility.yul\":14920:14923   */\n      dup4\n        /* \"#utility.yul\":14861:14928   */\n      tag_110\n      jump\t// in\n    tag_286:\n        /* \"#utility.yul\":14854:14928   */\n      swap2\n      pop\n        /* \"#utility.yul\":14937:15030   */\n      tag_287\n        /* \"#utility.yul\":15026:15029   */\n      dup3\n        /* \"#utility.yul\":14937:15030   */\n      tag_130\n      jump\t// in\n    tag_287:\n        /* \"#utility.yul\":15055:15057   */\n      0x40\n        /* \"#utility.yul\":15050:15053   */\n      dup3\n        /* \"#utility.yul\":15046:15058   */\n      add\n        /* \"#utility.yul\":15039:15058   */\n      swap1\n      pop\n        /* \"#utility.yul\":14698:15064   */\n      swap2\n      swap1\n      pop\n      jump\t// out\n        /* \"#utility.yul\":15070:15489   */\n    tag_73:\n        /* \"#utility.yul\":15236:15240   */\n      0x00\n        /* \"#utility.yul\":15274:15276   */\n      0x20\n        /* \"#utility.yul\":15263:15272   */\n      dup3\n        /* \"#utility.yul\":15259:15277   */\n      add\n        /* \"#utility.yul\":15251:15277   */\n      swap1\n      pop\n        /* \"#utility.yul\":15323:15332   */\n      dup2\n        /* \"#utility.yul\":15317:15321   */\n      dup2\n        /* \"#utility.yul\":15313:15333   */\n      sub\n        /* \"#utility.yul\":15309:15310   */\n      0x00\n        /* \"#utility.yul\":15298:15307   */\n      dup4\n        /* \"#utility.yul\":15294:15311   */\n      add\n        /* \"#utility.yul\":15287:15334   */\n      mstore\n        /* \"#utility.yul\":15351:15482   */\n      tag_289\n        /* \"#utility.yul\":15477:15481   */\n      dup2\n        /* \"#utility.yul\":15351:15482   */\n      tag_131\n      jump\t// in\n    tag_289:\n        /* \"#utility.yul\":15343:15482   */\n      swap1\n      pop\n        /* \"#utility.yul\":15070:15489   */\n      swap2\n      swap1\n      pop\n      jump\t// out\n        /* \"#utility.yul\":15495:15665   */\n    tag_132:\n        /* \"#utility.yul\":15635:15657   */\n      0x4e616d652063616e6e6f7420626520656d707479000000000000000000000000\n        /* \"#utility.yul\":15631:15632   */\n      0x00\n        /* \"#utility.yul\":15623:15629   */\n      dup3\n        /* \"#utility.yul\":15619:15633   */\n      add\n        /* \"#utility.yul\":15612:15658   */\n      mstore\n        /* \"#utility.yul\":15495:15665   */\n      pop\n      jump\t// out\n        /* \"#utility.yul\":15671:16037   */\n    tag_133:\n        /* \"#utility.yul\":15813:15816   */\n      0x00\n        /* \"#utility.yul\":15834:15901   */\n      tag_292\n        /* \"#utility.yul\":15898:15900   */\n      0x14\n        /* \"#utility.yul\":15893:15896   */\n      dup4\n        /* \"#utility.yul\":15834:15901   */\n      tag_110\n      jump\t// in\n    tag_292:\n        /* \"#utility.yul\":15827:15901   */\n      swap2\n      pop\n        /* \"#utility.yul\":15910:16003   */\n      tag_293\n        /* \"#utility.yul\":15999:16002   */\n      dup3\n        /* \"#utility.yul\":15910:16003   */\n      tag_132\n      jump\t// in\n    tag_293:\n        /* \"#utility.yul\":16028:16030   */\n      0x20\n        /* \"#utility.yul\":16023:16026   */\n      dup3\n        /* \"#utility.yul\":16019:16031   */\n      add\n        /* \"#utility.yul\":16012:16031   */\n      swap1\n      pop\n        /* \"#utility.yul\":15671:16037   */\n      swap2\n      swap1\n      pop\n      jump\t// out\n        /* \"#utility.yul\":16043:16462   */\n    tag_76:\n        /* \"#utility.yul\":16209:16213   */\n      0x00\n        /* \"#utility.yul\":16247:16249   */\n      0x20\n        /* \"#utility.yul\":16236:16245   */\n      dup3\n        /* \"#utility.yul\":16232:16250   */\n      add\n        /* \"#utility.yul\":16224:16250   */\n      swap1\n      pop\n        /* \"#utility.yul\":16296:16305   */\n      dup2\n        /* \"#utility.yul\":16290:16294   */\n      dup2\n        /* \"#utility.yul\":16286:16306   */\n      sub\n        /* \"#utility.yul\":16282:16283   */\n      0x00\n        /* \"#utility.yul\":16271:16280   */\n      dup4\n        /* \"#utility.yul\":16267:16284   */\n      add\n        /* \"#utility.yul\":16260:16307   */\n      mstore\n        /* \"#utility.yul\":16324:16455   */\n      tag_295\n        /* \"#utility.yul\":16450:16454   */\n      dup2\n        /* \"#utility.yul\":16324:16455   */\n      tag_133\n      jump\t// in\n    tag_295:\n        /* \"#utility.yul\":16316:16455   */\n      swap1\n      pop\n        /* \"#utility.yul\":16043:16462   */\n      swap2\n      swap1\n      pop\n      jump\t// out\n\n    auxdata: 0xa264697066735822122033cf0d12d3eb00455bbcb08a445c80c7c1cbd633bc498a91ead5b04e84b79cf764736f6c634300081a0033\n}\n",
				"bytecode": {
					"linkReferences": {},
					"object": "6080604052348015600e575f80fd5b50610f798061001c5f395ff3fe608060405234801561000f575f80fd5b506004361061004a575f3560e01c806361769db21461004e57806364432eb81461006c5780637407285d14610088578063b8dcc68f146100b8575b5f80fd5b6100566100d4565b6040516100639190610830565b60405180910390f35b610086600480360381019061008191906109c0565b6101e5565b005b6100a2600480360381019061009d9190610a48565b6102ea565b6040516100af9190610830565b60405180910390f35b6100d260048036038101906100cd9190610a48565b610529565b005b60605f803373ffffffffffffffffffffffffffffffffffffffff1673ffffffffffffffffffffffffffffffffffffffff1681526020019081526020015f20600101805480602002602001604051908101604052809291908181526020015f905b828210156101dc578382905f5260205f2001805461015190610abc565b80601f016020809104026020016040519081016040528092919081815260200182805461017d90610abc565b80156101c85780601f1061019f576101008083540402835291602001916101c8565b820191905f5260205f20905b8154815290600101906020018083116101ab57829003601f168201915b505050505081526020019060010190610134565b50505050905090565b6101ee83610691565b61022d576040517f08c379a000000000000000000000000000000000000000000000000000000000815260040161022490610b46565b60405180910390fd5b5f803373ffffffffffffffffffffffffffffffffffffffff1673ffffffffffffffffffffffffffffffffffffffff1681526020019081526020015f205f01836040516102799190610b9e565b9081526020016040518091039020600101604051806040016040528084815260200183815250908060018154018082558091505060019003905f5260205f2090600202015f909190919091505f820151815f0190816102d89190610d51565b50602082015181600101555050505050565b60606102f582610691565b610334576040517f08c379a000000000000000000000000000000000000000000000000000000000815260040161032b90610b46565b60405180910390fd5b5f805f3373ffffffffffffffffffffffffffffffffffffffff1673ffffffffffffffffffffffffffffffffffffffff1681526020019081526020015f205f01836040516103819190610b9e565b90815260200160405180910390206001018054905067ffffffffffffffff8111156103af576103ae610869565b5b6040519080825280602002602001820160405280156103e257816020015b60608152602001906001900390816103cd5790505b5090505f5b815181101561051f575f803373ffffffffffffffffffffffffffffffffffffffff1673ffffffffffffffffffffffffffffffffffffffff1681526020019081526020015f205f018460405161043c9190610b9e565b9081526020016040518091039020600101818154811061045f5761045e610e20565b5b905f5260205f2090600202015f01805461047890610abc565b80601f01602080910402602001604051908101604052809291908181526020018280546104a490610abc565b80156104ef5780601f106104c6576101008083540402835291602001916104ef565b820191905f5260205f20905b8154815290600101906020018083116104d257829003601f168201915b505050505082828151811061050757610506610e20565b5b602002602001018190525080806001019150506103e7565b5080915050919050565b61053281610691565b15610572576040517f08c379a000000000000000000000000000000000000000000000000000000000815260040161056990610ebd565b60405180910390fd5b5f8151116105b5576040517f08c379a00000000000000000000000000000000000000000000000000000000081526004016105ac90610f25565b60405180910390fd5b5f803373ffffffffffffffffffffffffffffffffffffffff1673ffffffffffffffffffffffffffffffffffffffff1681526020019081526020015f2060010181908060018154018082558091505060019003905f5260205f20015f9091909190915090816106239190610d51565b50805f803373ffffffffffffffffffffffffffffffffffffffff1673ffffffffffffffffffffffffffffffffffffffff1681526020019081526020015f205f01826040516106719190610b9e565b90815260200160405180910390205f01908161068d9190610d51565b5050565b5f805f803373ffffffffffffffffffffffffffffffffffffffff1673ffffffffffffffffffffffffffffffffffffffff1681526020019081526020015f205f01836040516106df9190610b9e565b90815260200160405180910390205f0180546106fa90610abc565b905014159050919050565b5f81519050919050565b5f82825260208201905092915050565b5f819050602082019050919050565b5f81519050919050565b5f82825260208201905092915050565b8281835e5f83830152505050565b5f601f19601f8301169050919050565b5f6107708261072e565b61077a8185610738565b935061078a818560208601610748565b61079381610756565b840191505092915050565b5f6107a98383610766565b905092915050565b5f602082019050919050565b5f6107c782610705565b6107d1818561070f565b9350836020820285016107e38561071f565b805f5b8581101561081e57848403895281516107ff858261079e565b945061080a836107b1565b925060208a019950506001810190506107e6565b50829750879550505050505092915050565b5f6020820190508181035f83015261084881846107bd565b905092915050565b5f604051905090565b5f80fd5b5f80fd5b5f80fd5b5f80fd5b7f4e487b71000000000000000000000000000000000000000000000000000000005f52604160045260245ffd5b61089f82610756565b810181811067ffffffffffffffff821117156108be576108bd610869565b5b80604052505050565b5f6108d0610850565b90506108dc8282610896565b919050565b5f67ffffffffffffffff8211156108fb576108fa610869565b5b61090482610756565b9050602081019050919050565b828183375f83830152505050565b5f61093161092c846108e1565b6108c7565b90508281526020810184848401111561094d5761094c610865565b5b610958848285610911565b509392505050565b5f82601f83011261097457610973610861565b5b813561098484826020860161091f565b91505092915050565b5f819050919050565b61099f8161098d565b81146109a9575f80fd5b50565b5f813590506109ba81610996565b92915050565b5f805f606084860312156109d7576109d6610859565b5b5f84013567ffffffffffffffff8111156109f4576109f361085d565b5b610a0086828701610960565b935050602084013567ffffffffffffffff811115610a2157610a2061085d565b5b610a2d86828701610960565b9250506040610a3e868287016109ac565b9150509250925092565b5f60208284031215610a5d57610a5c610859565b5b5f82013567ffffffffffffffff811115610a7a57610a7961085d565b5b610a8684828501610960565b91505092915050565b7f4e487b71000000000000000000000000000000000000000000000000000000005f52602260045260245ffd5b5f6002820490506001821680610ad357607f821691505b602082108103610ae657610ae5610a8f565b5b50919050565b5f82825260208201905092915050565b7f4e6f206c69737420776974682074686973206e616d65206578697374730000005f82015250565b5f610b30601d83610aec565b9150610b3b82610afc565b602082019050919050565b5f6020820190508181035f830152610b5d81610b24565b9050919050565b5f81905092915050565b5f610b788261072e565b610b828185610b64565b9350610b92818560208601610748565b80840191505092915050565b5f610ba98284610b6e565b915081905092915050565b5f819050815f5260205f209050919050565b5f6020601f8301049050919050565b5f82821b905092915050565b5f60088302610c107fffffffffffffffffffffffffffffffffffffffffffffffffffffffffffffffff82610bd5565b610c1a8683610bd5565b95508019841693508086168417925050509392505050565b5f819050919050565b5f610c55610c50610c4b8461098d565b610c32565b61098d565b9050919050565b5f819050919050565b610c6e83610c3b565b610c82610c7a82610c5c565b848454610be1565b825550505050565b5f90565b610c96610c8a565b610ca1818484610c65565b505050565b5b81811015610cc457610cb95f82610c8e565b600181019050610ca7565b5050565b601f821115610d0957610cda81610bb4565b610ce384610bc6565b81016020851015610cf2578190505b610d06610cfe85610bc6565b830182610ca6565b50505b505050565b5f82821c905092915050565b5f610d295f1984600802610d0e565b1980831691505092915050565b5f610d418383610d1a565b9150826002028217905092915050565b610d5a8261072e565b67ffffffffffffffff811115610d7357610d72610869565b5b610d7d8254610abc565b610d88828285610cc8565b5f60209050601f831160018114610db9575f8415610da7578287015190505b610db18582610d36565b865550610e18565b601f198416610dc786610bb4565b5f5b82811015610dee57848901518255600182019150602085019450602081019050610dc9565b86831015610e0b5784890151610e07601f891682610d1a565b8355505b6001600288020188555050505b505050505050565b7f4e487b71000000000000000000000000000000000000000000000000000000005f52603260045260245ffd5b7f41206c69737420776974682074686973206e616d6520616c72656164792065785f8201527f6973747300000000000000000000000000000000000000000000000000000000602082015250565b5f610ea7602483610aec565b9150610eb282610e4d565b604082019050919050565b5f6020820190508181035f830152610ed481610e9b565b9050919050565b7f4e616d652063616e6e6f7420626520656d7074790000000000000000000000005f82015250565b5f610f0f601483610aec565b9150610f1a82610edb565b602082019050919050565b5f6020820190508181035f830152610f3c81610f03565b905091905056fea264697066735822122033cf0d12d3eb00455bbcb08a445c80c7c1cbd633bc498a91ead5b04e84b79cf764736f6c634300081a0033",
					"opcodes": "PUSH1 0x80 PUSH1 0x40 MSTORE CALLVALUE DUP1 ISZERO PUSH1 0xE JUMPI PUSH0 DUP1 REVERT JUMPDEST POP PUSH2 0xF79 DUP1 PUSH2 0x1C PUSH0 CODECOPY PUSH0 RETURN INVALID PUSH1 0x80 PUSH1 0x40 MSTORE CALLVALUE DUP1 ISZERO PUSH2 0xF JUMPI PUSH0 DUP1 REVERT JUMPDEST POP PUSH1 0x4 CALLDATASIZE LT PUSH2 0x4A JUMPI PUSH0 CALLDATALOAD PUSH1 0xE0 SHR DUP1 PUSH4 0x61769DB2 EQ PUSH2 0x4E JUMPI DUP1 PUSH4 0x64432EB8 EQ PUSH2 0x6C JUMPI DUP1 PUSH4 0x7407285D EQ PUSH2 0x88 JUMPI DUP1 PUSH4 0xB8DCC68F EQ PUSH2 0xB8 JUMPI JUMPDEST PUSH0 DUP1 REVERT JUMPDEST PUSH2 0x56 PUSH2 0xD4 JUMP JUMPDEST PUSH1 0x40 MLOAD PUSH2 0x63 SWAP2 SWAP1 PUSH2 0x830 JUMP JUMPDEST PUSH1 0x40 MLOAD DUP1 SWAP2 SUB SWAP1 RETURN JUMPDEST PUSH2 0x86 PUSH1 0x4 DUP1 CALLDATASIZE SUB DUP2 ADD SWAP1 PUSH2 0x81 SWAP2 SWAP1 PUSH2 0x9C0 JUMP JUMPDEST PUSH2 0x1E5 JUMP JUMPDEST STOP JUMPDEST PUSH2 0xA2 PUSH1 0x4 DUP1 CALLDATASIZE SUB DUP2 ADD SWAP1 PUSH2 0x9D SWAP2 SWAP1 PUSH2 0xA48 JUMP JUMPDEST PUSH2 0x2EA JUMP JUMPDEST PUSH1 0x40 MLOAD PUSH2 0xAF SWAP2 SWAP1 PUSH2 0x830 JUMP JUMPDEST PUSH1 0x40 MLOAD DUP1 SWAP2 SUB SWAP1 RETURN JUMPDEST PUSH2 0xD2 PUSH1 0x4 DUP1 CALLDATASIZE SUB DUP2 ADD SWAP1 PUSH2 0xCD SWAP2 SWAP1 PUSH2 0xA48 JUMP JUMPDEST PUSH2 0x529 JUMP JUMPDEST STOP JUMPDEST PUSH1 0x60 PUSH0 DUP1 CALLER PUSH20 0xFFFFFFFFFFFFFFFFFFFFFFFFFFFFFFFFFFFFFFFF AND PUSH20 0xFFFFFFFFFFFFFFFFFFFFFFFFFFFFFFFFFFFFFFFF AND DUP2 MSTORE PUSH1 0x20 ADD SWAP1 DUP2 MSTORE PUSH1 0x20 ADD PUSH0 KECCAK256 PUSH1 0x1 ADD DUP1 SLOAD DUP1 PUSH1 0x20 MUL PUSH1 0x20 ADD PUSH1 0x40 MLOAD SWAP1 DUP2 ADD PUSH1 0x40 MSTORE DUP1 SWAP3 SWAP2 SWAP1 DUP2 DUP2 MSTORE PUSH1 0x20 ADD PUSH0 SWAP1 JUMPDEST DUP3 DUP3 LT ISZERO PUSH2 0x1DC JUMPI DUP4 DUP3 SWAP1 PUSH0 MSTORE PUSH1 0x20 PUSH0 KECCAK256 ADD DUP1 SLOAD PUSH2 0x151 SWAP1 PUSH2 0xABC JUMP JUMPDEST DUP1 PUSH1 0x1F ADD PUSH1 0x20 DUP1 SWAP2 DIV MUL PUSH1 0x20 ADD PUSH1 0x40 MLOAD SWAP1 DUP2 ADD PUSH1 0x40 MSTORE DUP1 SWAP3 SWAP2 SWAP1 DUP2 DUP2 MSTORE PUSH1 0x20 ADD DUP3 DUP1 SLOAD PUSH2 0x17D SWAP1 PUSH2 0xABC JUMP JUMPDEST DUP1 ISZERO PUSH2 0x1C8 JUMPI DUP1 PUSH1 0x1F LT PUSH2 0x19F JUMPI PUSH2 0x100 DUP1 DUP4 SLOAD DIV MUL DUP4 MSTORE SWAP2 PUSH1 0x20 ADD SWAP2 PUSH2 0x1C8 JUMP JUMPDEST DUP3 ADD SWAP2 SWAP1 PUSH0 MSTORE PUSH1 0x20 PUSH0 KECCAK256 SWAP1 JUMPDEST DUP2 SLOAD DUP2 MSTORE SWAP1 PUSH1 0x1 ADD SWAP1 PUSH1 0x20 ADD DUP1 DUP4 GT PUSH2 0x1AB JUMPI DUP3 SWAP1 SUB PUSH1 0x1F AND DUP3 ADD SWAP2 JUMPDEST POP POP POP POP POP DUP2 MSTORE PUSH1 0x20 ADD SWAP1 PUSH1 0x1 ADD SWAP1 PUSH2 0x134 JUMP JUMPDEST POP POP POP POP SWAP1 POP SWAP1 JUMP JUMPDEST PUSH2 0x1EE DUP4 PUSH2 0x691 JUMP JUMPDEST PUSH2 0x22D JUMPI PUSH1 0x40 MLOAD PUSH32 0x8C379A000000000000000000000000000000000000000000000000000000000 DUP2 MSTORE PUSH1 0x4 ADD PUSH2 0x224 SWAP1 PUSH2 0xB46 JUMP JUMPDEST PUSH1 0x40 MLOAD DUP1 SWAP2 SUB SWAP1 REVERT JUMPDEST PUSH0 DUP1 CALLER PUSH20 0xFFFFFFFFFFFFFFFFFFFFFFFFFFFFFFFFFFFFFFFF AND PUSH20 0xFFFFFFFFFFFFFFFFFFFFFFFFFFFFFFFFFFFFFFFF AND DUP2 MSTORE PUSH1 0x20 ADD SWAP1 DUP2 MSTORE PUSH1 0x20 ADD PUSH0 KECCAK256 PUSH0 ADD DUP4 PUSH1 0x40 MLOAD PUSH2 0x279 SWAP2 SWAP1 PUSH2 0xB9E JUMP JUMPDEST SWAP1 DUP2 MSTORE PUSH1 0x20 ADD PUSH1 0x40 MLOAD DUP1 SWAP2 SUB SWAP1 KECCAK256 PUSH1 0x1 ADD PUSH1 0x40 MLOAD DUP1 PUSH1 0x40 ADD PUSH1 0x40 MSTORE DUP1 DUP5 DUP2 MSTORE PUSH1 0x20 ADD DUP4 DUP2 MSTORE POP SWAP1 DUP1 PUSH1 0x1 DUP2 SLOAD ADD DUP1 DUP3 SSTORE DUP1 SWAP2 POP POP PUSH1 0x1 SWAP1 SUB SWAP1 PUSH0 MSTORE PUSH1 0x20 PUSH0 KECCAK256 SWAP1 PUSH1 0x2 MUL ADD PUSH0 SWAP1 SWAP2 SWAP1 SWAP2 SWAP1 SWAP2 POP PUSH0 DUP3 ADD MLOAD DUP2 PUSH0 ADD SWAP1 DUP2 PUSH2 0x2D8 SWAP2 SWAP1 PUSH2 0xD51 JUMP JUMPDEST POP PUSH1 0x20 DUP3 ADD MLOAD DUP2 PUSH1 0x1 ADD SSTORE POP POP POP POP POP JUMP JUMPDEST PUSH1 0x60 PUSH2 0x2F5 DUP3 PUSH2 0x691 JUMP JUMPDEST PUSH2 0x334 JUMPI PUSH1 0x40 MLOAD PUSH32 0x8C379A000000000000000000000000000000000000000000000000000000000 DUP2 MSTORE PUSH1 0x4 ADD PUSH2 0x32B SWAP1 PUSH2 0xB46 JUMP JUMPDEST PUSH1 0x40 MLOAD DUP1 SWAP2 SUB SWAP1 REVERT JUMPDEST PUSH0 DUP1 PUSH0 CALLER PUSH20 0xFFFFFFFFFFFFFFFFFFFFFFFFFFFFFFFFFFFFFFFF AND PUSH20 0xFFFFFFFFFFFFFFFFFFFFFFFFFFFFFFFFFFFFFFFF AND DUP2 MSTORE PUSH1 0x20 ADD SWAP1 DUP2 MSTORE PUSH1 0x20 ADD PUSH0 KECCAK256 PUSH0 ADD DUP4 PUSH1 0x40 MLOAD PUSH2 0x381 SWAP2 SWAP1 PUSH2 0xB9E JUMP JUMPDEST SWAP1 DUP2 MSTORE PUSH1 0x20 ADD PUSH1 0x40 MLOAD DUP1 SWAP2 SUB SWAP1 KECCAK256 PUSH1 0x1 ADD DUP1 SLOAD SWAP1 POP PUSH8 0xFFFFFFFFFFFFFFFF DUP2 GT ISZERO PUSH2 0x3AF JUMPI PUSH2 0x3AE PUSH2 0x869 JUMP JUMPDEST JUMPDEST PUSH1 0x40 MLOAD SWAP1 DUP1 DUP3 MSTORE DUP1 PUSH1 0x20 MUL PUSH1 0x20 ADD DUP3 ADD PUSH1 0x40 MSTORE DUP1 ISZERO PUSH2 0x3E2 JUMPI DUP2 PUSH1 0x20 ADD JUMPDEST PUSH1 0x60 DUP2 MSTORE PUSH1 0x20 ADD SWAP1 PUSH1 0x1 SWAP1 SUB SWAP1 DUP2 PUSH2 0x3CD JUMPI SWAP1 POP JUMPDEST POP SWAP1 POP PUSH0 JUMPDEST DUP2 MLOAD DUP2 LT ISZERO PUSH2 0x51F JUMPI PUSH0 DUP1 CALLER PUSH20 0xFFFFFFFFFFFFFFFFFFFFFFFFFFFFFFFFFFFFFFFF AND PUSH20 0xFFFFFFFFFFFFFFFFFFFFFFFFFFFFFFFFFFFFFFFF AND DUP2 MSTORE PUSH1 0x20 ADD SWAP1 DUP2 MSTORE PUSH1 0x20 ADD PUSH0 KECCAK256 PUSH0 ADD DUP5 PUSH1 0x40 MLOAD PUSH2 0x43C SWAP2 SWAP1 PUSH2 0xB9E JUMP JUMPDEST SWAP1 DUP2 MSTORE PUSH1 0x20 ADD PUSH1 0x40 MLOAD DUP1 SWAP2 SUB SWAP1 KECCAK256 PUSH1 0x1 ADD DUP2 DUP2 SLOAD DUP2 LT PUSH2 0x45F JUMPI PUSH2 0x45E PUSH2 0xE20 JUMP JUMPDEST JUMPDEST SWAP1 PUSH0 MSTORE PUSH1 0x20 PUSH0 KECCAK256 SWAP1 PUSH1 0x2 MUL ADD PUSH0 ADD DUP1 SLOAD PUSH2 0x478 SWAP1 PUSH2 0xABC JUMP JUMPDEST DUP1 PUSH1 0x1F ADD PUSH1 0x20 DUP1 SWAP2 DIV MUL PUSH1 0x20 ADD PUSH1 0x40 MLOAD SWAP1 DUP2 ADD PUSH1 0x40 MSTORE DUP1 SWAP3 SWAP2 SWAP1 DUP2 DUP2 MSTORE PUSH1 0x20 ADD DUP3 DUP1 SLOAD PUSH2 0x4A4 SWAP1 PUSH2 0xABC JUMP JUMPDEST DUP1 ISZERO PUSH2 0x4EF JUMPI DUP1 PUSH1 0x1F LT PUSH2 0x4C6 JUMPI PUSH2 0x100 DUP1 DUP4 SLOAD DIV MUL DUP4 MSTORE SWAP2 PUSH1 0x20 ADD SWAP2 PUSH2 0x4EF JUMP JUMPDEST DUP3 ADD SWAP2 SWAP1 PUSH0 MSTORE PUSH1 0x20 PUSH0 KECCAK256 SWAP1 JUMPDEST DUP2 SLOAD DUP2 MSTORE SWAP1 PUSH1 0x1 ADD SWAP1 PUSH1 0x20 ADD DUP1 DUP4 GT PUSH2 0x4D2 JUMPI DUP3 SWAP1 SUB PUSH1 0x1F AND DUP3 ADD SWAP2 JUMPDEST POP POP POP POP POP DUP3 DUP3 DUP2 MLOAD DUP2 LT PUSH2 0x507 JUMPI PUSH2 0x506 PUSH2 0xE20 JUMP JUMPDEST JUMPDEST PUSH1 0x20 MUL PUSH1 0x20 ADD ADD DUP2 SWAP1 MSTORE POP DUP1 DUP1 PUSH1 0x1 ADD SWAP2 POP POP PUSH2 0x3E7 JUMP JUMPDEST POP DUP1 SWAP2 POP POP SWAP2 SWAP1 POP JUMP JUMPDEST PUSH2 0x532 DUP2 PUSH2 0x691 JUMP JUMPDEST ISZERO PUSH2 0x572 JUMPI PUSH1 0x40 MLOAD PUSH32 0x8C379A000000000000000000000000000000000000000000000000000000000 DUP2 MSTORE PUSH1 0x4 ADD PUSH2 0x569 SWAP1 PUSH2 0xEBD JUMP JUMPDEST PUSH1 0x40 MLOAD DUP1 SWAP2 SUB SWAP1 REVERT JUMPDEST PUSH0 DUP2 MLOAD GT PUSH2 0x5B5 JUMPI PUSH1 0x40 MLOAD PUSH32 0x8C379A000000000000000000000000000000000000000000000000000000000 DUP2 MSTORE PUSH1 0x4 ADD PUSH2 0x5AC SWAP1 PUSH2 0xF25 JUMP JUMPDEST PUSH1 0x40 MLOAD DUP1 SWAP2 SUB SWAP1 REVERT JUMPDEST PUSH0 DUP1 CALLER PUSH20 0xFFFFFFFFFFFFFFFFFFFFFFFFFFFFFFFFFFFFFFFF AND PUSH20 0xFFFFFFFFFFFFFFFFFFFFFFFFFFFFFFFFFFFFFFFF AND DUP2 MSTORE PUSH1 0x20 ADD SWAP1 DUP2 MSTORE PUSH1 0x20 ADD PUSH0 KECCAK256 PUSH1 0x1 ADD DUP2 SWAP1 DUP1 PUSH1 0x1 DUP2 SLOAD ADD DUP1 DUP3 SSTORE DUP1 SWAP2 POP POP PUSH1 0x1 SWAP1 SUB SWAP1 PUSH0 MSTORE PUSH1 0x20 PUSH0 KECCAK256 ADD PUSH0 SWAP1 SWAP2 SWAP1 SWAP2 SWAP1 SWAP2 POP SWAP1 DUP2 PUSH2 0x623 SWAP2 SWAP1 PUSH2 0xD51 JUMP JUMPDEST POP DUP1 PUSH0 DUP1 CALLER PUSH20 0xFFFFFFFFFFFFFFFFFFFFFFFFFFFFFFFFFFFFFFFF AND PUSH20 0xFFFFFFFFFFFFFFFFFFFFFFFFFFFFFFFFFFFFFFFF AND DUP2 MSTORE PUSH1 0x20 ADD SWAP1 DUP2 MSTORE PUSH1 0x20 ADD PUSH0 KECCAK256 PUSH0 ADD DUP3 PUSH1 0x40 MLOAD PUSH2 0x671 SWAP2 SWAP1 PUSH2 0xB9E JUMP JUMPDEST SWAP1 DUP2 MSTORE PUSH1 0x20 ADD PUSH1 0x40 MLOAD DUP1 SWAP2 SUB SWAP1 KECCAK256 PUSH0 ADD SWAP1 DUP2 PUSH2 0x68D SWAP2 SWAP1 PUSH2 0xD51 JUMP JUMPDEST POP POP JUMP JUMPDEST PUSH0 DUP1 PUSH0 DUP1 CALLER PUSH20 0xFFFFFFFFFFFFFFFFFFFFFFFFFFFFFFFFFFFFFFFF AND PUSH20 0xFFFFFFFFFFFFFFFFFFFFFFFFFFFFFFFFFFFFFFFF AND DUP2 MSTORE PUSH1 0x20 ADD SWAP1 DUP2 MSTORE PUSH1 0x20 ADD PUSH0 KECCAK256 PUSH0 ADD DUP4 PUSH1 0x40 MLOAD PUSH2 0x6DF SWAP2 SWAP1 PUSH2 0xB9E JUMP JUMPDEST SWAP1 DUP2 MSTORE PUSH1 0x20 ADD PUSH1 0x40 MLOAD DUP1 SWAP2 SUB SWAP1 KECCAK256 PUSH0 ADD DUP1 SLOAD PUSH2 0x6FA SWAP1 PUSH2 0xABC JUMP JUMPDEST SWAP1 POP EQ ISZERO SWAP1 POP SWAP2 SWAP1 POP JUMP JUMPDEST PUSH0 DUP2 MLOAD SWAP1 POP SWAP2 SWAP1 POP JUMP JUMPDEST PUSH0 DUP3 DUP3 MSTORE PUSH1 0x20 DUP3 ADD SWAP1 POP SWAP3 SWAP2 POP POP JUMP JUMPDEST PUSH0 DUP2 SWAP1 POP PUSH1 0x20 DUP3 ADD SWAP1 POP SWAP2 SWAP1 POP JUMP JUMPDEST PUSH0 DUP2 MLOAD SWAP1 POP SWAP2 SWAP1 POP JUMP JUMPDEST PUSH0 DUP3 DUP3 MSTORE PUSH1 0x20 DUP3 ADD SWAP1 POP SWAP3 SWAP2 POP POP JUMP JUMPDEST DUP3 DUP2 DUP4 MCOPY PUSH0 DUP4 DUP4 ADD MSTORE POP POP POP JUMP JUMPDEST PUSH0 PUSH1 0x1F NOT PUSH1 0x1F DUP4 ADD AND SWAP1 POP SWAP2 SWAP1 POP JUMP JUMPDEST PUSH0 PUSH2 0x770 DUP3 PUSH2 0x72E JUMP JUMPDEST PUSH2 0x77A DUP2 DUP6 PUSH2 0x738 JUMP JUMPDEST SWAP4 POP PUSH2 0x78A DUP2 DUP6 PUSH1 0x20 DUP7 ADD PUSH2 0x748 JUMP JUMPDEST PUSH2 0x793 DUP2 PUSH2 0x756 JUMP JUMPDEST DUP5 ADD SWAP2 POP POP SWAP3 SWAP2 POP POP JUMP JUMPDEST PUSH0 PUSH2 0x7A9 DUP4 DUP4 PUSH2 0x766 JUMP JUMPDEST SWAP1 POP SWAP3 SWAP2 POP POP JUMP JUMPDEST PUSH0 PUSH1 0x20 DUP3 ADD SWAP1 POP SWAP2 SWAP1 POP JUMP JUMPDEST PUSH0 PUSH2 0x7C7 DUP3 PUSH2 0x705 JUMP JUMPDEST PUSH2 0x7D1 DUP2 DUP6 PUSH2 0x70F JUMP JUMPDEST SWAP4 POP DUP4 PUSH1 0x20 DUP3 MUL DUP6 ADD PUSH2 0x7E3 DUP6 PUSH2 0x71F JUMP JUMPDEST DUP1 PUSH0 JUMPDEST DUP6 DUP2 LT ISZERO PUSH2 0x81E JUMPI DUP5 DUP5 SUB DUP10 MSTORE DUP2 MLOAD PUSH2 0x7FF DUP6 DUP3 PUSH2 0x79E JUMP JUMPDEST SWAP5 POP PUSH2 0x80A DUP4 PUSH2 0x7B1 JUMP JUMPDEST SWAP3 POP PUSH1 0x20 DUP11 ADD SWAP10 POP POP PUSH1 0x1 DUP2 ADD SWAP1 POP PUSH2 0x7E6 JUMP JUMPDEST POP DUP3 SWAP8 POP DUP8 SWAP6 POP POP POP POP POP POP SWAP3 SWAP2 POP POP JUMP JUMPDEST PUSH0 PUSH1 0x20 DUP3 ADD SWAP1 POP DUP2 DUP2 SUB PUSH0 DUP4 ADD MSTORE PUSH2 0x848 DUP2 DUP5 PUSH2 0x7BD JUMP JUMPDEST SWAP1 POP SWAP3 SWAP2 POP POP JUMP JUMPDEST PUSH0 PUSH1 0x40 MLOAD SWAP1 POP SWAP1 JUMP JUMPDEST PUSH0 DUP1 REVERT JUMPDEST PUSH0 DUP1 REVERT JUMPDEST PUSH0 DUP1 REVERT JUMPDEST PUSH0 DUP1 REVERT JUMPDEST PUSH32 0x4E487B7100000000000000000000000000000000000000000000000000000000 PUSH0 MSTORE PUSH1 0x41 PUSH1 0x4 MSTORE PUSH1 0x24 PUSH0 REVERT JUMPDEST PUSH2 0x89F DUP3 PUSH2 0x756 JUMP JUMPDEST DUP2 ADD DUP2 DUP2 LT PUSH8 0xFFFFFFFFFFFFFFFF DUP3 GT OR ISZERO PUSH2 0x8BE JUMPI PUSH2 0x8BD PUSH2 0x869 JUMP JUMPDEST JUMPDEST DUP1 PUSH1 0x40 MSTORE POP POP POP JUMP JUMPDEST PUSH0 PUSH2 0x8D0 PUSH2 0x850 JUMP JUMPDEST SWAP1 POP PUSH2 0x8DC DUP3 DUP3 PUSH2 0x896 JUMP JUMPDEST SWAP2 SWAP1 POP JUMP JUMPDEST PUSH0 PUSH8 0xFFFFFFFFFFFFFFFF DUP3 GT ISZERO PUSH2 0x8FB JUMPI PUSH2 0x8FA PUSH2 0x869 JUMP JUMPDEST JUMPDEST PUSH2 0x904 DUP3 PUSH2 0x756 JUMP JUMPDEST SWAP1 POP PUSH1 0x20 DUP2 ADD SWAP1 POP SWAP2 SWAP1 POP JUMP JUMPDEST DUP3 DUP2 DUP4 CALLDATACOPY PUSH0 DUP4 DUP4 ADD MSTORE POP POP POP JUMP JUMPDEST PUSH0 PUSH2 0x931 PUSH2 0x92C DUP5 PUSH2 0x8E1 JUMP JUMPDEST PUSH2 0x8C7 JUMP JUMPDEST SWAP1 POP DUP3 DUP2 MSTORE PUSH1 0x20 DUP2 ADD DUP5 DUP5 DUP5 ADD GT ISZERO PUSH2 0x94D JUMPI PUSH2 0x94C PUSH2 0x865 JUMP JUMPDEST JUMPDEST PUSH2 0x958 DUP5 DUP3 DUP6 PUSH2 0x911 JUMP JUMPDEST POP SWAP4 SWAP3 POP POP POP JUMP JUMPDEST PUSH0 DUP3 PUSH1 0x1F DUP4 ADD SLT PUSH2 0x974 JUMPI PUSH2 0x973 PUSH2 0x861 JUMP JUMPDEST JUMPDEST DUP2 CALLDATALOAD PUSH2 0x984 DUP5 DUP3 PUSH1 0x20 DUP7 ADD PUSH2 0x91F JUMP JUMPDEST SWAP2 POP POP SWAP3 SWAP2 POP POP JUMP JUMPDEST PUSH0 DUP2 SWAP1 POP SWAP2 SWAP1 POP JUMP JUMPDEST PUSH2 0x99F DUP2 PUSH2 0x98D JUMP JUMPDEST DUP2 EQ PUSH2 0x9A9 JUMPI PUSH0 DUP1 REVERT JUMPDEST POP JUMP JUMPDEST PUSH0 DUP2 CALLDATALOAD SWAP1 POP PUSH2 0x9BA DUP2 PUSH2 0x996 JUMP JUMPDEST SWAP3 SWAP2 POP POP JUMP JUMPDEST PUSH0 DUP1 PUSH0 PUSH1 0x60 DUP5 DUP7 SUB SLT ISZERO PUSH2 0x9D7 JUMPI PUSH2 0x9D6 PUSH2 0x859 JUMP JUMPDEST JUMPDEST PUSH0 DUP5 ADD CALLDATALOAD PUSH8 0xFFFFFFFFFFFFFFFF DUP2 GT ISZERO PUSH2 0x9F4 JUMPI PUSH2 0x9F3 PUSH2 0x85D JUMP JUMPDEST JUMPDEST PUSH2 0xA00 DUP7 DUP3 DUP8 ADD PUSH2 0x960 JUMP JUMPDEST SWAP4 POP POP PUSH1 0x20 DUP5 ADD CALLDATALOAD PUSH8 0xFFFFFFFFFFFFFFFF DUP2 GT ISZERO PUSH2 0xA21 JUMPI PUSH2 0xA20 PUSH2 0x85D JUMP JUMPDEST JUMPDEST PUSH2 0xA2D DUP7 DUP3 DUP8 ADD PUSH2 0x960 JUMP JUMPDEST SWAP3 POP POP PUSH1 0x40 PUSH2 0xA3E DUP7 DUP3 DUP8 ADD PUSH2 0x9AC JUMP JUMPDEST SWAP2 POP POP SWAP3 POP SWAP3 POP SWAP3 JUMP JUMPDEST PUSH0 PUSH1 0x20 DUP3 DUP5 SUB SLT ISZERO PUSH2 0xA5D JUMPI PUSH2 0xA5C PUSH2 0x859 JUMP JUMPDEST JUMPDEST PUSH0 DUP3 ADD CALLDATALOAD PUSH8 0xFFFFFFFFFFFFFFFF DUP2 GT ISZERO PUSH2 0xA7A JUMPI PUSH2 0xA79 PUSH2 0x85D JUMP JUMPDEST JUMPDEST PUSH2 0xA86 DUP5 DUP3 DUP6 ADD PUSH2 0x960 JUMP JUMPDEST SWAP2 POP POP SWAP3 SWAP2 POP POP JUMP JUMPDEST PUSH32 0x4E487B7100000000000000000000000000000000000000000000000000000000 PUSH0 MSTORE PUSH1 0x22 PUSH1 0x4 MSTORE PUSH1 0x24 PUSH0 REVERT JUMPDEST PUSH0 PUSH1 0x2 DUP3 DIV SWAP1 POP PUSH1 0x1 DUP3 AND DUP1 PUSH2 0xAD3 JUMPI PUSH1 0x7F DUP3 AND SWAP2 POP JUMPDEST PUSH1 0x20 DUP3 LT DUP2 SUB PUSH2 0xAE6 JUMPI PUSH2 0xAE5 PUSH2 0xA8F JUMP JUMPDEST JUMPDEST POP SWAP2 SWAP1 POP JUMP JUMPDEST PUSH0 DUP3 DUP3 MSTORE PUSH1 0x20 DUP3 ADD SWAP1 POP SWAP3 SWAP2 POP POP JUMP JUMPDEST PUSH32 0x4E6F206C69737420776974682074686973206E616D6520657869737473000000 PUSH0 DUP3 ADD MSTORE POP JUMP JUMPDEST PUSH0 PUSH2 0xB30 PUSH1 0x1D DUP4 PUSH2 0xAEC JUMP JUMPDEST SWAP2 POP PUSH2 0xB3B DUP3 PUSH2 0xAFC JUMP JUMPDEST PUSH1 0x20 DUP3 ADD SWAP1 POP SWAP2 SWAP1 POP JUMP JUMPDEST PUSH0 PUSH1 0x20 DUP3 ADD SWAP1 POP DUP2 DUP2 SUB PUSH0 DUP4 ADD MSTORE PUSH2 0xB5D DUP2 PUSH2 0xB24 JUMP JUMPDEST SWAP1 POP SWAP2 SWAP1 POP JUMP JUMPDEST PUSH0 DUP2 SWAP1 POP SWAP3 SWAP2 POP POP JUMP JUMPDEST PUSH0 PUSH2 0xB78 DUP3 PUSH2 0x72E JUMP JUMPDEST PUSH2 0xB82 DUP2 DUP6 PUSH2 0xB64 JUMP JUMPDEST SWAP4 POP PUSH2 0xB92 DUP2 DUP6 PUSH1 0x20 DUP7 ADD PUSH2 0x748 JUMP JUMPDEST DUP1 DUP5 ADD SWAP2 POP POP SWAP3 SWAP2 POP POP JUMP JUMPDEST PUSH0 PUSH2 0xBA9 DUP3 DUP5 PUSH2 0xB6E JUMP JUMPDEST SWAP2 POP DUP2 SWAP1 POP SWAP3 SWAP2 POP POP JUMP JUMPDEST PUSH0 DUP2 SWAP1 POP DUP2 PUSH0 MSTORE PUSH1 0x20 PUSH0 KECCAK256 SWAP1 POP SWAP2 SWAP1 POP JUMP JUMPDEST PUSH0 PUSH1 0x20 PUSH1 0x1F DUP4 ADD DIV SWAP1 POP SWAP2 SWAP1 POP JUMP JUMPDEST PUSH0 DUP3 DUP3 SHL SWAP1 POP SWAP3 SWAP2 POP POP JUMP JUMPDEST PUSH0 PUSH1 0x8 DUP4 MUL PUSH2 0xC10 PUSH32 0xFFFFFFFFFFFFFFFFFFFFFFFFFFFFFFFFFFFFFFFFFFFFFFFFFFFFFFFFFFFFFFFF DUP3 PUSH2 0xBD5 JUMP JUMPDEST PUSH2 0xC1A DUP7 DUP4 PUSH2 0xBD5 JUMP JUMPDEST SWAP6 POP DUP1 NOT DUP5 AND SWAP4 POP DUP1 DUP7 AND DUP5 OR SWAP3 POP POP POP SWAP4 SWAP3 POP POP POP JUMP JUMPDEST PUSH0 DUP2 SWAP1 POP SWAP2 SWAP1 POP JUMP JUMPDEST PUSH0 PUSH2 0xC55 PUSH2 0xC50 PUSH2 0xC4B DUP5 PUSH2 0x98D JUMP JUMPDEST PUSH2 0xC32 JUMP JUMPDEST PUSH2 0x98D JUMP JUMPDEST SWAP1 POP SWAP2 SWAP1 POP JUMP JUMPDEST PUSH0 DUP2 SWAP1 POP SWAP2 SWAP1 POP JUMP JUMPDEST PUSH2 0xC6E DUP4 PUSH2 0xC3B JUMP JUMPDEST PUSH2 0xC82 PUSH2 0xC7A DUP3 PUSH2 0xC5C JUMP JUMPDEST DUP5 DUP5 SLOAD PUSH2 0xBE1 JUMP JUMPDEST DUP3 SSTORE POP POP POP POP JUMP JUMPDEST PUSH0 SWAP1 JUMP JUMPDEST PUSH2 0xC96 PUSH2 0xC8A JUMP JUMPDEST PUSH2 0xCA1 DUP2 DUP5 DUP5 PUSH2 0xC65 JUMP JUMPDEST POP POP POP JUMP JUMPDEST JUMPDEST DUP2 DUP2 LT ISZERO PUSH2 0xCC4 JUMPI PUSH2 0xCB9 PUSH0 DUP3 PUSH2 0xC8E JUMP JUMPDEST PUSH1 0x1 DUP2 ADD SWAP1 POP PUSH2 0xCA7 JUMP JUMPDEST POP POP JUMP JUMPDEST PUSH1 0x1F DUP3 GT ISZERO PUSH2 0xD09 JUMPI PUSH2 0xCDA DUP2 PUSH2 0xBB4 JUMP JUMPDEST PUSH2 0xCE3 DUP5 PUSH2 0xBC6 JUMP JUMPDEST DUP2 ADD PUSH1 0x20 DUP6 LT ISZERO PUSH2 0xCF2 JUMPI DUP2 SWAP1 POP JUMPDEST PUSH2 0xD06 PUSH2 0xCFE DUP6 PUSH2 0xBC6 JUMP JUMPDEST DUP4 ADD DUP3 PUSH2 0xCA6 JUMP JUMPDEST POP POP JUMPDEST POP POP POP JUMP JUMPDEST PUSH0 DUP3 DUP3 SHR SWAP1 POP SWAP3 SWAP2 POP POP JUMP JUMPDEST PUSH0 PUSH2 0xD29 PUSH0 NOT DUP5 PUSH1 0x8 MUL PUSH2 0xD0E JUMP JUMPDEST NOT DUP1 DUP4 AND SWAP2 POP POP SWAP3 SWAP2 POP POP JUMP JUMPDEST PUSH0 PUSH2 0xD41 DUP4 DUP4 PUSH2 0xD1A JUMP JUMPDEST SWAP2 POP DUP3 PUSH1 0x2 MUL DUP3 OR SWAP1 POP SWAP3 SWAP2 POP POP JUMP JUMPDEST PUSH2 0xD5A DUP3 PUSH2 0x72E JUMP JUMPDEST PUSH8 0xFFFFFFFFFFFFFFFF DUP2 GT ISZERO PUSH2 0xD73 JUMPI PUSH2 0xD72 PUSH2 0x869 JUMP JUMPDEST JUMPDEST PUSH2 0xD7D DUP3 SLOAD PUSH2 0xABC JUMP JUMPDEST PUSH2 0xD88 DUP3 DUP3 DUP6 PUSH2 0xCC8 JUMP JUMPDEST PUSH0 PUSH1 0x20 SWAP1 POP PUSH1 0x1F DUP4 GT PUSH1 0x1 DUP2 EQ PUSH2 0xDB9 JUMPI PUSH0 DUP5 ISZERO PUSH2 0xDA7 JUMPI DUP3 DUP8 ADD MLOAD SWAP1 POP JUMPDEST PUSH2 0xDB1 DUP6 DUP3 PUSH2 0xD36 JUMP JUMPDEST DUP7 SSTORE POP PUSH2 0xE18 JUMP JUMPDEST PUSH1 0x1F NOT DUP5 AND PUSH2 0xDC7 DUP7 PUSH2 0xBB4 JUMP JUMPDEST PUSH0 JUMPDEST DUP3 DUP2 LT ISZERO PUSH2 0xDEE JUMPI DUP5 DUP10 ADD MLOAD DUP3 SSTORE PUSH1 0x1 DUP3 ADD SWAP2 POP PUSH1 0x20 DUP6 ADD SWAP5 POP PUSH1 0x20 DUP2 ADD SWAP1 POP PUSH2 0xDC9 JUMP JUMPDEST DUP7 DUP4 LT ISZERO PUSH2 0xE0B JUMPI DUP5 DUP10 ADD MLOAD PUSH2 0xE07 PUSH1 0x1F DUP10 AND DUP3 PUSH2 0xD1A JUMP JUMPDEST DUP4 SSTORE POP JUMPDEST PUSH1 0x1 PUSH1 0x2 DUP9 MUL ADD DUP9 SSTORE POP POP POP JUMPDEST POP POP POP POP POP POP JUMP JUMPDEST PUSH32 0x4E487B7100000000000000000000000000000000000000000000000000000000 PUSH0 MSTORE PUSH1 0x32 PUSH1 0x4 MSTORE PUSH1 0x24 PUSH0 REVERT JUMPDEST PUSH32 0x41206C69737420776974682074686973206E616D6520616C7265616479206578 PUSH0 DUP3 ADD MSTORE PUSH32 0x6973747300000000000000000000000000000000000000000000000000000000 PUSH1 0x20 DUP3 ADD MSTORE POP JUMP JUMPDEST PUSH0 PUSH2 0xEA7 PUSH1 0x24 DUP4 PUSH2 0xAEC JUMP JUMPDEST SWAP2 POP PUSH2 0xEB2 DUP3 PUSH2 0xE4D JUMP JUMPDEST PUSH1 0x40 DUP3 ADD SWAP1 POP SWAP2 SWAP1 POP JUMP JUMPDEST PUSH0 PUSH1 0x20 DUP3 ADD SWAP1 POP DUP2 DUP2 SUB PUSH0 DUP4 ADD MSTORE PUSH2 0xED4 DUP2 PUSH2 0xE9B JUMP JUMPDEST SWAP1 POP SWAP2 SWAP1 POP JUMP JUMPDEST PUSH32 0x4E616D652063616E6E6F7420626520656D707479000000000000000000000000 PUSH0 DUP3 ADD MSTORE POP JUMP JUMPDEST PUSH0 PUSH2 0xF0F PUSH1 0x14 DUP4 PUSH2 0xAEC JUMP JUMPDEST SWAP2 POP PUSH2 0xF1A DUP3 PUSH2 0xEDB JUMP JUMPDEST PUSH1 0x20 DUP3 ADD SWAP1 POP SWAP2 SWAP1 POP JUMP JUMPDEST PUSH0 PUSH1 0x20 DUP3 ADD SWAP1 POP DUP2 DUP2 SUB PUSH0 DUP4 ADD MSTORE PUSH2 0xF3C DUP2 PUSH2 0xF03 JUMP JUMPDEST SWAP1 POP SWAP2 SWAP1 POP JUMP INVALID LOG2 PUSH5 0x6970667358 0x22 SLT KECCAK256 CALLER 0xCF 0xD SLT 0xD3 0xEB STOP GASLIMIT JUMPDEST 0xBC 0xB0 DUP11 PREVRANDAO TLOAD DUP1 0xC7 0xC1 0xCB 0xD6 CALLER 0xBC BLOBHASH DUP11 SWAP2 0xEA 0xD5 0xB0 0x4E DUP5 0xB7 SWAP13 0xF7 PUSH5 0x736F6C6343 STOP ADDMOD BYTE STOP CALLER "
				},
				"gasEstimates": {
					"creation": {
						"codeDepositCost": "792200",
						"executionCost": "823",
						"totalCost": "793023"
					},
					"external": {
						"addItem(string,string,uint256)": "infinite",
						"createList(string)": "infinite",
						"getItemNames(string)": "infinite",
						"getListNames()": "infinite"
					},
					"internal": {
						"listExists(string memory)": "infinite"
					}
				},
				"methodIdentifiers": {
					"addItem(string,string,uint256)": "64432eb8",
					"createList(string)": "b8dcc68f",
					"getItemNames(string)": "7407285d",
					"getListNames()": "61769db2"
				}
			},
			"storageLayout": {
				"storage": [
					{
						"astId": 7,
						"contract": "advanced/Structs.sol:Structs",
						"label": "users",
						"offset": 0,
						"slot": "0",
						"type": "t_mapping(t_address,t_struct(User)17_storage)"
					}
				],
				"types": {
					"t_address": {
						"encoding": "inplace",
						"label": "address",
						"numberOfBytes": "20"
					},
					"t_array(t_string_storage)dyn_storage": {
						"base": "t_string_storage",
						"encoding": "dynamic_array",
						"label": "string[]",
						"numberOfBytes": "32"
					},
					"t_array(t_struct(Item)23_storage)dyn_storage": {
						"base": "t_struct(Item)23_storage",
						"encoding": "dynamic_array",
						"label": "struct Structs.Item[]",
						"numberOfBytes": "32"
					},
					"t_mapping(t_address,t_struct(User)17_storage)": {
						"encoding": "mapping",
						"key": "t_address",
						"label": "mapping(address => struct Structs.User)",
						"numberOfBytes": "32",
						"value": "t_struct(User)17_storage"
					},
					"t_mapping(t_string_memory_ptr,t_struct(List)31_storage)": {
						"encoding": "mapping",
						"key": "t_string_memory_ptr",
						"label": "mapping(string => struct Structs.List)",
						"numberOfBytes": "32",
						"value": "t_struct(List)31_storage"
					},
					"t_string_memory_ptr": {
						"encoding": "bytes",
						"label": "string",
						"numberOfBytes": "32"
					},
					"t_string_storage": {
						"encoding": "bytes",
						"label": "string",
						"numberOfBytes": "32"
					},
					"t_struct(Item)23_storage": {
						"encoding": "inplace",
						"label": "struct Structs.Item",
						"members": [
							{
								"astId": 20,
								"contract": "advanced/Structs.sol:Structs",
								"label": "name",
								"offset": 0,
								"slot": "0",
								"type": "t_string_storage"
							},
							{
								"astId": 22,
								"contract": "advanced/Structs.sol:Structs",
								"label": "quantity",
								"offset": 0,
								"slot": "1",
								"type": "t_uint256"
							}
						],
						"numberOfBytes": "64"
					},
					"t_struct(List)31_storage": {
						"encoding": "inplace",
						"label": "struct Structs.List",
						"members": [
							{
								"astId": 26,
								"contract": "advanced/Structs.sol:Structs",
								"label": "name",
								"offset": 0,
								"slot": "0",
								"type": "t_string_storage"
							},
							{
								"astId": 30,
								"contract": "advanced/Structs.sol:Structs",
								"label": "items",
								"offset": 0,
								"slot": "1",
								"type": "t_array(t_struct(Item)23_storage)dyn_storage"
							}
						],
						"numberOfBytes": "64"
					},
					"t_struct(User)17_storage": {
						"encoding": "inplace",
						"label": "struct Structs.User",
						"members": [
							{
								"astId": 13,
								"contract": "advanced/Structs.sol:Structs",
								"label": "lists",
								"offset": 0,
								"slot": "0",
								"type": "t_mapping(t_string_memory_ptr,t_struct(List)31_storage)"
							},
							{
								"astId": 16,
								"contract": "advanced/Structs.sol:Structs",
								"label": "listNames",
								"offset": 0,
								"slot": "1",
								"type": "t_array(t_string_storage)dyn_storage"
							}
						],
						"numberOfBytes": "64"
					},
					"t_uint256": {
						"encoding": "inplace",
						"label": "uint256",
						"numberOfBytes": "32"
					}
				}
			},
			"userdoc": {
				"kind": "user",
				"methods": {},
				"version": 1
			}
		}
	}
}