{
	"contracts/Conditional.sol": {
		"Contitional": {
			"abi": [
				{
					"inputs": [],
					"name": "changeEditState",
					"outputs": [],
					"stateMutability": "nonpayable",
					"type": "function"
				},
				{
					"inputs": [],
					"name": "changeReadState",
					"outputs": [],
					"stateMutability": "nonpayable",
					"type": "function"
				},
				{
					"inputs": [],
					"name": "getEdit",
					"outputs": [
						{
							"internalType": "bool",
							"name": "",
							"type": "bool"
						}
					],
					"stateMutability": "view",
					"type": "function"
				},
				{
					"inputs": [],
					"name": "getRead",
					"outputs": [
						{
							"internalType": "bool",
							"name": "",
							"type": "bool"
						}
					],
					"stateMutability": "view",
					"type": "function"
				}
			],
			"devdoc": {
				"kind": "dev",
				"methods": {
					"changeEditState()": {
						"details": "Public function to toggle the `canEdit` state. It switches the `canEdit` boolean value between `true` and `false`. If `canEdit` is `true`, calling this function will set it to `false` and vice versa. This function modifies the contract's state."
					},
					"changeReadState()": {
						"details": "Public function to toggle the `canRead` state. It switches the `canRead` boolean value between `true` and `false`. If `canRead` is `true`, calling this function will set it to `false` and vice versa. This function modifies the contract's state."
					},
					"getEdit()": {
						"details": "Public view function that returns the current state of `canEdit`. It indicates whether editing is allowed or not. As a `view` function, it does not modify the contract's state and is used for reading purposes only.",
						"returns": {
							"_0": "A boolean value representing the edit permission (`true` if editing is allowed, `false` otherwise)."
						}
					},
					"getRead()": {
						"details": "Public view function that returns the current state of `canRead`. It indicates whether reading is allowed or not. As a `view` function, it does not modify the contract's state and is used for reading purposes only.",
						"returns": {
							"_0": "A boolean value representing the read permission (`true` if reading is allowed, `false` otherwise)."
						}
					}
				},
				"version": 1
			},
			"evm": {
				"assembly": "    /* \"contracts/Conditional.sol\":65:2066  contract Contitional {... */\n  mstore(0x40, 0x80)\n    /* \"contracts/Conditional.sol\":204:208  true */\n  0x01\n    /* \"contracts/Conditional.sol\":181:208  bool private canEdit = true */\n  0x00\n  dup1\n  0x0100\n  exp\n  dup2\n  sload\n  dup2\n  0xff\n  mul\n  not\n  and\n  swap1\n  dup4\n  iszero\n  iszero\n  mul\n  or\n  swap1\n  sstore\n  pop\n    /* \"contracts/Conditional.sol\":327:331  true */\n  0x01\n    /* \"contracts/Conditional.sol\":304:331  bool private canRead = true */\n  0x00\n  exp(0x0100, 0x01)\n  dup2\n  sload\n  dup2\n  0xff\n  mul\n  not\n  and\n  swap1\n  dup4\n  iszero\n  iszero\n  mul\n  or\n  swap1\n  sstore\n  pop\n    /* \"contracts/Conditional.sol\":65:2066  contract Contitional {... */\n  callvalue\n  dup1\n  iszero\n  tag_1\n  jumpi\n  0x00\n  dup1\n  revert\ntag_1:\n  pop\n  dataSize(sub_0)\n  dup1\n  dataOffset(sub_0)\n  0x00\n  codecopy\n  0x00\n  return\nstop\n\nsub_0: assembly {\n        /* \"contracts/Conditional.sol\":65:2066  contract Contitional {... */\n      mstore(0x40, 0x80)\n      callvalue\n      dup1\n      iszero\n      tag_1\n      jumpi\n      0x00\n      dup1\n      revert\n    tag_1:\n      pop\n      jumpi(tag_2, lt(calldatasize, 0x04))\n      shr(0xe0, calldataload(0x00))\n      dup1\n      0x4b5671dc\n      eq\n      tag_3\n      jumpi\n      dup1\n      0x6ff2bf06\n      eq\n      tag_4\n      jumpi\n      dup1\n      0xeb3c673e\n      eq\n      tag_5\n      jumpi\n      dup1\n      0xf829d513\n      eq\n      tag_6\n      jumpi\n    tag_2:\n      0x00\n      dup1\n      revert\n        /* \"contracts/Conditional.sol\":1542:1653  function changeEditState() public {... */\n    tag_3:\n      tag_7\n      tag_8\n      jump\t// in\n    tag_7:\n      stop\n        /* \"contracts/Conditional.sol\":1165:1242  function getRead() public view returns (bool) {... */\n    tag_4:\n      tag_9\n      tag_10\n      jump\t// in\n    tag_9:\n      mload(0x40)\n      tag_11\n      swap2\n      swap1\n      tag_12\n      jump\t// in\n    tag_11:\n      mload(0x40)\n      dup1\n      swap2\n      sub\n      swap1\n      return\n        /* \"contracts/Conditional.sol\":710:787  function getEdit() public view returns (bool) {... */\n    tag_5:\n      tag_13\n      tag_14\n      jump\t// in\n    tag_13:\n      mload(0x40)\n      tag_15\n      swap2\n      swap1\n      tag_12\n      jump\t// in\n    tag_15:\n      mload(0x40)\n      dup1\n      swap2\n      sub\n      swap1\n      return\n        /* \"contracts/Conditional.sol\":1953:2064  function changeReadState() public {... */\n    tag_6:\n      tag_16\n      tag_17\n      jump\t// in\n    tag_16:\n      stop\n        /* \"contracts/Conditional.sol\":1542:1653  function changeEditState() public {... */\n    tag_8:\n        /* \"contracts/Conditional.sol\":1597:1604  canEdit */\n      0x00\n      dup1\n      sload\n      swap1\n      0x0100\n      exp\n      swap1\n      div\n      0xff\n      and\n        /* \"contracts/Conditional.sol\":1596:1604  !canEdit */\n      iszero\n        /* \"contracts/Conditional.sol\":1586:1593  canEdit */\n      0x00\n      dup1\n        /* \"contracts/Conditional.sol\":1586:1604  canEdit = !canEdit */\n      0x0100\n      exp\n      dup2\n      sload\n      dup2\n      0xff\n      mul\n      not\n      and\n      swap1\n      dup4\n      iszero\n      iszero\n      mul\n      or\n      swap1\n      sstore\n      pop\n        /* \"contracts/Conditional.sol\":1542:1653  function changeEditState() public {... */\n      jump\t// out\n        /* \"contracts/Conditional.sol\":1165:1242  function getRead() public view returns (bool) {... */\n    tag_10:\n        /* \"contracts/Conditional.sol\":1205:1209  bool */\n      0x00\n        /* \"contracts/Conditional.sol\":1228:1235  canRead */\n      dup1\n      0x01\n      swap1\n      sload\n      swap1\n      0x0100\n      exp\n      swap1\n      div\n      0xff\n      and\n        /* \"contracts/Conditional.sol\":1221:1235  return canRead */\n      swap1\n      pop\n        /* \"contracts/Conditional.sol\":1165:1242  function getRead() public view returns (bool) {... */\n      swap1\n      jump\t// out\n        /* \"contracts/Conditional.sol\":710:787  function getEdit() public view returns (bool) {... */\n    tag_14:\n        /* \"contracts/Conditional.sol\":750:754  bool */\n      0x00\n        /* \"contracts/Conditional.sol\":773:780  canEdit */\n      dup1\n      0x00\n      swap1\n      sload\n      swap1\n      0x0100\n      exp\n      swap1\n      div\n      0xff\n      and\n        /* \"contracts/Conditional.sol\":766:780  return canEdit */\n      swap1\n      pop\n        /* \"contracts/Conditional.sol\":710:787  function getEdit() public view returns (bool) {... */\n      swap1\n      jump\t// out\n        /* \"contracts/Conditional.sol\":1953:2064  function changeReadState() public {... */\n    tag_17:\n        /* \"contracts/Conditional.sol\":2008:2015  canRead */\n      0x00\n      0x01\n      swap1\n      sload\n      swap1\n      0x0100\n      exp\n      swap1\n      div\n      0xff\n      and\n        /* \"contracts/Conditional.sol\":2007:2015  !canRead */\n      iszero\n        /* \"contracts/Conditional.sol\":1997:2004  canRead */\n      0x00\n      0x01\n        /* \"contracts/Conditional.sol\":1997:2015  canRead = !canRead */\n      0x0100\n      exp\n      dup2\n      sload\n      dup2\n      0xff\n      mul\n      not\n      and\n      swap1\n      dup4\n      iszero\n      iszero\n      mul\n      or\n      swap1\n      sstore\n      pop\n        /* \"contracts/Conditional.sol\":1953:2064  function changeReadState() public {... */\n      jump\t// out\n        /* \"#utility.yul\":7:97   */\n    tag_22:\n        /* \"#utility.yul\":41:48   */\n      0x00\n        /* \"#utility.yul\":84:89   */\n      dup2\n        /* \"#utility.yul\":77:90   */\n      iszero\n        /* \"#utility.yul\":70:91   */\n      iszero\n        /* \"#utility.yul\":59:91   */\n      swap1\n      pop\n        /* \"#utility.yul\":7:97   */\n      swap2\n      swap1\n      pop\n      jump\t// out\n        /* \"#utility.yul\":103:212   */\n    tag_23:\n        /* \"#utility.yul\":184:205   */\n      tag_27\n        /* \"#utility.yul\":199:204   */\n      dup2\n        /* \"#utility.yul\":184:205   */\n      tag_22\n      jump\t// in\n    tag_27:\n        /* \"#utility.yul\":179:182   */\n      dup3\n        /* \"#utility.yul\":172:206   */\n      mstore\n        /* \"#utility.yul\":103:212   */\n      pop\n      pop\n      jump\t// out\n        /* \"#utility.yul\":218:428   */\n    tag_12:\n        /* \"#utility.yul\":305:309   */\n      0x00\n        /* \"#utility.yul\":343:345   */\n      0x20\n        /* \"#utility.yul\":332:341   */\n      dup3\n        /* \"#utility.yul\":328:346   */\n      add\n        /* \"#utility.yul\":320:346   */\n      swap1\n      pop\n        /* \"#utility.yul\":356:421   */\n      tag_29\n        /* \"#utility.yul\":418:419   */\n      0x00\n        /* \"#utility.yul\":407:416   */\n      dup4\n        /* \"#utility.yul\":403:420   */\n      add\n        /* \"#utility.yul\":394:400   */\n      dup5\n        /* \"#utility.yul\":356:421   */\n      tag_23\n      jump\t// in\n    tag_29:\n        /* \"#utility.yul\":218:428   */\n      swap3\n      swap2\n      pop\n      pop\n      jump\t// out\n\n    auxdata: 0xa26469706673582212204233ad2b69b660dd176b0af53144747c61e11748bbea0330d1b7eb5d17965db364736f6c634300081a0033\n}\n",
				"bytecode": {
					"linkReferences": {},
					"object": "608060405260015f806101000a81548160ff02191690831515021790555060015f60016101000a81548160ff0219169083151502179055503480156041575f80fd5b506101818061004f5f395ff3fe608060405234801561000f575f80fd5b506004361061004a575f3560e01c80634b5671dc1461004e5780636ff2bf0614610058578063eb3c673e14610076578063f829d51314610094575b5f80fd5b61005661009e565b005b6100606100c5565b60405161006d9190610132565b60405180910390f35b61007e6100da565b60405161008b9190610132565b60405180910390f35b61009c6100ee565b005b5f8054906101000a900460ff16155f806101000a81548160ff021916908315150217905550565b5f8060019054906101000a900460ff16905090565b5f805f9054906101000a900460ff16905090565b5f60019054906101000a900460ff16155f60016101000a81548160ff021916908315150217905550565b5f8115159050919050565b61012c81610118565b82525050565b5f6020820190506101455f830184610123565b9291505056fea26469706673582212204233ad2b69b660dd176b0af53144747c61e11748bbea0330d1b7eb5d17965db364736f6c634300081a0033",
					"opcodes": "PUSH1 0x80 PUSH1 0x40 MSTORE PUSH1 0x1 PUSH0 DUP1 PUSH2 0x100 EXP DUP2 SLOAD DUP2 PUSH1 0xFF MUL NOT AND SWAP1 DUP4 ISZERO ISZERO MUL OR SWAP1 SSTORE POP PUSH1 0x1 PUSH0 PUSH1 0x1 PUSH2 0x100 EXP DUP2 SLOAD DUP2 PUSH1 0xFF MUL NOT AND SWAP1 DUP4 ISZERO ISZERO MUL OR SWAP1 SSTORE POP CALLVALUE DUP1 ISZERO PUSH1 0x41 JUMPI PUSH0 DUP1 REVERT JUMPDEST POP PUSH2 0x181 DUP1 PUSH2 0x4F PUSH0 CODECOPY PUSH0 RETURN INVALID PUSH1 0x80 PUSH1 0x40 MSTORE CALLVALUE DUP1 ISZERO PUSH2 0xF JUMPI PUSH0 DUP1 REVERT JUMPDEST POP PUSH1 0x4 CALLDATASIZE LT PUSH2 0x4A JUMPI PUSH0 CALLDATALOAD PUSH1 0xE0 SHR DUP1 PUSH4 0x4B5671DC EQ PUSH2 0x4E JUMPI DUP1 PUSH4 0x6FF2BF06 EQ PUSH2 0x58 JUMPI DUP1 PUSH4 0xEB3C673E EQ PUSH2 0x76 JUMPI DUP1 PUSH4 0xF829D513 EQ PUSH2 0x94 JUMPI JUMPDEST PUSH0 DUP1 REVERT JUMPDEST PUSH2 0x56 PUSH2 0x9E JUMP JUMPDEST STOP JUMPDEST PUSH2 0x60 PUSH2 0xC5 JUMP JUMPDEST PUSH1 0x40 MLOAD PUSH2 0x6D SWAP2 SWAP1 PUSH2 0x132 JUMP JUMPDEST PUSH1 0x40 MLOAD DUP1 SWAP2 SUB SWAP1 RETURN JUMPDEST PUSH2 0x7E PUSH2 0xDA JUMP JUMPDEST PUSH1 0x40 MLOAD PUSH2 0x8B SWAP2 SWAP1 PUSH2 0x132 JUMP JUMPDEST PUSH1 0x40 MLOAD DUP1 SWAP2 SUB SWAP1 RETURN JUMPDEST PUSH2 0x9C PUSH2 0xEE JUMP JUMPDEST STOP JUMPDEST PUSH0 DUP1 SLOAD SWAP1 PUSH2 0x100 EXP SWAP1 DIV PUSH1 0xFF AND ISZERO PUSH0 DUP1 PUSH2 0x100 EXP DUP2 SLOAD DUP2 PUSH1 0xFF MUL NOT AND SWAP1 DUP4 ISZERO ISZERO MUL OR SWAP1 SSTORE POP JUMP JUMPDEST PUSH0 DUP1 PUSH1 0x1 SWAP1 SLOAD SWAP1 PUSH2 0x100 EXP SWAP1 DIV PUSH1 0xFF AND SWAP1 POP SWAP1 JUMP JUMPDEST PUSH0 DUP1 PUSH0 SWAP1 SLOAD SWAP1 PUSH2 0x100 EXP SWAP1 DIV PUSH1 0xFF AND SWAP1 POP SWAP1 JUMP JUMPDEST PUSH0 PUSH1 0x1 SWAP1 SLOAD SWAP1 PUSH2 0x100 EXP SWAP1 DIV PUSH1 0xFF AND ISZERO PUSH0 PUSH1 0x1 PUSH2 0x100 EXP DUP2 SLOAD DUP2 PUSH1 0xFF MUL NOT AND SWAP1 DUP4 ISZERO ISZERO MUL OR SWAP1 SSTORE POP JUMP JUMPDEST PUSH0 DUP2 ISZERO ISZERO SWAP1 POP SWAP2 SWAP1 POP JUMP JUMPDEST PUSH2 0x12C DUP2 PUSH2 0x118 JUMP JUMPDEST DUP3 MSTORE POP POP JUMP JUMPDEST PUSH0 PUSH1 0x20 DUP3 ADD SWAP1 POP PUSH2 0x145 PUSH0 DUP4 ADD DUP5 PUSH2 0x123 JUMP JUMPDEST SWAP3 SWAP2 POP POP JUMP INVALID LOG2 PUSH5 0x6970667358 0x22 SLT KECCAK256 TIMESTAMP CALLER 0xAD 0x2B PUSH10 0xB660DD176B0AF5314474 PUSH29 0x61E11748BBEA0330D1B7EB5D17965DB364736F6C634300081A00330000 "
				},
				"gasEstimates": {
					"creation": {
						"codeDepositCost": "77000",
						"executionCost": "48709",
						"totalCost": "125709"
					},
					"external": {
						"changeEditState()": "26522",
						"changeReadState()": "26691",
						"getEdit()": "2495",
						"getRead()": "2524"
					}
				},
				"methodIdentifiers": {
					"changeEditState()": "4b5671dc",
					"changeReadState()": "f829d513",
					"getEdit()": "eb3c673e",
					"getRead()": "6ff2bf06"
				}
			},
			"storageLayout": {
				"storage": [
					{
						"astId": 4,
						"contract": "contracts/Conditional.sol:Contitional",
						"label": "canEdit",
						"offset": 0,
						"slot": "0",
						"type": "t_bool"
					},
					{
						"astId": 7,
						"contract": "contracts/Conditional.sol:Contitional",
						"label": "canRead",
						"offset": 1,
						"slot": "0",
						"type": "t_bool"
					}
				],
				"types": {
					"t_bool": {
						"encoding": "inplace",
						"label": "bool",
						"numberOfBytes": "1"
					}
				}
			},
			"userdoc": {
				"kind": "user",
				"methods": {},
				"version": 1
			}
		}
	}
}