{
	"contracts/GlobalKeywords.sol": {
		"GlobalKeywords": {
			"abi": [
				{
					"inputs": [],
					"name": "getBalance",
					"outputs": [
						{
							"internalType": "uint256",
							"name": "",
							"type": "uint256"
						}
					],
					"stateMutability": "view",
					"type": "function"
				},
				{
					"inputs": [],
					"name": "viewBlockNumber",
					"outputs": [
						{
							"internalType": "uint256",
							"name": "",
							"type": "uint256"
						}
					],
					"stateMutability": "view",
					"type": "function"
				},
				{
					"inputs": [],
					"name": "viewGasLimit",
					"outputs": [
						{
							"internalType": "uint256",
							"name": "",
							"type": "uint256"
						}
					],
					"stateMutability": "view",
					"type": "function"
				},
				{
					"inputs": [],
					"name": "viewMessage",
					"outputs": [
						{
							"internalType": "address",
							"name": "",
							"type": "address"
						}
					],
					"stateMutability": "view",
					"type": "function"
				}
			],
			"devdoc": {
				"kind": "dev",
				"methods": {
					"getBalance()": {
						"details": "This function uses the `this` keyword to refer to the current contract instance. The `this` keyword, when combined with `address(this)`, returns the address of the current contract. `address(this).balance` retrieves the current Ether balance of the contract.",
						"returns": {
							"_0": "The Ether balance of the contract."
						}
					},
					"viewBlockNumber()": {
						"details": "This function uses the `block` keyword to access blockchain properties. `block.number` is a global variable that returns the number of the current block in the blockchain. This can be used to measure time or determine the order of transactions.",
						"returns": {
							"_0": "The current block number."
						}
					},
					"viewGasLimit()": {
						"details": "This function also uses the `block` keyword to access the current block's gas limit. `block.gaslimit` is a global variable that returns the gas limit of the current block. It is useful for understanding the current constraints on gas usage for transactions in the block.",
						"returns": {
							"_0": "The gas limit of the current block."
						}
					},
					"viewMessage()": {
						"details": "This function uses the `msg` keyword to access the message sender's address. `msg.sender` is a global variable that represents the address of the account that called the function. It is commonly used for authentication and access control.",
						"returns": {
							"_0": "The address of the caller (transaction sender)."
						}
					}
				},
				"version": 1
			},
			"evm": {
				"assembly": "    /* \"contracts/GlobalKeywords.sol\":65:1871  contract GlobalKeywords {... */\n  mstore(0x40, 0x80)\n  callvalue\n  dup1\n  iszero\n  tag_1\n  jumpi\n  0x00\n  dup1\n  revert\ntag_1:\n  pop\n  dataSize(sub_0)\n  dup1\n  dataOffset(sub_0)\n  0x00\n  codecopy\n  0x00\n  return\nstop\n\nsub_0: assembly {\n        /* \"contracts/GlobalKeywords.sol\":65:1871  contract GlobalKeywords {... */\n      mstore(0x40, 0x80)\n      callvalue\n      dup1\n      iszero\n      tag_1\n      jumpi\n      0x00\n      dup1\n      revert\n    tag_1:\n      pop\n      jumpi(tag_2, lt(calldatasize, 0x04))\n      shr(0xe0, calldataload(0x00))\n      dup1\n      0x12065fe0\n      eq\n      tag_3\n      jumpi\n      dup1\n      0x191384d1\n      eq\n      tag_4\n      jumpi\n      dup1\n      0x6901ae58\n      eq\n      tag_5\n      jumpi\n      dup1\n      0x85f69112\n      eq\n      tag_6\n      jumpi\n    tag_2:\n      0x00\n      dup1\n      revert\n        /* \"contracts/GlobalKeywords.sol\":446:543  function getBalance() public view returns (uint256) {... */\n    tag_3:\n      tag_7\n      tag_8\n      jump\t// in\n    tag_7:\n      mload(0x40)\n      tag_9\n      swap2\n      swap1\n      tag_10\n      jump\t// in\n    tag_9:\n      mload(0x40)\n      dup1\n      swap2\n      sub\n      swap1\n      return\n        /* \"contracts/GlobalKeywords.sol\":893:980  function viewMessage() public view returns (address) {... */\n    tag_4:\n      tag_11\n      tag_12\n      jump\t// in\n    tag_11:\n      mload(0x40)\n      tag_13\n      swap2\n      swap1\n      tag_14\n      jump\t// in\n    tag_13:\n      mload(0x40)\n      dup1\n      swap2\n      sub\n      swap1\n      return\n        /* \"contracts/GlobalKeywords.sol\":1314:1407  function viewBlockNumber() public view returns (uint256) {... */\n    tag_5:\n      tag_15\n      tag_16\n      jump\t// in\n    tag_15:\n      mload(0x40)\n      tag_17\n      swap2\n      swap1\n      tag_10\n      jump\t// in\n    tag_17:\n      mload(0x40)\n      dup1\n      swap2\n      sub\n      swap1\n      return\n        /* \"contracts/GlobalKeywords.sol\":1777:1869  function viewGasLimit() public view returns (uint256) {... */\n    tag_6:\n      tag_18\n      tag_19\n      jump\t// in\n    tag_18:\n      mload(0x40)\n      tag_20\n      swap2\n      swap1\n      tag_10\n      jump\t// in\n    tag_20:\n      mload(0x40)\n      dup1\n      swap2\n      sub\n      swap1\n      return\n        /* \"contracts/GlobalKeywords.sol\":446:543  function getBalance() public view returns (uint256) {... */\n    tag_8:\n        /* \"contracts/GlobalKeywords.sol\":489:496  uint256 */\n      0x00\n        /* \"contracts/GlobalKeywords.sol\":515:536  address(this).balance */\n      selfbalance\n        /* \"contracts/GlobalKeywords.sol\":508:536  return address(this).balance */\n      swap1\n      pop\n        /* \"contracts/GlobalKeywords.sol\":446:543  function getBalance() public view returns (uint256) {... */\n      swap1\n      jump\t// out\n        /* \"contracts/GlobalKeywords.sol\":893:980  function viewMessage() public view returns (address) {... */\n    tag_12:\n        /* \"contracts/GlobalKeywords.sol\":937:944  address */\n      0x00\n        /* \"contracts/GlobalKeywords.sol\":963:973  msg.sender */\n      caller\n        /* \"contracts/GlobalKeywords.sol\":956:973  return msg.sender */\n      swap1\n      pop\n        /* \"contracts/GlobalKeywords.sol\":893:980  function viewMessage() public view returns (address) {... */\n      swap1\n      jump\t// out\n        /* \"contracts/GlobalKeywords.sol\":1314:1407  function viewBlockNumber() public view returns (uint256) {... */\n    tag_16:\n        /* \"contracts/GlobalKeywords.sol\":1362:1369  uint256 */\n      0x00\n        /* \"contracts/GlobalKeywords.sol\":1388:1400  block.number */\n      number\n        /* \"contracts/GlobalKeywords.sol\":1381:1400  return block.number */\n      swap1\n      pop\n        /* \"contracts/GlobalKeywords.sol\":1314:1407  function viewBlockNumber() public view returns (uint256) {... */\n      swap1\n      jump\t// out\n        /* \"contracts/GlobalKeywords.sol\":1777:1869  function viewGasLimit() public view returns (uint256) {... */\n    tag_19:\n        /* \"contracts/GlobalKeywords.sol\":1822:1829  uint256 */\n      0x00\n        /* \"contracts/GlobalKeywords.sol\":1848:1862  block.gaslimit */\n      gaslimit\n        /* \"contracts/GlobalKeywords.sol\":1841:1862  return block.gaslimit */\n      swap1\n      pop\n        /* \"contracts/GlobalKeywords.sol\":1777:1869  function viewGasLimit() public view returns (uint256) {... */\n      swap1\n      jump\t// out\n        /* \"#utility.yul\":7:84   */\n    tag_25:\n        /* \"#utility.yul\":44:51   */\n      0x00\n        /* \"#utility.yul\":73:78   */\n      dup2\n        /* \"#utility.yul\":62:78   */\n      swap1\n      pop\n        /* \"#utility.yul\":7:84   */\n      swap2\n      swap1\n      pop\n      jump\t// out\n        /* \"#utility.yul\":90:208   */\n    tag_26:\n        /* \"#utility.yul\":177:201   */\n      tag_33\n        /* \"#utility.yul\":195:200   */\n      dup2\n        /* \"#utility.yul\":177:201   */\n      tag_25\n      jump\t// in\n    tag_33:\n        /* \"#utility.yul\":172:175   */\n      dup3\n        /* \"#utility.yul\":165:202   */\n      mstore\n        /* \"#utility.yul\":90:208   */\n      pop\n      pop\n      jump\t// out\n        /* \"#utility.yul\":214:436   */\n    tag_10:\n        /* \"#utility.yul\":307:311   */\n      0x00\n        /* \"#utility.yul\":345:347   */\n      0x20\n        /* \"#utility.yul\":334:343   */\n      dup3\n        /* \"#utility.yul\":330:348   */\n      add\n        /* \"#utility.yul\":322:348   */\n      swap1\n      pop\n        /* \"#utility.yul\":358:429   */\n      tag_35\n        /* \"#utility.yul\":426:427   */\n      0x00\n        /* \"#utility.yul\":415:424   */\n      dup4\n        /* \"#utility.yul\":411:428   */\n      add\n        /* \"#utility.yul\":402:408   */\n      dup5\n        /* \"#utility.yul\":358:429   */\n      tag_26\n      jump\t// in\n    tag_35:\n        /* \"#utility.yul\":214:436   */\n      swap3\n      swap2\n      pop\n      pop\n      jump\t// out\n        /* \"#utility.yul\":442:568   */\n    tag_27:\n        /* \"#utility.yul\":479:486   */\n      0x00\n        /* \"#utility.yul\":519:561   */\n      0xffffffffffffffffffffffffffffffffffffffff\n        /* \"#utility.yul\":512:517   */\n      dup3\n        /* \"#utility.yul\":508:562   */\n      and\n        /* \"#utility.yul\":497:562   */\n      swap1\n      pop\n        /* \"#utility.yul\":442:568   */\n      swap2\n      swap1\n      pop\n      jump\t// out\n        /* \"#utility.yul\":574:670   */\n    tag_28:\n        /* \"#utility.yul\":611:618   */\n      0x00\n        /* \"#utility.yul\":640:664   */\n      tag_38\n        /* \"#utility.yul\":658:663   */\n      dup3\n        /* \"#utility.yul\":640:664   */\n      tag_27\n      jump\t// in\n    tag_38:\n        /* \"#utility.yul\":629:664   */\n      swap1\n      pop\n        /* \"#utility.yul\":574:670   */\n      swap2\n      swap1\n      pop\n      jump\t// out\n        /* \"#utility.yul\":676:794   */\n    tag_29:\n        /* \"#utility.yul\":763:787   */\n      tag_40\n        /* \"#utility.yul\":781:786   */\n      dup2\n        /* \"#utility.yul\":763:787   */\n      tag_28\n      jump\t// in\n    tag_40:\n        /* \"#utility.yul\":758:761   */\n      dup3\n        /* \"#utility.yul\":751:788   */\n      mstore\n        /* \"#utility.yul\":676:794   */\n      pop\n      pop\n      jump\t// out\n        /* \"#utility.yul\":800:1022   */\n    tag_14:\n        /* \"#utility.yul\":893:897   */\n      0x00\n        /* \"#utility.yul\":931:933   */\n      0x20\n        /* \"#utility.yul\":920:929   */\n      dup3\n        /* \"#utility.yul\":916:934   */\n      add\n        /* \"#utility.yul\":908:934   */\n      swap1\n      pop\n        /* \"#utility.yul\":944:1015   */\n      tag_42\n        /* \"#utility.yul\":1012:1013   */\n      0x00\n        /* \"#utility.yul\":1001:1010   */\n      dup4\n        /* \"#utility.yul\":997:1014   */\n      add\n        /* \"#utility.yul\":988:994   */\n      dup5\n        /* \"#utility.yul\":944:1015   */\n      tag_29\n      jump\t// in\n    tag_42:\n        /* \"#utility.yul\":800:1022   */\n      swap3\n      swap2\n      pop\n      pop\n      jump\t// out\n\n    auxdata: 0xa2646970667358221220a4bc6715ab485c47aee92255fc24b10a973aef5187b4995c68dc76c83eb9486a64736f6c634300081a0033\n}\n",
				"bytecode": {
					"linkReferences": {},
					"object": "6080604052348015600e575f80fd5b506101a18061001c5f395ff3fe608060405234801561000f575f80fd5b506004361061004a575f3560e01c806312065fe01461004e578063191384d11461006c5780636901ae581461008a57806385f69112146100a8575b5f80fd5b6100566100c6565b60405161006391906100fa565b60405180910390f35b6100746100cd565b6040516100819190610152565b60405180910390f35b6100926100d4565b60405161009f91906100fa565b60405180910390f35b6100b06100db565b6040516100bd91906100fa565b60405180910390f35b5f47905090565b5f33905090565b5f43905090565b5f45905090565b5f819050919050565b6100f4816100e2565b82525050565b5f60208201905061010d5f8301846100eb565b92915050565b5f73ffffffffffffffffffffffffffffffffffffffff82169050919050565b5f61013c82610113565b9050919050565b61014c81610132565b82525050565b5f6020820190506101655f830184610143565b9291505056fea2646970667358221220a4bc6715ab485c47aee92255fc24b10a973aef5187b4995c68dc76c83eb9486a64736f6c634300081a0033",
					"opcodes": "PUSH1 0x80 PUSH1 0x40 MSTORE CALLVALUE DUP1 ISZERO PUSH1 0xE JUMPI PUSH0 DUP1 REVERT JUMPDEST POP PUSH2 0x1A1 DUP1 PUSH2 0x1C PUSH0 CODECOPY PUSH0 RETURN INVALID PUSH1 0x80 PUSH1 0x40 MSTORE CALLVALUE DUP1 ISZERO PUSH2 0xF JUMPI PUSH0 DUP1 REVERT JUMPDEST POP PUSH1 0x4 CALLDATASIZE LT PUSH2 0x4A JUMPI PUSH0 CALLDATALOAD PUSH1 0xE0 SHR DUP1 PUSH4 0x12065FE0 EQ PUSH2 0x4E JUMPI DUP1 PUSH4 0x191384D1 EQ PUSH2 0x6C JUMPI DUP1 PUSH4 0x6901AE58 EQ PUSH2 0x8A JUMPI DUP1 PUSH4 0x85F69112 EQ PUSH2 0xA8 JUMPI JUMPDEST PUSH0 DUP1 REVERT JUMPDEST PUSH2 0x56 PUSH2 0xC6 JUMP JUMPDEST PUSH1 0x40 MLOAD PUSH2 0x63 SWAP2 SWAP1 PUSH2 0xFA JUMP JUMPDEST PUSH1 0x40 MLOAD DUP1 SWAP2 SUB SWAP1 RETURN JUMPDEST PUSH2 0x74 PUSH2 0xCD JUMP JUMPDEST PUSH1 0x40 MLOAD PUSH2 0x81 SWAP2 SWAP1 PUSH2 0x152 JUMP JUMPDEST PUSH1 0x40 MLOAD DUP1 SWAP2 SUB SWAP1 RETURN JUMPDEST PUSH2 0x92 PUSH2 0xD4 JUMP JUMPDEST PUSH1 0x40 MLOAD PUSH2 0x9F SWAP2 SWAP1 PUSH2 0xFA JUMP JUMPDEST PUSH1 0x40 MLOAD DUP1 SWAP2 SUB SWAP1 RETURN JUMPDEST PUSH2 0xB0 PUSH2 0xDB JUMP JUMPDEST PUSH1 0x40 MLOAD PUSH2 0xBD SWAP2 SWAP1 PUSH2 0xFA JUMP JUMPDEST PUSH1 0x40 MLOAD DUP1 SWAP2 SUB SWAP1 RETURN JUMPDEST PUSH0 SELFBALANCE SWAP1 POP SWAP1 JUMP JUMPDEST PUSH0 CALLER SWAP1 POP SWAP1 JUMP JUMPDEST PUSH0 NUMBER SWAP1 POP SWAP1 JUMP JUMPDEST PUSH0 GASLIMIT SWAP1 POP SWAP1 JUMP JUMPDEST PUSH0 DUP2 SWAP1 POP SWAP2 SWAP1 POP JUMP JUMPDEST PUSH2 0xF4 DUP2 PUSH2 0xE2 JUMP JUMPDEST DUP3 MSTORE POP POP JUMP JUMPDEST PUSH0 PUSH1 0x20 DUP3 ADD SWAP1 POP PUSH2 0x10D PUSH0 DUP4 ADD DUP5 PUSH2 0xEB JUMP JUMPDEST SWAP3 SWAP2 POP POP JUMP JUMPDEST PUSH0 PUSH20 0xFFFFFFFFFFFFFFFFFFFFFFFFFFFFFFFFFFFFFFFF DUP3 AND SWAP1 POP SWAP2 SWAP1 POP JUMP JUMPDEST PUSH0 PUSH2 0x13C DUP3 PUSH2 0x113 JUMP JUMPDEST SWAP1 POP SWAP2 SWAP1 POP JUMP JUMPDEST PUSH2 0x14C DUP2 PUSH2 0x132 JUMP JUMPDEST DUP3 MSTORE POP POP JUMP JUMPDEST PUSH0 PUSH1 0x20 DUP3 ADD SWAP1 POP PUSH2 0x165 PUSH0 DUP4 ADD DUP5 PUSH2 0x143 JUMP JUMPDEST SWAP3 SWAP2 POP POP JUMP INVALID LOG2 PUSH5 0x6970667358 0x22 SLT KECCAK256 LOG4 0xBC PUSH8 0x15AB485C47AEE922 SSTORE 0xFC 0x24 0xB1 EXP SWAP8 GASPRICE 0xEF MLOAD DUP8 0xB4 SWAP10 TLOAD PUSH9 0xDC76C83EB9486A6473 PUSH16 0x6C634300081A00330000000000000000 "
				},
				"gasEstimates": {
					"creation": {
						"codeDepositCost": "83400",
						"executionCost": "133",
						"totalCost": "83533"
					},
					"external": {
						"getBalance()": "312",
						"viewBlockNumber()": "353",
						"viewGasLimit()": "375",
						"viewMessage()": "379"
					}
				},
				"methodIdentifiers": {
					"getBalance()": "12065fe0",
					"viewBlockNumber()": "6901ae58",
					"viewGasLimit()": "85f69112",
					"viewMessage()": "191384d1"
				}
			},
			"storageLayout": {
				"storage": [],
				"types": null
			},
			"userdoc": {
				"kind": "user",
				"methods": {},
				"version": 1
			}
		}
	}
}