{
	"data": {
		"bytecode": {
			"linkReferences": {},
			"object": "60806040526040518060a00160405280600160ff168152602001600260ff168152602001600460ff168152602001600560ff168152602001600660ff168152505f906005604c929190605c565b503480156057575f80fd5b5060b5565b8260058101928215608d579160200282015b82811115608c578251829060ff16905591602001919060010190606e565b5b50905060989190609c565b5090565b5b8082111560b1575f815f905550600101609d565b5090565b610335806100c25f395ff3fe608060405234801561000f575f80fd5b506004361061007b575f3560e01c80634cc82215116100595780634cc82215146100e9578063a4ece52c14610105578063d60293591461010f578063f8a8fd6d1461013f5761007b565b80631003e2d21461007f57806312399d881461009b5780631f7b6d32146100cb575b5f80fd5b61009960048036038101906100949190610252565b610149565b005b6100b560048036038101906100b09190610252565b610172565b6040516100c2919061028c565b60405180910390f35b6100d361018a565b6040516100e0919061028c565b60405180910390f35b61010360048036038101906100fe9190610252565b610196565b005b61010d6101b0565b005b61012960048036038101906101249190610252565b6101d7565b604051610136919061028c565b60405180910390f35b6101476101f7565b005b600581908060018154018082558091505060019003905f5260205f20015f909190919091505550565b5f8160058110610180575f80fd5b015f915090505481565b5f600580549050905090565b5f81600581106101a9576101a86102a5565b5b015f905550565b60058054806101c2576101c16102d2565b5b600190038181905f5260205f20015f90559055565b600581815481106101e6575f80fd5b905f5260205f20015f915090505481565b5f604051806060016040528060018152602001600281526020016003815250905050565b5f80fd5b5f819050919050565b6102318161021f565b811461023b575f80fd5b50565b5f8135905061024c81610228565b92915050565b5f602082840312156102675761026661021b565b5b5f6102748482850161023e565b91505092915050565b6102868161021f565b82525050565b5f60208201905061029f5f83018461027d565b92915050565b7f4e487b71000000000000000000000000000000000000000000000000000000005f52603260045260245ffd5b7f4e487b71000000000000000000000000000000000000000000000000000000005f52603160045260245ffdfea2646970667358221220bd643f36674281a1563a476618fedc618d40f5d14c459d205971c1b809a08c7264736f6c634300081a0033",
			"opcodes": "PUSH1 0x80 PUSH1 0x40 MSTORE PUSH1 0x40 MLOAD DUP1 PUSH1 0xA0 ADD PUSH1 0x40 MSTORE DUP1 PUSH1 0x1 PUSH1 0xFF AND DUP2 MSTORE PUSH1 0x20 ADD PUSH1 0x2 PUSH1 0xFF AND DUP2 MSTORE PUSH1 0x20 ADD PUSH1 0x4 PUSH1 0xFF AND DUP2 MSTORE PUSH1 0x20 ADD PUSH1 0x5 PUSH1 0xFF AND DUP2 MSTORE PUSH1 0x20 ADD PUSH1 0x6 PUSH1 0xFF AND DUP2 MSTORE POP PUSH0 SWAP1 PUSH1 0x5 PUSH1 0x4C SWAP3 SWAP2 SWAP1 PUSH1 0x5C JUMP JUMPDEST POP CALLVALUE DUP1 ISZERO PUSH1 0x57 JUMPI PUSH0 DUP1 REVERT JUMPDEST POP PUSH1 0xB5 JUMP JUMPDEST DUP3 PUSH1 0x5 DUP2 ADD SWAP3 DUP3 ISZERO PUSH1 0x8D JUMPI SWAP2 PUSH1 0x20 MUL DUP3 ADD JUMPDEST DUP3 DUP2 GT ISZERO PUSH1 0x8C JUMPI DUP3 MLOAD DUP3 SWAP1 PUSH1 0xFF AND SWAP1 SSTORE SWAP2 PUSH1 0x20 ADD SWAP2 SWAP1 PUSH1 0x1 ADD SWAP1 PUSH1 0x6E JUMP JUMPDEST JUMPDEST POP SWAP1 POP PUSH1 0x98 SWAP2 SWAP1 PUSH1 0x9C JUMP JUMPDEST POP SWAP1 JUMP JUMPDEST JUMPDEST DUP1 DUP3 GT ISZERO PUSH1 0xB1 JUMPI PUSH0 DUP2 PUSH0 SWAP1 SSTORE POP PUSH1 0x1 ADD PUSH1 0x9D JUMP JUMPDEST POP SWAP1 JUMP JUMPDEST PUSH2 0x335 DUP1 PUSH2 0xC2 PUSH0 CODECOPY PUSH0 RETURN INVALID PUSH1 0x80 PUSH1 0x40 MSTORE CALLVALUE DUP1 ISZERO PUSH2 0xF JUMPI PUSH0 DUP1 REVERT JUMPDEST POP PUSH1 0x4 CALLDATASIZE LT PUSH2 0x7B JUMPI PUSH0 CALLDATALOAD PUSH1 0xE0 SHR DUP1 PUSH4 0x4CC82215 GT PUSH2 0x59 JUMPI DUP1 PUSH4 0x4CC82215 EQ PUSH2 0xE9 JUMPI DUP1 PUSH4 0xA4ECE52C EQ PUSH2 0x105 JUMPI DUP1 PUSH4 0xD6029359 EQ PUSH2 0x10F JUMPI DUP1 PUSH4 0xF8A8FD6D EQ PUSH2 0x13F JUMPI PUSH2 0x7B JUMP JUMPDEST DUP1 PUSH4 0x1003E2D2 EQ PUSH2 0x7F JUMPI DUP1 PUSH4 0x12399D88 EQ PUSH2 0x9B JUMPI DUP1 PUSH4 0x1F7B6D32 EQ PUSH2 0xCB JUMPI JUMPDEST PUSH0 DUP1 REVERT JUMPDEST PUSH2 0x99 PUSH1 0x4 DUP1 CALLDATASIZE SUB DUP2 ADD SWAP1 PUSH2 0x94 SWAP2 SWAP1 PUSH2 0x252 JUMP JUMPDEST PUSH2 0x149 JUMP JUMPDEST STOP JUMPDEST PUSH2 0xB5 PUSH1 0x4 DUP1 CALLDATASIZE SUB DUP2 ADD SWAP1 PUSH2 0xB0 SWAP2 SWAP1 PUSH2 0x252 JUMP JUMPDEST PUSH2 0x172 JUMP JUMPDEST PUSH1 0x40 MLOAD PUSH2 0xC2 SWAP2 SWAP1 PUSH2 0x28C JUMP JUMPDEST PUSH1 0x40 MLOAD DUP1 SWAP2 SUB SWAP1 RETURN JUMPDEST PUSH2 0xD3 PUSH2 0x18A JUMP JUMPDEST PUSH1 0x40 MLOAD PUSH2 0xE0 SWAP2 SWAP1 PUSH2 0x28C JUMP JUMPDEST PUSH1 0x40 MLOAD DUP1 SWAP2 SUB SWAP1 RETURN JUMPDEST PUSH2 0x103 PUSH1 0x4 DUP1 CALLDATASIZE SUB DUP2 ADD SWAP1 PUSH2 0xFE SWAP2 SWAP1 PUSH2 0x252 JUMP JUMPDEST PUSH2 0x196 JUMP JUMPDEST STOP JUMPDEST PUSH2 0x10D PUSH2 0x1B0 JUMP JUMPDEST STOP JUMPDEST PUSH2 0x129 PUSH1 0x4 DUP1 CALLDATASIZE SUB DUP2 ADD SWAP1 PUSH2 0x124 SWAP2 SWAP1 PUSH2 0x252 JUMP JUMPDEST PUSH2 0x1D7 JUMP JUMPDEST PUSH1 0x40 MLOAD PUSH2 0x136 SWAP2 SWAP1 PUSH2 0x28C JUMP JUMPDEST PUSH1 0x40 MLOAD DUP1 SWAP2 SUB SWAP1 RETURN JUMPDEST PUSH2 0x147 PUSH2 0x1F7 JUMP JUMPDEST STOP JUMPDEST PUSH1 0x5 DUP2 SWAP1 DUP1 PUSH1 0x1 DUP2 SLOAD ADD DUP1 DUP3 SSTORE DUP1 SWAP2 POP POP PUSH1 0x1 SWAP1 SUB SWAP1 PUSH0 MSTORE PUSH1 0x20 PUSH0 KECCAK256 ADD PUSH0 SWAP1 SWAP2 SWAP1 SWAP2 SWAP1 SWAP2 POP SSTORE POP JUMP JUMPDEST PUSH0 DUP2 PUSH1 0x5 DUP2 LT PUSH2 0x180 JUMPI PUSH0 DUP1 REVERT JUMPDEST ADD PUSH0 SWAP2 POP SWAP1 POP SLOAD DUP2 JUMP JUMPDEST PUSH0 PUSH1 0x5 DUP1 SLOAD SWAP1 POP SWAP1 POP SWAP1 JUMP JUMPDEST PUSH0 DUP2 PUSH1 0x5 DUP2 LT PUSH2 0x1A9 JUMPI PUSH2 0x1A8 PUSH2 0x2A5 JUMP JUMPDEST JUMPDEST ADD PUSH0 SWAP1 SSTORE POP JUMP JUMPDEST PUSH1 0x5 DUP1 SLOAD DUP1 PUSH2 0x1C2 JUMPI PUSH2 0x1C1 PUSH2 0x2D2 JUMP JUMPDEST JUMPDEST PUSH1 0x1 SWAP1 SUB DUP2 DUP2 SWAP1 PUSH0 MSTORE PUSH1 0x20 PUSH0 KECCAK256 ADD PUSH0 SWAP1 SSTORE SWAP1 SSTORE JUMP JUMPDEST PUSH1 0x5 DUP2 DUP2 SLOAD DUP2 LT PUSH2 0x1E6 JUMPI PUSH0 DUP1 REVERT JUMPDEST SWAP1 PUSH0 MSTORE PUSH1 0x20 PUSH0 KECCAK256 ADD PUSH0 SWAP2 POP SWAP1 POP SLOAD DUP2 JUMP JUMPDEST PUSH0 PUSH1 0x40 MLOAD DUP1 PUSH1 0x60 ADD PUSH1 0x40 MSTORE DUP1 PUSH1 0x1 DUP2 MSTORE PUSH1 0x20 ADD PUSH1 0x2 DUP2 MSTORE PUSH1 0x20 ADD PUSH1 0x3 DUP2 MSTORE POP SWAP1 POP POP JUMP JUMPDEST PUSH0 DUP1 REVERT JUMPDEST PUSH0 DUP2 SWAP1 POP SWAP2 SWAP1 POP JUMP JUMPDEST PUSH2 0x231 DUP2 PUSH2 0x21F JUMP JUMPDEST DUP2 EQ PUSH2 0x23B JUMPI PUSH0 DUP1 REVERT JUMPDEST POP JUMP JUMPDEST PUSH0 DUP2 CALLDATALOAD SWAP1 POP PUSH2 0x24C DUP2 PUSH2 0x228 JUMP JUMPDEST SWAP3 SWAP2 POP POP JUMP JUMPDEST PUSH0 PUSH1 0x20 DUP3 DUP5 SUB SLT ISZERO PUSH2 0x267 JUMPI PUSH2 0x266 PUSH2 0x21B JUMP JUMPDEST JUMPDEST PUSH0 PUSH2 0x274 DUP5 DUP3 DUP6 ADD PUSH2 0x23E JUMP JUMPDEST SWAP2 POP POP SWAP3 SWAP2 POP POP JUMP JUMPDEST PUSH2 0x286 DUP2 PUSH2 0x21F JUMP JUMPDEST DUP3 MSTORE POP POP JUMP JUMPDEST PUSH0 PUSH1 0x20 DUP3 ADD SWAP1 POP PUSH2 0x29F PUSH0 DUP4 ADD DUP5 PUSH2 0x27D JUMP JUMPDEST SWAP3 SWAP2 POP POP JUMP JUMPDEST PUSH32 0x4E487B7100000000000000000000000000000000000000000000000000000000 PUSH0 MSTORE PUSH1 0x32 PUSH1 0x4 MSTORE PUSH1 0x24 PUSH0 REVERT JUMPDEST PUSH32 0x4E487B7100000000000000000000000000000000000000000000000000000000 PUSH0 MSTORE PUSH1 0x31 PUSH1 0x4 MSTORE PUSH1 0x24 PUSH0 REVERT INVALID LOG2 PUSH5 0x6970667358 0x22 SLT KECCAK256 0xBD PUSH5 0x3F36674281 LOG1 JUMP GASPRICE SELFBALANCE PUSH7 0x18FEDC618D40F5 0xD1 0x4C GASLIMIT SWAP14 KECCAK256 MSIZE PUSH18 0xC1B809A08C7264736F6C634300081A003300 "
		},
		"gasEstimates": {
			"creation": {
				"codeDepositCost": "164200",
				"executionCost": "infinite",
				"totalCost": "infinite"
			},
			"external": {
				"add(uint256)": "46822",
				"dynamicSizeArray(uint256)": "infinite",
				"fixedSizeArray(uint256)": "infinite",
				"length()": "2485",
				"pop()": "29463",
				"remove(uint256)": "5437",
				"test()": "295"
			}
		},
		"methodIdentifiers": {
			"add(uint256)": "1003e2d2",
			"dynamicSizeArray(uint256)": "d6029359",
			"fixedSizeArray(uint256)": "12399d88",
			"length()": "1f7b6d32",
			"pop()": "a4ece52c",
			"remove(uint256)": "4cc82215",
			"test()": "f8a8fd6d"
		}
	},
	"abi": [
		{
			"inputs": [
				{
					"internalType": "uint256",
					"name": "x",
					"type": "uint256"
				}
			],
			"name": "add",
			"outputs": [],
			"stateMutability": "nonpayable",
			"type": "function"
		},
		{
			"inputs": [
				{
					"internalType": "uint256",
					"name": "",
					"type": "uint256"
				}
			],
			"name": "dynamicSizeArray",
			"outputs": [
				{
					"internalType": "uint256",
					"name": "",
					"type": "uint256"
				}
			],
			"stateMutability": "view",
			"type": "function"
		},
		{
			"inputs": [
				{
					"internalType": "uint256",
					"name": "",
					"type": "uint256"
				}
			],
			"name": "fixedSizeArray",
			"outputs": [
				{
					"internalType": "uint256",
					"name": "",
					"type": "uint256"
				}
			],
			"stateMutability": "view",
			"type": "function"
		},
		{
			"inputs": [],
			"name": "length",
			"outputs": [
				{
					"internalType": "uint256",
					"name": "",
					"type": "uint256"
				}
			],
			"stateMutability": "view",
			"type": "function"
		},
		{
			"inputs": [],
			"name": "pop",
			"outputs": [],
			"stateMutability": "nonpayable",
			"type": "function"
		},
		{
			"inputs": [
				{
					"internalType": "uint256",
					"name": "idx",
					"type": "uint256"
				}
			],
			"name": "remove",
			"outputs": [],
			"stateMutability": "nonpayable",
			"type": "function"
		},
		{
			"inputs": [],
			"name": "test",
			"outputs": [],
			"stateMutability": "nonpayable",
			"type": "function"
		}
	]
}